:02000004080AE8
:1000000000000A0890950A08000006000600050195
:080010000402E50C00000000F1
:04001800E8770A0873
:10001C0009480A4908B5884205D0094A824202D0EB
:10002C00121A06F047FE0748074A0021121A06F07A
:10003C004FFE064808BD00BF000000201C940A08B3
:10004C004C01002050010020E0050020E0050020BC
:10005C0070B504F07DFC0025054E064CA41BA408CD
:10006C00AC4200D170BD56F8043B98470135F7E718
:10007C00D8930A0804940A0802F0A2B808B502F052
:10008C00A7F9BDE8084004F01BBC03F095BD03F0D4
:10009C0093BD03F099BD0078B0FA80F04009704729
:1000AC000123037070470EB403B503AB53F8042B54
:1000BC000121019304F04CFA02B05DF804EB03B09B
:1000CC00704738B5046805467CB16368013B6360D2
:1000DC005BB9236820469B689847A368013BA360E3
:1000EC001BB923682046DB689847284638BD0000BA
:1000FC002DE9F04788B005460C4603F02DFD38B9C4
:10010C0004F0B6FF1F49FFF7CEFF08B0BDE8F0873B
:10011C0004F026FB064604F02FFB074604F038FBE0
:10012C00804604F041FB814604F052FB824604F009
:10013C0057FB33462A46CDE904041349CDE9029A0C
:10014C00CDE90078114803F04FFD04F091FF0F4901
:10015C00FFF7A9FF0E4B0D4A1B780E498DF80030A6
:10016C0006A83C2304F052FD07A8FFF7AAFF20467F
:10017C0001F060FA4FF4FA6008B0BDE8F04704F003
:10018C0045BB00BFFC770A083B780A081602002022
:10019C00500100209C780A082DE9F04F8BB00646E0
:1001AC000C46154603F0D8FC38B904F061FF24491D
:1001BC00FFF779FF0BB0BDE8F08F04F0D1FA0746DA
:1001CC0004F0DAFA804604F0E3FA814604F0ECFA23
:1001DC00824604F0FDFA834604F002FB3B463246AD
:1001EC00CDE903B01749CDE90545CDE9019ACDF824
:1001FC000080154803F0F8FC04F03AFF1249FFF7B1
:10020C0052FF124B104A1B7811498DF8003008A888
:10021C003C2304F0FBFC09A8FFF753FF2B462246B6
:10022C000C49094803F0E0FC2046294601F074FC17
:10023C004FF4FA600BB0BDE8F04F04F0E7BA00BF22
:10024C00FC770A08A8780A08160200205001002042
:10025C009C780A080D790A080122014B1A70704724
:10026C005001002030B5613887B0192800F2BC80ED
:10027C00DFE800F03338BA2DBABABA0D18BABABAE8
:10028C00BABABA57BABA406250BA727A828D01229F
:10029C00564B1A600A22564B1A6007B0BDE8304024
:1002AC0001F0E2B9534CE368EF2B01D80A33E36059
:1002BC0005F0AEF9142200204E4903F02DFAE26845
:1002CC004D494E4807B0BDE83040FFF765BF494C7B
:1002DC00E3680A2BECD90A3BE9E707B0BDE83040EC
:1002EC0001F046BD0120464B196807B0BDE830400F
:1002FC0003F078B800243F4D42486C6001F09AF945
:10030C0005F086F914222946002007B0BDE83040DC
:10031C0003F002BA0024374D3B4801F08BF92C61F5
:10032C00EEE70123334C3948636001F083F905F0A3
:10033C006FF914222146E7E700F04EFA344B354AA8
:10034C001B6812683449354803F04EFC334807B03B
:10035C00BDE8304001F06EB9314801F06BF905F0A1
:10036C0057F914222349CFE72E4801F063F907B05F
:10037C00BDE8304000F098B92B4801F05BF937200C
:10038C0000F0FEFB07B0BDE8304001F0CFBD02A885
:10039C0003F0EAFB02A9254801F0BEFA02A803F01B
:1003AC0099FF234B00221B7822498DF8003002A8BC
:1003BC003C2304F02BFC039C7CB16368013B636021
:1003CC005BB9236820469B689847A368013BA360F0
:1003DC001BB923682046DB6898474FF4FA7007B0C6
:1003EC00BDE8304004F012BA07B030BD68030020FD
:1003FC00640300201003002015790A082F790A08DD
:10040C002400002037790A084C790A086F790A0809
:10041C00600300205C03002085790A08BC030020DF
:10042C0097790A08B1790A08BE790A08CE790A08C0
:10043C0051010020DD790A0808B504F019FE0368A3
:10044C005B699847BDE80840C0B2FFF70BBF0000DE
:10045C000022014B1A70704751010020002300222A
:10046C000383C261036243628362C36280F83030EB
:10047C0080F831304386704738B50446154602F093
:10048C00DBFA4FF47A7320462575E382FFF7E6FF1B
:10049C0038BD00002DE9F0410B68044603624B683F
:1004AC0000F1200543620B78262B60D008D8102B66
:1004BC000AD0222B59D0002084F83100BDE8F081FD
:1004CC00282BF8D1022300E0012384F83130204698
:1004DC0002F0BFFA2946204602F06BFB227D442134
:1004EC00204602F03BFBE08A04F090F9204602F033
:1004FC00B0FA2946204602F05CFB0022B8212046C7
:10050C0002F02CFB00222046114602F027FB20466D
:10051C0002F09FFA2946204602F04BFB0022BE2136
:10052C00204602F01BFB94F83130042B04D100223E
:10053C002046114602F012FB04F128052E4604F168
:10054C003107204602F025FB05F8010BBD42F8D11E
:10055C000821304602F0B0FB94F83030834208D0CA
:10056C000123002084F83330A8E70323ADE70423EC
:10057C00ABE7238D94F82950238394F83130042B66
:10058C0047D194F82A8045EA0823ED082383404696
:10059C0084F8295005F0AAFE05F018FB06462846FB
:1005AC000F4605F0A3FE05F011FB0022244B05F0CD
:1005BC0065FB18F0800F02460B4625D030463946B5
:1005CC0005F0A4F905F08CFD15E094F82C20B4F995
:1005DC00183012F0600202D123F007032DE0202A1C
:1005EC000CD0402A0DD0B4F9180005F083FE4FF062
:1005FC00765105F0D3FEE06101205FE723F00303A1
:10060C001BE023F0010318E03046394605F080F971
:10061C00D8E7032BF0D8012BD7D8EDD1B4F918308B
:10062C0094F82F20DB00102A2383DCD194F82E20A1
:10063C0023F00F03C2F10C0213442383D3E700BF52
:10064C000000A03F38B500F1200529460446FFF70D
:10065C0005FF02F0C6FA38B90123204684F832307F
:10066C0002F0B9FA002038BD0721284602F024FB1D
:10067C0094F82730834203D0012384F83330F1E718
:10068C0029462046BDE83840FFF704BFC0697047D3
:10069C00036A0B60436A4B60704790F832007047F6
:1006AC0090F83300704700002DE9F0412D4E04F016
:1006BC00DFFC2D49FFF7F7FC374605253446DFF8FC
:1006CC00AC8002F077F902F08FF9386004F0D0FCBE
:1006DC00414657F8042BFFF7E6FC00F0CDFE9620C0
:1006EC0004F094F8013DECD1D4E900321344A26833
:1006FC002F461344E2681344226905241344B3FBC8
:10070C00F4F456F8042B01352744052DA7EB02070A
:10071C00F7D1042B08D816491648FFF7E9FC4FF41B
:10072C007A742046BDE8F08104F0A2FC0F3C3A46F6
:10073C001149FFF7B8FC04F09BFC22460F49FFF768
:10074C00B2FC2146C4F5B4740D4844EAE47401F0DB
:10075C00E3F904F08DFC22460A49FFF7A4FC00F0F3
:10076C008BFEDEE754010020F2790A08097A0A08A8
:10077C00217A0A084B7A0A08527A0A08657A0A081A
:10078C00857A0A08917A0A080EB403B503AB53F8BC
:10079C00042B0021019303F0DBFE02B05DF804EBA7
:1007AC0003B0704707B50A48FFF77AFF40B104F071
:1007BC005FFC084903F092FE002003B05DF804FBD7
:1007CC0003486946FFF764FF9DF80700F5E700BF93
:1007DC0068010020AE7A0A082DE9F74304F048FCC2
:1007EC00234903F08EFE0026224DDFF88C80DFF8C3
:1007FC008C902846FFF726FF20B3FFF7D3FF044663
:10080C0004F036FC07462846FFF740FF05F0DEF9FA
:10081C0033462246CDE9000141463846FFF7B4FF86
:10082C002146484601F078F9FA2003F0EFFF252C19
:10083C0006F1010613D12846FFF728FF05F074FFD7
:10084C000F4B18602846FFF728FF0028D1D0094825
:10085C00FFF71CFF05F068FF03B0BDE8F083972C91
:10086C00F0D12846FFF712FF05F05EFF054BE8E7D5
:10087C00BA7A0A0868010020CC7A0A08F77A0A08C2
:10088C005C03002060030020002205210148FFF7D3
:10089C00F3BD00BF6801002003685B69184770470F
:1008AC0010B504464C21FFF7F4FB204610BD10B5E3
:1008BC0090F84940621CD2B204443F2A80F8492087
:1008CC00617202D903681B699847012010BD06F0BC
:1008DC00F7B8000010B504F0CBFB5B2103F002FE6F
:1008EC0004F0C6FB044602F075FE0A2201462046BF
:1008FC0003F011FE04F0BCFBBDE81040014903F00D
:10090C00EDBD00BF017B0A0813B50446054B002260
:10091C001B788DF800303C2304F078F9204602B0A7
:10092C0010BD00BF14020020002340681A4619466F
:10093C0003F0AAB808B502F0D7FE034B1860BDE867
:10094C00084003F0F9B800BFE80400200346006833
:10095C0020B15B68984201D206F0B2B80020704713
:10096C0038B50568044645B143689D4205D2284612
:10097C0006F011FA013005442560204638BDF8B563
:10098C0004460D46476821B903687A1C4260D95564
:10099C00F8BD084606F0FFF9A368461CF2199A4206
:1009AC00F6D8206832462946384406F083F9606848
:1009BC0030446060ECE7000038B5044625680B460F
:1009CC00D4E90101044A091A284403F01DF96368AB
:1009DC0001300344636038BD047B0A0838B5044613
:1009EC0025680B46D4E90101044A091A284403F08E
:1009FC000BF9636801300344636038BD077B0A0858
:100A0C00F0B5476B044687B02FB3FFF763FF04F0D4
:100A1C002FFB334903F062FD04F02AFB616B03F0FA
:100A2C005DFD04F025FB3A2103F05CFD04F020FB96
:100A3C0005460A22218F03F06EFD284603F055FD72
:100A4C0000232046228F616B03F00EFC431E58429C
:100A5C00584107B0F0BDFFF73DFF04F009FB2049FA
:100A6C0003F03CFD04F004FB0A2294F8231003F07D
:100A7C0052FD04F0FDFA2E2103F034FD04F0F8FAD7
:100A8C000A2294F8221003F046FD04F0F1FA2E210C
:100A9C0003F028FD04F0ECFA0A2294F8211003F07C
:100AAC003AFD04F0E5FA2E2103F01CFD04F0E0FA07
:100ABC00254606460A2215F8201F03F02CFD304669
:100ACC0003F013FD074B01AE00930FCD0FC62B683F
:100ADC006946337020463B46228F03F053FAB5E744
:100AEC000B7B0A08A08F0A0810B5174C94B020464F
:100AFC00FFF71AFF00226068114602F0E5FF28B1EB
:100B0C00002360681A46194602F0EEFF38220021D5
:100B1C0006A806F0DDF84C2301930C4B6068029399
:100B2C000B2303930A4B01AA04930D230593032370
:100B3C008DF818300023194602F0CEFF14B0BDE832
:100B4C00104003F001B800BFB00400201A7B0A0863
:100B5C00267B0A0838B503F00FFE3C25044603F04B
:100B6C0017FE05FB0400054B186003F0F9FD044665
:100B7C0003F002FE05FB040038BD00BFFC0300209F
:100B8C0010B5044603F0F8FD241A48BF3C3404F0B9
:100B9C006FFA22460249FFF786FA204610BD00BFC5
:100BAC00347B0A0838B50A2004F0B3FC4FF4204417
:100BBC000B4D0C4B6843B0FBF4F018600C2004F0A8
:100BCC00A8FC6843B0FBF4F0074B18600B2004F052
:100BDC00A0FC6843B0FBF4F0044B186038BD00BFB8
:100BEC004C2A0200A0010020A40100209C0100203E
:100BFC0008B502F07FF801F0CFFE0121084604F0A1
:100C0C004BFC0121022004F047FC0021022004F0DF
:100C1C0054FC0021012004F050FC0021084602F095
:100C2C005BFA00210E4B1860084602F013FB0D4BCB
:100C3C0001211860072004F02FFC0021062004F08D
:100C4C002BFC04F0E5FC14220020074902F05CFDAB
:100C5C0040F2E112054B1A600022054B1A6008BDE8
:100C6C005003002058030020100300202400002013
:100C7C002403002038B5062004F038FC0128044673
:100C8C0010D1094B094918600948FFF731FA094B93
:100C9C005D68012D04D108490548FFF729FA2C4657
:100CAC00204638BD0024F2E728030020597B0A08AF
:100CBC00737B0A08100300207B7B0A0810B5062002
:100CCC0004F014FC431E064C58425841206004F0BA
:100CDC00CFF922680349FFF7E6F9206810BD00BF81
:100CEC0028030020917B0A082DE9F04385B003F01E
:100CFC005BFD044603F06CFD054603F071FD0646F2
:100D0C0003F02EFD074603F037FD804603F040FD4F
:100D1C00DFF824902B462246CDE90280074948464D
:100D2C00CDE9006702F060FF04F0A2F9494605B076
:100D3C00BDE8F04303F0D2BBBC030020A67B0A083D
:100D4C0008B50868FFF7C3FD012805D1BDE80840C8
:100D5C000021084602F024BB08BD08B50868FFF75F
:100D6C00B6FD012804D1BDE808400F2102F018BBE4
:100D7C0008BD08B500234377006803F0ADF9BDE862
:100D8C00084002F02BBC00002DE9F04301EB0208F7
:100D9C008FB0414507460D469146CDE9051880F0C8
:100DAC009E8005A80E88FFF7DBFD0368434580F0A5
:100DBC00968005A8FFF7CAFD47F276239E42C4B27F
:100DCC0000F0B58028D847F261239E4200F08A805B
:100DDC0047F264239E424DD046F670539E4228D172
:100DEC00684E694FDFF8A491059B984577D905A803
:100DFC00FFF7ACFDC5B205A8FFF7B2FD059C314667
:100E0C00204605F09BFF014638BB284604F044FB06
:100E1C0005A8FFF7A5FDE7E747F264739E424AD0A9
:100E2C0047F276739E4200F0928047F261739E42C5
:100E3C006AD0FFF74FFD04F01BF9554903F04EFB48
:100E4C0004F016F9294603F05CFB00230222CDE9DD
:100E5C000133009219467A8B29E03946204605F079
:100E6C006DFF28B14946204605F068FF0028CFD118
:100E7C000121CAE70AAB079300251023454907A8AF
:100E8C00CDE90853FFF77BFD07A82146FFF794FD3A
:100E9C00204604F02BFB014607A8FFF79FFD2A46CE
:100EAC001421089BCDE90155013B0093079B384663
:100EBC0000F0E8FA13E005A8FFF752FD0368984527
:100ECC000DD9A4B20121204604F0E6FA05A8FFF7DB
:100EDC003DFD011E18BF0121204604F0EEFA0FB0B3
:100EEC00BDE8F0830AAB07930025102307A82A4915
:100EFC00CDE90853FFF743FD07A82146FFF75CFD3A
:100F0C00204604F006FBC6E705A8FFF729FD036899
:100F1C009845E4D9A4B20121204604F0BDFA05A8F5
:100F2C00FFF714FD0146204604F00AFBD7E72046E4
:100F3C008DF8284002F054FB03460AA823B1174A47
:100F4C00934201D09847CAE702F046FBC7E705A8D1
:100F5C00FFF706FD059B20465D1BA9EB0505CDE9BA
:100F6C000A350C958DF81C4002F044FB03460AA987
:100F7C0007A823B10A4A934201D09847AFE702F081
:100F8C002CFBACE7C47B0A086B7C0A08C77B0A08FD
:100F9C00D17B0A08CB7B0A08CE7B0A08E5350A0808
:100FAC00E7350A082DE9F0418CB004AF0446052260
:100FBC000068391D03F012FB002849D0052804D025
:100FCC0000202037BD46BDE8F081B7F805305BBA8C
:100FDC009AB2A7F80530B7F807305BBA1FFA83F856
:100FEC00A7F80730002AEBD03B79002B53D102F045
:100FFC00F1FA657FE060B7F80700002D47D1B7F82C
:10100C000530012B43D1092824D0C82801D004284D
:10101C002AD10125FFF75EFC04F02AF8B54903F04C
:10102C005DFA04F025F86369E1680A22C91A03F035
:10103C0072FA04F01DF8B04903F063FAE368204635
:10104C006361657700F058FEFFF774FC02F0C6FA96
:10105C000120B6E7FFF73EFC04F00AF8A74903F0BD
:10106C0050FA03236377ABE7FFF734FC04F000F886
:10107C00A34903F033FA03F0FBFF04460A22B7F846
:10108C00071003F048FA204603F02FFA98E70538CA
:10109C0018BF012095E7B8F5806F15D9FFF71AFC3A
:1010AC0003F0E6FF974903F019FA03F0E1FF054658
:1010BC000A22B7F8071003F02EFA284603F015FAA7
:1010CC002046FFF756FEC3E76E4608F10803DB081F
:1010DC00A6EBC3039D4604AD42462946206803F0A7
:1010EC007DFA80454FF0000077D1B7F80730E8540F
:1010FC0002F070FA3B79E060142B00F0B88038D81D
:10110C000F2B00F0B48007D8022B39D0062B49D016
:10111C002046FFF72EFE50E0112BF9D100233B7037
:10112C00B7F807302B449D42C7E9035345D207F16A
:10113C000C002C68FFF714FCFA68B7F80730551B45
:10114C005D1B714BC7E905259C42FD6100F0B98020
:10115C0000F29A806D4B9C4200F0A78003F500339F
:10116C0003339C4229D1384607F1140102F035FAB9
:10117C0023E0292B23D0372B00F0A9801D2BC7D1BE
:10118C00637F7BB9FFF7A6FB03F072FF604903F0A6
:10119C00B8F901232046637700F0AEFDFFF7CAFBD8
:1011AC0002F01CFA0023C821B7F805202046009154
:1011BC00CDE90133194600F065F901200DE0A36873
:1011CC001BB9202002F0F8FCA060B7F80780A844F7
:1011DC004545C7E9055802D30020B546F1E6294636
:1011EC0000252022A06805F0F2FDA36807F1140089
:1011FC00DD77FFF7B5FB0368984536D9786920B1E0
:10120C00BB6998422FD205F05FFC85B2FFF762FBF9
:10121C0003F02EFF3F4903F061F903F029FFA168A9
:10122C0003F05CF903F024FF3A2103F05BF903F0BF
:10123C001FFF80460A22294603F06DF9404603F051
:10124C0054F9206802F048FF2368A2681D875A638E
:10125C000023637702F0BEF9A0F59C500838C4E96E
:10126C0003006061A9E72846CFE75025CEE77B68ED
:10127C002946C3F30F2363832046B7F80720FFF7F3
:10128C0083FD0023638398E7234B9C4213D003F127
:10129C009F6303F5003303F580739C428DD1384670
:1012AC0007F1140102F099F987E7384607F11401A8
:1012BC0002F093F981E7384607F1140102F08DF939
:1012CC007BE7384607F1140102F087F975E7B7F8A8
:1012DC000730002B3FF471AFFFF7FCFA03F0C8FEA8
:1012EC000E4903F0FBF803F0C3FE294603F009F99D
:1012FC0063E700BFE27B0A08F07B0A08F57B0A086B
:10130C00087C0A081F7C0A086D6574616F746100A3
:10131C00307C0A08367C0A0861636F6E467C0A08CA
:10132C00F0B5044685B00D46FFF704FB637F022B36
:10133C001ED0237F628B0133DBB22377AAB9022B39
:10134C0013D8206802F01FFFA0B125B9206802F065
:10135C0089FE00280EDD2046FFF724FE0028F5D17B
:10136C00206802F0B9FE02F039F9237F013B2377A4
:10137C0005B0F0BD02F02EF90546206802F003FF1F
:10138C00677F0646012F2CD120B965612046FFF7F7
:10139C00F0FCEAE744F63822E368EB1A934207D9EB
:1013AC00FFF798FA03F064FE274903F0AAF8EDE77B
:1013BC0042F21072934203D82369EB1A9342D4D9A8
:1013CC0040F6B8326369EB1A9342CED9002306215A
:1013DC001A462046CDE90133009300F053F86561BD
:1013EC00C3E7002FC1D16369EB1A78B140F6B8326C
:1013FC009342BAD9FFF76EFA03F03AFE134903F0A1
:10140C0080F8206802F068FE6777AEE741F2883218
:10141C009342AAD9206802F05FFE2068FFF7F0FA29
:10142C000028DCD0012567682583384605F0B3FC1D
:10143C003B4600902A461D212046CDE9016600F06E
:10144C0021F82369636190E74F7C0A08617C0A08E4
:10145C0070B5142500244543064EA54208DD322004
:10146C0003F0D4F900213046FFF75AFF0134F4E7BA
:10147C0070BD00BFA801002000210148FFF750BF3C
:10148C00A80100202DE9F04F83B0044600AF00689E
:10149C00884616469946EB463D6B02F074FE0028D2
:1014AC007FD0B8F11D0F04D84C4B23FA08F3DB079F
:1014BC0002D4637F012B74D146B9668B36B9238B6A
:1014CC0001339BB2002B71D02383268BA8F10C0324
:1014DC00082B16D8D4E90323934238BF134603F1E3
:1014EC00420A02F077F8AAEB0000002860DB00212A
:1014FC002046FFF715FF02F06DF8AAEB000000285C
:10150C00F5DAB9F1000F5AD06B1D7A6B76BA002A56
:10151C00BA6B08BF002203EB020A0AF1070323F09F
:10152C000703ADEB030DBB6BC7F804D0EA18C2F38D
:10153C00072343EA02238DF80080ADF80160ADF873
:10154C000330B9F1000F3CD0002D3AD02A46494661
:10155C000DF1050005F0AEFB681D7B6B3BB1BB6B61
:10156C002BB11A467B68796B184405F0A3FB002558
:10157C0055452AD2AAEB05027B68B2F5806F28BFCD
:10158C004FF480622068591902F031FC06460020A5
:10159C0002F01EF8BEB9206802F09EFD667702F0DC
:1015AC001DF8DD460C37BD46BDE8F08F01238BE7F7
:1015BC00217F0029A5D12046FFF7B2FEA1E7052324
:1015CC00A3E70520C9E73544D2E703D02046FFF74F
:1015DC00D0FBE6E701F0FEFF2061E2E745000020CA
:1015EC00F0B590F8496004468BB0E6B105AB002528
:1015FC0007930823077A0D4907A8CDE90853FFF78D
:10160C00BEF9394607A8FFF7D7F904F1090301938E
:10161C00089B2A4600931421079B05480296FFF766
:10162C0031FF84F849500BB0F0BD00BF6F7C0A0845
:10163C00A801002010B50446FFF756FB03F018FD77
:10164C00214602F05EFF064B1B68012B06D121469A
:10165C00044802F056FF0348FFF7C2FF10BD00BF5D
:10166C00680300206C03002008B51148FFF7E2FF67
:10167C001048FFF7DFFF1048FFF7DCFF0F48FFF7BC
:10168C00D9FF0F48FFF7D6FF0E48FFF7D3FF0E48E0
:10169C00FFF7D0FF0D48FFF7CDFF0D48FFF7CAFF4E
:1016AC000C48FFF7C7FFBDE808400B48FFF7C2BF67
:1016BC00727C0A087A7C0A08867C0A089A7C0A08DA
:1016CC00BC7C0A08DC7C0A08F07C0A08057D0A0848
:1016DC002C7D0A08497D0A085A7D0A0808B5086855
:1016EC00FFF7F5F801280DD10748FFF7A3FF0023FA
:1016FC00064A07491360074A07481360BDE80840CB
:10170C00FEF7F6BC08BD00BF787D0A086803002010
:10171C008D7D0A0864030020737B0A0810B50868E5
:10172C00FFF7D5F8012811D1094C606003F070FF68
:10173C0021461422002001F0EFFF06480649FEF76F
:10174C00D7FCBDE810400548FFF774BF10BD00BFC3
:10175C0010030020737B0A08AF7D0A08CF7D0A08AE
:10176C0038B50868FFF7B3F8012812D10024094DE9
:10177C006C6003F04DFF29462046142201F0CCFF8B
:10178C0005480649FEF7B4FCBDE838400448FFF7AD
:10179C0051BF38BD10030020737B0A08F57D0A0881
:1017AC00147E0A0808B50868FFF791F801280BD1D8
:1017BC0006490748FEF79CFCFA2001F053FEBDE8F1
:1017CC0008400448FFF736BF08BD00BF397E0A0841
:1017DC00737B0A08607E0A0808B50868FFF777F87B
:1017EC0001280ED10021084601F034FD054B0649B5
:1017FC0018600648FEF77CFCBDE808400448FFF77B
:10180C0019BF08BD58030020807E0A08737B0A08A4
:10181C00A37E0A0810B50868FFF759F8012811D102
:10182C00094CA06003F0F4FE21461422002001F0C4
:10183C0073FF06480649FEF75BFCBDE810400548FF
:10184C00FFF7F8BE10BD00BF10030020737B0A0821
:10185C00CB7E0A08F77E0A0838B50868FFF737F818
:10186C00012812D10024094DAC6003F0D1FE2946A9
:10187C002046142201F050FF05480649FEF738FCBB
:10188C00BDE838400448FFF7D5BE38BD1003002032
:10189C00737B0A08137F0A083D7F0A0808B508689D
:1018AC00FFF715F801280ED1074BD96801F014FC8D
:1018BC00064B074918600748FEF71AFCBDE80840BC
:1018CC000548FFF7B7BE08BD1003002054030020E5
:1018DC00577F0A08737B0A08847F0A0808B50868D2
:1018EC00FEF7F5FF01280ED10021084601F0F4FBAC
:1018FC00054B064918600648FEF7FAFBBDE80840A0
:10190C000448FFF797BE08BD54030020B17F0A08B6
:10191C00737B0A08B07F0A0838B504460D46FFF7FA
:10192C00E3F92B6822460A490A4802F05DF903F0F4
:10193C009FFB084902F0E5FD074B1B68012B06D104
:10194C000449064802F0DDFD0448FFF749FE38BDA6
:10195C00DB7F0A0816020020680300206C030020BD
:10196C0010B50446FFF7C0F903F082FB216802F0C2
:10197C00C8FD064B1B68012B06D12168044802F0F8
:10198C00C0FD0348FFF72CFE10BD00BF680300200C
:10199C006C03002070B505461E4E8CB00C4604A896
:1019AC00314602F0E1FC2946684602F0DDFC69464E
:1019BC0004A802F042FD014608A802F014FD08A894
:1019CC00FFF7CEFF08A802F085FC684602F082FC07
:1019DC0004A802F07FFC314604A802F0C5FC2146A5
:1019EC00684602F0C1FC694604A802F026FD0146D7
:1019FC0008A802F0F8FC08A8FFF7B2FF08A802F04C
:101A0C0069FC684602F066FC04A802F063FC0CB0AA
:101A1C0070BD00BFE17F0A0870B50D468CB0374928
:101A2C0004A802F0A1FC2946684602F09DFC694618
:101A3C0004A802F002FD014608A802F0D4FC08A894
:101A4C00FFF78EFF08A802F045FC684602F042FC46
:101A5C0004A802F03FFC294604A802F085FC2849A2
:101A6C0008A802F081FC08A904A802F008FD254C86
:101A7C00A368002B14BF002600F0010608A802F092
:101A8C0029FC04A802F026FC66B10123A36003F034
:101A9C00BFFD21460020142201F03EFE1A491B48CE
:101AAC00FEF726FB294604A802F05EFC184908A89C
:101ABC0002F05AFC08A904A802F0E1FCA368012B6F
:101ACC0014BF002500F0010508A802F003FC04A8CF
:101ADC0002F000FC7DB10025A56003F099FD2846BD
:101AEC001422084901F018FE0A4908480CB0BDE858
:101AFC007040FEF7FDBA0CB070BD00BFE17F0A0864
:101B0C00EE7F0A0810030020F27F0A08737B0A0894
:101B1C0092830A081F800A0838B504460D46FFF761
:101B2C00E3F82B4622460A490A4802F05DF803F016
:101B3C009FFA084902F0E5FC074B1B68012B06D104
:101B4C000449064802F0DDFC0448FFF749FD38BDA6
:101B5C00DB7F0A0816020020680300206C030020BB
:101B6C00F7B50022434B1146586801F085FF064635
:101B7C0001F0F2FF0746FFF7B7F83F4B1B68012B4C
:101B8C0003D13E493E4802F0BCFC3E4B3E4D196829
:101B9C003E483F4CFFF7C0FFFFF704F829683D486B
:101BAC00FFF7BAFF21683C48FFF7B6FF3B4B3C48B8
:101BBC001968FFF7B1FF2B68B3F57A7F0AD903F0E8
:101BCC0057FA2A683749FEF76EFA2A6836493748B9
:101BDC00FEF7E2FA2368B3F57A7F0AD903F048FAE4
:101BEC0022683349FEF75FFA226832492F48FEF724
:101BFC00D3FA012003F07AFC2F4B0128186006D190
:101C0C002E48FFF717FD2E492E48FEF771FA0220D9
:101C1C0003F06CFC2C4B0128186006D12B48FFF705
:101C2C0009FD2B492748FEF763FA2A4B1B68012B49
:101C3C0006D12948FFF7FEFC28492248FEF758FA3E
:101C4C0003F016FA264B27491A68FEF72CFA03F014
:101C5C000FFA254B25491B68254A0093002F14BF0A
:101C6C000B461346002E18BF0A462249FEF71BFAF4
:101C7C0003B0F0BDB004002068030020BC030020BA
:101C8C006C030020F4030020A00100204A800A0805
:101C9C00A401002083800A08B8800A089C01002057
:101CAC0052800A0862800A087C800A0893800A081D
:101CBC0097800A08B1800A0854030020C8800A08DB
:101CCC00D9800A08EB800A0858030020F2800A0821
:101CDC0007810A08500300201C810A082E810A087B
:101CEC002800002040810A082C03002092830A0857
:101CFC00EE7F0A0851810A0800B595B004AB0022AA
:101D0C0001935023112100930292034BFFF7BAFB6E
:101D1C0015B05DF804FB00BF8C850A08F0B5ADF278
:101D2C00244D08AB00240F4605934FF480631646F0
:101D3C0005460E4905A8CDE90643FEF720FE3946B7
:101D4C0005A8FEF739FE314605A8FEF718FE069BDE
:101D5C002246013B009314212846CDE90144059B02
:101D6C00FFF790FB0DF2244DF0BD00BF6F7C0A080D
:101D7C0030B54F4C87B02046FFF732FC4D4A217AE4
:101D8C004D48FFF7CBFFFEF7AFFF4C4B1B68012B09
:101D9C0003D120464A4902F0B4FB3720FEF7F0FE8F
:101DAC00484902A802F01FFB02A94748FFF7B4FDFF
:101DBC0002A802F08FFA454902A8FEF7A5FD03A878
:101DCC00FEF77FF94FF4FA7002F020FDFEF776FF74
:101DDC00FEF750FF3E4B3F4C1B783F4A3F498DF876
:101DEC00003002A83C2302F011FF03A8FEF769F9AA
:101DFC0003F00EFC14222146002001F085FC216822
:101E0C003748FFF789FE61683648FFF785FEA16801
:101E1C003548FFF781FEE1683448FFF77DFE216904
:101E2C003348FFF779FEA26832493348FEF7B4F91C
:101E3C00E26832493048FEF7AFF922692C492E4846
:101E4C00FEF7AAF9FEF730FC2D4B024618602D491F
:101E5C002948FEF7A1F9A368012B03D12A4926488A
:101E6C00FEF746F92269052A06D92849224807B007
:101E7C00BDE83040FEF790B9254C264DFEF7ACFC82
:101E8C0021682548FFF748FE29682448FFF744FEDF
:101E9C002B68226822490A4801F0A6FE084921480D
:101EAC00FEF726F9204807B0BDE83040FFF7C2BB6B
:101EBC006C03002074810A08A8010020680300202C
:101ECC00BC03002030030020CE790A08DD790A0813
:101EDC0015020020100300201602002036830A0889
:101EEC0078810A088E810A08A4810A08BA810A0836
:101EFC00D0810A08E6810A084B7A0A08F3810A089D
:101F0C002800002005820A0814820A0842820A0866
:101F1C005C030020600300207E820A088A820A0883
:101F2C0085790A08737B0A0896820A082DE9F04124
:101F3C00051E88B040F3DF80782DA8BF78256F4F41
:101F4C006F4B7C681B686F4E1C4333681C4340F01E
:101F5C00CF806D48FFF76EFB2146204601F0BCF8A0
:101F6C006A4B21461860204601F074F9684B2146F3
:101F7C001860204601F014FA4FF03C08306001263E
:101F8C002146012003F099FA2146022003F095FA2C
:101F9C002A4660496048FEF7FFF84FF47A7002F069
:101FAC0035FC08FB05F55D4B32461B680DF116013F
:101FBC00029306A80DF11503CDE90065ADF8166086
:101FCC008DF8156001F0BCFE5548FFF733FB554802
:101FDC00FEF7AAFC41F2883002F018FC01F0B4FDC7
:101FEC0041F2883002F012FC01F0B6FD002834D02A
:101FFC004D494E48FEF77CF8FA684D494B48FEF7C0
:10200C00CBF8334622464B49CDE900444A4801F00F
:10201C00BBFD234622464949CDE90044484801F01E
:10202C00B3FD4FF4FA7002F0F1FB434906A8FEF73A
:10203C006BFC07A8FEF745F84FF4FA7002F0E6FBCC
:10204C00404B06A81B78404A8DF800303F49434668
:10205C0002F0DCFD07A8FEF734F8FEF77BFD3C4BE5
:10206C001860FEF7C5FD03F0D3FA142200202349B3
:10207C0001F04AFBFB681E3BD22B08D95A23FB60AC
:10208C0003F0C6FA142200201C4901F045FBBB6882
:10209C00012B03D12F492548FEF72AF82E4C2F4D42
:1020AC00FEF79AFB02F0E4FF22682B682C49FDF73F
:1020BC00FAFF22682B682B492B4801F095FD2A4921
:1020CC001A48FEF715F8FFF753FE02F049FB0446D9
:1020DC0002F046FB082C04DD0A2802DC5F2001F02C
:1020EC00C1F90023214A1360214A1360214A13606D
:1020FC0008B0BDE8F081052521E700BF10030020E2
:10210C002803002050030020B0820A08540300204A
:10211C0058030020C8820A084B7A0A0810020020D3
:10212C00E3820A08B0040020F5820A0807830A0833
:10213C000F830A08A1190A08DD790A08251A0A086A
:10214C0028830A08150200201602002036830A088C
:10215C00F403002014820A085C03002060030020B2
:10216C0043830A0885790A08BC0300204C0300202D
:10217C002C0300206803002008B50868FEF7A7FBB5
:10218C00012811D1094B18600948FFF753FA094986
:10219C000948FDF7ADFF0322084B1A60FFF7E8FD75
:1021AC00BDE80840FFF7DCBC08BD00BF6803002099
:1021BC0060830A0874830A08737B0A08640300208E
:1021CC00F0B587B002F054FF4FF4E13102F044FF58
:1021DC004FF4FA6002F01AFBFEF786FC4FF08040D9
:1021EC0002F072FA02F044FF6249FDF75CFF02F064
:1021FC003FFF6049FDF757FF02F03AFF5E49FDF7DC
:10220C0052FF02F035FF5D49FDF74DFF5C4C02F0CB
:10221C002FFF5949FDF747FF02A801F0A5FC02A9C1
:10222C00204602F0EBF802A802F054F802F020FF6E
:10223C002168FDF738FF40F6B83002F0E7FA01F0FC
:10224C008BFC20B30024012322464E49CDE90044E7
:10225C004D4801F099FC4C4902A8FEF755FB03A828
:10226C00FDF72FFF234622464849CDE90044484854
:10227C0001F08AFC474B02A81B78474A8DF80030C6
:10228C0046493C2302F0C2FC03A8FDF71AFF40F6B6
:10229C00B83001F09DF9424C424B0026636001F0CE
:1022AC0099F9A0F59C500838C4E903006061FEF769
:1022BC0011FB02F0DDFE3C4902F023F923683B4A96
:1022CC0042F227375A6350221A87206801F004FF24
:1022DC00667701F07FF90546637F012B0CD001F086
:1022EC0079F9401BB84204D800212046FFF718F8B2
:1022FC00F2E7637F012BE8D140F6B8302C4C02F0AA
:10230C0085FA1A222B492C48FDF746FFFEF770FC84
:10231C0003F07EF914222146002001F0F5F9E36860
:10232C001E3BD22B08D95A23E36003F071F9142217
:10233C002146002001F0F0F9E26820491E48FDF723
:10234C002BFFA368012B03D11D491B48FDF7D0FEC1
:10235C00FFF70EFDFFF788F9FEF7FCFB4EF6602247
:10236C00184B1860184B1A600022184B1A6007B0F3
:10237C00F0BD00BF5E870A0895830A08AC830A0883
:10238C0030030020A1190A08DD790A08251A0A0869
:10239C0028830A08150200201602002036830A083A
:1023AC00A801002000000020BA830A084F840A0804
:1023BC00100300205F840A0879840A080F830A0836
:1023CC0014820A08F40300202C0300206803002068
:1023DC0070B500214048FEF7A3FF404A0A2013685D
:1023EC003F4E0133136002F011FAFEF7B3FB30607D
:1023FC0002F0A5F910F001003A4C1ED1236801330C
:10240C002360394B196800F0EDFF01F073F802F00E
:10241C00B3F90A280ED102F0A3F9054602F0A0F98F
:10242C00092D01DC042851DC3720FEF7A9FB3C30D8
:10243C00FFF77CFD0120FFF70BF80A21256895FBBF
:10244C00F1F301FB13550DBBFFF78AFBFEF736FCCE
:10245C00264B3268186040F22D139A4207D1294658
:10246C00042000F001FD22492248FDF741FE3368AB
:10247C00B3F5977F07D10121042000F0F5FC1E492C
:10248C001C48FDF735FE2368013323602368B3F540
:10249C00967F1FDD00252560FFF76AFC40F246534E
:1024AC0032689A42C8BF154B154AC8BF1D601368E5
:1024BC00002B0FDD013B136063B91248FFF7BAF82C
:1024CC00BDE8704010490B48FDF712BE3720FEF7EF
:1024DC0057FBADE770BD00BFA80100202C03002006
:1024EC00F40300204C0300202400002028030020CB
:1024FC007F840A08737B0A0891840A08240300204D
:10250C0064030020A4840A08B6840A082DE9F0416B
:10251C00ADF5846D1E4608AB0024884605934FF438
:10252C00806317460546104905A8CDE90643FEF71A
:10253C0026FA414605A8FEF73FFA394605A8FEF7EC
:10254C001EFA314605A8FEF71AFA069B2246013BF5
:10255C00009314212846CDE90144059BFEF792FF18
:10256C000DF5846DBDE8F0816F7C0A0810B50C4642
:10257C000B6805481621054AFFF7C8FF2368BDE81C
:10258C0010401878FDF76EBEA8010020D3840A080D
:10259C00F0B5ADF2244D08AB00240F4605934FF473
:1025AC008063164605460E4905A8CDE90643FEF79D
:1025BC00E6F9394605A8FEF7FFF9314605A8FEF7FE
:1025CC00FBF9069B2246013B009314212846CDE9DA
:1025DC000144059BFEF756FF0DF2244DF0BD00BFE4
:1025EC006F7C0A0810B50868FEF771F901280446DB
:1025FC000BD10648FFF71EF82146092000F034FCE9
:10260C00FF2221460248FFF7C3FF10BDDE840A08F3
:10261C00A801002008B50868FEF759F901280BD16C
:10262C000648FFF707F80021092000F01DFCFF22E7
:10263C0002210348FFF7ACFF08BD00BFEA840A087B
:10264C00A801002010B50868FEF741F901280446DE
:10265C000BD10648FEF7EEFF2146082000F004FCE3
:10266C00FF2214210248FFF793FF10BDF6840A08DD
:10267C00A801002008B50868FEF729F901280DD13A
:10268C00FEF732FB0648FEF7D5FF0021082000F0CC
:10269C00EBFB002214210348FFF77AFF08BD00BFB3
:1026AC0002850A08A801002010B50868FEF70FF98A
:1026BC00012804460BD10648FEF7BCFF21462046F4
:1026CC0000F0D2FBFF2214210248FFF761FF10BD7E
:1026DC000E850A08A801002010B50868FEF7F7F867
:1026EC00012804460BD10648FEF7A4FF0021204622
:1026FC0000F0BAFB002214210248FFF749FF10BD7D
:10270C001A850A08A801002008B50868FEF7DFF84A
:10271C0001280BD10022064B1A60064B196800F0F9
:10272C0061FEFF2214210448FFF732FF08BD00BFF1
:10273C002403002024000020A801002008B508680C
:10274C00FEF7C5F8012810D10021084600F028FE3C
:10275C000021064B1860084600F0BEFC044B00221A
:10276C00186014210348FFF713FF08BD5003002025
:10277C0054030020A801002010B50868FEF7A7F844
:10278C00012804460BD10648FEF754FF21460320CE
:10279C0000F06AFBFF2214210248FFF7F9FE10BD7E
:1027AC0026850A08A801002008B50868FEF78FF8EE
:1027BC0001280BD10648FEF73DFF0021032000F055
:1027CC0053FB002214210348FFF7E2FE08BD00BFB3
:1027DC0032850A08A801002010B50868FEF777F8C2
:1027EC000128044613D10A48FEF724FF214620464F
:1027FC0000F0DCFB2146022000F0D8FB2146032030
:10280C0000F0D4FBFF2214210248FFF7C1FE10BDDB
:10281C003E850A08A801002010B50868FEF757F895
:10282C000128044613D10A48FEF704FF0021204674
:10283C0000F0BCFB0021022000F0B8FB00210320BB
:10284C0000F0B4FB002214210248FFF7A1FE10BDDA
:10285C0051850A08A801002070B500240126194BE7
:10286C00194D1C60194B28461C70194B1E7001F039
:10287C00E3FC05F11C0002F05BFB164B164AC3E9A6
:10288C000054C3E90244C3E904449C619C83134B88
:10289C0003209A60C3E900446C632C8701F086F82E
:1028AC002146304601F092F80D490E4801F05CFDCE
:1028BC0016220D4B1A720D4A5C601A6083F849405F
:1028CC0070BD00BF10020020D401002014020020B3
:1028DC0015020020A80100200000FFFFC801002005
:1028EC004E840A08300300206C0300206C850A0813
:1028FC00F8B5274D04462B78264EBFF35B8F19B3E2
:10290C00D80709D42846FDF7C6FB28B100F07CFE99
:10291C0030602846FDF7C4FB1C2044433368234435
:10292C009F882B78BFF35B8FD90709D41848FDF724
:10293C00B2FB28B100F068FE30601548FDF7B0FB23
:10294C0033681B591F83F8BDDA0709D42846FDF7F5
:10295C00A2FB28B100F058FE30602846FDF7A0FB22
:10296C001C204443336823449F882B78BFF35B8F30
:10297C00DB0709D40648FDF78EFB28B100F044FEB6
:10298C0030600348FDF78CFB33681B595F83DAE733
:10299C00000400200404002008B50121032002F0EB
:1029AC007BFD03200021FFF7A3FFBDE80840322088
:1029BC0001F02CBF08B50021042002F06DFD0121AF
:1029CC00032002F069FD01210320FFF791FF0A208B
:1029DC0000F082FE00210320FFF78AFFBDE80840CB
:1029EC000121042002F0D2BD0A2358433A23B0FB44
:1029FC00F3F07047002100F017BE012100F014BE67
:102A0C0010B5044602F084FB1C22238853436268F1
:102A1C00D118D3588A881A832088FFF7EEFFBDE8B7
:102A2C00104002F077BB1C22038853434268D11834
:102A3C00D3588A885A83704738B504460D4600F03F
:102A4C00E3FD00216060284602F026FD204625802B
:102A5C0038BD38B5054602F05BFB2888FFF7CAFF86
:102A6C007D2402F057FB013C14F0FF042BD0022014
:102A7C0000F032FE288800F0EFFDC0B20028F2D042
:102A8C0002F046FB2846FFF7CEFF2888FFF7B5FF7C
:102A9C0002F040FB4FF4F07000F01EFE02F038FB29
:102AAC002888FFF7A7FF462000F016FE288800F0C4
:102ABC00D3FDC4B2B4FA84F402F02CFB4FF4CD7005
:102ACC00640900F009FE204638BDCB0710B504465A
:102ADC0014D502F01DFB2046FFF7A5FF2088FFF759
:102AEC008CFF0A2000F0F8FD2088FFF783FF02F02E
:102AFC0011FB3720BDE8104000F0EEBD02F008FBE2
:102B0C002046FFF790FF2088FFF777FF412000F069
:102B1C00E3FD2088FFF76EFF02F0FCFA0520E9E7E1
:102B2C0010B5044602F0F4FA2046FFF77CFF20882B
:102B3C00FFF763FF032000F0CFFD2088FFF75AFF5B
:102B4C000A2000F0C9FD208800F086FD044602F042
:102B5C00E1FA352000F0C0FDE0B210BD2DE9F041E6
:102B6C000546884616460827012418EA040F14BFA8
:102B7C00012100212846FFF7A8FF6400013FE4B2C1
:102B8C00F3D126B12846BDE8F041FFF739BFBDE8C7
:102B9C00F081F8B507460826002501243846FFF7D2
:102BAC00BFFF00B125436400013EE4B2F6D12846D4
:102BBC00F8BD70B500220C4655210646FFF7CEFF36
:102BCC00651E073415F8011F00223046FFF7C6FFBB
:102BDC00A542F7D170BD0023038283748360C36068
:102BEC0070472DE9F84F857C0446884675B1002066
:102BFC002082A07404F1080308F1FF38103413F894
:102C0C00012B9C4208F8012FF9D104E0FFF721FFBA
:102C1C0018B92082A074BDE8F88F01272A46F0214C
:102C2C002046FFF79BFFAA463E462046FFF778FF5B
:102C3C00814683462046FFF773FFB9F1010F0FD190
:102C4C00012817D1402ED2D984F810A0BAF1000F68
:102C5C0001D10123A374237A002BC8D00120C9E72A
:102C6C00814504EB050322D1227CB24218D91A7A91
:102C7C00174216D04FF0010B6219137A3B431372B3
:102C8C00594620467F00FFF720FF013617F0FF075B
:102C9C00F6B2CAD10135EDB2082DD3D00127C4E765
:102CAC00E8D0082E00D866744FF0000BB2461A7AA2
:102CBC0022EA07021A72E3E703460144002030B50A
:102CCC008B4215D0082213F8014B80EA040515F04D
:102CDC00010F4FEA500018BF80F08C0002F1FF3258
:102CEC0018BFC0B212F0FF024FEA5404EDD1E7E76F
:102CFC0030BD000010B5074C0121208802F0CCFB40
:102D0C002088002102F0D9FBBDE810404FF4FA7086
:102D1C0001F07CBD080400202DE9F0412D4C002170
:102D2C000746208802F0C9FB41F2883000F0D4FC41
:102D3C000021208802F0C1FB41F2883000F0CCFC6D
:102D4C000021208802F0B9FB41F2883000F0C4FC6D
:102D5C0008264FF000083D1D3B68012143452088A3
:102D6C0005F1100520DD02F0A8FB55F8100C00F061
:102D7C00B3FC0021208802F0A0FB55F80C0C00F0ED
:102D8C00ABFC0121208802F098FB55F8080C00F0F0
:102D9C00A3FC0021208802F090FB55F8040C00F0F5
:102DAC009BFC08F10408D7E702F087FB4FF4D770BF
:102DBC0000F092FC0021208802F07FFB4FF4FA50C7
:102DCC0000F08AFC013EC4D131462088BDE8F041B8
:102DDC0002F073BB080400202DE9F047C6B005468D
:102DEC000E46174602F044F904460A22294601F021
:102DFC0092FB204601F079FB3C22002101A803F054
:102E0C0067FF40236C464FF00108DFF85090DFF865
:102E1C0050A00093002D1ADAC4E9017602F028F9CB
:102E2C00514608F1020801F059FBB8F1410F4FEA85
:102E3C00450504F10804EDD102F01AF9094901F035
:102E4C0060FB6846FFF768FF46B0BDE8F087C4E951
:102E5C00016702F00DF94946E3E700BF89860A08CD
:102E6C00D4860A085E870A080B2870B504460D46FE
:102E7C0004DD02F0FDF8184901F043FB012D04DDDF
:102E8C0002F0F6F8154901F03CFB0A2606FB054456
:102E9C00134B53F82440BCB102F0EAF8114901F08D
:102EAC001DFB02F0E5F805463246214601F033FBE6
:102EBC00284601F01AFB2046BDE8704040F27E42E5
:102ECC004FF4D771FFF788BF02F0D2F8BDE870401D
:102EDC00054901F003BB00BFDE850A08F6850A0828
:102EEC002C0000200E860A081C860A082DE9F041E9
:102EFC00204C00210646208802F0DFFA41F288308F
:102F0C0000F0EAFB0021208802F0D7FA41F2883069
:102F1C0000F0E2FB0021208802F0CFFA41F2883069
:102F2C0000F0DAFB08254FF00008371D336808372E
:102F3C00434512DD0121208802F0BFFA57F8080C36
:102F4C0000F0CAFB0021208802F0B7FA57F8040CF5
:102F5C0000F0C2FB08F10208E8E742F2AC6000F0B6
:102F6C00BBFB013DDFD129462088BDE8F04102F0D2
:102F7C00A4BA00BF0C040020322330B5DBB00093A0
:102F8C006B46441E173014F8015F302D0CBFC3E99B
:102F9C000112C3E90121844203F10803F3D168460D
:102FAC00CDE93112FFF7A2FF5BB030BD30B501287F
:102FBC008BB023D199B9304B01AC03F118052246E3
:102FCC0018685968083303C2AB421446F7D14FF462
:102FDC006B72DC2101A8FFF7CFFF0BB030BD0129CC
:102FEC00F5D1264B01AA03F1180514461868596847
:102FFC00083303C4AB422246F7D1E8E702280FD0CE
:10300C000328EAD149BB1E4B01AC03F1180522463B
:10301C0018685968083303C2AB421446F7D1D6E797
:10302C0061B9184B01AC03F11805224618685968B0
:10303C00083303C2AB421446F7D1C8E70129C6D105
:10304C00114B01AA03F11805144618685968083386
:10305C0003C4AB422246F7D1B9E70129B7D10B4BD8
:10306C0001AA03F11805144618685968083303C4FB
:10307C00AB422246F7D1AAE740860A0859860A08CD
:10308C00A4860A0872860A088B860A08BD860A0876
:10309C0010B5012104460220FFF7E6FE0122084B81
:1030AC00084909481A60FDF723F8FDF753FD074B53
:1030BC001860074B1B681C44064B1C6010BD00BFFE
:1030CC0050030020D6860A084B7A0A08F403002025
:1030DC00FC030020B803002070B505460E4601F035
:1030EC00C7FF4549FCF7DFFF01F0C2FF33462A4614
:1030FC004249FCF7D8FF0121084602F0CDF9012026
:10310C0002F0F4F93E4C012D20604BD1002849D13E
:10311C003C493D48FCF7ECFFFDF7C6FA3B4D024637
:10312C0028603B493848FDF737F82B683B2B05DC0A
:10313C0038493548FCF7DCFF206870BDFDF70AFD07
:10314C00354B1860354B1968354B0E440121084638
:10315C001E6002F0B2F9334B33491A682A48FDF766
:10316C001BF8FA2001F052FB012002F0BFF92F4DA1
:10317C00206001F07DFF22682D49FCF794FFFDF7DC
:10318C0011FD01F075FF2A682A49FCF78CFF2A68AB
:10319C0029492A48FDF700F801F06AFF1649FCF7A7
:1031AC0082FFC9E7002DDCD10128DAD1002102F021
:1031BC0084F900221B4B224913481A60FCF798FF34
:1031CC00FDF772FA1F4D114E02461F4928600E483A
:1031DC00FCF7E2FF2B6832681C49D21A0A48FCF74C
:1031EC00DBFF33682A689B1A032BBADD18490648A3
:1031FC00FCF77EFFB5E700BFF5860A0825870A08AD
:10320C005403002047870A084B7A0A084803002019
:10321C0060870A087F870A08F4030020FC0300205B
:10322C00F003002040030020B8870A08A00100200A
:10323C005E880A0862800A0874880A0893800A0863
:10324C00D5870A0844030020F0870A080F880A086B
:10325C002F880A0870B504460E4601F009FF3B4959
:10326C00FCF721FF01F004FF334622463849FCF7F6
:10327C001AFF0121022002F00FF9022002F036F9A8
:10328C00344D012C28603DD100283BD1FDF70CFAC0
:10329C00314B0246186031493148FCF77DFF012162
:1032AC00022002F00AF92F492D48FCF721FFFDF707
:1032BC0051FC2D4B18602D4B19682D4B0E441E6084
:1032CC00FA2001F0A3FA022002F010F9294C286030
:1032DC0001F0CEFE2A682849FCF7E5FEFDF762FCFA
:1032EC0001F0C6FE22682549FCF7DDFE2268244960
:1032FC002448FCF751FF01F0BBFE1449FCF7D3FE48
:10330C00286870BD002CDBD10128D9D10021022006
:10331C0002F0D3F81C4B1D491A691148FCF73CFF0D
:10332C00FDF7C2F91A4C1B49024620600C48FCF709
:10333C0033FF094A2368126809489B1A052BCCBF36
:10334C0015491649FCF7D4FEBAE700BFF5860A0802
:10335C0088880A085803002048030020AD880A0812
:10336C004B7A0A08D0880A08F4030020FC030020DA
:10337C00F8030020A401002099890A08B2890A08E0
:10338C00B1800A0893800A0810030020ED880A080F
:10339C004403002018890A083B890A0869890A082D
:1033AC0010B50446012C084603D1FFF771FE2046E8
:1033BC0010BD00210220FFF757FD0022054B0649E6
:1033CC001A604FF47A62054B05481A60FCF790FEC0
:1033DC00EDE700BF50030020CF890A08B803002096
:1033EC004B7A0A0838B5184C2368012B0ED0174BB2
:1033FC001B688B4201D0012808D1154B9D68012D0B
:10340C0005D114491448FCF773FE256038BDD96802
:10341C000120FFF761FE114B186001F0D1F910F09B
:10342C0001010DD10846FFF7BBFF0D4D28604FF48D
:10343C007A7001F0EBF90A20FFF72AFE01232B60CA
:10344C0001232360E2E700BF24030020F4030020E3
:10345C001003002014820A084B7A0A085403002037
:10346C005003002010B504461948FEF7E3F8FDF7A9
:10347C001BF9184BA042186005DD17491748BDE829
:10348C001040FCF735BE164B1A69052A05D9BDE864
:10349C00104014491148FCF77FBE0028D4BF00220D
:1034AC000122A042A8BF002282B10F4C22686AB947
:1034BC009B68012B01D10D49E0E70D490748FCF74A
:1034CC0017FE5A210120FFF7C5FE206010BD00BF7A
:1034DC00EE890A0828000020FE890A084B7A0A089F
:1034EC00100300201E8A0A08580300205F8A0A086D
:1034FC00998A0A0870B5FDF72DFB2A4B2A4E1860E5
:10350C00012001F0F3FF0128284C306019D1284D1F
:10351C0021682848FEF700FB29682748FEF7FCFACB
:10352C0022682B689A420CDD3368012B09D10021EB
:10353C004FF47A6308462B60FFF7CEFD5F20FFF750
:10354C0091FF022001F0D2FF1C4B216818601C4B2C
:10355C001A68914213DD012811D14FF47A62194D8A
:10356C001A602B6901332B6102F052F829460020B6
:10357C00142200F0D1F800210846FFF76BFE124B25
:10358C0021681A6891420CDD104A1268012A08D190
:10359C004FF47A6200211A600846BDE87040FFF7CC
:1035AC00FFBE70BDF403002054030020FC03002078
:1035BC00F0030020BD8A0A08C28A0A0858030020BA
:1035CC00F803002010030020B80300205003002053
:1035DC0001F01CB900F088B87047704770470000C4
:1035EC0003065ABF024B53F820000020704700BF5F
:1035FC00D08A0A0803065ABF024B53F82000002059
:10360C00704700BFD08C0A0808B5024B1B681B68BA
:10361C00019308BDB001060808B5024B1B685B6836
:10362C00019308BDB001060808B5024B1B689B68E6
:10363C00019308BDB001060808B5024B1B68DB6896
:10364C00019308BDB001060808B5024B1B681B6945
:10365C00019308BDB001060808B5024B1B685B69F5
:10366C00019308BDB001060808B5024B1B681B6A24
:10367C00019308BDB001060808B5024B1B685B6AD4
:10368C00019308BDB001060808B5024B1B689B6A84
:10369C00019308BDB001060808B5024B1B681B6BF3
:1036AC00019308BDB001060808B5024B1B68DB6C22
:1036BC00019308BDB001060808B5024B1B689B6F4F
:1036CC00019308BDB001060808B5024B1B685B6886
:1036DC00019308BD9C01060808B5024B1B68DB680A
:1036EC00019308BD9C01060808B5024B1B685B6979
:1036FC00019308BD9C01060808B5024B1B689B6A28
:10370C00019308BD9C01060808B5024B1B685B6C55
:10371C00019308BD9C01060808B5024B1B689B6C05
:10372C00019308BD9C01060808B5024B1B689B6DF4
:10373C00019308BD9C01060808B5024B1B685B6E23
:10374C00019308BD9C01060808B5024B1B685B6C15
:10375C00019308BDD001060808B5024B1B689B6C91
:10376C00019308BDD001060808B5024B1B685B6AC3
:10377C00019308BDC401060808B5024B1B689B6A7F
:10378C00019308BDC401060808B5024B1B68DB6A2F
:10379C00019308BDC401060808B5024B1B681B6BDE
:1037AC00019308BDC401060808B5024B1B685B6B8E
:1037BC00019308BDC401060808B5024B1B689B6B3E
:1037CC00019308BDC401060808B5024B1B681B6CAD
:1037DC00019308BDC401060808B5024B1B681B6E9B
:1037EC00019308BDC401060808B5024B1B681B6E8B
:1037FC00019308BDAC01060808B5024B1B685B6E53
:10380C00019308BDAC01060808B5024B1B689B6E02
:10381C00019308BDAC01060808B5024B1B68DB6EB2
:10382C00019308BDAC01060808B5024B1B681B6F61
:10383C00019308BDAC01060808B5024B1B685B6F11
:10384C00019308BDAC01060808B5034B1B68D3F8FF
:10385C008030019308BD0000AC01060808B5024B8E
:10386C001B681B68019308BDBC01060808B5024B18
:10387C001B685B68019308BDBC01060808B5024BC8
:10388C001B689B68019308BDBC01060808B5024B78
:10389C001B68DB68019308BDBC01060808B5024B28
:1038AC001B681B69019308BDBC01060808B5024BD7
:1038BC001B681B6A019308BDBC01060808B5024BC6
:1038CC001B681B6B019308BDBC01060808B5024BB5
:1038DC001B685B6C019308BDBC01060808B5024B64
:1038EC001B68DB69019308BDB401060808B5024BDF
:1038FC001B681B6A019308BDB401060808B5024B8E
:10390C001B681B68019308BDD801060808B5024B5B
:10391C001B685B68019308BDD801060808B5024B0B
:10392C001B681B69019308BDD801060808B5024B3A
:10393C001B685B69019308BDD801060808B5024BEA
:10394C001B689B69019308BDD801060808B5024B9A
:10395C001B68DB69019308BDD801060808B5024B4A
:10396C001B681B6A019308BDD801060808B5024BF9
:10397C001B685B6C019308BDC001060808B5024BBF
:10398C001B689B6C019308BDC001060808B5024B6F
:10399C001B681B6D019308BDA801020808B5024BFA
:1039AC001B681B68019308BDA401060808B5024BEF
:1039BC001B685B68019308BDA401060808B5024B9F
:1039CC001B685B69019308BDA401060808B5024B8E
:1039DC001B68DB6A019308BDA401060808B5024BFD
:1039EC001B68DB6C019308BDA401060808B5024BEB
:1039FC001B685B6D019308BDA401060808B5024B5A
:103A0C001B689B6D019308BDA401060808B5034B08
:103A1C001B68D3F89030019308BD0000A401060880
:103A2C0008B5034B1B68D3F89C30019308BD00000C
:103A3C00A401060808B5034B1B68D3F8A830019302
:103A4C0008BD0000A401060808B5024B1B685B68A2
:103A5C00019308BDC801060808B5024B1B689B689A
:103A6C00019308BDC801060808B5024B1B68DB684A
:103A7C00019308BDC801060808B5024B1B681B69F9
:103A8C00019308BDC801060808B5024B1B685B69A9
:103A9C00019308BDC801060808B5024B1B689B6959
:103AAC00019308BDC801060808B5024B1B68DB6909
:103ABC00019308BDC801060808B5024B1B681B6AB8
:103ACC00019308BDC801060808B5024B1B685B6A68
:103ADC00019308BDC801060808B5024B1B689B6A18
:103AEC00019308BDC801060808B5024B1B68DB6AC8
:103AFC00019308BDC801060808B5024B1B681B6B77
:103B0C00019308BDC801060808B5024B1B685B6B26
:103B1C00019308BDC801060808B5024B1B681B6C55
:103B2C00019308BDC801060808B5024B1B685B6C05
:103B3C00019308BDC801060808B5024B1B689B68B9
:103B4C00019308BDCC01060808B5024B1B68DB6865
:103B5C00019308BDCC01060808B5024B1B685B69D4
:103B6C00019308BDCC01060808B5024B1B68DB6944
:103B7C00019308BDCC01060808B5024B1B681B6AF3
:103B8C00019308BDCC01060808B5024B1B685B6AA3
:103B9C00019308BDCC01060808B5024B1B681B6BD2
:103BAC00019308BDCC01060808B5024B1B68DB6B02
:103BBC00019308BDCC01060808B5024B1B681B68B5
:103BCC00019308BDA001060808B5024B1B685B6891
:103BDC00019308BDA001060808B5024B1B689B6841
:103BEC00019308BDA001060808B5024B1B68DB68F1
:103BFC00019308BDA001060808B5024B1B689B6920
:103C0C00019308BDA001060808B5024B1B68DB69CF
:103C1C00019308BDA001060808B5024B1B685B6A3E
:103C2C00019308BDA001060808B5024B1B68DB6AAE
:103C3C00019308BDA001060808B5024B1B681B6B5D
:103C4C00019308BDA001060808B5024B1B68DB6B8D
:103C5C00019308BDA001060808B5024B1B681B6C3C
:103C6C00019308BDA001060808B5024B1B685B6CEC
:103C7C00019308BDA001060870B5002604460D4648
:103C8C0040F8086FFFF760FD28462570FFF726FE09
:103C9C002046666070BDB1F9043010B50A6833B9BE
:103CAC0032B9D1F8063003604B89838010BD22B144
:103CBC009488012C03D0042C06D0042205E09289B0
:103CCC008C710B814A81ECE702220B814FF6FF735A
:103CDC008A714B81E5E710B50446006818B1FFF70F
:103CEC0073FF0023236010BD38B50C46B1F90430C6
:103CFC0005468380D1F80630C0F806304B894381E5
:103D0C00FFF7E9FF236813B12B600023236038BD54
:103D1C0010B50024047044804FF6FF740029848091
:103D2C0008DD01398B4204D932F81130838001232C
:103D3C00037010BD01D10223FAE74180F9E70000BE
:103D4C00F0B50D46164600278BB01A46129B04465A
:103D5C000193119B314600932846109B0297FFF765
:103D6C0069FE334601462A4605A8FFF7D1FF0F4DE1
:103D7C009DF81410BDF91620BDF8183028468DF8A2
:103D8C00221007A9ADF82420ADF826300797ADF81E
:103D9C002070FFF7A9FF07A8FFF79DFF20462946D3
:103DAC00FFF779FF20460BB0F0BD00BF10040020D8
:103DBC0002220020044B1A60044B054AC3E90000A0
:103DCC009A60FFF7F3BD00BF1C0400201004002014
:103DDC000000FFFF13B503688DF80710DC6B0122A0
:103DEC0047F230530DF10701A04702B010BD10B4DB
:103DFC000368DC6B47F23053A44610BC604713B524
:103E0C00134602688DF80710D46B0DF107010122DF
:103E1C00A04702B010BD10B543690446B3F8862024
:103E2C00B3F884309A4208D06369B3F88420511CEB
:103E3C00A3F884101344187910BD03681B699847C4
:103E4C000028F1D14FF0FF30F6E7704770470000C3
:103E5C0010B50446064B0846994204F10C0404D0F4
:103E6C0001F03CFC002808BF0024204610BD00BF18
:103E7C00088F0A0810B50446AC21FCF70AF9204655
:103E8C0010BDAC21FCF705B938B50B4B8469054660
:103E9C0003607CB16368013B63605BB923682046B7
:103EAC009B689847A368013BA3601BB92368204615
:103EBC00DB689847284638BD188F0A0810B50446A9
:103ECC00FFF7E2FF20461C21FCF7E3F8204610BD6B
:103EDC0070B5044606464D69044B8C3544F8043BDA
:103EEC000FCD0FC42B683046237070BDA08F0A080D
:103EFC0010B543690446B3F88620B3F884309A426F
:103F0C0005D06369B3F884201344187910BD036895
:103F1C001B6998470028F4D14FF0FF30F6E7F8B54D
:103F2C0043691746B3F88620B3F8843005469A42A5
:103F3C000E4616D069693046B1F88430B1F8864027
:103F4C00E41ABC4228BF3C4604332246194402F012
:103F5C00B1FE6A69B2F884302344A2F8843020465A
:103F6C00F8BD03681B6998470028E3D14FF0FF3474
:103F7C00F5E700234269A2F884304269A2F8863042
:103F8C00704700002DE9F0431F4603688BB0DB6AD5
:103F9C0005460C4616469847384601F01DFA03684C
:103FAC00DB689847002854D03346062201210220B2
:103FBC000097D5F81480FFF761FC2023C8F80000A7
:103FCC004FF00008CDE902386B6901201B682349CA
:103FDC000193234B02AA00934346FFF7D7FC6B696E
:103FEC001868FFF743FC002833D02846FFF7C1FFC1
:103FFC000223ADF80830E37976BA8DF80C30A3794A
:10400C004FF4FA508DF80D306379ADF80A608DF8E5
:10401C000E3014F8043F8DF80F30FFF7A7FC6B69D6
:10402C0006461022186802A9FFF730FC814630467C
:10403C00FFF79CFC0FCC6E698C360FC6236833706F
:10404C002F61B9F1000F07D02B682846DB6A98471F
:10405C0040460BB0BDE8F0830120FAE7D08E0A0889
:10406C00D78E0A0838B542690446B2F886302BB1AF
:10407C00B2F884209A4201D1FFF77BFF206901F04E
:10408C00ABF90368DB689847F8B163691868FFF708
:10409C00EDFBD0B16069B0F886107F2915D8051DED
:1040AC00C1F18002002300682944FFF7F7FB0028C8
:1040BC000BDD6369B3F886200AB9A3F88420636921
:1040CC00B3F886201044A3F886006369B3F8860021
:1040DC00B3F88430C01A38BD38B543690446186843
:1040EC00FFF7C4FB18B163691868FFF7DFFB65695C
:1040FC00FFF7E4FB28606069112200218C3002F08C
:10410C00E7FD2046BDE83840FFF733BF10B54369E3
:10411C0004461868FFF7AAFB08B9002010BD2069F7
:10412C0001F05AF90368DB6898470028F5D06369F9
:10413C001868FFF793FBB0FA80F04009EEE708B57A
:10414C00FFF7E4FF003818BF012008BD2DE9F3414B
:10415C000027476004460D4616469846FFF7D6FFE3
:10416C0070B1CDE9008760693B463246294600684C
:10417C00FFF7ACFB002800DA606002B0BDE8F0810C
:10418C004FF0FF30F8E770B50546FFF7BFFFE8B911
:10419C006B69B3F88610B3F88420914216D1186875
:1041AC00FFF764FB08B9002070BD6B691868FFF756
:1041BC0055FB01280446F6D12B6828461B69984705
:1041CC0030B92B682846DB6A9847ECE70120EBE70F
:1041DC002046E9E7002310B504460160C0F884309E
:1041EC00883000F0A5FE204610BD0000F8B54FF455
:1041FC007A720023C0E901320D4A03610260436107
:10420C000446AC200E46FBF740FF051E05F10C07DB
:10421C0008D00123C5E90133064B314638462B60E3
:10422C00FFF7D8FF2046C4E90575FFF7A2FEF8BDDD
:10423C00188F0A08F48E0A0810B50446FFF73EFBE7
:10424C0001462046FFF7D2FF204610BD10B50446AC
:10425C000068FFF70BFB10B12068FFF727FB204627
:10426C0010BD0C30FFF7F2BF2DE9F0431F46036879
:10427C008FB0DB6A06460D4690469847134801F00E
:10428C0056F8F0B102A800F053FE284602F083FD68
:10429C00002481B23B462846009403AAFFF76EFB2C
:1042AC0090B9336809ADD3F82090094B03AC08934F
:1042BC000FCC0FC5236842462B7030463B4608A9ED
:1042CC00C8470FB0BDE8F0832046FAE7B8040020D9
:1042DC00A08F0A0810B504460068FFF775FC20464D
:1042EC0010BD10B50446006808B1FFF76DFC002343
:1042FC00C4E90133236010BD38B504460D4600688F
:10430C000131FFF769FC10B1C4E90005012038BD8B
:10431C0010B50368044623B143688B4201D30120D6
:10432C0010BD2046FFF7E8FF0028F9D0A368002B4A
:10433C00F5D122681370F2E770B50E4611460446AB
:10434C001546FFF7E5FF20B92046FFF7CAFF2046C8
:10435C0070BD2A4631462068A56002F0ABFC0021F6
:10436C002268A368D154F2E738B5002304460D4601
:10437C00C0E900338360037339B1084602F00BFDCA
:10438C00294602462046FFF7D7FF204638BD38B5F0
:10439C00054600680C4668B16A688B689A4207D378
:1043AC00096802F0D5FCA368AB600023A36038BD9C
:1043BC00FFF70AFC23682B6063686B60A368AB6033
:1043CC000023C4E90033F1E7884210B50B460446DC
:1043DC0004D0096821B19A68FFF7AEFF204610BDE2
:1043EC00FFF77FFFFAE7002310B50446C0E900335E
:1043FC0083600373FFF7E8FF204610BD884210B5B9
:10440C00044601D0FFF7C3FF204610BD70B505462A
:10441C000E4609B9002070BD6AB184681444214667
:10442C00FFF776FF0028F5D02868AB6831461844B2
:10443C0002F08EFCAC600120EDE710B58A680968CB
:10444C000446FFF7E3FF10B92046FFF74AFF20466A
:10445C0010BD134610B58A688468A41A9C420AD30E
:10446C00006838B1096841B1184402F09CFCB0FAFC
:10447C0080F0400910BD0020FCE70846FAE782688E
:10448C008B689A4202D30022FFF7E3BF00207047EB
:10449C00F8B506460D4600248F18BD420CD0336883
:1044AC0030469B6815F8011B9847031E01DB1C4422
:1044BC00F3E7002C08BF1C462046F8BD70B5054636
:1044CC000C46084649B102F066FC2B6802462146B0
:1044DC002846BDE87040DB68184770BD08B5FFF78B
:1044EC00EDFF08BD03689B68184738B50D210546DC
:1044FC00FFF7F8FF0A2104462846FFF7F3FF204494
:10450C0038BD38B50546FFF7D9FF04462846FFF7F6
:10451C00ECFF204438BD0023012A98BF0A2230B595
:10452C008BB00C468DF8243009A92546B4FBF2F467
:10453C0004FB1253DBB2092B94BF30333733DBB29D
:10454C00AA4201F8013DF0D9FFF7B8FF0BB030BD1E
:10455C002DE9F04186B000AF05460E46381D1421FA
:10456C0014463B60FFF758FB13280ED82846391D1C
:10457C00FFF7A4FF04461EB12846FFF7B6FF04441C
:10458C0020461837BD46BDE8F08100F1080323F042
:10459C000703E846ADEB030D2246411C3B68684619
:1045AC00FFF73AFB69462846FFF788FF0446C546E5
:1045BC00E1E710B50446FFF797F8E0602368204662
:1045CC005B699847002808DAFFF78EF8E368C01A91
:1045DC00A3689842F2D34FF0FF3010BD2DE9F041A3
:1045EC0007460C460D468E18B542A5EB040807D0BD
:1045FC003846FFF7DEFF031E02DB05F8013BF3E74D
:10460C004046BDE8F0810000014B024A1A60704739
:10461C00200400205C8F0A082DE9F041154BDFF8CF
:10462C005880D3E90067154B801947EB0107D3E994
:10463C000061861947EB0107D8E90023BB4208BF8C
:10464C00B2428CB013D003A96846CDE9006702F0E2
:10465C003FFA089B0A4D03F26C7303AC08930FCC22
:10466C000FC50FCC0FC5C8E9006723682B600CB0D1
:10467C00BDE8F081580400206004002050040020A4
:10468C002804002008B50020FFF786FA28B1FFF7B0
:10469C0063FA80F00100C0B208BD0120FCE7000005
:1046AC0008B5FFF7B9FF024B9869013008BD00BF90
:1046BC002804002008B5FFF7AFFF024B1869013042
:1046CC0008BD00BF2804002010B50A49044602F0BA
:1046DC0003F868B92046084902F01CF840B90749AC
:1046EC00204601F05BFE02F045F8054BC3E90001E2
:1046FC0010BD00BF000040C10000604100006145DA
:10470C005804002010B50020FFF70EF80446A0B99D
:10471C00FFF744F9012810D12046FFF76FF960B973
:10472C00FFF7B0FF10B9FFF707FAF9E7FFF7AAFF99
:10473C00BDE810400020FEF7F7BF204610BD1FB5A6
:10474C00FFF7E0FF10220021684602F0C1FA0021B9
:10475C006846FEF7F1FF009805B05DF804FB000019
:10476C0008B5FFF7ECFFC117FFF756FF014B986830
:10477C0008BD00BF2804002008B5FFF7E0FFC117F3
:10478C00FFF74AFF014B586808BD00BF2804002002
:10479C0008B5FFF7D4FFC117FFF73EFF014B1868B0
:1047AC0008BD00BF2804002008B5FFF7C8FFC117DB
:1047BC00FFF732FF014BD86808BD00BF280400206A
:1047CC0008B5FFF7BCFFBDE80840C117FFF768BF8D
:1047DC0008B5FFF7B4FFBDE80840C117FFF76ABF83
:1047EC0008B5FFF7ACFFC117FFF716FF014B58696F
:1047FC0008BD00BF28040020024B1A68024B1A6047
:10480C00704700BF7C000020240400200021FFF72B
:10481C00D5B810B58368044613B1032201469847F6
:10482C00204610BD13B56C460B46024603C884E8FF
:10483C00030093E8030082E8030094E8030083E894
:10484C00030002B010BD00000022014B9A607047BB
:10485C0068040020014B1860704700BF80000020E6
:10486C0008B5134B43B100F003FC03681B69984770
:10487C00002801DDFBF7E0FD0E4B43B100F0A4FE78
:10488C0003681B699847002801DDAFF300800A4BD1
:10489C000BB1AFF30080094B43B100F015FC03687A
:1048AC001B699847002801DDAFF3008008BD00BFED
:1048BC0045040A0800000000000000000000000091
:1048CC0008B5FFF7CDFFFEF70FFF014B186008BDD1
:1048DC00E80400200548064A08B5121A054902F0FA
:1048EC00E9F9054B054A1A6008BD00BF00400240BB
:1048FC000440024018940A08004002401E1C279AEB
:10490C00002307B51A466FF077010093FFF788F87C
:10491C0003B05DF804FB000007B543880A2B08D0F0
:10492C00502B0BD1094B1B684BB103B05DF804EB5A
:10493C001847FFF7E5FF03B05DF804FB00231A46A8
:10494C006FF077010093FFF76BF8F4E77C0400201D
:10495C00002110B51148FFF787F9114B1A68114B5C
:10496C009A420CBF012200220F4B1A7001D0FFF7A4
:10497C00B1FFFEF7A9FE044602F0B2F90B4B13B1DE
:10498C002046AFF3008000210848FFF70DF9BDE881
:10499C00104000210648FFF739B800BF61480A08EB
:1049AC00004002401E1C279A7804002000000000E2
:1049BC0025490A0870470020704710B5044610219D
:1049CC00FBF767FB204610BD08B5FFF7F6FF08BDE7
:1049DC00002230B54FF69C74026084808D888C80E8
:1049EC000C68858004600A6030BD10B50446006810
:1049FC00FFF7EAF8204610BD38B5C468F4B1237847
:104A0C00022B03D104F10C00FFF7EFFF656835B101
:104A1C002846FFF7FEFE10212846FBF73AFBA56857
:104A2C0035B12846FFF7F5FE10212846FBF731FB80
:104A3C002046BDE838401421FBF72BBB38BD0B6872
:104A4C0003604B68436013B15A6801325A60704777
:104A5C0037B5044668460D46FFF7F1FF009B019AF7
:104A6C0023600023626001A801930093FBF729FBEC
:104A7C0035B1281DFBF725FB08212846FBF709FB60
:104A8C00204603B030BD826810B50AB900F022FE92
:104A9C00C368BDE81040184708B5006800F1100164
:104AAC00FFF7F1FF08BD826810B50AB900F012FEDD
:104ABC00C368BDE81040184708B5006800F1100144
:104ACC00FFF7F1FF08BD000038B500230446036072
:104ADC0010200D46FBF7D9FA28B10123C0E90133A8
:104AEC00024BC56003602060204638BD848F0A08E5
:104AFC0038B5002383608B6804460D462BB1022227
:104B0C009847EB68E360AB68A360204638BD0000B3
:104B1C00F0B589B004686846FFF75AFF4FF00203FE
:104B2C00D4E84F2F002A03D1C4E8413F0029F7D124
:104B3C0025D104F10C0569462846FFF749FF0123EE
:104B4C00BFF35B8F63700020BFF35B8F04F108032E
:104B5C0053E8006F43E80002002AF9D1BFF35B8FE2
:104B6C006EB1FEF73BFF78B129463046FFF78BFF5D
:104B7C003046FFF74EFE10213046FBF78AFA6846A6
:104B8C00FFF733FF09B0F0BD314602A8FFF7B0FFC5
:104B9C00E068B4F9105008B102F0E2F80690102069
:104BAC00ADF81C50FBF771FA0546E8B10027876099
:104BBC001820FBF76AFA044688B10146876002A800
:104BCC00FFF730FE049BA268A360059B0492E26889
:104BDC0006A9E36004F110000592FFF7F9FE084BFB
:104BEC002C60EB60074BAB6006A8FFF7FEFE02A83B
:104BFC00FFF70FFE002229460348FEF7F7FEB7E742
:104C0C00A54A0A08314D0A08C5510A082DE9F04792
:104C1C008AB005460C46174698469DF84890FEF714
:104C2C009BFF07AE824638BB4FF62E73059005A945
:104C3C003046ADF81830FFF7CBFE1420FBF725FA01
:104C4C00044648B1022303700123C0E901AA437052
:104C5C0031460C30FFF7BCFE2846214640F8044B89
:104C6C00FFF732FF3046FFF7C0FE05A8FFF7BDFE89
:104C7C0028460AB0BDE8F0870C234FF0000A142038
:104C8C00CDE908AA0793FBF700FA014628B1C0E961
:104C9C0001AA80F800A080F801A004A80391FFF7F6
:104CAC0013FF1F4B08200893FBF7EFF9824610B156
:104CBC0003A9FFF7C4FE42463946204600965FFA28
:104CCC0089F3CDF824A0FEF757FFB8B9039B5B78A6
:104CDC0003F0FF0293B94FF69C7305A903A8059244
:104CEC00ADF81830FFF714FF05A8FFF77EFE05A8F6
:104CFC000999FFF7ADFE06A8FBF7E3F903A905A890
:104D0C00FFF79DFE059B069A2B6000236A6006A8A0
:104D1C0006930593FBF7D5F904A8FBF7D2F9A7E79F
:104D2C00AD4D0A08012AF8B5054603D10B6803609E
:104D3C000020F8BD022A10D0032AF9D10468002CF7
:104D4C00F6D004F11000FFF750FE2046FFF761FD8E
:104D5C0018212046FBF79DF9EAE718200E68FBF7AF
:104D6C0094F9044650B13146FFF7C2FE3069B6F9EA
:104D7C00147008B101F0F4FF2061A7822C60D7E712
:104D8C0038B5002383608B6804460D462BB1022294
:104D9C009847EB68E360AB68A360204638BD000021
:104DAC00F0B5044689B00D4601A81146FFF750FE38
:104DBC00A4B124B21DB1284601F0D2FF054601A8CA
:104DCC0003A90395ADF81040FFF7A2FE03A8FFF767
:104DDC000CFE02A8FBF775F909B0F0BD0123019D8B
:104DEC00D5E84F2F002A03D1C5E8413F0029F7D160
:104DFC00EFD12B73BFF35B8F6B70BFF35B8F2B1DEE
:104E0C0053E8006F43E80042002AF9D1BFF35B8FEF
:104E1C00002EDED02046FEF7E1FD074660B130469D
:104E2C0005F10C01FFF73FFE3046FFF7F2FC1021B5
:104E3C003046FBF72EF9CCE7314603A8FFF7A0FF6D
:104E4C002B7B10208DF81C30FBF71FF90546D0B1D9
:104E5C0087601420FBF719F9044678B10146876086
:104E6C0003A8FFF7DFFC059BA268A360069B0592D5
:104E7C00E268E3609DF81C3006922374064B2C60AC
:104E8C00EB60064BAB6003A8FFF7C3FC002229467E
:104E9C000348FEF7ABFDC7E7C54A0A08B14E0A083E
:104EAC00C5510A08012A70B5044603D10B6803608A
:104EBC00002070BD022A0CD0032AF9D10468002C02
:104ECC00F6D02046FFF7A5FC14212046FBF7E1F8AD
:104EDC00EEE714200E68FBF7D8F8054620B13146F2
:104EEC00FFF74EFF337C2B742560E1E77047F8B574
:104EFC000E46002400F10807051D17F8011D0A22B3
:104F0C003046FFF708FBAF42044401D12046F8BD00
:104F1C00002CF2D02E213046FFF7E4FA0444ECE7E3
:104F2C0010B504461821FBF7B4F8204610BD00005C
:104F3C0010B50446044B1122002140F8043B01F04B
:104F4C00C7FE204610BD00BFA08F0A080346074AC3
:104F5C0010B543F8042B01F1100251F8044B9142A7
:104F6C0043F8044BF9D10A781A7010BDA08F0A08C7
:104F7C00024AC0E90021042202757047A08F0A087A
:104F8C0010B59DF8084044EA0324042344EA024483
:104F9C0044EA01644460037510BD000013B5044C71
:104FAC0004609DF810400094FFF7EAFF02B010BDBA
:104FBC00A08F0A08417470477047704708B50021EC
:104FCC00007CFEF7BBFC40EAE07008BD08B501218F
:104FDC00007CFEF7B3FC40EAE07008BD08B5007C2D
:104FEC00FEF7A4FC20EAE07008BD08B5007CFEF7D3
:104FFC0095FC20EAE07008BD38B50446007C0D46EF
:10500C00FEF794FC002801DC607C28B12946207C4A
:10501C00FEF79CFC20EAE07038BD007CFEF79EBCDD
:10502C0010B504461421FBF734F8204610BD704728
:10503C0010B54FF47A73044608460021C4E90113F5
:10504C00044B20742360012311466374FEF756FC55
:10505C00204610BDB48F0A080022007CFEF756BC17
:10506C0010B504461422002101F032FE204610BD7A
:10507C0030B50E4D87B001A8FFF7F2FF2978BFF3CA
:10508C005B8F11F001040ED12846FBF704F850B1E8
:10509C00214601AA0648FFF7CBFF2846FBF700F88C
:1050AC00044801F007FD024807B030BD8004002021
:1050BC0088040020C54F0A0810B5044614220021AC
:1050CC0001F006FE204610BD10B50E4C86B001A8AE
:1050DC00FFF7F2FF2378BFF35B8FDB070ED420467C
:1050EC00FAF7D9FF50B1012101AA0748FFF7A0FF39
:1050FC002046FAF7D5FF054801F0DCFC024806B063
:10510C0010BD00BF840400209C0400203B500A0802
:10511C00FEF7B2BAFEF7A8BA70474174704708B5EB
:10512C00007CFEF751FB20EAE07008BD08B5007C5E
:10513C00FEF722FB20EAE07008BD08B5007CFEF704
:10514C002BFB40EAE07008BD08B5007CFEF71CFBA9
:10515C0040EAE07008BD007CFEF726BB70B5467CCB
:10516C0004460D462EB12946207CBDE87040FEF762
:10517C00FBBA007CFEF728FB0028F4DC304670BD3F
:10518C0010B504461421FAF784FF204610BD000028
:10519C0010B54FF47A730446084611460022C4E950
:1051AC000123044B2074236001236374FEF714FB6A
:1051BC00204610BDE48F0A0810B5836804460BB96D
:1051CC0000F088FAC3689847A3681BB103222146F4
:1051DC00204698472046BDE810401021FAF759BFE9
:1051EC007047F8B5064615460C468F18BC4206D0DB
:1051FC00336830469B6814F8011B9847F6E728463D
:10520C00F8BD0022007CFEF7EFBA0021007CFEF70F
:10521C00F3BA0021007CFEF7F7BA0021007CFEF700
:10522C00FBBA0021007CFEF7FFBA10B5044614212E
:10523C00FAF72FFF204610BD10B54FF47A730446D1
:10524C0008460021C4E90113034B11462360207466
:10525C00FEF7FAFA204610BD14900A0800224068A6
:10526C001146FEF709BCF0B5154689B011220E4661
:10527C000446002103A801F02BFD284601F08BFD0C
:10528C00002781B273682846009703AAFEF776FBC5
:10529C0030B139462046FFF76BFE204609B0F0BD11
:1052AC00204603A9FFF752FEF7E70022406811469B
:1052BC00FEF702BC002240681146FEF725BC002216
:1052CC004068FEF719BC0022406881F00101FEF72E
:1052DC00EBBB002340681A461946FEF7DDBB0022E3
:1052EC0040681146FEF7B8BB002202214068FEF769
:1052FC00BBBB002340681A46FEF7A6BB0422024B38
:10530C005A60024A1A607047B00400203C900A08A8
:10531C00002340681A46FEF797BB00220221406822
:10532C00FEF7A2BB002240681146FEF795BB002297
:10533C0040681146FEF7A0BB002340681A46194688
:10534C00FEF7A2BB002340681A461946FEF7A4BB21
:10535C0000214068FEF7E0BB00214068FEF7E4BB8B
:10536C000022406881F00101FEF79EBB00224068DC
:10537C00FEF7C2BB002240681146FEF7C5BB0022F7
:10538C0040681146FEF798BB70B515468EB00446C2
:10539C0008A8FFF7CDFD1122002103A801F098FC0D
:1053AC000026284601F0F7FC0A4B009681B25B6898
:1053BC00284603AAFEF7E2FA30B131462046FFF741
:1053CC00D7FD20460EB070BD204603A9FFF7BEFDE9
:1053DC00F7E700BFB0040020034A044B042814BFB5
:1053EC0010461846704700BFB8040020B0040020D7
:1053FC00024B034A1A6000225A607047B80400201E
:10540C0078900A08024B986808B1FEF7A5B9704766
:10541C00C4040020172870B5044601D9002070BDC3
:10542C00A0F10D03022B0BD9012824D800F02CF984
:10543C000021007CFEF700FA80F00100C0B2EEE71C
:10544C00124E3178BFF35B8F11F001050DD1304650
:10545C00FAF721FE48B129460D48FEF70DFC3046FF
:10546C00FAF71EFE0B4801F025FB094B1878FEF7E6
:10547C003DFA0028D2D1123C012C05D800F0A4F83A
:10548C00007CFEF799F9D7E70120C8E7C00400209B
:10549C00C404002011540A08172838B504460D46D8
:1054AC000AD8FF2908D0FFF7B5FF28B129462046B6
:1054BC00BDE83840FEF7B8B838BD38B504460D46DF
:1054CC00FEF7BAF8FF2810D0062804D84D2323FA8B
:1054DC0000F0C30709D42046FFF79CFF28B12946EA
:1054EC002046BDE83840FEF7AFB838BD10B50446CD
:1054FC00FEF7A2F8031FDBB2012B08D92046FFF7F9
:10550C0089FF20B12046BDE81040FEF7A5B8002069
:10551C0010BD10B5044609289CBF0A34A4B220461D
:10552C00FFF778FF50B103212046FEF775F80328EA
:10553C0004D12046BDE81040FEF7AEB8002010BDE7
:10554C0038B504460D46FFF765FFF0B1042120463F
:10555C00FEF762F8042805D12046A9B2BDE8384010
:10556C00FEF792B802212046FEF756F802280CD11D
:10557C002046FEF761F8012801D0042805D1294600
:10558C002046BDE83840FEF797B838BDFEF78CB81A
:10559C007047000070B5142504462A46002101F01E
:1055AC0097FB25808025074E28463146258125828C
:1055BC0000F08EF831466060284600F089F8E06013
:1055CC00204670BDAC900A0830B50E4D87B02978D6
:1055DC00BFF35B8F11F0010411D12846FAF75BFD84
:1055EC0068B101A8FFF7D6FF214601AA0648FFF7CC
:1055FC00CFFD2846FAF754FD044801F05BFA024847
:10560C0007B030BDD0040020D40400209D550A08FA
:10561C0010B5084C2378BFF35B8FDB0708D420460A
:10562C00FAF739FD20B1FEF767F82046FAF738FD96
:10563C00014810BDEC040020F0040020002307B545
:10564C001A46194600930348FFF7A8FC03B05DF80F
:10565C0004FB00BFF40400207047000070B5142355
:10566C002025084E044603603146856005612846B6
:10567C0000F02EF831466060284600F029F8E06012
:10568C00204670BDAC900A0830B50E4D87B0297815
:10569C00BFF35B8F11F0010411D12846FAF7FBFC24
:1056AC0068B101A8FFF7DAFF214601AA0648FFF707
:1056BC00C3FD2846FAF7F4FC044801F0FBF9024854
:1056CC0007B030BD0C0500201005002065560A08F7
:1056DC00FAF7DDBC08B5FEF7A7FA0000014900F0A7
:1056EC00FBB800BFC8900A087FB500241023CDE991
:1056FC000234036815469E69CDE900446B46126876
:10570C00B0479DF8043003F00603062B09BF0120B7
:10571C002046009B2B6004B070BD0098904214BFD3
:10572C00012006207047000010B50446024B0360B0
:10573C0000F0CFF8204610BD08910A0810B50446B9
:10574C00FFF7F2FF20460821FAF7A3FC204610BD14
:10575C002DE9F041DDF818801F46DDE90834984545
:10576C000646154607D1079900F0B6F818B16571D1
:10577C000020BDE8F0813946304600F0ADF8002835
:10578C00F6D00123C4F800802571A371F0E738B579
:10579C0015461C4600F0A0F820B10823E360062350
:1057AC002560237138BD2DE9F04105460C4616469F
:1057BC001F4600F091F848B9032F07D823683246EA
:1057CC0029462046BDE8F0415B691847BDE8F081E9
:1057DC0010B50446024B0360FFF7A6FF204610BD30
:1057EC0068910A0810B50446FFF7F2FF20460C2119
:1057FC00FAF74FFC204610BD2DE9F041DDF818807A
:10580C00064690450F4615461C460BD0B0682A46F6
:10581C000368CDF818801E6A39462346B446BDE8A5
:10582C00F0416047194600F057F80028EED00620EA
:10583C00BDE8F0812DE9F14F0D46DDE90A4BDDE9BC
:10584C000CA6194681461746984600F045F890B1CB
:10585C00002D3460377109DB2C44A2450CBF0624A3
:10586C000124B471002001B0BDE8F08F0235F9D1EC
:10587C000123B371F6E7544506D15946484600F06A
:10588C002BF808B17771EDE7D9F808003A460368B0
:10589C00CDE90CA6CDE90A4BDC6929464346A44662
:1058AC0001B0BDE8F04F60472DE9F04107460C46CA
:1058BC0015461E46FFF76BFF48B9B8682A460368C1
:1058CC0021469F693346BC46BDE8F0416047BDE8C0
:1058DC00F081704700207047814208B50ED04068B7
:1058EC0003782A2B0CD049680B782A2B08BF01317E
:1058FC0001F024FAB0FA80F0400908BD0120FCE761
:10590C000020FAE781F0004102E000BF83F0004381
:10591C0030B54FEA41044FEA430594EA050F08BF3E
:10592C0090EA020F1FBF54EA000C55EA020C7FEA02
:10593C00645C7FEA655C00F0E2804FEA5454D4EB7F
:10594C005555B8BF6D420CDD2C4480EA020281EA49
:10595C00030382EA000083EA010180EA020281EA81
:10596C000303362D88BF30BD11F0004F4FEA0131D3
:10597C004FF4801C4CEA113102D0404261EB4101E2
:10598C0013F0004F4FEA03334CEA133302D0524268
:10599C0063EB430394EA050F00F0A780A4F1010424
:1059AC00D5F1200E0DDB02FA0EFC22FA05F280185E
:1059BC0041F1000103FA0EF2801843FA05F3594144
:1059CC000EE0A5F120050EF1200E012A03FA0EFCC3
:1059DC0028BF4CF0020C43FA05F3C01851EBE371ED
:1059EC0001F0004507D54FF0000EDCF1000C7EEB0A
:1059FC0000006EEB0101B1F5801F1BD3B1F5001F48
:105A0C000CD349085FEA30004FEA3C0C04F1010466
:105A1C004FEA445212F5800F80F09A80BCF1004F8F
:105A2C0008BF5FEA500C50F1000041EB045141EA11
:105A3C00050130BD5FEA4C0C404141EB0101013CDA
:105A4C0028BFB1F5801FE9D291F0000F04BF0146C9
:105A5C000020B1FA81F308BF2033A3F10B03B3F19B
:105A6C0020020CDA0C3208DD02F1140CC2F10C022B
:105A7C0001FA0CF021FA02F10CE002F11402D8BF89
:105A8C00C2F1200C01FA02F120FA0CFCDCBF41EA55
:105A9C000C019040E41AA2BF01EB0451294330BD24
:105AAC006FEA04041F3C1CDA0C340EDC04F1140401
:105ABC00C4F1200220FA04F001FA02F340EA0300D8
:105ACC0021FA04F345EA030130BDC4F10C04C4F11E
