:02000004080AE8
:1000000000000A08C0940A08000006000600050166
:0800100004021F0C00000000B7
:0400180070770A08EB
:10001C0009480A4908B5884205D0094A824202D0EB
:10002C00121A06F06FFE0748074A0021121A06F052
:10003C0077FE064808BD00BF000000204C930A085C
:10004C004C010020500100205C0900205C090020BC
:10005C0070B504F07BFC0025054E064CA41BA408CF
:10006C00A54200D170BD56F8043B98470135F7E71F
:10007C000C930A0838930A0802F07CB808B502F011
:10008C0089F9BDE8084004F019BC03F079BD03F010
:10009C0077BD03F07DBD0078B0FA80F04009704761
:1000AC000123037070470EB403B503AB53F8042B54
:1000BC000121019304F03CFA02B05DF804EB03B0AB
:1000CC00704738B5046805467CB16368013B6360D2
:1000DC005BB9236820469B689847A368013BA360E3
:1000EC001BB923682046DB689847284638BD0000BA
:1000FC002DE9F04788B005460C4603F011FD38B9E0
:10010C0004F0C0FF1E49FFF7CEFF08B0BDE8F08732
:10011C0004F016FB064604F01FFB074604F028FB10
:10012C00804604F031FB814604F042FB824604F029
:10013C0047FB33462A46CDE904041249CDE9029A1D
:10014C00CDE90078104803F033FD04F09BFF0E4915
:10015C00FFF7A9FF0D4B0C4A1B780D498DF80030A9
:10016C0006A83C2304F050FD07A8FFF7AAFF204681
:10017C0001F03AFAC82008B0BDE8F04704F036BBED
:10018C0084770A08C3770A081A0200205401002059
:10019C0024780A082DE9F04F8BB006460C4615461C
:1001AC0003F0BEFC38B904F06DFF2349FFF77BFF69
:1001BC000BB0BDE8F08F04F0C3FA074604F0CCFA9C
:1001CC00804604F0D5FA814604F0DEFA824604F04B
:1001DC00EFFA834604F0F4FA3B463246CDE903B01D
:1001EC001649CDE90545CDE9019ACDF800801448B2
:1001FC0003F0DEFC04F046FF1149FFF754FF114BEE
:10020C000F4A1B7810498DF8003008A83C2304F0E5
:10021C00FBFC09A8FFF755FF2B4622460B49084863
:10022C0003F0C6FC2046294601F050FCC8200BB058
:10023C00BDE8F04F04F0DABA84770A0830780A087F
:10024C001A0200205401002024780A0895780A0824
:10025C000122014B1A7070475401002030B56138EF
:10026C0087B0192800F2BC80DFE800F03338BA2DD3
:10027C00BABABA0D18BABABABABABA57BABA406256
:10028C0050BA727A828D0122564B1A600A22564B52
:10029C001A6007B0BDE8304001F0C0B9534CE368B8
:1002AC00EF2B01D80A33E36005F0C0F914220020CB
:1002BC004E4903F02DFAE2684D494E4807B0BDE8AF
:1002CC003040FFF767BF494CE3680A2BECD90A3B77
:1002DC00E9E707B0BDE8304001F024BD0120464BF2
:1002EC00196807B0BDE8304003F078B800243F4DE2
:1002FC0042486C6001F078F905F098F9142229460F
:10030C00002007B0BDE8304003F002BA0024374D9E
:10031C003B4801F069F92C61EEE70123334C394875
:10032C00636001F061F905F081F914222146E7E7D9
:10033C0000F04EFA344B354A1B6812683449354884
:10034C0003F036FC334807B0BDE8304001F04CB93F
:10035C00314801F049F905F069F914222349CFE736
:10036C002E4801F041F907B0BDE8304000F098B9D3
:10037C002B4801F039F9372000F0D0FB07B0BDE86D
:10038C00304001F0A1BD02A803F0D2FB02A9254820
:10039C0001F09CFA02A803F08DFF234B00221B787E
:1003AC0022498DF8003002A83C2304F02DFC039C5C
:1003BC007CB16368013B63605BB9236820469B6832
:1003CC009847A368013BA3601BB923682046DB68F0
:1003DC0098474FF4FA7007B0BDE8304004F006BA05
:1003EC0007B030BD6C03002068030020140300200C
:1003FC009D780A08B7780A0824000020BF780A08FC
:10040C00D4780A08F7780A086403002060030020F7
:10041C000D790A08C00300201F790A0839790A08E7
:10042C0046790A0856790A085501002065790A08A8
:10043C0008B504F027FE03685B699847BDE80840DF
:10044C00C0B2FFF70BBF00000022014B1A707047BF
:10045C0055010020002300220383C2610362436222
:10046C008362C36280F8303080F831304386704745
:10047C0038B50446154602F0E1FA4FF47A7320467B
:10048C002575E382FFF7E6FF38BD00002DE9F0414A
:10049C000B68044603624B6800F1200543620B783D
:1004AC00262B60D008D8102B0AD0222B59D0002034
:1004BC0084F83100BDE8F081282BF8D1022300E04C
:1004CC00012384F83130204602F0C5FA2946204633
:1004DC0002F071FB227D4421204602F041FBE08AB0
:1004EC0004F084F9204602F0B6FA2946204602F0C0
:1004FC0062FB0022B821204602F032FB002220468B
:10050C00114602F02DFB204602F0A5FA29462046A2
:10051C0002F051FB0022BE21204602F021FB94F890
:10052C003130042B04D100222046114602F018FB76
:10053C0004F128052E4604F13107204602F02BFB6E
:10054C0005F8010BBD42F8D10821304602F0B6FB8C
:10055C0094F83030834208D00123002084F83330E3
:10056C00A8E70323ADE70423ABE7238D94F82950C8
:10057C00238394F83130042B47D194F82A8045EA30
:10058C000823ED082383404684F8295005F0CEFE5D
:10059C0005F03CFB064628460F4605F0C7FE05F065
:1005AC0035FB0022244B05F089FB18F0800F024626
:1005BC000B4625D03046394605F0C8F905F0B0FD9C
:1005CC0015E094F82C20B4F9183012F0600202D126
:1005DC0023F007032DE0202A0CD0402A0DD0B4F9CB
:1005EC00180005F0A7FE4FF0765105F0F7FEE0611C
:1005FC0001205FE723F003031BE023F0010318E065
:10060C003046394605F0A4F9D8E7032BF0D8012B76
:10061C00D7D8EDD1B4F9183094F82F20DB00102A7C
:10062C002383DCD194F82E2023F00F03C2F10C02AB
:10063C0013442383D3E700BF0000A03F38B500F17B
:10064C00200529460446FFF705FF02F0CCFA38B91D
:10065C000123204684F8323002F0BFFA002038BD66
:10066C000721284602F02AFB94F82730834203D056
:10067C00012384F83330F1E729462046BDE83840A1
:10068C00FFF704BFC0697047036A0B60436A4B6095
:10069C00704790F83200704790F8330070470000B4
:1006AC002DE9F0412D4E04F0EDFC2D49FFF7FBFC3C
:1006BC00374605253446DFF8AC8002F07DF902F0B0
:1006CC0095F9386004F0DEFC414657F8042BFFF72F
:1006DC00EAFC00F0ABFE962004F088F8013DECD16A
:1006EC00D4E900321344A2682F461344E268134441
:1006FC00226905241344B3FBF4F456F8042B01359A
:10070C002744052DA7EB0207F7D1042B08D816496F
:10071C001648FFF7EDFC4FF47A742046BDE8F081E3
:10072C0004F0B0FC0F3C3A461149FFF7BCFC04F056
:10073C00A9FC22460F49FFF7B6FC2146C4F5B47458
:10074C000D4844EAE47401F0C1F904F09BFC224624
:10075C000A49FFF7A8FC00F069FEDEE7580100200B
:10076C007A790A0891790A08A9790A08D3790A08CA
:10077C00DA790A08ED790A080D7A0A08197A0A0852
:10078C000EB403B503AB53F8042B0021019303F013
:10079C00CFFE02B05DF804EB03B0704707B50A4812
:1007AC00FFF77AFF40B104F06DFC084903F086FEB8
:1007BC00002003B05DF804FB03486946FFF764FFB3
:1007CC009DF80700F5E700BF6C010020367A0A0897
:1007DC002DE9F74304F056FC234903F082FE002672
:1007EC00224DDFF88C80DFF88C902846FFF726FF2F
:1007FC0020B3FFF7D3FF044604F044FC0746284619
:10080C00FFF740FF05F002FA33462246CDE900011E
:10081C0041463846FFF7B4FF2146484601F056F9E9
:10082C00FA2003F0E3FF252C06F1010613D128462C
:10083C00FFF728FF05F098FF0F4B18602846FFF7CD
:10084C0028FF0028D1D00948FFF71CFF05F08CFFCA
:10085C0003B0BDE8F083972CF0D12846FFF712FFC8
:10086C0005F082FF054BE8E7427A0A086C0100208C
:10087C00547A0A087F7A0A08600300206403002077
:10088C00002205210148FFF7F3BD00BF6C010020D9
:10089C0003685B691847704710B504464C2104F097
:1008AC0036FF204610BD10B50446006808B103F0B1
:1008BC006FF9204610BD10B590F84940621CD2B2B9
:1008CC0004443F2A80F84920617202D903681B69ED
:1008DC009847012010BD06F00DB9000010B504F0CA
:1008EC00D1FB5B2103F0EEFD04F0CCFB044602F0DF
:1008FC006DFE0A220146204603F0FDFD04F0C2FB0A
:10090C00BDE81040014903F0D9BD00BF897A0A083F
:10091C0013B50446054B00221B788DF800303C23A0
:10092C0004F072F9204602B010BD00BF180200207E
:10093C00002340681A46194603F0A2B808B502F025
:10094C00CFFE034B1860BDE8084003F0D9B800BFD8
:10095C00F40800200346006820B15B68984201D27D
:10096C0006F0C8B80020704738B50568044645B194
:10097C0043689D4205D2284606F035FA01300544FD
:10098C002560204638BDF8B504460D46476821B9A8
:10099C0003687A1C4260D955F8BD084606F023FA64
:1009AC00A368461CF2199A42F6D8206832462946AA
:1009BC00384406F0A7F9606830446060ECE700004A
:1009CC0038B5044625680B46D4E90101044A091AD6
:1009DC00284403F0FDF8636801300344636038BDBC
:1009EC008C7A0A0838B5044625680B46D4E901010F
:1009FC00044A091A284403F0EBF8636801300344F5
:100A0C00636038BD8F7A0A08F0B5476B044687B02F
:100A1C002FB3FFF763FF04F035FB334903F04EFDB2
:100A2C0004F030FB616B03F049FD04F02BFB3A2121
:100A3C0003F048FD04F026FB05460A22218F03F043
:100A4C005AFD284603F041FD00232046228F616B9E
:100A5C0003F0FAFB431E5842584107B0F0BDFFF7B4
:100A6C003DFF04F00FFB204903F028FD04F00AFBC6
:100A7C000A2294F8231003F03EFD04F003FB2E2110
:100A8C0003F020FD04F0FEFA0A2294F8221003F081
:100A9C0032FD04F0F7FA2E2103F014FD04F0F2FA03
:100AAC000A2294F8211003F026FD04F0EBFA2E2113
:100ABC0003F008FD04F0E6FA254606460A2215F86E
:100ACC00201F03F018FD304603F0FFFC074B01AE6E
:100ADC0000930FCD0FC62B686946337020463B46FA
:100AEC00228F03F03FFAB5E7937A0A08D48E0A08EE
:100AFC0038B503F031FE3C25044603F039FE05FB06
:100B0C000400054B186003F01BFE044603F024FEA2
:100B1C0005FB040038BD00BF0004002010B50446DE
:100B2C0003F01AFE241A48BF3C3404F0ABFA2246F8
:100B3C000249FFF7B8FA204610BD00BFA27A0A0896
:100B4C0038B50A2004F033FD4FF420440B4D0C4B08
:100B5C006843B0FBF4F018600C2004F028FD6843E7
:100B6C00B0FBF4F0074B18600B2004F020FD684339
:100B7C00B0FBF4F0044B186038BD00BF4C2A0200E7
:100B8C00A4010020A8010020A001002008B502F05B
:100B9C00B3F801F003FF0121084604F0CBFC01215E
:100BAC00022004F0C7FC0021022004F0D4FC002138
:100BBC00012004F0D0FC0021084602F089FA002143
:100BCC000E4B1860084602F041FB0D4B01211860DA
:100BDC00072004F0AFFC0021062004F0ABFC04F06D
:100BEC0025FD14220020074902F08AFD40F2E11293
:100BFC00054B1A600022054B1A6008BD54030020F7
:100C0C005C03002014030020240000202803002093
:100C1C0038B5062004F0B8FC0128044610D1094B65
:100C2C00094918600948FFF763FA094B5D68012D03
:100C3C0004D108490548FFF75BFA2C46204638BD1D
:100C4C000024F2E72C030020C77A0A08E17A0A088C
:100C5C0014030020E97A0A0810B5062004F094FC6D
:100C6C00431E064C58425841206004F00BFA22688F
:100C7C000349FFF718FA206810BD00BF2C030020B1
:100C8C00FF7A0A082DE9F04385B003F07DFD044698
:100C9C0003F08EFD054603F093FD064603F050FD70
:100CAC00074603F059FD804603F062FDDFF82490FF
:100CBC002B462246CDE9028007494846CDE900671C
:100CCC0002F076FF04F0DEF9494605B0BDE8F043CA
:100CDC0003F0F4BBC0030020147B0A0808B50868B5
:100CEC00FFF7F9FD012805D1BDE8084000210846B1
:100CFC0002F052BB08BD08B50868FFF7ECFD0128EF
:100D0C0004D1BDE808400F2102F046BB08BD00002D
:100D1C0010B50446034B40F8183BFFF7D2F92046B8
:100D2C0010BD00BF4C8E0A0808B50023437700683D
:100D3C0003F0C2F9BDE8084002F04CBC2DE9F043C9
:100D4C0001EB02088FB0414507460D469146CDE9AF
:100D5C00051880F09E8005A80E88FFF705FE036835
:100D6C00434580F0968005A8FFF7F4FD47F2762303
:100D7C009E42C4B200F0B58028D847F261239E424F
:100D8C0000F08A8047F264239E424DD046F67053A1
:100D9C009E4228D1684E694FDFF8A491059B984577
:100DAC0077D905A8FFF7D6FDC5B205A8FFF7DCFD7E
:100DBC00059C3146204605F0E9FF014638BB284624
:100DCC0004F0B8FB05A8FFF7CFFDE7E747F2647323
:100DDC009E424AD047F276739E4200F0928047F2D0
:100DEC0061739E426AD0FFF779FD04F04BF95549C7
:100DFC0003F064FB04F046F9294603F072FB002370
:100E0C000222CDE90133009219467A8B29E039464A
:100E1C00204605F0BBFF28B14946204605F0B6FF39
:100E2C000028CFD10121CAE70AAB07930025102374
:100E3C00454907A8CDE90853FFF7A5FD07A82146AA
:100E4C00FFF7BEFD204604F09FFB014607A8FFF705
:100E5C00C9FD2A461421089BCDE90155013B00939D
:100E6C00079B384600F0E8FA13E005A8FFF77CFD75
:100E7C00036898450DD9A4B20121204604F05AFB11
:100E8C0005A8FFF767FD011E18BF0121204604F0DD
:100E9C0062FB0FB0BDE8F0830AAB0793002510236B
:100EAC0007A82A49CDE90853FFF76DFD07A821468D
:100EBC00FFF786FD204604F07AFBC6E705A8FFF78E
:100ECC0053FD03689845E4D9A4B20121204604F0EF
:100EDC0031FB05A8FFF73EFD0146204604F07EFBE2
:100EEC00D7E720468DF8284002F076FB03460AA887
:100EFC0023B1174A934201D09847CAE702F068FB26
:100F0C00C7E705A8FFF730FD059B20465D1BA9EB45
:100F1C000505CDE90A350C958DF81C4002F066FBF1
:100F2C0003460AA907A823B10A4A934201D098475D
:100F3C00AFE702F04EFBACE7327B0A08D97B0A081C
:100F4C00357B0A083F7B0A08397B0A083C7B0A0878
:100F5C00DD350A08DF350A082DE9F0418CB004AF05
:100F6C00044605220068391D03F028FB002849D0EF
:100F7C00052804D000202037BD46BDE8F081B7F825
:100F8C0005305BBA9AB2A7F80530B7F807305BBAF0
:100F9C001FFA83F8A7F80730002AEBD03B79002B17
:100FAC0053D102F013FB657FE060B7F80700002D0A
:100FBC0047D1B7F80530012B43D1092824D0C828D4
:100FCC0001D004282AD10125FFF788FC04F05AF837
:100FDC00B54903F073FA04F055F86369E1680A2225
:100FEC00C91A03F088FA04F04DF8B04903F079FA05
:100FFC00E36820466361657700F058FEFFF79EFCBE
:10100C0002F0E8FA0120B6E7FFF768FC04F03AF8C2
:10101C00A74903F066FA03236377ABE7FFF75EFC9F
:10102C0004F030F8A34903F049FA04F02BF8044615
:10103C000A22B7F8071003F05EFA204603F045FACF
:10104C0098E7053818BF012095E7B8F5806F15D9DA
:10105C00FFF744FC04F016F8974903F02FFA04F05C
:10106C0011F805460A22B7F8071003F044FA28468F
:10107C0003F02BFA2046FFF757FEC3E76E4608F144
:10108C000803DB08A6EBC3039D4604AD4246294684
:10109C00206803F093FA80454FF0000077D1B7F841
:1010AC000730E85402F092FA3B79E060142B00F020
:1010BC00B88038D80F2B00F0B48007D8022B39D069
:1010CC00062B49D02046FFF72FFE50E0112BF9D10B
:1010DC0000233B70B7F807302B449D42C7E90353FC
:1010EC0045D207F10C002C68FFF73EFCFA68B7F804
:1010FC000730551B5D1B714BC7E905259C42FD61F3
:10110C0000F0B98000F29A806D4B9C4200F0A780F1
:10111C0003F5003303339C4229D1384607F11401FF
:10112C0002F057FA23E0292B23D0372B00F0A980AB
:10113C001D2BC7D1637F7BB9FFF7D0FB03F0A2FF58
:10114C00604903F0CEF901232046637700F0AEFD31
:10115C00FFF7F4FB02F03EFA0023C821B7F8052094
:10116C0020460091CDE90133194600F065F90120C4
:10117C000DE0A3681BB9202002F002FDA060B7F8B7
:10118C000780A8444545C7E9055802D30020B54659
:10119C00F1E6294600252022A06805F040FEA36850
:1011AC0007F11400DD77FFF7DFFB0368984536D9AC
:1011BC00786920B1BB6998422FD205F09FFC85B2AB
:1011CC00FFF78CFB03F05EFF3F4903F077F903F068
:1011DC0059FFA16803F072F903F054FF3A2103F0B0
:1011EC0071F903F04FFF80460A22294603F083F978
:1011FC00404603F06AF9206802F05EFF2368A2689B
:10120C001D875A630023637702F0E0F9A0F59C5028
:10121C000838C4E903006061A9E72846CFE75025E8
:10122C00CEE77B682946C3F30F2363832046B7F8C8
:10123C000720FFF783FD0023638398E7234B9C4231
:10124C0013D003F19F6303F5003303F580739C42C5
:10125C008DD1384607F1140102F0BBF987E7384607
:10126C0007F1140102F0B5F981E7384607F11401D2
:10127C0002F0AFF97BE7384607F1140102F0A9F947
:10128C0075E7B7F80730002B3FF471AFFFF726FB7B
:10129C0003F0F8FE0E4903F011F903F0F3FE2946B2
:1012AC0003F01FF963E700BF507B0A085E7B0A0856
:1012BC00637B0A08767B0A088D7B0A086D6574616E
:1012CC006F7461009E7B0A08A47B0A0861636F6ED1
:1012DC00B47B0A08F0B5044685B00D46FFF72EFB2B
:1012EC00637F022B1ED0237F628B0133DBB223770B
:1012FC00AAB9022B13D8206802F035FFA0B125B98A
:10130C00206802F09FFE00280EDD2046FFF724FE29
:10131C000028F5D1206802F0CFFE02F05BF9237FA4
:10132C00013B237705B0F0BD02F050F9054620686B
:10133C0002F019FF677F0646012F2CD120B9656199
:10134C002046FFF7F1FCEAE744F63822E368EB1A93
:10135C00934207D9FFF7C2FA03F094FE274903F032
:10136C00C0F8EDE742F21072934203D82369EB1AEE
:10137C009342D4D940F6B8326369EB1A9342CED972
:10138C00002306211A462046CDE90133009300F0D4
:10139C0053F86561C3E7002FC1D16369EB1A78B1CB
:1013AC0040F6B8329342BAD9FFF798FA03F06AFEC6
:1013BC00134903F096F8206802F07EFE6777AEE7DB
:1013CC0041F288329342AAD9206802F075FE206857
:1013DC00FFF71AFB0028DCD0012567682583384607
:1013EC0005F001FD3B4600902A461D212046CDE923
:1013FC00016600F021F82369636190E7BD7B0A0860
:10140C00CF7B0A0870B5142500244543064EA5422F
:10141C0008DD322003F0EAF900213046FFF75AFFCD
:10142C000134F4E770BD00BFAC010020002101487D
:10143C00FFF750BFAC0100202DE9F04F83B00446FC
:10144C0000AF0068884616469946EB463D6B02F0A5
:10145C008AFE00287FD0B8F11D0F04D84C4B23FA1C
:10146C0008F3DB0702D4637F012B74D146B9668B7A
:10147C0036B9238B01339BB2002B71D02383268B7F
:10148C00A8F10C03082B16D8D4E90323934238BFD8
:10149C00134603F1420A02F099F8AAEB0000002867
:1014AC0060DB00212046FFF715FF02F08FF8AAEB56
:1014BC0000000028F5DAB9F1000F5AD06B1D7A6BD9
:1014CC0076BA002ABA6B08BF002203EB020A0AF1B3
:1014DC00070323F00703ADEB030DBB6BC7F804D078
:1014EC00EA18C2F3072343EA02238DF80080ADF813
:1014FC000160ADF80330B9F1000F3CD0002D3AD0AB
:10150C002A4649460DF1050005F0FCFB681D7B6B76
:10151C003BB1BB6B2BB11A467B68796B184405F059
:10152C00F1FB002555452AD2AAEB05027B68B2F5E2
:10153C00806F28BF4FF480622068591902F047FC75
:10154C000646002002F040F8BEB9206802F0B4FD57
:10155C00667702F03FF8DD460C37BD46BDE8F08FEC
:10156C0001238BE7217F0029A5D12046FFF7B2FE8E
:10157C00A1E70523A3E70520C9E73544D2E703D04B
:10158C002046FFF7D1FBE6E702F020F82061E2E706
:10159C0045000020F0B590F8496004468BB0E6B1E8
:1015AC0005AB002507930823077A0D4907A8CDE959
:1015BC000853FFF7E8F9394607A8FFF701FA04F1D9
:1015CC0009030193089B2A4600931421079B0548A5
:1015DC000296FFF731FF84F849500BB0F0BD00BF05
:1015EC00DD7B0A08AC01002010B50446FFF74AFB6E
:1015FC0003F048FD214602F074FF064B1B68012BDB
:10160C0006D12146044802F06CFF0348FFF7C2FFE5
:10161C0010BD00BF6C0300207003002008B51148FA
:10162C00FFF7E2FF1048FFF7DFFF1048FFF7DCFF82
:10163C000F48FFF7D9FF0F48FFF7D6FF0E48FFF70B
:10164C00D3FF0E48FFF7D0FF0D48FFF7CDFF0D4835
:10165C00FFF7CAFF0C48FFF7C7FFBDE808400B486F
:10166C00FFF7C2BFE07B0A08E87B0A08F47B0A0894
:10167C00087C0A082A7C0A084A7C0A085E7C0A084C
:10168C00737C0A089A7C0A08B77C0A08C87C0A088A
:10169C0008B50868FFF71FF901280DD10748FFF7B7
:1016AC00A3FF0023064A07491360074A0748136043
:1016BC00BDE80840FEF71CBD08BD00BFE67C0A086B
:1016CC006C030020FB7C0A0868030020E17A0A08FE
:1016DC0010B50868FFF7FFF8012811D1094C6060BC
:1016EC0003F0A4FF21461422002002F011F8064852
:1016FC000649FEF7FDFCBDE810400548FFF774BF36
:10170C0010BD00BF14030020E17A0A081D7D0A08F1
:10171C003D7D0A0838B50868FFF7DDF8012812D1BD
:10172C000024094D6C6003F081FF294620461422E9
:10173C0001F0EEFF05480649FEF7DAFCBDE838403B
:10174C000448FFF751BF38BD14030020E17A0A08A2
:10175C00637D0A08827D0A0808B50868FFF7BBF8A4
:10176C0001280BD106490748FEF7C2FCFA2001F00C
:10177C0075FEBDE808400448FFF736BF08BD00BF42
:10178C00A77D0A08E17A0A08CE7D0A0808B5086820
:10179C00FFF7A1F801280ED10021084601F056FDF3
:1017AC00054B064918600648FEF7A2FCBDE8084048
:1017BC000448FFF719BF08BD5C030020EE7D0A0842
:1017CC00E17A0A08117E0A0810B50868FFF783F859
:1017DC00012811D1094CA06003F028FF21461422E6
:1017EC00002001F095FF06480649FEF781FCBDE894
:1017FC0010400548FFF7F8BE10BD00BF14030020D1
:10180C00E17A0A08397E0A08657E0A0838B5086844
:10181C00FFF761F8012812D10024094DAC6003F0E8
:10182C0005FF29462046142201F072FF054806499F
:10183C00FEF75EFCBDE838400448FFF7D5BE38BD66
:10184C0014030020E17A0A08817E0A08AB7E0A089C
:10185C0008B50868FFF73FF801280ED1074BD96887
:10186C0001F036FC064B074918600748FEF740FCB0
:10187C00BDE808400548FFF7B7BE08BD14030020BB
:10188C0058030020C57E0A08E17A0A08F27E0A088D
:10189C0008B50868FFF71FF801280ED1002108468B
:1018AC0001F016FC054B064918600648FEF720FCB3
:1018BC00BDE808400448FFF797BE08BD5803002058
:1018CC001F7F0A08E17A0A081E7F0A0838B5044609
:1018DC000D46FFF7D7F92B6822460A490A4802F051
:1018EC0067F903F0CFFB084902F0FBFD074B1B68BF
:1018FC00012B06D10449064802F0F3FD0448FFF71A
:10190C0049FE38BD497F0A081A0200206C030020EA
:10191C007003002010B50446FFF7B4F903F0B2FBD6
:10192C00216802F0DEFD064B1B68012B06D12168F5
:10193C00044802F0D6FD0348FFF72CFE10BD00BF93
:10194C006C0300207003002070B505461E4E8CB051
:10195C000C4604A8314602F0F7FC2946684602F012
:10196C00F3FC694604A802F058FD014608A802F0F1
:10197C002AFD08A8FFF7CEFF08A802F09BFC6846DA
:10198C0002F098FC04A802F095FC314604A802F081
:10199C00DBFC2146684602F0D7FC694604A802F03D
:1019AC003CFD014608A802F00EFD08A8FFF7B2FFA7
:1019BC0008A802F07FFC684602F07CFC04A802F048
:1019CC0079FC0CB070BD00BF4F7F0A0870B50D4696
:1019DC008CB0374904A802F0B7FC2946684602F0DF
:1019EC00B3FC694604A802F018FD014608A802F0F1
:1019FC00EAFC08A8FFF78EFF08A802F05BFC68461B
:101A0C0002F058FC04A802F055FC294604A802F088
:101A1C009BFC284908A802F097FC08A904A802F02E
:101A2C001EFD254CA368002B14BF002600F00106F8
:101A3C0008A802F03FFC04A802F03CFC66B10123AC
:101A4C00A36003F0F3FD21460020142201F060FE98
:101A5C001A491B48FEF74CFB294604A802F074FCFB
:101A6C00184908A802F070FC08A904A802F0F7FCB9
:101A7C00A368012B14BF002500F0010508A802F093
:101A8C0019FC04A802F016FC7DB10025A56003F03A
:101A9C00CDFD28461422084901F03AFE0A490848AF
:101AAC000CB0BDE87040FEF723BB0CB070BD00BF9E
:101ABC004F7F0A085C7F0A0814030020607F0A0825
:101ACC00E17A0A08C4820A088D7F0A0838B50446F0
:101ADC000D46FFF7D7F82B4622460A490A4802F072
:101AEC0067F803F0CFFA084902F0FBFC074B1B68C0
:101AFC00012B06D10449064802F0F3FC0448FFF719
:101B0C0049FD38BD497F0A081A0200206C030020E9
:101B1C0070030020F7B50022434B1146586801F0C2
:101B2C00A7FF064601F0FCFF0746FFF7ABF83F4B5B
:101B3C001B68012B03D13E493E4802F0D2FC3E4BC0
:101B4C003E4D19683E483F4CFFF7C0FFFEF7F8FFCB
:101B5C0029683D48FFF7BAFF21683C48FFF7B6FFFC
:101B6C003B4B3C481968FFF7B1FF2B68B3F57A7F04
:101B7C000AD903F087FA2A683749FEF794FA2A68DB
:101B8C0036493748FEF706FB2368B3F57A7F0AD946
:101B9C0003F078FA22683349FEF785FA2268324955
:101BAC002F48FEF7F7FA012003F0EEFC2F4B01282B
:101BBC00186006D12E48FFF717FD2E492E48FEF768
:101BCC0097FA022003F0E0FC2C4B0128186006D198
:101BDC002B48FFF709FD2B492748FEF789FA2A4BBA
:101BEC001B68012B06D12948FFF7FEFC2849224827
:101BFC00FEF77EFA03F046FA264B27491A68FEF7E1
:101C0C0052FA03F03FFA254B25491B68254A0093ED
:101C1C00002F14BF0B461346002E18BF0A4622494C
:101C2C00FEF741FA03B0F0BDD40800206C0300208D
:101C3C00C003002070030020F8030020A401002042
:101C4C00B87F0A08A8010020F17F0A0826800A083C
:101C5C00A0010020C07F0A08D07F0A08EA7F0A088A
:101C6C0001800A0805800A081F800A085803002012
:101C7C0036800A0847800A0859800A085C0300204D
:101C8C0060800A0875800A08540300208A800A08BC
:101C9C009C800A0828000020AE800A08300300202F
:101CAC00C4820A085C7F0A08BF800A0800B595B098
:101CBC0004AB002201935023112100930292034B99
:101CCC00FFF7BAFB15B05DF804FB00BFC0840A082F
:101CDC00F0B5ADF2244D08AB00240F4605934FF43C
:101CEC008063164605460E4905A8CDE90643FEF766
:101CFC004AFE394605A8FEF763FE314605A8FEF7F5
:101D0C0042FE069B2246013B009314212846CDE956
:101D1C000144059BFFF790FB0DF2244DF0BD00BF75
:101D2C00DD7B0A0830B54A4C87B02046FFF732FC01
:101D3C00484A217A4848FFF7CBFFFEF7A3FF474BF1
:101D4C001B68012B03D12046454902F0CAFB372002
:101D5C00FEF7E4FE434902A802F035FB02A9424813
:101D6C00FFF7B4FD02A802F0A5FA404902A8FEF75D
:101D7C00CFFD03A8FEF7A5F94FF4FA7002F036FD7B
:101D8C00FEF76AFFFEF744FF394B3A4C1B783A4A90
:101D9C003A498DF8003002A83C2302F035FF03A825
:101DAC00FEF78FF903F042FC14222146002001F0CB
:101DBC00A7FC21683248FFF789FE61683148FFF7BC
:101DCC0085FEA1683048FFF781FEE1682F48FFF7D8
:101DDC007DFE21692E48FFF779FEA2682D492E4819
:101DEC00FEF7D8F9E2682D492B48FEF7D3F92269A2
:101DFC0027492948FEF7CEF9FEF752FC284B02463C
:101E0C00186028492448FEF7C5F9A368012B03D1B3
:101E1C0025492148FEF76CF9244C254DFEF7D8FCDA
:101E2C0021682448FFF752FE29682348FFF74EFE2D
:101E3C002B68226821490A4801F0BAFE084920485B
:101E4C00FEF756F91F4807B0BDE83040FFF7CCBB92
:101E5C0070030020E2800A08AC0100206C03002013
:101E6C00C00300203403002056790A0865790A085B
:101E7C0019020020140300201A02002068820A08AC
:101E8C00E6800A08FC800A0812810A0828810A08E0
:101E9C003E810A0854810A08D3790A0861810A082C
:101EAC002800002073810A0882810A086003002040
:101EBC0064030020B0810A08BC810A080D790A0865
:101ECC00E17A0A08C8810A082DE9F041051E88B09C
:101EDC0040F3EB80782DA8BF7825754F754B7C6847
:101EEC001B68754E1C4333681C4340F0DB80734801
:101EFC00FFF77AFB2146204601F0EAF8704B2146A9
:101F0C001860204601F0A2F96E4B2146186020465D
:101F1C0001F042FA4FF03C083060012621460120C6
:101F2C0003F019FB2146022003F015FB2146052086
:101F3C0000F09CFF4FF47A7002F058FC214605200B
:101F4C0000F094FF2A4660496048FEF723F94FF4ED
:101F5C007A7002F04BFC08FB05F55D4B32461B68B2
:101F6C000DF11601029306A80DF11503CDE90065DC
:101F7C00ADF816608DF8156001F0C6FE5548FFF7F8
:101F8C0033FB5548FEF7D4FC41F2883002F02EFCAE
:101F9C0001F0BEFD40F6B83002F028FC01F0C0FDA7
:101FAC00002834D04D494E48FEF7A2F8FA684D4946
:101FBC004B48FEF7EFF8334622464B49CDE9004437
:101FCC004A4801F0C5FD234622464949CDE9004463
:101FDC00484801F0BDFD4FF4FA7002F007FC43498C
:101FEC0006A8FEF795FC07A8FEF76BF84FF4FA70FD
:101FFC0002F0FCFB404B06A81B78404A8DF80030E1
:10200C003F49434602F000FE07A8FEF75AF8FEF7D8
:10201C006FFD3C4B1860FEF7B9FD03F007FB142273
:10202C000020234901F06CFBFB681E3BD22B08D926
:10203C005A23FB6003F0FAFA142200201C4901F029
:10204C0067FBBB68012B03D12F492548FEF750F8DD
:10205C002E4C2F4DFEF7BCFB03F014F822682B68B6
:10206C002C49FEF720F822682B682B492B4801F0ED
:10207C009FFD2A491A48FEF73BF8FFF753FE02F082
:10208C005FFB044602F05CFB082C04DD0A2802DC32
:10209C005F2001F0E3F90023214A1360214A136009
:1020AC00214A136008B0BDE8F081052515E700BF93
:1020BC00140300202C03002054030020E2810A08A2
:1020CC00580300205C030020FA810A08D3790A081F
:1020DC001402002015820A08D408002027820A085E
:1020EC0039820A0841820A0855190A0865790A08D2
:1020FC00D9190A085A820A08190200201A0200206B
:10210C0068820A08F803002082810A086003002014
:10211C006403002075820A080D790A08C0030020A8
:10212C0050030020300300206C03002008B5086821
:10213C00FEF7D1FB012811D1094B18600948FFF7B4
:10214C0053FA09490948FDF7D3FF0322084B1A60DB
:10215C00FFF7E8FDBDE80840FFF7DCBC08BD00BF99
:10216C006C03002092820A08A6820A08E17A0A0807
:10217C0068030020F0B587B002F084FF4FF4E13122
:10218C0002F066FF4FF4FA6002F030FB4FF0804033
:10219C0002F08AFA02F076FF6649FDF784FF02F03E
:1021AC0071FF6449FDF77FFF02F06CFF6249FDF798
:1021BC007AFF02F067FF6149FDF775FF604C02F092
:1021CC0061FF5D49FDF76FFF02A801F0B1FC02A9A8
:1021DC00204602F003F902A802F06CF802F052FF5C
:1021EC002168FDF760FF5748FEF7A2FB40F6B830B8
:1021FC0002F0FCFA01F08CFC40F6B83002F0F6FA72
:10220C0001F08EFC20B30024012322464E49CDE977
:10221C0000444E4801F09CFC4C4902A8FEF778FBA8
:10222C0003A8FDF74EFF234622464949CDE9004459
:10223C00484801F08DFC484B02A81B78474A8DF8A2
:10224C00003047493C2302F0DFFC03A8FDF739FFBF
:10225C0040F6B83001F0B8F9424C434B00266360AD
:10226C0001F0B4F9A0F59C500838C4E90300606192
:10227C00FEF734FB02F006FF3C4902F032F923680A
:10228C003B4A42F227375A6350221A87206801F0E2
:10229C0013FF667701F09AF90546637F012B0CD08A
:1022AC0001F094F9401BB84204D800212046FFF7F6
:1022BC0011F8F2E7637F012BE8D140F6B8302D4CD2
:1022CC0002F094FA1A222C492C48FDF763FFFEF712
:1022DC005DFC03F0ABF914222146002001F010FA4A
:1022EC00E3681E3BD22B08D95A23E36003F09EF916
:1022FC0014222146002001F00BFAE26820491F4805
:10230C00FDF748FFA368012B03D11E491B48FDF7BD
:10231C00EFFEFFF707FDFFF781F9FEF7E9FB4EF63D
:10232C006022194B1860194B1A600022184B1A6066
:10233C0007B0F0BD92860A08C7820A08DE820A0836
:10234C0034030020D408002055190A0865790A08BE
:10235C00D9190A085A820A08190200201A02002008
:10236C0068820A08AC01002000000020EC820A08F8
:10237C0081830A081403002091830A08AB830A089E
:10238C0041820A0882810A08F803002030030020E9
:10239C006C03002070B500214048FEF79BFF404ABB
:1023AC000A2013683F4E0133136002F01FFAFEF748
:1023BC009FFB306002F0B3F910F001003A4C1ED1D3
:1023CC00236801332360394B196801F007F801F0D9
:1023DC008DF802F0C1F90A280ED102F0B1F90546C8
:1023EC0002F0AEF9092D01DC042851DC3720FEF790
:1023FC0095FB3C30FFF768FD0120FFF703F80A213D
:10240C00256895FBF1F301FB13550DBBFFF782FB20
:10241C00FEF722FC264B3268186040F22D139A42CC
:10242C0007D12946042000F021FD22492248FDF75E
:10243C005FFE3368B3F5977F07D10121042000F0CC
:10244C0015FD1E491C48FDF753FE2368013323601C
:10245C002368B3F5967F1FDD00252560FFF762FC2E
:10246C0040F2465332689A42C8BF154B154AC8BF52
:10247C001D601368002B0FDD013B136063B912481C
:10248C00FFF7B2F8BDE8704010490B48FDF730BEBD
:10249C003720FEF743FBADE770BD00BFAC01002059
:1024AC0030030020F80300205003002024000020FB
:1024BC002C030020B1830A08E17A0A08C3830A08B6
:1024CC002803002068030020D6830A08E8830A0842
:1024DC002DE9F041ADF5846D1E4608AB002488460D
:1024EC0005934FF4806317460546104905A8CDE9BE
:1024FC000643FEF748FA414605A8FEF761FA39464D
:10250C0005A8FEF740FA314605A8FEF73CFA069BF3
:10251C002246013B009314212846CDE90144059B3A
:10252C00FEF78AFF0DF5846DBDE8F081DD7B0A08AE
:10253C0010B50C460B6805481621054AFFF7C8FF75
:10254C002368BDE810401878FDF788BEAC01002068
:10255C0005840A08F0B5ADF2244D08AB00240F46F3
:10256C0005934FF48063164605460E4905A8CDE940
:10257C000643FEF708FA394605A8FEF721FA31465C
:10258C0005A8FEF71DFA069B2246013B0093142179
:10259C002846CDE90144059BFEF74EFF0DF2244D74
:1025AC00F0BD00BFDD7B0A0810B50868FEF793F993
:1025BC00012804460BD10648FFF716F821460920DE
:1025CC0000F054FCFF2221460248FFF7C3FF10BD68
:1025DC0010840A08AC01002008B50868FEF77BF9E6
:1025EC0001280BD10648FEF7FFFF0021092000F05F
:1025FC003DFCFF2202210348FFF7ACFF08BD00BFE2
:10260C001C840A08AC01002010B50868FEF763F9B9
:10261C00012804460BD10648FEF7E6FF21460820A8
:10262C0000F024FCFF2214210248FFF793FF10BD99
:10263C0028840A08AC01002008B50868FEF74BF99D
:10264C0001280DD1FEF71EFB0648FEF7CDFF002139
:10265C00082000F00BFC002214210348FFF77AFF3E
:10266C0008BD00BF34840A08AC01002010B508680E
:10267C00FEF731F9012804460BD10648FEF7B4FFEA
:10268C002146204600F0F2FBFF2214210248FFF7FE
:10269C0061FF10BD40840A08AC01002010B5086829
:1026AC00FEF719F9012804460BD10648FEF79CFFEA
:1026BC000021204600F0DAFB002214210248FFF72B
:1026CC0049FF10BD4C840A08AC01002008B508680D
:1026DC00FEF701F901280BD10022064B1A60064BBC
:1026EC00196800F07BFEFF2214210448FFF732FF2B
:1026FC0008BD00BF2803002024000020AC010020EE
:10270C0008B50868FEF7E7F8012810D10021084643
:10271C0000F042FE0021064B1860084600F0D8FC81
:10272C00044B0022186014210348FFF713FF08BD67
:10273C005403002058030020AC01002010B5086899
:10274C00FEF7C9F8012804460BD10648FEF74CFFEA
:10275C002146032000F08AFBFF2214210248FFF7D8
:10276C00F9FE10BD58840A08AC01002008B50868B1
:10277C00FEF7B1F801280BD10648FEF735FF002112
:10278C00032000F073FB002214210348FFF7E2FE44
:10279C0008BD00BF64840A08AC01002010B50868AD
:1027AC00FEF799F80128044613D10A48FEF71CFFDE
:1027BC002146204600F0FCFB2146022000F0F8FBED
:1027CC002146032000F0F4FBFF2214210248FFF7FE
:1027DC00C1FE10BD70840A08AC01002010B5086859
:1027EC00FEF779F80128044613D10A48FEF7FCFEDF
:1027FC000021204600F0DCFB0021022000F0D8FB79
:10280C000021032000F0D4FB002214210248FFF722
:10281C00A1FE10BD83840A08AC010020F8B5002489
:10282C000127244B244D1C60244B254E1C70254B3A
:10283C0028461F7001F0F0FC05F11C0002F076FB3D
:10284C00324621496C632C87284602F05BFF1F4BF4
:10285C000320C3E90054C3E902441D4DC3E90444F9
:10286C009C619C831B4BC5E90044AB6001F09AF85A
:10287C00324628461849194D02F044FF2146384685
:10288C0001F0A0F82846164901F05EFD32462846B4
:10289C00144902F037FF1623134832460372134BC8
:1028AC004460036080F849401149BDE8F84002F0EB
:1028BC0029BF00BF14020020D801002018020020FC
:1028CC0050010020190200201D0D0A08AC01002047
:1028DC00CC0100200000FFFFB3080A0834030020DD
:1028EC0080830A08C1420A0870030020A0840A08E9
:1028FC00A3080A08F8B5274D04462B78264EBFF3DB
:10290C005B8F19B3D80709D42846FDF7C4FB28B14F
:10291C0000F076FE30602846FDF7C2FB1C204443D5
:10292C0037682B782744D907BFF35B8F09D4194834
:10293C00FDF7B1FB28B100F063FE30601548FDF7E0
:10294C00AFFB3368BA881B591A83F8BDDA0709D470
:10295C002846FDF7A0FB28B100F052FE3060284657
:10296C00FDF79EFB1C20444337682B782744DB077C
:10297C00BFF35B8F09D40748FDF78DFB28B100F03E
:10298C003FFE30600348FDF78BFB3368BA881B5958
:10299C005A83DAE7040400200804002008B501215A
:1029AC00032002F0C7FD03200021FFF7A3FFBDE8C1
:1029BC000840322001F01ABF08B50021042002F0B3
:1029CC00B9FD0121032002F0B5FD01210320FFF721
:1029DC0091FF0A2000F07CFE00210320FFF78AFF04
:1029EC00BDE808400121042002F01EBE0A23584312
:1029FC003A23B0FBF3F07047002100F011BE012127
:102A0C0000F00EBE10B5044602F0A2FB1C22238877
:102A1C0053436268D118D3588A881A832088FFF7E9
:102A2C00EEFFBDE8104002F095BB1C220388534317
:102A3C004268D118D3588A885A83704738B50446EF
:102A4C000D4600F0DDFD00216060284602F072FDAD
:102A5C002046258038BD38B5054602F079FB28881C
:102A6C00FFF7CAFF7D2402F075FB013C14F0FF0454
:102A7C002BD0022000F02CFE288800F0E9FDC0B21B
:102A8C000028F2D002F064FB2846FFF7CEFF28881E
:102A9C00FFF7B5FF02F05EFB4FF4F07000F018FE8C
:102AAC0002F056FB2888FFF7A7FF462000F010FE27
:102ABC00288800F0CDFDC4B2B4FA84F402F04AFBCD
:102ACC004FF4CD70640900F003FE204638BDCB07EF
:102ADC0010B5044614D502F03BFB2046FFF7A5FFCA
:102AEC002088FFF78CFF0A2000F0F2FD2088FFF70A
:102AFC0083FF02F02FFB3720BDE8104000F0E8BD4B
:102B0C0002F026FB2046FFF790FF2088FFF777FFA7
:102B1C00412000F0DDFD2088FFF76EFF02F01AFB6C
:102B2C000520E9E710B5044602F012FB2046FFF73A
:102B3C007CFF2088FFF763FF032000F0C9FD20888D
:102B4C00FFF75AFF0A2000F0C3FD208800F080FD3B
:102B5C00044602F0FFFA352000F0BAFDE0B210BDD9
:102B6C002DE9F0410546884616460827012418EA47
:102B7C00040F14BF012100212846FFF7A8FF6400B1
:102B8C00013FE4B2F3D126B12846BDE8F041FFF78E
:102B9C0039BFBDE8F081F8B50746082600250124A9
:102BAC003846FFF7BFFF00B125436400013EE4B295
:102BBC00F6D12846F8BD70B500220C4655210646C4
:102BCC00FFF7CEFF651E073415F8011F00223046B3
:102BDC00FFF7C6FFA542F7D170BD002303828374B3
:102BEC008360C36070472DE9F84F857C04468846A6
:102BFC0075B100202082A07404F1080308F1FF389D
:102C0C00103413F8012B9C4208F8012FF9D104E081
:102C1C00FFF721FF18B92082A074BDE8F88F0127B7
:102C2C002A46F0212046FFF79BFFAA463E46204647
:102C3C00FFF778FF814683462046FFF773FFB9F113
:102C4C00010F0FD1012817D1402ED2D984F810A032
:102C5C00BAF1000F01D10123A374237A002BC8D041
:102C6C000120C9E7814504EB050322D1227CB24245
:102C7C0018D91A7A174216D04FF0010B6219137A31
:102C8C003B431372594620467F00FFF720FF013665
:102C9C0017F0FF07F6B2CAD10135EDB2082DD3D02B
:102CAC000127C4E7E8D0082E00D866744FF0000B5B
:102CBC00B2461A7A22EA07021A72E3E70346014483
:102CCC00002030B58B4215D0082213F8014B80EA56
:102CDC00040515F0010F4FEA500018BF80F08C006E
:102CEC0002F1FF3218BFC0B212F0FF024FEA5404D7
:102CFC00EDD1E7E730BD000010B5074C012120886D
:102D0C0002F018FC2088002102F025FCBDE81040E0
:102D1C004FF4FA7001F06ABD0C0400202DE9F0416B
:102D2C002D4C00210746208802F015FC41F288301A
:102D3C0000F0CEFC0021208802F00DFC41F288301E
:102D4C0000F0C6FC0021208802F005FC41F288301E
:102D5C0000F0BEFC08264FF000083D1D3B68012129
:102D6C004345208805F1100520DD02F0F4FB55F8F1
:102D7C00100C00F0ADFC0021208802F0ECFB55F8A3
:102D8C000C0C00F0A5FC0121208802F0E4FB55F8A6
:102D9C00080C00F09DFC0021208802F0DCFB55F8AB
:102DAC00040C00F095FC08F10408D7E702F0D3FB03
:102DBC004FF4D77000F08CFC0021208802F0CBFB84
:102DCC004FF4FA5000F084FC013EC4D13146208807
:102DDC00BDE8F04102F0BFBB0C0400202DE9F04728
:102DEC00C6B005460E46174602F04CF904460A22B8
:102DFC00294601F080FB204601F067FB3C220021B4
:102E0C0001A803F08DFF40236C464FF00108DFF85A
:102E1C005090DFF850A00093002D1ADAC4E9017627
:102E2C0002F030F9514608F1020801F047FBB8F105
:102E3C00410F4FEA450504F10804EDD102F022F9E7
:102E4C00094901F04EFB6846FFF768FF46B0BDE844
:102E5C00F087C4E9016702F015F94946E3E700BFC2
:102E6C00BD850A0808860A0892860A080B2870B5E0
:102E7C0004460D4604DD02F005F9184901F031FB5A
:102E8C00012D04DD02F0FEF8154901F02AFB0A269B
:102E9C0006FB0544134B53F82440BCB102F0F2F886
:102EAC00114901F00BFB02F0EDF8054632462146C4
:102EBC0001F021FB284601F008FB2046BDE87040DC
:102ECC0040F27E424FF4D771FFF788BF02F0DAF878
:102EDC00BDE87040054901F0F1BA00BF12850A083F
:102EEC002A850A082C00002042850A0850850A0809
:102EFC002DE9F041204C00210646208802F02BFBE6
:102F0C0041F2883000F0E4FB0021208802F023FB22
:102F1C0041F2883000F0DCFB0021208802F01BFB22
:102F2C0041F2883000F0D4FB08254FF00008371D23
:102F3C0033680837434512DD0121208802F00BFB72
:102F4C0057F8080C00F0C4FB0021208802F003FBAA
:102F5C0057F8040C00F0BCFB08F10208E8E742F259
:102F6C00AC6000F0B5FB013DDFD129462088BDE8FF
:102F7C00F04102F0F0BA00BF10040020322330B54B
:102F8C00DBB000936B46441E173014F8015F302DF4
:102F9C000CBFC3E90112C3E90121844203F1080308
:102FAC00F3D16846CDE93112FFF7A2FF5BB030BD1B
:102FBC0030B501288BB023D199B9304B01AC03F15A
:102FCC001805224618685968083303C2AB421446E8
:102FDC00F7D14FF46B72DC2101A8FFF7CFFF0BB0D8
:102FEC0030BD0129F5D1264B01AA03F11805144671
:102FFC0018685968083303C4AB422246F7D1E8E796
:10300C0002280FD00328EAD149BB1E4B01AC03F1B7
:10301C001805224618685968083303C2AB42144697
:10302C00F7D1D6E761B9184B01AC03F1180522466C
:10303C0018685968083303C2AB421446F7D1C8E785
:10304C000129C6D1114B01AA03F1180514461868C1
:10305C005968083303C4AB422246F7D1B9E70129BA
:10306C00B7D10B4B01AA03F118051446186859681F
:10307C00083303C4AB422246F7D1AAE774850A0889
:10308C008D850A08D8850A08A6850A08BF850A080E
:10309C00F1850A0810B5012104460220FFF7E6FE6F
:1030AC000122064B064907481A60FDF721F8064B2A
:1030BC001B681C44054B1C6010BD00BF5403002052
:1030CC000A860A08D3790A0800040020BC030020F1
:1030DC0070B505460E4601F0D5FF4549FCF7E3FFF8
:1030EC0001F0D0FF33462A464249FCF7DCFF0121B0
:1030FC00084602F01FFA012002F046FA3E4C012D60
:10310C0020604BD1002849D13C493D48FCF7F0FFE9
:10311C00FDF7C6FA3B4D024628603B493848FDF79F
:10312C0039F82B683B2B05DC38493548FCF7E0FFB8
:10313C00206870BDFDF7DCFC354B1860354B196809
:10314C00354B0E44012108461E6002F004FA334B45
:10315C0033491A682A48FDF71DF8FA2001F046FB9E
:10316C00012002F011FA2F4D206001F08BFF226834
:10317C002D49FCF798FFFDF7E3FC01F083FF2A686B
:10318C002A49FCF790FF2A6829492A48FDF702F8DA
:10319C0001F078FF1649FCF786FFC9E7002DDCD15A
:1031AC000128DAD1002102F0D6F900221B4B22496A
:1031BC0013481A60FCF79CFFFDF772FA1F4D114E75
:1031CC0002461F4928600E48FCF7E4FF2B68326862
:1031DC001C49D21A0A48FCF7DDFF33682A689B1A8F
:1031EC00032BBADD18490648FCF782FFB5E700BF90
:1031FC0029860A0859860A08580300207B860A0883
:10320C00D3790A084C03002094860A08B3860A086E
:10321C00F803002000040020F403002044030020E5
:10322C00EC860A08A401002092870A08D07F0A08BD
:10323C00A8870A0801800A0809870A0848030020A1
:10324C0024870A0843870A0863870A0870B504466E
:10325C000E4601F017FF3B49FCF725FF01F012FF6A
:10326C00334622463849FCF71EFF0121022002F0AA
:10327C0061F9022002F088F9344D012C28603DD10F
:10328C0000283BD1FDF70CFA314B0246186031494E
:10329C003148FCF77FFF0121022002F05CF92F4935
:1032AC002D48FCF725FFFDF723FC2D4B18602D4B0B
:1032BC0019682D4B0E441E60FA2001F097FA02207B
:1032CC0002F062F9294C286001F0DCFE2A682849DA
:1032DC00FCF7E9FEFDF734FC01F0D4FE2268254929
:1032EC00FCF7E1FE226824492448FCF753FF01F067
:1032FC00C9FE1449FCF7D7FE286870BD002CDBD141
:10330C000128D9D10021022002F025F91C4B1D49BE
:10331C001A691148FCF73EFFFDF7C2F91A4C1B491C
:10332C00024620600C48FCF735FF094A23681268F6
:10333C0009489B1A052BCCBF15491649FCF7D8FE3A
:10334C00BAE700BF29860A08BC870A085C0300207C
:10335C004C030020E1870A08D3790A0804880A087C
:10336C00F803002000040020FC030020A80100202A
:10337C00CD880A08E6880A081F800A0801800A0816
:10338C001403002021880A08480300204C880A08EE
:10339C006F880A089D880A0810B50446012C084657
:1033AC0003D1FFF777FE204610BD00210220FFF766
:1033BC005DFD0022054B06491A604FF47A62054BFD
:1033CC0005481A60FCF794FEEDE700BF540300209B
:1033DC0003890A08BC030020D3790A0838B5184CB5
:1033EC002368012B0ED0174B1B688B4201D0012890
:1033FC0008D1154B9D68012D05D114491448FCF7D3
:10340C0077FE256038BDD9680120FFF761FE114BAE
:10341C00186001F0C5F910F001010DD10846FFF755
:10342C00BBFF0D4D28604FF47A7001F0DFF90A20D4
:10343C00FFF730FE01232B6001232360E2E700BF7E
:10344C0028030020F80300201403002082810A08BE
:10345C00D3790A08580300205403002010B5044601
:10346C001948FEF7C1F8FDF71BF9184BA04218607C
:10347C0005DD17491748BDE81040FCF739BE164B5F
:10348C001A69052A05D9BDE8104014491148FCF702
:10349C0081BE0028D4BF00220122A042A8BF002276
:1034AC0082B10F4C22686AB99B68012B01D10D497E
:1034BC00E0E70D490748FCF71BFE5A210120FFF7F6
:1034CC00C5FE206010BD00BF22890A08280000201C
:1034DC0032890A08D3790A081403002052890A0891
:1034EC005C03002093890A08CD890A0870B5FDF7A2
:1034FC00FFFA2A4B2A4E1860012002F045F80128E9
:10350C00284C306019D1284D21682848FEF7DEFA86
:10351C0029682748FEF7DAFA22682B689A420CDDF4
:10352C003368012B09D100214FF47A6308462B60D4
:10353C00FFF7CEFD5F20FFF791FF022002F024F889
:10354C001C4B216818601C4B1A68914213DD012832
:10355C0011D14FF47A62194D1A602B6901332B612A
:10356C0002F064F829460020142200F0D1F8002162
:10357C000846FFF76BFE124B21681A6891420CDD6E
:10358C00104A1268012A08D14FF47A6200211A609D
:10359C000846BDE87040FFF7FFBE70BDF803002081
:1035AC005803002000040020F4030020F1890A08CD
:1035BC00F6890A085C030020FC0300201403002099
:1035CC00BC0300205403002001F010B900F088B8AF
:1035DC00704770477047000003065ABF024B53F800
:1035EC0020000020704700BF048A0A0803065ABF57
:1035FC00024B53F820000020704700BF048C0A08CF
:10360C0008B5024B1B681B68019308BDB001060886
:10361C0008B5024B1B685B68019308BDB001060836
:10362C0008B5024B1B689B68019308BDB0010608E6
:10363C0008B5024B1B68DB68019308BDB001060896
:10364C0008B5024B1B681B69019308BDB001060845
:10365C0008B5024B1B685B69019308BDB0010608F5
:10366C0008B5024B1B681B6A019308BDB001060824
:10367C0008B5024B1B685B6A019308BDB0010608D4
:10368C0008B5024B1B689B6A019308BDB001060884
:10369C0008B5024B1B681B6B019308BDB0010608F3
:1036AC0008B5024B1B68DB6C019308BDB001060822
:1036BC0008B5024B1B689B6F019308BDB00106084F
:1036CC0008B5024B1B685B68019308BD9C0106089A
:1036DC0008B5024B1B68DB68019308BD9C0106080A
:1036EC0008B5024B1B685B69019308BD9C01060879
:1036FC0008B5024B1B689B6A019308BD9C01060828
:10370C0008B5024B1B685B6C019308BD9C01060855
:10371C0008B5024B1B689B6C019308BD9C01060805
:10372C0008B5024B1B689B6D019308BD9C010608F4
:10373C0008B5024B1B685B6E019308BD9C01060823
:10374C0008B5024B1B685B6C019308BDD0010608E1
:10375C0008B5024B1B689B6C019308BDD001060891
:10376C0008B5024B1B689B69019308BDC401060890
:10377C0008B5024B1B685B6A019308BDC4010608BF
:10378C0008B5024B1B689B6A019308BDC40106086F
:10379C0008B5024B1B68DB6A019308BDC40106081F
:1037AC0008B5024B1B681B6B019308BDC4010608CE
:1037BC0008B5024B1B685B6B019308BDC40106087E
:1037CC0008B5024B1B689B6B019308BDC40106082E
:1037DC0008B5024B1B681B6C019308BDC40106089D
:1037EC0008B5024B1B681B6E019308BDAC010608A3
:1037FC0008B5024B1B685B6E019308BDAC01060853
:10380C0008B5024B1B689B6E019308BDAC01060802
:10381C0008B5024B1B68DB6E019308BDAC010608B2
:10382C0008B5024B1B681B6F019308BDAC01060861
:10383C0008B5024B1B685B6F019308BDAC01060811
:10384C0008B5034B1B68D3F88030019308BD00000A
:10385C00AC01060808B5024B1B681B68019308BD38
:10386C00BC01060808B5024B1B685B68019308BDD8
:10387C00BC01060808B5024B1B689B68019308BD88
:10388C00BC01060808B5024B1B68DB68019308BD38
:10389C00BC01060808B5024B1B681B69019308BDE7
:1038AC00BC01060808B5024B1B681B6A019308BDD6
:1038BC00BC01060808B5024B1B681B6B019308BDC5
:1038CC00BC01060808B5024B1B685B6C019308BD74
:1038DC00BC01060808B5024B1B68DB69019308BDE7
:1038EC00B401060808B5024B1B681B6A019308BD9E
:1038FC00B401060808B5024B1B681B68019308BD90
:10390C00D801060808B5024B1B685B68019308BD1B
:10391C00D801060808B5024B1B681B69019308BD4A
:10392C00D801060808B5024B1B685B69019308BDFA
:10393C00D801060808B5024B1B689B69019308BDAA
:10394C00D801060808B5024B1B68DB69019308BD5A
:10395C00D801060808B5024B1B681B6A019308BD09
:10396C00D801060808B5024B1B685B6C019308BDB7
:10397C00C001060808B5024B1B689B6C019308BD7F
:10398C00C001060808B5024B1B681B6D019308BDEE
:10399C00A801020808B5024B1B681B68019308BDFF
:1039AC00A401060808B5024B1B685B68019308BDAF
:1039BC00A401060808B5024B1B685B69019308BD9E
:1039CC00A401060808B5024B1B68DB6A019308BD0D
:1039DC00A401060808B5024B1B68DB6C019308BDFB
:1039EC00A401060808B5024B1B685B6D019308BD6A
:1039FC00A401060808B5024B1B689B6D019308BD1A
:103A0C00A401060808B5034B1B68D3F8903001934A
:103A1C0008BD0000A401060808B5034B1B68D3F8C9
:103A2C009C30019308BD0000A401060808B5034BA7
:103A3C001B68D3F8A830019308BD0000A401060848
:103A4C0008B5024B1B685B68019308BDC8010608EA
:103A5C0008B5024B1B689B68019308BDC80106089A
:103A6C0008B5024B1B68DB68019308BDC80106084A
:103A7C0008B5024B1B681B69019308BDC8010608F9
:103A8C0008B5024B1B685B69019308BDC8010608A9
:103A9C0008B5024B1B689B69019308BDC801060859
:103AAC0008B5024B1B68DB69019308BDC801060809
:103ABC0008B5024B1B681B6A019308BDC8010608B8
:103ACC0008B5024B1B681B6B019308BDC8010608A7
:103ADC0008B5024B1B685B6B019308BDC801060857
:103AEC0008B5024B1B681B6C019308BDC801060886
:103AFC0008B5024B1B685B6C019308BDC801060836
:103B0C0008B5024B1B689B68019308BDCC010608E5
:103B1C0008B5024B1B68DB68019308BDCC01060895
:103B2C0008B5024B1B685B69019308BDCC01060804
:103B3C0008B5024B1B68DB69019308BDCC01060874
:103B4C0008B5024B1B681B6A019308BDCC01060823
:103B5C0008B5024B1B685B6A019308BDCC010608D3
:103B6C0008B5024B1B681B6B019308BDCC01060802
:103B7C0008B5024B1B68DB6B019308BDCC01060832
:103B8C0008B5024B1B681B68019308BDA001060811
:103B9C0008B5024B1B685B68019308BDA0010608C1
:103BAC0008B5024B1B689B68019308BDA001060871
:103BBC0008B5024B1B68DB68019308BDA001060821
:103BCC0008B5024B1B689B69019308BDA001060850
:103BDC0008B5024B1B68DB69019308BDA001060800
:103BEC0008B5024B1B685B6A019308BDA00106086F
:103BFC0008B5024B1B68DB6A019308BDA0010608DF
:103C0C0008B5024B1B681B6B019308BDA00106088D
:103C1C0008B5024B1B68DB6B019308BDA0010608BD
:103C2C0008B5024B1B681B6C019308BDA00106086C
:103C3C0008B5024B1B685B6C019308BDA00106081C
:103C4C0070B5002604460D4640F8086FFFF778FD66
:103C5C0028462570FFF73EFE2046666070BDB1F920
:103C6C00043010B50A6833B932B9D1F806300360A4
:103C7C004B89838010BD22B19488012C03D0042C75
:103C8C0006D0042205E092898C710B814A81ECE705
:103C9C0002220B814FF6FF738A714B81E5E710B559
:103CAC000446006818B1FFF773FF0023236010BDB2
:103CBC0038B50C46B1F9043005468380D1F806308E
:103CCC00C0F806304B894381FFF7E9FF236813B135
:103CDC002B600023236038BD10B500240470448091
:103CEC004FF6FF740029848008DD01398B4204D91A
:103CFC0032F8113083800123037010BD01D10223EF
:103D0C00FAE74180F9E70000F0B50D4616460027AA
:103D1C008BB01A46129B04460193119B31460093BB
:103D2C002846109B0297FFF781FE334601462A4630
:103D3C0005A8FFF7D1FF0F4D9DF81410BDF9162003
:103D4C00BDF8183028468DF8221007A9ADF82420AC
:103D5C00ADF826300797ADF82070FFF7A9FF07A83C
:103D6C00FFF79DFF20462946FFF779FF20460BB051
:103D7C00F0BD00BF140400200222002010B5084B37
:103D8C00084C1A60084BC4E90000A360FFF70AFE58
:103D9C002046BDE81040054A054901F0B3BC00BF00
:103DAC0020040020140400200000FFFF500100201C
:103DBC00B3080A0813B503688DF80710DC6B0122F1
:103DCC0047F230530DF10701A04702B010BD10B4FB
:103DDC000368DC6B47F23053A44610BC604713B544
:103DEC00134602688DF80710D46B0DF10701012200
:103DFC00A04702B010BD10B543690446B3F8862045
:103E0C00B3F884309A4208D06369B3F88420511C0B
:103E1C00A3F884101344187910BD03681B699847E4
:103E2C000028F1D14FF0FF30F6E7704770470000E3
:103E3C0010B50446064B0846994204F10C0404D014
:103E4C0001F06CFC002808BF0024204610BD00BF08
:103E5C003C8E0A0810B50446AC2101F058FC2046F3
:103E6C0010BDAC2101F053BC38B50B4B8469054631
:103E7C0003607CB16368013B63605BB923682046D7
:103E8C009B689847A368013BA3601BB92368204635
:103E9C00DB689847284638BD4C8E0A0810B5044696
:103EAC00FFF7E2FF20461C2101F031FC204610BD3B
:103EBC0070B5044606464D69044B8C3544F8043BFA
:103ECC000FCD0FC42B683046237070BDD48E0A08FA
:103EDC0010B543690446B3F88620B3F884309A428F
:103EEC0005D06369B3F884201344187910BD0368B6
:103EFC001B6998470028F4D14FF0FF30F6E7F8B56E
:103F0C0043691746B3F88620B3F8843005469A42C5
:103F1C000E4616D069693046B1F88430B1F8864047
:103F2C00E41ABC4228BF3C4604332246194402F032
:103F3C00E9FE6A69B2F884302344A2F88430204642
:103F4C00F8BD03681B6998470028E3D14FF0FF3494
:103F5C00F5E700234269A2F884304269A2F8863062
:103F6C00704700002DE9F0431F4603688BB0DB6AF5
:103F7C0005460C4616469847384601F077FA036812
:103F8C00DB689847002854D03346062201210220D2
:103F9C000097D5F81480FFF76DFC2023C8F80000BB
:103FAC004FF00008CDE902386B6901201B682349EA
:103FBC000193234B02AA00934346FFF7E3FC6B6982
:103FCC001868FFF74FFC002833D02846FFF7C1FFD5
:103FDC000223ADF80830E37976BA8DF80C30A3796A
:103FEC004FF4FA508DF80D306379ADF80A608DF806
:103FFC000E3014F8043F8DF80F30FFF7B3FC6B69EB
:10400C0006461022186802A9FFF73CFC8146304690
:10401C00FFF7A8FC0FCC6E698C360FC62368337083
:10402C002F61B9F1000F07D02B682846DB6A98473F
:10403C0040460BB0BDE8F0830120FAE7048E0A0875
:10404C000B8E0A0838B542690446B2F886302BB19B
:10405C00B2F884209A4201D1FFF77BFF206901F06E
:10406C0005FA0368DB689847F8B163691868FFF7CD
:10407C00F9FBD0B16069B0F886107F2915D8051D01
:10408C00C1F18002002300682944FFF703FC0028DB
:10409C000BDD6369B3F886200AB9A3F88420636941
:1040AC00B3F886201044A3F886006369B3F8860041
:1040BC00B3F88430C01A38BD38B543690446186863
:1040CC00FFF7D0FB18B163691868FFF7EBFB656964
:1040DC00FFF7F0FB28606069112200218C3002F0A0
:1040EC001FFE2046BDE83840FFF733BF10B54369CB
:1040FC0004461868FFF7B6FB08B9002010BD20690C
:10410C0001F0B4F90368DB6898470028F5D06369BF
:10411C001868FFF79FFBB0FA80F04009EEE708B58E
:10412C00FFF7E4FF003818BF012008BD2DE9F3416B
:10413C000027476004460D4616469846FFF7D6FF03
:10414C0070B1CDE9008760693B463246294600686C
:10415C00FFF7B8FB002800DA606002B0BDE8F08120
:10416C004FF0FF30F8E770B50546FFF7BFFFE8B931
:10417C006B69B3F88610B3F88420914216D1186895
:10418C00FFF770FB08B9002070BD6B691868FFF76A
:10419C0061FB01280446F6D12B6828461B69984719
:1041AC0030B92B682846DB6A9847ECE70120EBE72F
:1041BC002046E9E7002310B504460160C0F88430BE
:1041CC00883000F0B3FE204610BD0000F8B54FF467
:1041DC007A720023C0E901320D4A03610260436127
:1041EC000446AC200E46FBF750FF051E05F10C07EC
:1041FC0008D00123C5E90133064B314638462B6004
:10420C00FFF7D8FF2046C4E90575FFF7A2FEF8BDFD
:10421C004C8E0A08288E0A0810B50446FFF74AFB94
:10422C0001462046FFF7D2FF204610BD10B50446CC
:10423C000068FFF717FB10B12068FFF733FB20462F
:10424C0010BD0C30FFF7F2BF2DE9F0431F46036899
:10425C008FB0DB6A06460D4690469847134801F02E
:10426C00B0F8F0B102A800F061FE284602F0BBFDE8
:10427C00002481B23B462846009403AAFFF77AFB40
:10428C0090B9336809ADD3F82090094B03AC08936F
:10429C000FCC0FC5236842462B7030463B4608A90D
:1042AC00C8470FB0BDE8F0832046FAE7DC080020D1
:1042BC00D48E0A0810B504460068FFF769FC204646
:1042CC0010BD10B50446006808B1FFF761FC00236F
:1042DC00C4E90133236010BD38B504460D460068AF
:1042EC000131FFF75DFC10B1C4E90005012038BDB8
:1042FC0010B50368044623B143688B4201D30120F7
:10430C0010BD2046FFF7E8FF0028F9D0A368002B6A
:10431C00F5D122681370F2E770B50E4611460446CB
:10432C001546FFF7E5FF20B92046FFF7CAFF2046E8
:10433C0070BD2A4631462068A56002F0E3FC0021DE
:10434C002268A368D154F2E738B5002304460D4621
:10435C00C0E900338360037339B1084602F043FDB2
:10436C00294602462046FFF7D7FF204638BD38B510
:10437C00054600680C4668B16A688B689A4207D398
:10438C00096802F00DFDA368AB600023A36038BD83
:10439C00FFF7FEFB23682B6063686B60A368AB6060
:1043AC000023C4E90033F1E7884210B50B460446FC
:1043BC0004D0096821B19A68FFF7AEFF204610BD02
:1043CC00FFF77FFFFAE7002310B50446C0E900337E
:1043DC0083600373FFF7E8FF204610BD884210B5D9
:1043EC00044601D0FFF7C3FF204610BD70B505464B
:1043FC000E4609B9002070BD6AB184681444214688
:10440C00FFF776FF0028F5D02868AB6831461844D2
:10441C0002F0C6FCAC600120EDE710B58A680968B3
:10442C000446FFF7E3FF10B92046FFF74AFF20468A
:10443C0010BD134610B58A688468A41A9C420AD32E
:10444C00006838B1096841B1184402F0D4FCB0FAE4
:10445C0080F0400910BD0020FCE70846FAE78268AE
:10446C008B689A4202D30022FFF7E3BF002070470B
:10447C00F8B506460D4600248F18BD420CD03368A3
:10448C0030469B6815F8011B9847031E01DB1C4442
:10449C00F3E7002C08BF1C462046F8BD70B5054656
:1044AC000C46084649B102F09EFC2B680246214698
:1044BC002846BDE87040DB68184770BD08B5FFF7AB
:1044CC00EDFF08BD03689B68184738B50D210546FC
:1044DC00FFF7F8FF0A2104462846FFF7F3FF2044B4
:1044EC0038BD38B50546FFF7D9FF04462846FFF717
:1044FC00ECFF204438BD0023012A98BF0A2230B5B6
:10450C008BB00C468DF8243009A92546B4FBF2F487
:10451C0004FB1253DBB2092B94BF30333733DBB2BD
:10452C00AA4201F8013DF0D9FFF7B8FF0BB030BD3E
:10453C002DE9F04186B000AF05460E46381D14211A
:10454C0014463B60FFF74CFB13280ED82846391D48
:10455C00FFF7A4FF04461EB12846FFF7B6FF04443C
:10456C0020461837BD46BDE8F08100F1080323F062
:10457C000703E846ADEB030D2246411C3B68684639
:10458C00FFF72EFB69462846FFF788FF0446C54611
:10459C00E1E710B50446FFF7A3F8E0602368204676
:1045AC005B699847002808DAFFF79AF8E368C01AA5
:1045BC00A3689842F2D34FF0FF3010BD2DE9F041C3
:1045CC0007460C460D468E18B542A5EB040807D0DD
:1045DC003846FFF7DEFF031E02DB05F8013BF3E76D
:1045EC004046BDE8F0810000014B024A1A6070475A
:1045FC0024040020908E0A082DE9F041154BDFF8B9
:10460C005880D3E90067154B801947EB0107D3E9B4
:10461C000061861947EB0107D8E90023BB4208BFAC
:10462C00B2428CB013D003A96846CDE9006702F002
:10463C0077FA089B0A4D03F26C7303AC08930FCC0A
:10464C000FC50FCC0FC5C8E9006723682B600CB0F1
:10465C00BDE8F081580400206004002050040020C4
:10466C002C04002008B50020FFF77AFA28B1FFF7D8
:10467C0057FA80F00100C0B208BD0120FCE7000031
:10468C0008B5FFF7B9FF024B9869013008BD00BFB0
:10469C002C04002008B5FFF7AFFF024B186901305E
:1046AC0008BD00BF2C04002010B50A49044602F0D6
:1046BC0033F868B92046084902F04CF840B907496C
:1046CC00204601F08BFE02F075F8054BC3E90001A2
:1046DC0010BD00BF000040C10000604100006145FA
:1046EC005804002010B50020FFF71AF80446A0B9B2
:1046FC00FFF750F9012810D12046FFF77BF960B97C
:10470C00FFF7B0FF10B9FFF7FBF9F9E7FFF7AAFFC6
:10471C00BDE810400020FFF703B8204610BD1FB5C0
:10472C00FFF7E0FF10220021684602F0F9FA0021A1
:10473C006846FEF7FDFF009805B05DF804FB00002D
:10474C0008B5FFF7ECFFC117FFF756FF014B986850
:10475C0008BD00BF2C04002008B5FFF7E0FFC1170F
:10476C00FFF74AFF014B586808BD00BF2C0400201E
:10477C0008B5FFF7D4FFC117FFF73EFF014B1868D0
:10478C0008BD00BF2C04002008B5FFF7C8FFC117F7
:10479C00FFF732FF014BD86808BD00BF2C04002086
:1047AC0008B5FFF7BCFFBDE80840C117FFF768BFAD
:1047BC0008B5FFF7B4FFBDE80840C117FFF76ABFA3
:1047CC0008B5FFF7ACFFC117FFF716FF014B58698F
:1047DC0008BD00BF2C040020024B1A68024B1A6063
:1047EC00704700BF7C000020280400200021FFF748
:1047FC00E1B810B58368044613B10322014698470B
:10480C00204610BD10B50446FFF7F3FF204610BD3F
:10481C0013B56C460B46024603C884E8030093E8C4
:10482C00030082E8030094E8030083E8030002B06D
:10483C0010BD000000230348034A0449836000F0C4
:10484C0061BF00BF680400205001002011480A0815
:10485C00014B1860704700BF8000002008B5134B57
:10486C0043B100F00FFC03681B699847002801DD79
:10487C00FBF7DEFD0E4B43B100F0C0FC03681B6977
:10488C009847002801DDAFF300800A4B0BB1AFF362
:10489C000080094B43B100F033FC03681B69984757
:1048AC00002801DDAFF3008008BD00BF3D040A08FD
:1048BC0000000000000000000000000008B5FFF739
:1048CC00CDFFFEF70DFF014B186008BDF40800206A
:1048DC000548064A08B5121A054902F013FA054BA9
:1048EC00054A1A6008BD00BF004002400440024067
:1048FC0048930A08004002401E1C279A002307B563
:10490C001A466FF077010093FFF786F803B05DF855
:10491C0004FB000007B543880A2B08D0502B0BD1A1
:10492C00094B1B684BB103B05DF804EB1847FFF75C
:10493C00E5FF03B05DF804FB00231A466FF0770126
:10494C000093FFF769F8F4E77C040020002110B510
:10495C001148FFF76DF9114B1A68114B9A420CBFB5
:10496C00012200220F4B1A7001D0FFF7B1FFFEF7A6
:10497C00A7FE044602F0DCF90B4B13B12046AFF353
:10498C00008000210848FFF7F3F8BDE81040002133
:10499C000648FFF737B800BF5D480A0800400240E0
:1049AC001E1C279A780400200000000021490A08E8
:1049BC0070470020704710B50446102100F0A7FE88
:1049CC00204610BD08B5FFF7F6FF08BD002230B534
:1049DC004FF69C74026084808D888C800C68858076
:1049EC0004600A6030BD10B504460068FFF7D0F8CB
:1049FC00204610BD38B5C468F4B12378022B03D11E
:104A0C0004F10C00FFF7EFFF656835B12846FFF79E
:104A1C00F0FE1021284600F07AFEA56835B1284634
:104A2C00FFF7E7FE1021284600F071FE2046BDE896
:104A3C003840142100F06BBE38BD0B6803604B6826
:104A4C00436013B15A6801325A60704737B5044657
:104A5C0068460D46FFF7F1FF009B019A2360002387
:104A6C00626001A801930093FBF72BFB35B1281D65
:104A7C00FBF727FB0821284600F049FE204603B02F
:104A8C0030BD826810B50AB900F045FEC368BDE8B8
:104A9C001040184708B5006800F11001FFF7F1FF4E
:104AAC0008BD826810B50AB900F035FEC368BDE8D0
:104ABC001040184708B5006800F11001FFF7F1FF2E
:104ACC0008BD000038B500230446036010200D46D5
:104ADC00FBF7DBFA28B10123C0E90133024BC560B7
:104AEC0003602060204638BDB88E0A0838B5002314
:104AFC0083608B6804460D462BB102229847EB6805
:104B0C00E360AB68A360204638BD0000F0B589B007
:104B1C0004686846FFF75AFF4FF00203D4E84F2FA2
:104B2C00002A03D1C4E8413F0029F7D125D104F173
:104B3C000C0569462846FFF749FF0123BFF35B8F3D
:104B4C0063700020BFF35B8F04F1080353E8006F20
:104B5C0043E80002002AF9D1BFF35B8F6EB1FEF778
:104B6C0039FF78B129463046FFF78BFF3046FFF707
:104B7C0040FE1021304600F0CAFD6846FFF733FFB7
:104B8C0009B0F0BD314602A8FFF7B0FFE068B4F9F8
:104B9C00105008B102F00CF906901020ADF81C5022
:104BAC00FBF773FA0546E8B1002787601820FBF77E
:104BBC006CFA044688B10146876002A8FFF728FE0C
:104BCC00049BA268A360059B0492E26806A9E360BB
:104BDC0004F110000592FFF7F9FE084B2C60EB6016
:104BEC00074BAB6006A8FFF7FEFE02A8FFF701FE1D
:104BFC00002229460348FEF7F5FEB7E7A14A0A084A
:104C0C002D4D0A0859520A082DE9F0478AB005467D
:104C1C000C46174698469DF84890FEF781FF07AE64
:104C2C00824638BB4FF62E73059005A93046ADF879
:104C3C001830FFF7CBFE1420FBF727FA044648B1D7
:104C4C00022303700123C0E901AA437031460C30E2
:104C5C00FFF7BCFE2846214640F8044BFFF732FF15
:104C6C003046FFF7C0FE05A8FFF7BDFE28460AB088
:104C7C00BDE8F0870C234FF0000A1420CDE908AAF8
:104C8C000793FBF702FA014628B1C0E901AA80F8A4
:104C9C0000A080F801A004A80391FFF713FF1F4B9D
:104CAC0008200893FBF7F1F9824610B103A9FFF72E
:104CBC00C4FE42463946204600965FFA89F3CDF889
:104CCC0024A0FEF73DFFB8B9039B5B7803F0FF020D
:104CDC0093B94FF69C7305A903A80592ADF818304B
:104CEC00FFF714FF05A8FFF77EFE05A80999FFF74B
:104CFC00ADFE06A8FBF7E5F903A905A8FFF79DFE95
:104D0C00059B069A2B6000236A6006A80693059300
:104D1C00FBF7D7F904A8FBF7D4F9A7E7A94D0A08C4
:104D2C00012AF8B5054603D10B6803600020F8BDD5
:104D3C00022A10D0032AF9D10468002CF6D004F111
:104D4C001000FFF750FE2046FFF753FD18212046B8
:104D5C0000F0DDFCEAE718200E68FBF796F9044634
:104D6C0050B13146FFF7C2FE3069B6F9147008B184
:104D7C0002F01EF82061A7822C60D7E738B500231B
:104D8C0083608B6804460D462BB102229847EB6872
:104D9C00E360AB68A360204638BD0000F0B5044664
:104DAC0089B00D4601A81146FFF750FEA4B124B2FC
:104DBC001DB1284601F0FCFF054601A803A9039587
:104DCC00ADF81040FFF7A2FE03A8FFF70CFE02A8F7
:104DDC00FBF777F909B0F0BD0123019DD5E84F2F02
:104DEC00002A03D1C5E8413F0029F7D1EFD12B733D
:104DFC00BFF35B8F6B70BFF35B8F2B1D53E8006FA2
:104E0C0043E80042002AF9D1BFF35B8F002EDED0BD
:104E1C002046FEF7DFFD074660B1304605F10C0178
:104E2C00FFF73FFE3046FFF7E4FC1021304600F060
:104E3C006EFCCCE7314603A8FFF7A0FF2B7B1020BC
:104E4C008DF81C30FBF721F90546D0B18760142092
:104E5C00FBF71BF9044678B10146876003A8FFF7FE
:104E6C00D7FC059BA268A360069B0592E268E360F1
:104E7C009DF81C3006922374064B2C60EB60064B9D
:104E8C00AB6003A8FFF7B5FC002229460348FEF7E8
:104E9C00A9FDC7E7C14A0A08AD4E0A0859520A08CB
:104EAC00012A70B5044603D10B680360002070BD65
:104EBC00022A0CD0032AF9D10468002CF6D0204623
:104ECC00FFF797FC1421204600F021FCEEE714209C
:104EDC000E68FBF7DAF8054620B13146FFF74EFFB6
:104EEC00337C2B742560E1E77047F8B50E4600243F
:104EFC0000F10807051D17F8011D0A223046FFF7BF
:104F0C00FAFAAF42044401D12046F8BD002CF2D08D
:104F1C002E213046FFF7D6FA0444ECE710B50446D0
:104F2C00182100F0F4FB204610BD000010B504461B
:104F3C00044B1122002140F8043B01F0F1FE204605
:104F4C0010BD00BFD48E0A080346074A10B543F8BB
:104F5C00042B01F1100251F8044B914243F8044B1D
:104F6C00F9D10A781A7010BDD48E0A08024AC0E929
:104F7C000021042202757047D48E0A0810B59DF8E2
:104F8C00084044EA0324042344EA024444EA01644A
:104F9C004460037510BD000013B5044C04609DF80B
:104FAC0010400094FFF7EAFF02B010BDD48E0A083F
:104FBC0041747047704708B50021007CFEF7BAFCBD
:104FCC0040EAE07008BD08B50121007CFEF7B2FC98
:104FDC0040EAE07008BD08B5007CFEF7A3FC20EAAF
:104FEC00E07008BD08B5007CFEF794FC20EAE07088
:104FFC0008BD38B50446007C0D46FEF793FC00282E
:10500C0001DC607C28B12946207CFEF79BFC20EA61
:10501C00E07038BD007CFEF79DBC10B50446142131
:10502C0000F075FB204610BD10B54FF47A730446A2
:10503C0008460021C4E90113044B207423600123AA
:10504C0011466374FEF756FC204610BDE88E0A0824
:10505C000022007CFEF756BC10B504461422002139
:10506C0001F05EFE054B20466360054BE36040F2A9
:10507C00011323818123238210BD00BFB0040020C3
:10508C00B105002030B50F4D87B001A8FFF7E4FF44
:10509C002978BFF35B8F11F0010410D12846FAF781
:1050AC00FAFF60B1214601AA0748FFF7BDFF284669
:1050BC00FAF7F6FF054A0649034800F023FB0248BD
:1050CC0007B030BD8004002088040020500100206F
:1050DC00C14F0A0810B504461422002101F020FE2D
:1050EC00054B20466360054BE36040F201132381BE
:1050FC008123238210BD00BF32060020330700201D
:10510C0010B50F4C86B001A8FFF7E4FF2378BFF36E
:10511C005B8FDB0710D42046FAF7BDFF60B101218D
:10512C0001AA0848FFF780FF2046FAF7B9FF064AA4
:10513C000649044800F0E6FA024806B010BD00BF6C
:10514C00840400209C04002050010020C14F0A0858
:10515C00FEF78EBAFEF784BA70474174704708B5F3
:10516C00007CFEF735FB20EAE07008BD08B5007C3A
:10517C00FEF706FB20EAE07008BD08B5007CFEF7E0
:10518C000FFB40EAE07008BD08B5007CFEF700FBA1
:10519C0040EAE07008BD007CFEF70ABB70B5467CA7
:1051AC0004460D462EB12946207CBDE87040FEF722
:1051BC00DFBA007CFEF70CFB0028F4DC304670BD37
:1051CC0010B50446142100F0A2FA204610BD0000D0
:1051DC004FF0000C10B50446084611464FF47A7295
:1051EC00C4E901C2044A20742260012262741A4686
:1051FC00FEF7B6FA204610BD188F0A0838B50D4DCB
:10520C002978BFF35B8F11F0010411D12846FAF70E
:10521C0042FF68B12146084A084B0948FFF7D8FFFE
:10522C002846FAF73DFF074A0749054800F06AFA95
:10523C00034838BDB4070020B80700203C08002004
:10524C00C00800205001002065510A0810B5836881
:10525C0004460BB900F05FFAC3689847A3681BB10A
:10526C0003222146204698472046BDE810401021D5
:10527C0000F04DBA7047F8B5064615460C468F1827
:10528C00BC4206D0336830469B6814F8011B984723
:10529C00F6E72846F8BD0022007CFEF7A1BA0021F3
:1052AC00007CFEF7A5BA0021007CFEF7A9BA00210C
:1052BC00007CFEF7ADBA0021007CFEF7B1BA10B548
:1052CC000446142100F023FA204610BD10B54FF40B
:1052DC007A73044608460021C4E90113034B1146B6
:1052EC0023602074FEF7ACFA204610BD488F0A08E4
:1052FC00002240681146FEF7BBBBF0B5154689B0DD
:10530C0011220E460446002103A801F009FD28468F
:10531C0001F069FD002781B273682846009703AA43
:10532C00FEF728FB30B139462046FFF71FFE20461A
:10533C0009B0F0BD204603A9FFF706FEF7E70022EF
:10534C0040681146FEF7B4BB002240681146FEF7D8
:10535C00BFBB00224068FEF7B3BB0022406881F05F
:10536C000101FEF79DBB002340681A461946FEF763
:10537C008FBB002240681146FEF76ABB0022022157
:10538C004068FEF76DBB002340681A46FEF758BB19
:10539C000422024B5A60024A1A607047D40800205B
:1053AC00708F0A08002340681A46FEF749BB00229A
:1053BC0002214068FEF754BB002240681146FEF7FC
:1053CC0047BB002240681146FEF752BB00234068E1
:1053DC001A461946FEF754BB002340681A46194674
:1053EC00FEF756BB00214068FEF77ABB00214068EF
:1053FC00FEF77EBB0022406881F00101FEF750BB36
:10540C0000224068FEF75CBB002240681146FEF7A4
:10541C005FBB002240681146FEF74ABB70B51546CB
:10542C008EB0044608A8FFF781FD1122002103A8C5
:10543C0001F076FC0026284601F0D5FC0A4B0096BC
:10544C0081B25B68284603AAFEF794FA30B1314664
:10545C002046FFF78BFD20460EB070BD204603A9F9
:10546C00FFF772FDF7E700BFD4080020034A044B96
:10547C00042814BF10461846704700BFDC080020F3
:10548C00D4080020024B034A1A6000225A6070476D
:10549C00DC080020AC8F0A0810B50446806808B1FF
:1054AC00FEF756F9204610BD172870B5044601D9F1
:1054BC00002070BDA0F10D03022B0BD9012826D8BA
:1054CC0000F0F8F80021007CFEF7B2F980F0010042
:1054DC00C0B2EEE7134E3178BFF35B8F11F00105CC
:1054EC000FD13046FAF7D7FD58B129460E48FEF7D2
:1054FC00A7FB3046FAF7D4FD0C4A0D490A4800F0D8
:10550C0001F9094B1878FEF7EDF90028D0D1123CBF
:10551C00012C05D8FFF772FE007CFEF751F9D5E798
:10552C000120C6E7E4080020E80800205001002014
:10553C00A5540A08172838B504460D460AD8FF2981
:10554C0008D0FFF7B1FF28B129462046BDE8384006
:10555C00FEF766B838BD38B504460D46FEF768F858
:10556C00FF2810D0062804D84D2323FA00F0C307D7
:10557C0009D42046FFF798FF28B129462046BDE8FC
:10558C003840FEF75DB838BD10B50446FEF750F84C
:10559C00031FDBB2012B08D92046FFF785FF20B192
:1055AC002046BDE81040FEF753B8002010BD10B5E2
:1055BC00044609289CBF0A34A4B22046FFF774FFA6
:1055CC0050B103212046FEF723F8032804D12046CE
:1055DC00BDE81040FEF75CB8002010BD38B504469D
:1055EC000D46FFF761FFF0B104212046FEF710F8DD
:1055FC00042805D12046A9B2BDE83840FEF740B8D2
:10560C0002212046FEF704F802280CD12046FEF7B2
:10561C000FF8012801D0042805D129462046BDE801
:10562C003840FEF745B838BDFEF73AB810B5084C0F
:10563C002378BFF35B8FDB0708D42046FAF72BFDEA
:10564C0020B1FEF755F82046FAF72AFD014810BDA7
:10565C00F8080020FC080020002313B5074C1A465C
:10566C00194620460093FFF797FC2046044A05494B
:10567C0002B0BDE8104000F045B800BF00090020A2
:10568C0050010020F54E0A0870B514232025084E51
:10569C0004460360314685600561284600F039F800
:1056AC0031466060284600F034F8E060204670BD5A
:1056BC00E08F0A0830B50F4D87B02978BFF35B8FA8
:1056CC0011F0010413D12846FAF7E5FC78B101A8D2
:1056DC00FFF7DAFF214601AA0748FFF7F7FD284636
:1056EC00FAF7DEFC054A0649034800F00BF80248BD
:1056FC0007B030BD180900201C0900205001002003
:10570C0081520A080B460146184601F0FBB9FAF71C
:10571C00C0BCFAF7BCBC08B5FEF76AFA014900F048
:10572C00FBB800BFFC8F0A087FB500241023CDE91D
:10573C000234036815469E69CDE900446B46126835
:10574C00B0479DF8043003F00603062B09BF012077
:10575C002046009B2B6004B070BD0098904214BF93
:10576C00012006207047000010B50446024B036070
:10577C0000F0CFF8204610BD3C900A0810B5044646
:10578C00FFF7F2FF20460821FFF7C1FF204610BDAE
:10579C002DE9F041DDF818801F46DDE90834984505
:1057AC000646154607D1079900F0B6F818B1657191
:1057BC000020BDE8F0813946304600F0ADF80028F5
:1057CC00F6D00123C4F800802571A371F0E738B539
:1057DC0015461C4600F0A0F820B10823E360062310
:1057EC002560237138BD2DE9F04105460C4616465F
:1057FC001F4600F091F848B9032F07D823683246AA
:10580C0029462046BDE8F0415B691847BDE8F081A8
:10581C0010B50446024B0360FFF7A6FF204610BDEF
:10582C009C900A0810B50446FFF7F2FF20460C21A5
:10583C00FFF76DFF204610BD2DE9F041DDF8188013
:10584C00064690450F4615461C460BD0B0682A46B6
:10585C000368CDF818801E6A39462346B446BDE865
:10586C00F0416047194600F057F80028EED00620AA
:10587C00BDE8F0812DE9F14F0D46DDE90A4BDDE97C
:10588C000CA6194681461746984600F045F890B18B
:10589C00002D3460377109DB2C44A2450CBF062463
:1058AC000124B471002001B0BDE8F08F0235F9D1AC
:1058BC000123B371F6E7544506D15946484600F02A
:1058CC002BF808B17771EDE7D9F808003A46036870
:1058DC00CDE90CA6CDE90A4BDC6929464346A44622
:1058EC0001B0BDE8F04F60472DE9F04107460C468A
:1058FC0015461E46FFF76BFF48B9B8682A46036881
:10590C0021469F693346BC46BDE8F0416047BDE87F
:10591C00F081704700207047814208B50ED0406876
:10592C0003782A2B0CD049680B782A2B08BF01313D
:10593C0001F02CFAB0FA80F0400908BD0120FCE718
:10594C000020FAE781F0004102E000BF83F0004341
:10595C0030B54FEA41044FEA430594EA050F08BFFE
:10596C0090EA020F1FBF54EA000C55EA020C7FEAC2
:10597C00645C7FEA655C00F0E2804FEA5454D4EB3F
:10598C005555B8BF6D420CDD2C4480EA020281EA09
:10599C00030382EA000083EA010180EA020281EA41
:1059AC000303362D88BF30BD11F0004F4FEA013193
:1059BC004FF4801C4CEA113102D0404261EB4101A2
:1059CC0013F0004F4FEA03334CEA133302D0524228
:1059DC0063EB430394EA050F00F0A780A4F10104E4
:1059EC00D5F1200E0DDB02FA0EFC22FA05F280181E
:1059FC0041F1000103FA0EF2801843FA05F3594104
:105A0C000EE0A5F120050EF1200E012A03FA0EFC82
:105A1C0028BF4CF0020C43FA05F3C01851EBE371AC
:105A2C0001F0004507D54FF0000EDCF1000C7EEBC9
:105A3C0000006EEB0101B1F5801F1BD3B1F5001F07
:105A4C000CD349085FEA30004FEA3C0C04F1010426
:105A5C004FEA445212F5800F80F09A80BCF1004F4F
:105A6C0008BF5FEA500C50F1000041EB045141EAD1
:105A7C00050130BD5FEA4C0C404141EB0101013C9A
:105A8C0028BFB1F5801FE9D291F0000F04BF014689
:105A9C000020B1FA81F308BF2033A3F10B03B3F15B
:105AAC0020020CDA0C3208DD02F1140CC2F10C02EB
:105ABC0001FA0CF021FA02F10CE002F11402D8BF49
:105ACC00C2F1200C01FA02F120FA0CFCDCBF41EA15
