:02000004080AE8
:1000000000000A08B0950A08000006000600050175
:0800100004021F0C00000000B7
:0400180010780A084A
:10001C0009480A4908B5884205D0094A824202D0EB
:10002C00121A06F0BFFE0748074A0021121A06F002
:10003C00C7FE064808BD00BF000000203C940A081B
:10004C004C010020500100205C0900205C090020BC
:10005C0070B504F0CBFC0025054E064CA41BA4087F
:10006C00A54200D170BD56F8043B98470135F7E71F
:10007C0000940A082C940A0802F0B6B808B502F0ED
:10008C00BBF9BDE8084004F069BC03F0C9BD03F03E
:10009C00C7BD03F0CDBD0078B0FA80F040097047C1
:1000AC000123037070470EB403B503AB53F8042B54
:1000BC000121019304F08CFA02B05DF804EB03B05B
:1000CC00704738B5046805467CB16368013B6360D2
:1000DC005BB9236820469B689847A368013BA360E3
:1000EC001BB923682046DB689847284638BD0000BA
:1000FC002DE9F04788B005460C4603F061FD38B990
:10010C0005F010F81F49FFF7CEFF08B0BDE8F087E7
:10011C0004F066FB064604F06FFB074604F078FB20
:10012C00804604F081FB814604F092FB824604F089
:10013C0097FB33462A46CDE904041349CDE9029ACC
:10014C00CDE90078114803F083FD04F0EBFF0F4973
:10015C00FFF7A9FF0E4B0D4A1B780E498DF80030A6
:10016C0006A83C2304F0A0FD07A8FFF7AAFF204631
:10017C0001F074FA4FF4FA6008B0BDE8F04704F0EF
:10018C0085BB00BF24780A0863780A081A0200208D
:10019C0054010020C4780A082DE9F04F8BB00646B4
:1001AC000C46154603F00CFD38B904F0BBFF24498E
:1001BC00FFF779FF0BB0BDE8F08F04F011FB074699
:1001CC0004F01AFB804604F023FB814604F02CFB60
:1001DC00824604F03DFB834604F042FB3B4632462C
:1001EC00CDE903B01749CDE90545CDE9019ACDF824
:1001FC000080154803F02CFD04F094FF1249FFF722
:10020C0052FF124B104A1B7811498DF8003008A888
:10021C003C2304F049FD09A8FFF753FF2B46224667
:10022C000C49094803F014FD2046294601F088FCCE
:10023C004FF4FA600BB0BDE8F04F04F027BB00BFE1
:10024C0024780A08D0780A081A02002054010020E9
:10025C00C4780A0835790A080122014B1A707047D4
:10026C005401002030B5613887B0192800F2BC80E9
:10027C00DFE800F03338BA2DBABABA0D18BABABAE8
:10028C00BABABA57BABA406250BA727A828D01229F
:10029C00564B1A600A22564B1A6007B0BDE8304024
:1002AC0001F0F6B9534CE368EF2B01D80A33E36045
:1002BC0005F00CFA142200204E4903F061FAE268B2
:1002CC004D494E4807B0BDE83040FFF765BF494C7B
:1002DC00E3680A2BECD90A3BE9E707B0BDE83040EC
:1002EC0001F05ABD0120464B196807B0BDE83040FB
:1002FC0003F0ACB800243F4D42486C6001F0AEF9FD
:10030C0005F0E4F914222946002007B0BDE830407E
:10031C0003F036BA0024374D3B4801F09FF92C61AD
:10032C00EEE70123334C3948636001F097F905F08F
:10033C00CDF914222146E7E700F04EFA344B354A4A
:10034C001B6812683449354803F082FC334807B007
:10035C00BDE8304001F082B9314801F07FF905F079
:10036C00B5F914222349CFE72E4801F077F907B0ED
:10037C00BDE8304000F098B92B4801F06FF93720F8
:10038C0000F006FC07B0BDE8304001F0E3BD02A868
:10039C0003F01EFC02A9254801F0D2FA02A803F0D2
:1003AC00D9FF234B00221B7822498DF8003002A87C
:1003BC003C2304F079FC039C7CB16368013B6360D3
:1003CC005BB9236820469B689847A368013BA360F0
:1003DC001BB923682046DB6898474FF4FA7007B0C6
:1003EC00BDE8304004F052BA07B030BD6C030020B9
:1003FC0068030020140300203D790A0857790A0885
:10040C00240000205F790A0874790A0897790A0891
:10041C006403002060030020AD790A08C0030020AB
:10042C00BF790A08D9790A08E6790A08F6790A0820
:10043C0055010020057A0A0808B504F073FE03681C
:10044C005B699847BDE80840C0B2FFF70BBF0000DE
:10045C000022014B1A707047550100200023002226
:10046C000383C261036243628362C36280F83030EB
:10047C0080F831304386704738B50446154602F093
:10048C000FFB4FF47A7320462575E382FFF7E6FFE6
:10049C0038BD00002DE9F0410B68044603624B683F
:1004AC0000F1200543620B78262B60D008D8102B66
:1004BC000AD0222B59D0002084F83100BDE8F081FD
:1004CC00282BF8D1022300E0012384F83130204698
:1004DC0002F0F3FA2946204602F09FFB227D4421CC
:1004EC00204602F06FFBE08A04F0D0F9204602F0BF
:1004FC00E4FA2946204602F090FB0022B82120465F
:10050C0002F060FB00222046114602F05BFB204605
:10051C0002F0D3FA2946204602F07FFB0022BE21CE
:10052C00204602F04FFB94F83130042B04D100220A
:10053C002046114602F046FB04F128052E4604F134
:10054C003107204602F059FB05F8010BBD42F8D1EA
:10055C000821304602F0E4FB94F83030834208D096
:10056C000123002084F83330A8E70323ADE70423EC
:10057C00ABE7238D94F82950238394F83130042B66
:10058C0047D194F82A8045EA0823ED082383404696
:10059C0084F8295005F01AFF05F088FB064628461A
:1005AC000F4605F013FF05F081FB0022244B05F0EC
:1005BC00D5FB18F0800F02460B4625D03046394645
:1005CC0005F014FA05F0FCFD15E094F82C20B4F9B4
:1005DC00183012F0600202D123F007032DE0202A1C
:1005EC000CD0402A0DD0B4F9180005F0F3FE4FF0F2
:1005FC00765105F043FFE06101205FE723F0030330
:10060C001BE023F0010318E03046394605F0F0F901
:10061C00D8E7032BF0D8012BD7D8EDD1B4F918308B
:10062C0094F82F20DB00102A2383DCD194F82E20A1
:10063C0023F00F03C2F10C0213442383D3E700BF52
:10064C000000A03F38B500F1200529460446FFF70D
:10065C0005FF02F0FAFA38B90123204684F832304B
:10066C0002F0EDFA002038BD0721284602F058FBB5
:10067C0094F82730834203D0012384F83330F1E718
:10068C0029462046BDE83840FFF704BFC0697047D3
:10069C00036A0B60436A4B60704790F832007047F6
:1006AC0090F83300704700002DE9F0412D4E04F016
:1006BC0039FD2D49FFF7F7FC374605253446DFF8A1
:1006CC00AC8002F0ABF902F0C3F9386004F02AFDFB
:1006DC00414657F8042BFFF7E6FC00F0E1FE9620AC
:1006EC0004F0D4F8013DECD1D4E900321344A268F3
:1006FC002F461344E2681344226905241344B3FBC8
:10070C00F4F456F8042B01352744052DA7EB02070A
:10071C00F7D1042B08D816491648FFF7E9FC4FF41B
:10072C007A742046BDE8F08104F0FCFC0F3C3A469C
:10073C001149FFF7B8FC04F0F5FC22460F49FFF70E
:10074C00B2FC2146C4F5B4740D4844EAE47401F0DB
:10075C00F7F904F0E7FC22460A49FFF7A4FC00F085
:10076C009FFEDEE7580100201A7A0A08317A0A083F
:10077C00497A0A08737A0A087A7A0A088D7A0A087A
:10078C00AD7A0A08B97A0A080EB403B503AB53F86C
:10079C00042B0021019303F01BFF02B05DF804EB66
:1007AC0003B0704707B50A48FFF77AFF40B104F071
:1007BC00B9FC084903F0D2FE002003B05DF804FB3D
:1007CC0003486946FFF764FF9DF80700F5E700BF93
:1007DC006C010020D67A0A082DE9F74304F0A2FC3C
:1007EC00234903F0CEFE0026224DDFF88C80DFF883
:1007FC008C902846FFF726FF20B3FFF7D3FF044663
:10080C0004F090FC07462846FFF740FF05F04EFA2F
:10081C0033462246CDE9000141463846FFF7B4FF86
:10082C002146484601F08CF9FA2004F02FF8252CCB
:10083C0006F1010613D12846FFF728FF05F0E4FF67
:10084C000F4B18602846FFF728FF0028D1D0094825
:10085C00FFF71CFF05F0D8FF03B0BDE8F083972C21
:10086C00F0D12846FFF712FF05F0CEFF054BE8E765
:10087C00E27A0A086C010020F47A0A081F7B0A0845
:10088C006003002064030020002205210148FFF7CB
:10089C00F3BD00BF6C01002003685B69184770470B
:1008AC0010B504464C2104F082FF204610BD10B553
:1008BC000446006808B103F0BBF9204610BD10B522
:1008CC0090F84940621CD2B204443F2A80F8492077
:1008DC00617202D903681B699847012010BD06F0AC
:1008EC0059B9000010B504F01DFC5B2103F03AFE71
:1008FC0004F018FC044602F0A1FE0A220146204630
:10090C0003F049FE04F00EFCBDE81040014903F071
:10091C0025BE00BF297B0A0813B50446054B0022EF
:10092C001B788DF800303C2304F0BEF9204602B051
:10093C0010BD00BF18020020002340681A4619465B
:10094C0003F0D6B808B502F003FF034B1860BDE8FE
:10095C00084003F025B900BFF408002003460068E6
:10096C0020B15B68984201D206F014B900207047A0
:10097C0038B50568044645B143689D4205D2284602
:10098C0006F081FA013005442560204638BDF8B5E3
:10099C0004460D46476821B903687A1C4260D95554
:1009AC00F8BD084606F06FFAA368461CF2199A4285
:1009BC00F6D8206832462946384406F0F3F96068C8
:1009CC0030446060ECE7000038B5044625680B46FF
:1009DC00D4E90101044A091A284403F049F963686F
:1009EC0001300344636038BD2C7B0A0838B50446DB
:1009FC0025680B46D4E90101044A091A284403F07E
:100A0C0037F9636801300344636038BD2F7B0A08F3
:100A1C00F0B5476B044687B02FB3FFF763FF04F0C4
:100A2C0081FB334903F09AFD04F07CFB616B03F00E
:100A3C0095FD04F077FB3A2103F094FD04F072FB72
:100A4C0005460A22218F03F0A6FD284603F08DFDF2
:100A5C0000232046228F616B03F046FC431E584254
:100A6C00584107B0F0BDFFF73DFF04F05BFB204998
:100A7C0003F074FD04F056FB0A2294F8231003F0E3
:100A8C008AFD04F04FFB2E2103F06CFD04F04AFBB1
:100A9C000A2294F8221003F07EFD04F043FB2E2171
:100AAC0003F060FD04F03EFB0A2294F8211003F0E1
:100ABC0072FD04F037FB2E2103F054FD04F032FBE1
:100ACC00254606460A2215F8201F03F064FD304621
:100ADC0003F04BFD074B01AE00930FCD0FC62B68F7
:100AEC006946337020463B46228F03F08BFAB5E7FC
:100AFC00337B0A08C88F0A0810B5174C94B02046EF
:100B0C00FFF71AFF00226068114603F011F828B1B4
:100B1C00002360681A46194603F01AF8382200219F
:100B2C0006A806F04DF94C2301930C4B6068029318
:100B3C000B2303930A4B01AA04930D230593032360
:100B4C008DF818300023194602F0FAFF14B0BDE8F6
:100B5C00104003F02DB800BFD4080020427B0A08D7
:100B6C004E7B0A0838B503F047FE3C25044603F0DB
:100B7C004FFE05FB0400054B186003F031FE0446E4
:100B8C0003F03AFE05FB040038BD00BF0004002052
:100B9C0010B5044603F030FE241A48BF3C3404F070
:100BAC00C1FA22460249FFF77EFA204610BD00BF6B
:100BBC005C7B0A0838B50A2004F049FD4FF4204448
:100BCC000B4D0C4B6843B0FBF4F018600C2004F098
:100BDC003EFD6843B0FBF4F0074B18600B2004F0AB
:100BEC0036FD6843B0FBF4F0044B186038BD00BF11
:100BFC004C2A0200A4010020A8010020A001002022
:100C0C0008B502F0ABF801F0FBFE0121084604F038
:100C1C00E1FC0121022004F0DDFC0021022004F0A3
:100C2C00EAFC0021012004F0E6FC0021084602F059
:100C3C0087FA00210E4B1860084602F03FFB0D4B63
:100C4C0001211860072004F0C5FC0021062004F0E7
:100C5C00C1FC04F03BFD14220020074902F088FD82
:100C6C0040F2E112054B1A600022054B1A6008BDD8
:100C7C00540300205C0300201403002024000020F7
:100C8C002803002038B5062004F0CEFC01280446C9
:100C9C0010D1094B094918600948FFF729FA094B8B
:100CAC005D68012D04D108490548FFF721FA2C464F
:100CBC00204638BD0024F2E72C030020817B0A0873
:100CCC009B7B0A0814030020A37B0A0810B506209E
:100CDC0004F0AAFC431E064C58425841206004F014
:100CEC0021FA22680349FFF7DEF9206810BD00BF26
:100CFC002C030020B97B0A082DE9F04385B003F0E2
:100D0C0093FD044603F0A4FD054603F0A9FD064639
:100D1C0003F066FD074603F06FFD804603F078FD97
:100D2C00DFF824902B462246CDE90280074948463D
:100D3C00CDE9006702F08CFF04F0F4F9494605B0E8
:100D4C00BDE8F04303F00ABCC0030020CE7B0A08C8
:100D5C0008B50868FFF7C3FD012805D1BDE80840B8
:100D6C000021084602F050BB08BD08B50868FFF723
:100D7C00B6FD012804D1BDE808400F2102F044BBA8
:100D8C0008BD000010B50446034B40F8183BFFF7B4
:100D9C0098F9204610BD00BF408F0A0808B5002303
:100DAC004377006803F0D8F9BDE8084002F04ABC6C
:100DBC002DE9F04301EB02088FB0414507460D4683
:100DCC009146CDE9051880F09E8005A80E88FFF7A6
:100DDC00CFFD0368434580F0968005A8FFF7BEFD64
:100DEC0047F276239E42C4B200F0B58028D847F271
:100DFC0061239E4200F08A8047F264239E424DD0CC
:100E0C0046F670539E4228D1684E694FDFF8A49184
:100E1C00059B984577D905A8FFF7A0FDC5B205A895
:100E2C00FFF7A6FD059C3146204605F0FFFF014665
:100E3C0038BB284604F0CEFB05A8FFF799FDE7E781
:100E4C0047F264739E424AD047F276739E4200F09A
:100E5C00928047F261739E426AD0FFF743FD04F023
:100E6C0061F9554903F07AFB04F05CF9294603F06B
:100E7C0088FB00230222CDE90133009219467A8BBC
:100E8C0029E03946204605F0D1FF28B149462046D5
:100E9C0005F0CCFF0028CFD10121CAE70AAB07939C
:100EAC0000251023454907A8CDE90853FFF76FFD2E
:100EBC0007A82146FFF788FD204604F0B5FB014644
:100ECC0007A8FFF793FD2A461421089BCDE901558D
:100EDC00013B0093079B384600F0E8FA13E005A8A5
:100EEC00FFF746FD036898450DD9A4B201212046B1
:100EFC0004F070FB05A8FFF731FD011E18BF01219E
:100F0C00204604F078FB0FB0BDE8F0830AAB0793E2
:100F1C000025102307A82A49CDE90853FFF737FD10
:100F2C0007A82146FFF750FD204604F090FBC6E7CA
:100F3C0005A8FFF71DFD03689845E4D9A4B201216B
:100F4C00204604F047FB05A8FFF708FD01462046A4
:100F5C0004F094FBD7E720468DF8284002F074FB90
:100F6C0003460AA823B1174A934201D09847CAE70F
:100F7C0002F066FBC7E705A8FFF7FAFC059B2046C5
:100F8C005D1BA9EB0505CDE90A350C958DF81C40C8
:100F9C0002F064FB03460AA907A823B10A4A93424C
:100FAC0001D09847AFE702F04CFBACE7EC7B0A08AA
:100FBC00937C0A08EF7B0A08F97B0A08F37B0A0882
:100FCC00F67B0A084D360A084F360A082DE9F0411F
:100FDC008CB004AF044605220068391D03F03EFBBB
:100FEC00002849D0052804D000202037BD46BDE894
:100FFC00F081B7F805305BBA9AB2A7F80530B7F8AC
:10100C0007305BBA1FFA83F8A7F80730002AEBD039
:10101C003B79002B53D102F011FB657FE060B7F8F0
:10102C000700002D47D1B7F80530012B43D1092813
:10103C0024D0C82801D004282AD10125FFF752FC5E
:10104C0004F070F8B54903F089FA04F06BF86369A1
:10105C00E1680A22C91A03F09EFA04F063F8B04959
:10106C0003F08FFAE36820466361657700F058FE61
:10107C00FFF768FC02F0E6FA0120B6E7FFF732FC56
:10108C0004F050F8A74903F07CFA03236377ABE72D
:10109C00FFF728FC04F046F8A34903F05FFA04F0CC
:1010AC0041F804460A22B7F8071003F074FA2046F8
:1010BC0003F05BFA98E7053818BF012095E7B8F5FF
:1010CC00806F15D9FFF70EFC04F02CF8974903F04C
:1010DC0045FA04F027F805460A22B7F8071003F082
:1010EC005AFA284603F041FA2046FFF757FEC3E7A9
:1010FC006E4608F10803DB08A6EBC3039D4604AD5E
:10110C0042462946206803F0A9FA80454FF00000BA
:10111C0077D1B7F80730E85402F090FA3B79E060E9
:10112C00142B00F0B88038D80F2B00F0B48007D8FF
:10113C00022B39D0062B49D02046FFF72FFE50E06A
:10114C00112BF9D100233B70B7F807302B449D428B
:10115C00C7E9035345D207F10C002C68FFF708FCD4
:10116C00FA68B7F80730551B5D1B714BC7E90525AD
:10117C009C42FD6100F0B98000F29A806D4B9C425C
:10118C0000F0A78003F5003303339C4229D1384685
:10119C0007F1140102F055FA23E0292B23D0372B49
:1011AC0000F0A9801D2BC7D1637F7BB9FFF79AFB99
:1011BC0003F0B8FF604903F0E4F90123204663779C
:1011CC0000F0AEFDFFF7BEFB02F03CFA0023C82195
:1011DC00B7F8052020460091CDE90133194600F0FF
:1011EC0065F901200DE0A3681BB9202002F018FD61
:1011FC00A060B7F80780A8444545C7E9055802D355
:10120C000020B546F1E6294600252022A06805F00D
:10121C0056FEA36807F11400DD77FFF7A9FB0368FE
:10122C00984536D9786920B1BB6998422FD205F020
:10123C00B5FC85B2FFF756FB03F074FF3F4903F092
:10124C008DF903F06FFFA16803F088F903F06AFFD2
:10125C003A2103F087F903F065FF80460A222946FC
:10126C0003F099F9404603F080F9206802F074FF0E
:10127C002368A2681D875A630023637702F0DEF9A6
:10128C00A0F59C500838C4E903006061A9E7284622
:10129C00CFE75025CEE77B682946C3F30F23638342
:1012AC002046B7F80720FFF783FD0023638398E7F8
:1012BC00234B9C4213D003F19F6303F5003303F5DA
:1012CC0080739C428DD1384607F1140102F0B9F9B4
:1012DC0087E7384607F1140102F0B3F981E7384685
:1012EC0007F1140102F0ADF97BE7384607F1140160
:1012FC0002F0A7F975E7B7F80730002B3FF471AF90
:10130C00FFF7F0FA03F00EFF0E4903F027F903F094
:10131C0009FF294603F035F963E700BF0A7C0A0888
:10132C00187C0A081D7C0A08307C0A08477C0A08CD
:10133C006D6574616F746100587C0A085E7C0A08E4
:10134C0061636F6E6E7C0A08F0B5044685B00D467D
:10135C00FFF7F8FA637F022B1ED0237F628B0133D9
:10136C00DBB22377AAB9022B13D8206802F04BFF0B
:10137C00A0B125B9206802F0B5FE00280EDD20468C
:10138C00FFF724FE0028F5D1206802F0E5FE02F0FC
:10139C0059F9237F013B237705B0F0BD02F04EF9DC
:1013AC000546206802F02FFF677F0646012F2CD1DF
:1013BC0020B965612046FFF7F1FCEAE744F63822D4
:1013CC00E368EB1A934207D9FFF78CFA03F0AAFEF5
:1013DC00274903F0D6F8EDE742F21072934203D896
:1013EC002369EB1A9342D4D940F6B8326369EB1AED
:1013FC009342CED9002306211A462046CDE901336B
:10140C00009300F053F86561C3E7002FC1D1636905
:10141C00EB1A78B140F6B8329342BAD9FFF762FAB8
:10142C0003F080FE134903F0ACF8206802F094FE40
:10143C006777AEE741F288329342AAD9206802F06E
:10144C008BFE2068FFF7E4FA0028DCD001256768E2
:10145C002583384605F017FD3B4600902A461D2192
:10146C002046CDE9016600F021F82369636190E71D
:10147C00777C0A08897C0A0870B51425002445433A
:10148C00064EA54208DD322003F000FA002130465A
:10149C00FFF75AFF0134F4E770BD00BFAC01002028
:1014AC0000210148FFF750BFAC0100202DE9F04F9F
:1014BC0083B0044600AF0068884616469946EB4652
:1014CC003D6B02F0A0FE00287FD0B8F11D0F04D8B0
:1014DC004C4B23FA08F3DB0702D4637F012B74D146
:1014EC0046B9668B36B9238B01339BB2002B71D076
:1014FC002383268BA8F10C03082B16D8D4E90323DD
:10150C00934238BF134603F1420A02F097F8AAEB54
:10151C000000002860DB00212046FFF715FF02F0D9
:10152C008DF8AAEB00000028F5DAB9F1000F5AD0BB
:10153C006B1D7A6B76BA002ABA6B08BF002203EBDC
:10154C00020A0AF1070323F00703ADEB030DBB6B93
:10155C00C7F804D0EA18C2F3072343EA02238DF834
:10156C000080ADF80160ADF80330B9F1000F3CD04C
:10157C00002D3AD02A4649460DF1050005F012FC23
:10158C00681D7B6B3BB1BB6B2BB11A467B68796BCF
:10159C00184405F007FC002555452AD2AAEB050294
:1015AC007B68B2F5806F28BF4FF4806220685919B0
:1015BC0002F05DFC0646002002F03EF8BEB9206841
:1015CC0002F0CAFD667702F03DF8DD460C37BD46E9
:1015DC00BDE8F08F01238BE7217F0029A5D12046A0
:1015EC00FFF7B2FEA1E70523A3E70520C9E73544C1
:1015FC00D2E703D02046FFF7D1FBE6E702F01EF856
:10160C002061E2E745000020F0B590F849600446FF
:10161C008BB0E6B105AB002507930823077A0D497B
:10162C0007A8CDE90853FFF7B2F9394607A8FFF729
:10163C00CBF904F109030193089B2A46009314216A
:10164C00079B05480296FFF731FF84F849500BB011
:10165C00F0BD00BF977C0A08AC01002010B5044611
:10166C00FFF74AFB03F05EFD214602F08AFF064BB2
:10167C001B68012B06D12146044802F082FF034867
:10168C00FFF7C2FF10BD00BF6C03002070030020E9
:10169C0008B51148FFF7E2FF1048FFF7DFFF1048CD
:1016AC00FFF7DCFF0F48FFF7D9FF0F48FFF7D6FF16
:1016BC000E48FFF7D3FF0E48FFF7D0FF0D48FFF79A
:1016CC00CDFF0D48FFF7CAFF0C48FFF7C7FFBDE879
:1016DC0008400B48FFF7C2BF9A7C0A08A27C0A0894
:1016EC00AE7C0A08C27C0A08E47C0A08047D0A085D
:1016FC00187D0A082D7D0A08547D0A08717D0A0898
:10170C00827D0A0808B50868FFF7E9F801280DD1B1
:10171C000748FFF7A3FF0023064A07491360074A4F
:10172C0007481360BDE80840FEF7E2BC08BD00BFE7
:10173C00A07D0A086C030020B57D0A086803002010
:10174C009B7B0A0810B50868FFF7C9F8012811D16E
:10175C00094C606003F0BAFF21461422002002F00D
:10176C000FF806480649FEF7C3FCBDE810400548D3
:10177C00FFF774BF10BD00BF140300209B7B0A0849
:10178C00D77D0A08F77D0A0838B50868FFF7A7F86F
:10179C00012812D10024094D6C6003F097FF2946F3
:1017AC002046142201F0ECFF05480649FEF7A0FC88
:1017BC00BDE838400448FFF751BF38BD1403002082
:1017CC009B7B0A081D7E0A083C7E0A0808B508683F
:1017DC00FFF785F801280BD106490748FEF788FC6E
:1017EC00FA2001F073FEBDE808400448FFF736BF4D
:1017FC0008BD00BF617E0A089B7B0A08887E0A0828
:10180C0008B50868FFF76BF801280ED100210846CF
:10181C0001F054FD054B064918600648FEF768FCBC
:10182C00BDE808400448FFF719BF08BD5C03002061
:10183C00A87E0A089B7B0A08CB7E0A0810B50868AC
:10184C00FFF74DF8012811D1094CA06003F03EFFC1
:10185C0021461422002001F093FF06480649FEF7AA
:10186C0047FCBDE810400548FFF7F8BE10BD00BFAF
:10187C00140300209B7B0A08F37E0A081F7F0A08CA
:10188C0038B50868FFF72BF8012812D10024094D50
:10189C00AC6003F01BFF29462046142201F070FFB8
:1018AC0005480649FEF724FCBDE838400448FFF71C
:1018BC00D5BE38BD140300209B7B0A083B7F0A0869
:1018CC00657F0A0808B50868FFF709F801280ED1EA
:1018DC00074BD96801F034FC064B074918600748E0
:1018EC00FEF706FCBDE808400548FFF7B7BE08BD8B
:1018FC0014030020580300207F7F0A089B7B0A08F2
:10190C00AC7F0A0808B50868FEF7E9FF01280ED17C
:10191C000021084601F014FC054B064918600648E6
:10192C00FEF7E6FBBDE808400448FFF797BE08BD8C
:10193C0058030020D97F0A089B7B0A08D87F0A0825
:10194C0038B504460D46FFF7D7F92B6822460A49ED
:10195C000A4802F07DF903F0E5FB084902F011FE9C
:10196C00074B1B68012B06D10449064802F009FEFF
:10197C000448FFF749FE38BD03800A081A0200200C
:10198C006C0300207003002010B50446FFF7B4F977
:10199C0003F0C8FB216802F0F4FD064B1B68012B19
:1019AC0006D12168044802F0ECFD0348FFF72CFE39
:1019BC0010BD00BF6C0300207003002070B50546FD
:1019CC001E4E8CB00C4604A8314602F00DFD294683
:1019DC00684602F009FD694604A802F06EFD014656
:1019EC0008A802F040FD08A8FFF7CEFF08A802F0F7
:1019FC00B1FC684602F0AEFC04A802F0ABFC314628
:101A0C0004A802F0F1FC2146684602F0EDFC6946A0
:101A1C0004A802F052FD014608A802F024FD08A813
:101A2C00FFF7B2FF08A802F095FC684602F092FCA2
:101A3C0004A802F08FFC0CB070BD00BF09800A082E
:101A4C0070B50D468CB0374904A802F0CDFC294680
:101A5C00684602F0C9FC694604A802F02EFD014656
:101A6C0008A802F000FD08A8FFF78EFF08A802F0F6
:101A7C0071FC684602F06EFC04A802F06BFC29466F
:101A8C0004A802F0B1FC284908A802F0ADFC08A992
:101A9C0004A802F034FD254CA368002B14BF0026CB
:101AAC0000F0010608A802F055FC04A802F052FC54
:101ABC0066B10123A36003F009FE21460020142225
:101ACC0001F05EFE1A491B48FEF712FB294604A8DA
:101ADC0002F08AFC184908A802F086FC08A904A8A0
:101AEC0002F00DFDA368012B14BF002500F00105C9
:101AFC0008A802F02FFC04A802F02CFC7DB10025F4
:101B0C00A56003F0E3FD28461422084901F038FED5
:101B1C000A4908480CB0BDE87040FEF7E9BA0CB0B1
:101B2C0070BD00BF09800A0816800A081403002043
:101B3C001A800A089B7B0A08BA830A0847800A089D
:101B4C0038B504460D46FFF7D7F82B4622460A490E
:101B5C000A4802F07DF803F0E5FA084902F011FD9D
:101B6C00074B1B68012B06D10449064802F009FDFE
:101B7C000448FFF749FD38BD03800A081A0200200B
:101B8C006C03002070030020F7B50022434B114674
:101B9C00586801F0A5FF064602F012F80746FFF759
:101BAC00ABF83F4B1B68012B03D13E493E4802F07A
:101BBC00E8FC3E4B3E4D19683E483F4CFFF7C0FFDA
:101BCC00FEF7F8FF29683D48FFF7BAFF21683C484B
:101BDC00FFF7B6FF3B4B3C481968FFF7B1FF2B688A
:101BEC00B3F57A7F0AD903F09DFA2A683749FEF7D4
:101BFC005AFA2A6836493748FEF7CEFA2368B3F505
:101C0C007A7F0AD903F08EFA22683349FEF74BFA31
:101C1C00226832492F48FEF7BFFA012003F004FD79
:101C2C002F4B0128186006D12E48FFF717FD2E49BF
:101C3C002E48FEF75DFA022003F0F6FC2C4B01282F
:101C4C00186006D12B48FFF709FD2B492748FEF7F2
:101C5C004FFA2A4B1B68012B06D12948FFF7FEFCD3
:101C6C0028492248FEF744FA03F05CFA264B274930
:101C7C001A68FEF718FA03F055FA254B25491B682C
:101C8C00254A0093002F14BF0B461346002E18BF95
:101C9C000A462249FEF707FA03B0F0BDD40800202B
:101CAC006C030020C003002070030020F803002008
:101CBC00A401002072800A08A8010020AB800A0849
:101CCC00E0800A08A00100207A800A088A800A08AD
:101CDC00A4800A08BB800A08BF800A08D9800A08B9
:101CEC0058030020F0800A0801810A0813810A08B1
:101CFC005C0300201A810A082F810A085403002073
:101D0C0044810A0856810A082800002068810A08C4
:101D1C0030030020BA830A0816800A0879810A0861
:101D2C0000B595B004AB0022019350231121009310
:101D3C000292034BFFF7BAFB15B05DF804FB00BF32
:101D4C00B4850A08F0B5ADF2244D08AB00240F465B
:101D5C0005934FF48063164605460E4905A8CDE958
:101D6C000643FEF714FE394605A8FEF72DFE314654
:101D7C0005A8FEF70CFE069B2246013B009314219E
:101D8C002846CDE90144059BFFF790FB0DF2244D4D
:101D9C00F0BD00BF977C0A0830B54F4C87B0204689
:101DAC00FFF732FC4D4A217A4D48FFF7CBFFFEF787
:101DBC00A3FF4C4B1B68012B03D120464A4902F070
:101DCC00E0FB3720FEF7E4FE484902A802F04BFB8B
:101DDC0002A94748FFF7B4FD02A802F0BBFA454937
:101DEC0002A8FEF799FD03A8FEF76BF94FF4FA7001
:101DFC0002F04CFDFEF76AFFFEF744FF3E4B3F4CF2
:101E0C001B783F4A3F498DF8003002A83C2302F072
:101E1C004BFF03A8FEF755F903F058FC142221469A
:101E2C00002001F0A5FC21683748FFF789FE6168A6
:101E3C003648FFF785FEA1683548FFF781FEE1685B
:101E4C003448FFF77DFE21693348FFF779FEA2681D
:101E5C0032493348FEF7A0F9E26832493048FEF7C0
:101E6C009BF922692C492E48FEF796F9FEF71CFCCB
:101E7C002D4B024618602D492948FEF78DF9A368B1
:101E8C00012B03D12A492648FEF732F92269052A8B
:101E9C0006D92849224807B0BDE83040FEF77CB986
:101EAC00254C264DFEF798FC21682548FFF748FE87
:101EBC0029682448FFF744FE2B68226822490A4807
:101ECC0001F0C6FE08492148FEF712F9204807B078
:101EDC00BDE83040FFF7C2BB700300209C810A08AC
:101EEC00AC0100206C030020C00300203403002050
:101EFC00F6790A08057A0A08190200201403002052
:101F0C001A0200205E830A08A0810A08B6810A081A
:101F1C00CC810A08E2810A08F8810A080E820A08B4
:101F2C00737A0A081B820A08280000202D820A08EE
:101F3C003C820A086A820A086003002064030020BD
:101F4C00A6820A08B2820A08AD790A089B7B0A08A5
:101F5C00BE820A082DE9F041051E88B040F3DF80EF
:101F6C00782DA8BF78256F4F6F4B7C681B686F4E20
:101F7C001C4333681C4340F0CF806D48FFF76EFB69
:101F8C002146204601F0DCF86A4B214618602046B9
:101F9C0001F094F9684B21461860204601F034FAA0
:101FAC004FF03C08306001262146012003F023FB52
:101FBC002146022003F01FFB2A4660496048FEF7C9
:101FCC00EBF84FF47A7002F061FC08FB05F55D4B01
:101FDC0032461B680DF11601029306A80DF115038C
:101FEC00CDE90065ADF816608DF8156001F0DCFEEA
:101FFC005548FFF733FB5548FEF79EFC41F28830FD
:10200C0002F044FC01F0D4FD41F2883002F03EFCB9
:10201C0001F0D6FD002834D04D494E48FEF768F843
:10202C00FA684D494B48FEF7B7F8334622464B4900
:10203C00CDE900444A4801F0DBFD234622464949DC
:10204C00CDE90044484801F0D3FD4FF4FA7002F09A
:10205C001DFC434906A8FEF75FFC07A8FEF731F804
:10206C004FF4FA7002F012FC404B06A81B78404A61
:10207C008DF800303F49434602F016FE07A8FEF7E4
:10208C0020F8FEF76FFD3C4B1860FEF7B9FD03F02E
:10209C001DFB14220020234901F06AFBFB681E3B48
:1020AC00D22B08D95A23FB6003F010FB142200201A
:1020BC001C4901F065FBBB68012B03D12F49254856
:1020CC00FEF716F82E4C2F4DFEF786FB03F02AF880
:1020DC0022682B682C49FDF7E6FF22682B682B49F8
:1020EC002B4801F0B5FD2A491A48FEF701F8FFF715
:1020FC0053FE02F075FB044602F072FB082C04DD63
:10210C000A2802DC5F2001F0E1F90023214A136068
:10211C00214A1360214A136008B0BDE8F0810525FF
:10212C0021E700BF140300202C03002054030020DF
:10213C00D8820A08580300205C030020F0820A08A9
:10214C00737A0A08140200200B830A08D4080020B2
:10215C001D830A082F830A0837830A08C9190A083D
:10216C00057A0A084D1A0A0850830A081902002039
:10217C001A0200205E830A08F80300203C820A0839
:10218C0060030020640300206B830A08AD790A0801
:10219C00C003002050030020300300206C030020FB
:1021AC0008B50868FEF79BFB012811D1094B186094
:1021BC000948FFF753FA09490948FDF799FF03222B
:1021CC00084B1A60FFF7E8FDBDE80840FFF7DCBCE0
:1021DC0008BD00BF6C03002088830A089C830A0892
:1021EC009B7B0A0868030020F0B587B002F09AFFC9
:1021FC004FF4E13102F07CFF4FF4FA6002F046FB41
:10220C00FEF77AFC4FF0804002F09EFA02F08AFF53
:10221C006249FDF748FF02F085FF6049FDF743FF77
:10222C0002F080FF5E49FDF73EFF02F07BFF5D4947
:10223C00FDF739FF5C4C02F075FF5949FDF733FF90
:10224C0002A801F0C5FC02A9204602F017F902A869
:10225C0002F080F802F066FF2168FDF724FF40F6DB
:10226C00B83002F013FB01F0ABFC20B300240123C7
:10227C0022464E49CDE900444D4801F0B9FC4C4989
:10228C0002A8FEF749FB03A8FDF71BFF23462246D5
:10229C004849CDE90044484801F0AAFC474B02A844
:1022AC001B78474A8DF8003046493C2302F0FCFC71
:1022BC0003A8FDF706FF40F6B83001F0BDF9424C1B
:1022CC00424B0026636001F0B9F9A0F59C50083828
:1022DC00C4E903006061FEF705FB02F023FF3C49F3
:1022EC0002F04FF923683B4A42F227375A635022D7
:1022FC001A87206801F030FF667701F09FF90546D8
:10230C00637F012B0CD001F099F9401BB84204D823
:10231C0000212046FFF718F8F2E7637F012BE8D184
:10232C0040F6B8302C4C02F0B1FA1A222B492C484A
:10233C00FDF732FFFEF764FC03F0C8F914222146C6
:10234C00002001F015FAE3681E3BD22B08D95A2362
:10235C00E36003F0BBF914222146002001F010FACF
:10236C00E26820491E48FDF717FFA368012B03D133
:10237C001D491B48FDF7BCFEFFF70EFDFFF788F962
:10238C00FEF7F0FB4EF66022184B1860184B1A60E3
:10239C000022184B1A6007B0F0BD00BF86870A08F0
:1023AC00BD830A08D4830A0834030020C9190A081B
:1023BC00057A0A084D1A0A0850830A0819020020E7
:1023CC001A0200205E830A08AC01002000000020E5
:1023DC00E2830A0877840A081403002087840A0819
:1023EC00A1840A0837830A083C820A08F8030020F3
:1023FC00300300206C03002070B500214048FEF72C
:10240C00A3FF404A0A2013683F4E0133136002F0C9
:10241C003DFAFEF7A7FB306002F0D1F910F0010095
:10242C003A4C1ED1236801332360394B196801F0F3
:10243C000DF801F093F802F0DFF90A280ED102F042
:10244C00CFF9054602F0CCF9092D01DC042851DC4A
:10245C003720FEF79DFB3C30FFF77CFD0120FFF79A
:10246C000BF80A21256895FBF1F301FB13550DBB05
:10247C00FFF78AFBFEF72AFC264B3268186040F205
:10248C002D139A4207D12946042000F021FD224940
:10249C002248FDF72DFE3368B3F5977F07D1012154
:1024AC00042000F015FD1E491C48FDF721FE236891
:1024BC00013323602368B3F5967F1FDD002525606B
:1024CC00FFF76AFC40F2465332689A42C8BF154B7C
:1024DC00154AC8BF1D601368002B0FDD013B13604C
:1024EC0063B91248FFF7BAF8BDE8704010490B48C1
:1024FC00FDF7FEBD3720FEF74BFBADE770BD00BF0F
:10250C00AC01002030030020F80300205003002011
:10251C00240000202C030020A7840A089B7B0A08B7
:10252C00B9840A082803002068030020CC840A0818
:10253C00DE840A082DE9F041ADF5846D1E4608AB2A
:10254C000024884605934FF48063174605461049CE
:10255C0005A8CDE90643FEF71AFA414605A8FEF791
:10256C0033FA394605A8FEF712FA314605A8FEF7EC
:10257C000EFA069B2246013B009314212846CDE916
:10258C000144059BFEF792FF0DF5846DBDE8F081CB
:10259C00977C0A0810B50C460B6805481621054AAD
:1025AC00FFF7C8FF2368BDE810401878FDF75ABE46
:1025BC00AC010020FB840A08F0B5ADF2244D08AB49
:1025CC0000240F4605934FF48063164605460E49CA
:1025DC0005A8CDE90643FEF7DAF9394605A8FEF75A
:1025EC00F3F9314605A8FEF7EFF9069B2246013BAD
:1025FC00009314212846CDE90144059BFEF756FFB4
:10260C000DF2244DF0BD00BF977C0A0810B5086888
:10261C00FEF765F9012804460BD10648FFF71EF8B2
:10262C002146092000F054FCFF2221460248FFF706
:10263C00C3FF10BD06850A08AC01002008B5086868
:10264C00FEF74DF901280BD10648FFF707F80021DA
:10265C00092000F03DFCFF2202210348FFF7ACFFEC
:10266C0008BD00BF12850A08AC01002010B508682F
:10267C00FEF735F9012804460BD10648FEF7EEFFAC
:10268C002146082000F024FCFF2214210248FFF709
:10269C0093FF10BD1E850A08AC01002008B5086820
:1026AC00FEF71DF901280DD1FEF726FB0648FEF7B3
:1026BC00D5FF0021082000F00BFC00221421034858
:1026CC00FFF77AFF08BD00BF2A850A08AC0100207D
:1026DC0010B50868FEF703F9012804460BD106482B
:1026EC00FEF7BCFF2146204600F0F2FBFF2214212E
:1026FC000248FFF761FF10BD36850A08AC010020C7
:10270C0010B50868FEF7EBF8012804460BD1064813
:10271C00FEF7A4FF0021204600F0DAFB0022142172
:10272C000248FFF749FF10BD42850A08AC010020A2
:10273C0008B50868FEF7D3F801280BD10022064B28
:10274C001A60064B196800F081FEFF221421044820
:10275C00FFF732FF08BD00BF280300202400002033
:10276C00AC01002008B50868FEF7B9F8012810D1B3
:10277C000021084600F048FE0021064B1860084670
:10278C0000F0DEFC044B0022186014210348FFF714
:10279C0013FF08BD5403002058030020AC01002097
:1027AC0010B50868FEF79BF8012804460BD10648C3
:1027BC00FEF754FF2146032000F08AFBFF22142170
:1027CC000248FFF7F9FE10BD4E850A08AC01002047
:1027DC0008B50868FEF783F801280BD10648FEF708
:1027EC003DFF0021032000F073FB0022142103485D
:1027FC00FFF7E2FE08BD00BF5A850A08AC010020B5
:10280C0010B50868FEF76BF80128044613D10A4886
:10281C00FEF724FF2146204600F0FCFB2146022057
:10282C0000F0F8FB2146032000F0F4FBFF221421FA
:10283C000248FFF7C1FE10BD66850A08AC010020F6
:10284C0010B50868FEF74BF80128044613D10A4866
:10285C00FEF704FF0021204600F0DCFB00210220E3
:10286C0000F0D8FB0021032000F0D4FB002214213F
:10287C000248FFF7A1FE10BD79850A08AC010020C3
:10288C00F8B500240127244B244D1C60244B254E05
:10289C001C70254B28461F7001F00EFD05F11C0025
:1028AC0002F094FB324621496C632C87284602F0D7
:1028BC0079FF1F4B0320C3E90054C3E902441D4DAB
:1028CC00C3E904449C619C831B4BC5E90044AB6089
:1028DC0001F0A0F8324628461849194D02F062FF63
:1028EC002146384601F0A6F82846164901F07CFD31
:1028FC0032462846144902F055FF16231348324637
:10290C000372134B4460036080F849401149BDE8E1
:10291C00F84002F047BF00BF14020020D80100208D
:10292C00180200205001002019020020910D0A0805
:10293C00AC010020CC0100200000FFFFBB080A08FE
:10294C003403002076840A0861430A0870030020CF
:10295C0094850A08AB080A08F8B5274D04462B786D
:10296C00264EBFF35B8F19B3D80709D42846FDF761
:10297C0092FB28B100F07CFE30602846FDF790FBFE
:10298C001C20444337682B782744D907BFF35B8F4F
:10299C0009D41948FDF77FFB28B100F069FE3060BF
:1029AC001548FDF77DFB3368BA881B591A83F8BDAF
:1029BC00DA0709D42846FDF76EFB28B100F058FE63
:1029CC0030602846FDF76CFB1C20444337682B789D
:1029DC002744DB07BFF35B8F09D40748FDF75BFB8C
:1029EC0028B100F045FE30600348FDF759FB336811
:1029FC00BA881B595A83DAE7040400200804002023
:102A0C0008B50121032002F0E5FD03200021FFF7AA
:102A1C00A3FFBDE80840322001F038BF08B5002103
:102A2C00042002F0D7FD0121032002F0D3FD012187
:102A3C000320FFF791FF0A2000F082FE0021032003
:102A4C00FFF78AFFBDE808400121042002F03CBEDC
:102A5C000A2358433A23B0FBF3F07047002100F0EF
:102A6C0017BE012100F014BE10B5044602F0C0FBE5
:102A7C001C22238853436268D118D3588A881A833E
:102A8C002088FFF7EEFFBDE8104002F0B3BB1C221C
:102A9C00038853434268D118D3588A885A837047A5
:102AAC0038B504460D4600F0E3FD00216060284671
:102ABC0002F090FD2046258038BD38B5054602F061
:102ACC0097FB2888FFF7CAFF7D2402F093FB013C9B
:102ADC0014F0FF042BD0022000F032FE288800F006
:102AEC00EFFDC0B20028F2D002F082FB2846FFF7BF
:102AFC00CEFF2888FFF7B5FF02F07CFB4FF4F07097
:102B0C0000F01EFE02F074FB2888FFF7A7FF46209A
:102B1C0000F016FE288800F0D3FDC4B2B4FA84F499
:102B2C0002F068FB4FF4CD70640900F009FE2046FA
:102B3C0038BDCB0710B5044614D502F059FB20461E
:102B4C00FFF7A5FF2088FFF78CFF0A2000F0F8FDA7
:102B5C002088FFF783FF02F04DFB3720BDE81040C3
:102B6C0000F0EEBD02F044FB2046FFF790FF2088FA
:102B7C00FFF777FF412000F0E3FD2088FFF76EFFA1
:102B8C0002F038FB0520E9E710B5044602F030FBF3
:102B9C002046FFF77CFF2088FFF763FF032000F03F
:102BAC00CFFD2088FFF75AFF0A2000F0C9FD2088CE
:102BBC0000F086FD044602F01DFB352000F0C0FD40
:102BCC00E0B210BD2DE9F0410546884616460827AF
:102BDC00012418EA040F14BF012100212846FFF735
:102BEC00A8FF6400013FE4B2F3D126B12846BDE84A
:102BFC00F041FFF739BFBDE8F081F8B5074608266C
:102C0C00002501243846FFF7BFFF00B125436400BF
:102C1C00013EE4B2F6D12846F8BD70B500220C4650
:102C2C0055210646FFF7CEFF651E073415F8011F28
:102C3C0000223046FFF7C6FFA542F7D170BD002336
:102C4C00038283748360C36070472DE9F84F857CE1
:102C5C000446884675B100202082A07404F1080354
:102C6C0008F1FF38103413F8012B9C4208F8012F9F
:102C7C00F9D104E0FFF721FF18B92082A074BDE858
:102C8C00F88F01272A46F0212046FFF79BFFAA4622
:102C9C003E462046FFF778FF814683462046FFF7E5
:102CAC0073FFB9F1010F0FD1012817D1402ED2D9E2
:102CBC0084F810A0BAF1000F01D10123A374237A78
:102CCC00002BC8D00120C9E7814504EB050322D1B4
:102CDC00227CB24218D91A7A174216D04FF0010B47
:102CEC006219137A3B431372594620467F00FFF753
:102CFC0020FF013617F0FF07F6B2CAD10135EDB24D
:102D0C00082DD3D00127C4E7E8D0082E00D866746C
:102D1C004FF0000BB2461A7A22EA07021A72E3E766
:102D2C0003460144002030B58B4215D0082213F81D
:102D3C00014B80EA040515F0010F4FEA500018BF53
:102D4C0080F08C0002F1FF3218BFC0B212F0FF020B
:102D5C004FEA5404EDD1E7E730BD000010B5074C45
:102D6C000121208802F036FC2088002102F043FC6F
:102D7C00BDE810404FF4FA7001F088BD0C0400203F
:102D8C002DE9F0412D4C00210746208802F033FC40
:102D9C0041F2883000F0D4FC0021208802F02BFC9A
:102DAC0041F2883000F0CCFC0021208802F023FC9A
:102DBC0041F2883000F0C4FC08264FF000083D1D9D
:102DCC003B6801214345208805F1100520DD02F008
:102DDC0012FC55F8100C00F0B3FC0021208802F016
:102DEC000AFC55F80C0C00F0ABFC0121208802F019
:102DFC0002FC55F8080C00F0A3FC0021208802F01E
:102E0C00FAFB55F8040C00F09BFC08F10408D7E71A
:102E1C0002F0F1FB4FF4D77000F092FC00212088F7
:102E2C0002F0E9FB4FF4FA5000F08AFC013EC4D1E9
:102E3C0031462088BDE8F04102F0DDBB0C040020D7
:102E4C002DE9F047C6B005460E46174602F06AF962
:102E5C0004460A22294601F09EFB204601F085FB20
:102E6C003C22002101A803F0ABFF40236C464FF03D
:102E7C000108DFF85090DFF850A00093002D1ADA0B
:102E8C00C4E9017602F04EF9514608F1020801F04E
:102E9C0065FBB8F1410F4FEA450504F10804EDD18B
:102EAC0002F040F9094901F06CFB6846FFF768FF36
:102EBC0046B0BDE8F087C4E9016702F033F9494632
:102ECC00E3E700BFB1860A08FC860A0886870A0871
:102EDC000B2870B504460D4604DD02F023F91849A1
:102EEC0001F04FFB012D04DD02F01CF9154901F036
:102EFC0048FB0A2606FB0544134B53F82440BCB18F
:102F0C0002F010F9114901F029FB02F00BF905460A
:102F1C003246214601F03FFB284601F026FB2046B5
:102F2C00BDE8704040F27E424FF4D771FFF788BF86
:102F3C0002F0F8F8BDE87040054901F00FBB00BF86
:102F4C0006860A081E860A082C00002036860A0807
:102F5C0044860A082DE9F041204C002106462088C1
:102F6C0002F049FB41F2883000F0EAFB0021208896
:102F7C0002F041FB41F2883000F0E2FB0021208896
:102F8C0002F039FB41F2883000F0DAFB08254FF0F3
:102F9C000008371D33680837434512DD01212088AE
:102FAC0002F029FB57F8080C00F0CAFB002120881E
:102FBC0002F021FB57F8040C00F0C2FB08F10208E8
:102FCC00E8E742F2AC6000F0BBFB013DDFD12946E3
:102FDC002088BDE8F04102F00EBB00BF10040020B9
:102FEC00322330B5DBB000936B46441E173014F817
:102FFC00015F302D0CBFC3E90112C3E901218442EA
:10300C0003F10803F3D16846CDE93112FFF7A2FFB3
:10301C005BB030BD30B501288BB023D199B9304BA2
:10302C0001AC03F11805224618685968083303C22D
:10303C00AB421446F7D14FF46B72DC2101A8FFF7B9
:10304C00CFFF0BB030BD0129F5D1264B01AA03F1FE
:10305C001805144618685968083303C4AB42224655
:10306C00F7D1E8E702280FD00328EAD149BB1E4B61
:10307C0001AC03F11805224618685968083303C2DD
:10308C00AB421446F7D1D6E761B9184B01AC03F14A
:10309C001805224618685968083303C2AB42144617
:1030AC00F7D1C8E70129C6D1114B01AA03F11805C4
:1030BC00144618685968083303C4AB422246F7D14A
:1030CC00B9E70129B7D10B4B01AA03F11805144636
:1030DC0018685968083303C4AB422246F7D1AAE7F3
:1030EC0068860A0881860A08CC860A089A860A0825
:1030FC00B3860A08E5860A0810B5012104460220A9
:10310C00FFF7E6FE0122084B084909481A60FCF754
:10311C00EFFFFDF727FD074B1860074B1B681C449E
:10312C00064B1C6010BD00BF54030020FE860A082D
:10313C00737A0A08F803002000040020BC03002066
:10314C0070B505460E4601F0EDFF4549FCF7ABFFA7
:10315C0001F0E8FF33462A464249FCF7A4FF01215F
:10316C00084602F037FA012002F05EFA3E4C012DBF
:10317C0020604BD1002849D13C493D48FCF7B8FFB1
:10318C00FDF792FA3B4D024628603B493848FDF763
:10319C0003F82B683B2B05DC38493548FCF7A8FFB6
:1031AC00206870BDFDF7DEFC354B1860354B196897
:1031BC00354B0E44012108461E6002F01CFA334BBD
:1031CC0033491A682A48FCF7E7FFFA2001F05EFB46
:1031DC00012002F029FA2F4D206001F0A3FF226894
:1031EC002D49FCF760FFFDF7E5FC01F09BFF2A6819
:1031FC002A49FCF758FF2A6829492A48FCF7CCFFD2
:10320C0001F090FF1649FCF74EFFC9E7002DDCD109
:10321C000128DAD1002102F0EEF900221B4B2249E1
:10322C0013481A60FCF764FFFDF73EFA1F4D114E70
:10323C0002461F4928600E48FCF7AEFF2B68326827
:10324C001C49D21A0A48FCF7A7FF33682A689B1A54
:10325C00032BBADD18490648FCF74AFFB5E700BF57
:10326C001D870A084D870A08580300206F870A0833
:10327C00737A0A084C03002088870A08A7870A0873
:10328C00F803002000040020F40300204403002075
:10329C00E0870A08A401002086880A088A800A08A8
:1032AC009C880A08BB800A08FD870A08480300208E
:1032BC0018880A0837880A0857880A0870B504461F
:1032CC000E4601F02FFF3B49FCF7EDFE01F02AFF03
:1032DC00334622463849FCF7E6FE0121022002F073
:1032EC0079F9022002F0A0F9344D012C28603DD16F
:1032FC0000283BD1FDF7D8F9314B02461860314913
:10330C003148FCF749FF0121022002F074F92F49E2
:10331C002D48FCF7EDFEFDF725FC2D4B18602D4BD1
:10332C0019682D4B0E441E60FA2001F0AFFA0220F2
:10333C0002F07AF9294C286001F0F4FE2A68284939
:10334C00FCF7B1FEFDF736FC01F0ECFE22682549D6
:10335C00FCF7A9FE226824492448FCF71DFF01F064
:10336C00E1FE1449FCF79FFE286870BD002CDBD1F0
:10337C000128D9D10021022002F03DF91C4B1D4936
:10338C001A691148FCF708FFFDF78EF91A4C1B4916
:10339C00024620600C48FCF7FFFE094A23681268BD
:1033AC0009489B1A052BCCBF15491649FCF7A0FE02
:1033BC00BAE700BF1D870A08B0880A085C03002022
:1033CC004C030020D5880A08737A0A08F8880A0882
:1033DC00F803002000040020FC030020A8010020BA
:1033EC00C1890A08DA890A08D9800A08BB800A0848
:1033FC001403002015890A084803002040890A0894
:10340C0063890A0891890A0810B50446012C0846FC
:10341C0003D1FFF771FE204610BD00210220FFF7FB
:10342C0057FD0022054B06491A604FF47A62054B92
:10343C0005481A60FCF75CFEEDE700BF5403002062
:10344C00F7890A08BC030020737A0A0838B5184CAF
:10345C002368012B0ED0174B1B688B4201D001281F
:10346C0008D1154B9D68012D05D114491448FCF762
:10347C003FFE256038BDD9680120FFF761FE114B76
:10348C00186001F0DDF910F001010DD10846FFF7CD
:10349C00BBFF0D4D28604FF47A7001F0F7F90A204C
:1034AC00FFF72AFE01232B6001232360E2E700BF14
:1034BC0028030020F8030020140300203C820A0893
:1034CC00737A0A08580300205403002010B50446F0
:1034DC001948FEF7C3F8FDF7E7F8184BA04218603F
:1034EC0005DD17491748BDE81040FCF701BE164B27
:1034FC001A69052A05D9BDE8104014491148FCF792
:10350C004BBE0028D4BF00220122A042A8BF00223B
:10351C0082B10F4C22686AB99B68012B01D10D490D
:10352C00E0E70D490748FCF7E3FD5A210120FFF7BE
:10353C00C5FE206010BD00BF168A0A0828000020B6
:10354C00268A0A08737A0A0814030020468A0A0895
:10355C005C030020878A0A08C18A0A0870B5FDF747
:10356C0001FB2A4B2A4E1860012002F05DF801285D
:10357C00284C306019D1284D21682848FEF7E0FA14
:10358C0029682748FEF7DCFA22682B689A420CDD82
:10359C003368012B09D100214FF47A6308462B6064
:1035AC00FFF7CEFD5F20FFF791FF022002F03CF801
:1035BC001C4B216818601C4B1A68914213DD0128C2
:1035CC0011D14FF47A62194D1A602B6901332B61BA
:1035DC0002F07CF829460020142200F0D1F80021DA
:1035EC000846FFF76BFE124B21681A6891420CDDFE
:1035FC00104A1268012A08D14FF47A6200211A602D
:10360C000846BDE87040FFF7FFBE70BDF803002010
:10361C005803002000040020F4030020E58A0A0867
:10362C00EA8A0A085C030020FC0300201403002033
:10363C00BC0300205403002001F028B900F088B826
:10364C00704770477047000003065ABF024B53F88F
:10365C0020000020704700BFF88A0A0803065ABFF2
:10366C00024B53F820000020704700BFF88C0A086A
:10367C0008B5024B1B681B68019308BDB001060816
:10368C0008B5024B1B685B68019308BDB0010608C6
:10369C0008B5024B1B689B68019308BDB001060876
:1036AC0008B5024B1B68DB68019308BDB001060826
:1036BC0008B5024B1B681B69019308BDB0010608D5
:1036CC0008B5024B1B685B69019308BDB001060885
:1036DC0008B5024B1B681B6A019308BDB0010608B4
:1036EC0008B5024B1B685B6A019308BDB001060864
:1036FC0008B5024B1B689B6A019308BDB001060814
:10370C0008B5024B1B681B6B019308BDB001060882
:10371C0008B5024B1B68DB6C019308BDB0010608B1
:10372C0008B5024B1B689B6F019308BDB0010608DE
:10373C0008B5024B1B685B68019308BD9C01060829
:10374C0008B5024B1B68DB68019308BD9C01060899
:10375C0008B5024B1B685B69019308BD9C01060808
:10376C0008B5024B1B689B6A019308BD9C010608B7
:10377C0008B5024B1B685B6C019308BD9C010608E5
:10378C0008B5024B1B689B6C019308BD9C01060895
:10379C0008B5024B1B689B6D019308BD9C01060884
:1037AC0008B5024B1B685B6E019308BD9C010608B3
:1037BC0008B5024B1B685B6C019308BDD001060871
:1037CC0008B5024B1B689B6C019308BDD001060821
:1037DC0008B5024B1B689B69019308BDC401060820
:1037EC0008B5024B1B685B6A019308BDC40106084F
:1037FC0008B5024B1B689B6A019308BDC4010608FF
:10380C0008B5024B1B68DB6A019308BDC4010608AE
:10381C0008B5024B1B681B6B019308BDC40106085D
:10382C0008B5024B1B685B6B019308BDC40106080D
:10383C0008B5024B1B689B6B019308BDC4010608BD
:10384C0008B5024B1B681B6C019308BDC40106082C
:10385C0008B5024B1B681B6E019308BDAC01060832
:10386C0008B5024B1B685B6E019308BDAC010608E2
:10387C0008B5024B1B689B6E019308BDAC01060892
:10388C0008B5024B1B68DB6E019308BDAC01060842
:10389C0008B5024B1B681B6F019308BDAC010608F1
:1038AC0008B5024B1B685B6F019308BDAC010608A1
:1038BC0008B5034B1B68D3F88030019308BD00009A
:1038CC00AC01060808B5024B1B681B68019308BDC8
:1038DC00BC01060808B5024B1B685B68019308BD68
:1038EC00BC01060808B5024B1B689B68019308BD18
:1038FC00BC01060808B5024B1B68DB68019308BDC8
:10390C00BC01060808B5024B1B681B69019308BD76
:10391C00BC01060808B5024B1B681B6A019308BD65
:10392C00BC01060808B5024B1B681B6B019308BD54
:10393C00BC01060808B5024B1B685B6C019308BD03
:10394C00BC01060808B5024B1B68DB69019308BD76
:10395C00B401060808B5024B1B681B6A019308BD2D
:10396C00B401060808B5024B1B681B68019308BD1F
:10397C00D801060808B5024B1B685B68019308BDAB
:10398C00D801060808B5024B1B681B69019308BDDA
:10399C00D801060808B5024B1B685B69019308BD8A
:1039AC00D801060808B5024B1B689B69019308BD3A
:1039BC00D801060808B5024B1B68DB69019308BDEA
:1039CC00D801060808B5024B1B681B6A019308BD99
:1039DC00D801060808B5024B1B685B6C019308BD47
:1039EC00C001060808B5024B1B689B6C019308BD0F
:1039FC00C001060808B5024B1B681B6D019308BD7E
:103A0C00A801020808B5024B1B681B68019308BD8E
:103A1C00A401060808B5024B1B685B68019308BD3E
:103A2C00A401060808B5024B1B685B69019308BD2D
:103A3C00A401060808B5024B1B68DB6A019308BD9C
:103A4C00A401060808B5024B1B68DB6C019308BD8A
:103A5C00A401060808B5024B1B685B6D019308BDF9
:103A6C00A401060808B5024B1B689B6D019308BDA9
:103A7C00A401060808B5034B1B68D3F890300193DA
:103A8C0008BD0000A401060808B5034B1B68D3F859
:103A9C009C30019308BD0000A401060808B5034B37
:103AAC001B68D3F8A830019308BD0000A4010608D8
:103ABC0008B5024B1B685B68019308BDC80106087A
:103ACC0008B5024B1B689B68019308BDC80106082A
:103ADC0008B5024B1B68DB68019308BDC8010608DA
:103AEC0008B5024B1B681B69019308BDC801060889
:103AFC0008B5024B1B685B69019308BDC801060839
:103B0C0008B5024B1B689B69019308BDC8010608E8
:103B1C0008B5024B1B68DB69019308BDC801060898
:103B2C0008B5024B1B681B6A019308BDC801060847
:103B3C0008B5024B1B685B6A019308BDC8010608F7
:103B4C0008B5024B1B689B6A019308BDC8010608A7
:103B5C0008B5024B1B68DB6A019308BDC801060857
:103B6C0008B5024B1B681B6B019308BDC801060806
:103B7C0008B5024B1B685B6B019308BDC8010608B6
:103B8C0008B5024B1B681B6C019308BDC8010608E5
:103B9C0008B5024B1B685B6C019308BDC801060895
:103BAC0008B5024B1B689B68019308BDCC01060845
:103BBC0008B5024B1B68DB68019308BDCC010608F5
:103BCC0008B5024B1B685B69019308BDCC01060864
:103BDC0008B5024B1B68DB69019308BDCC010608D4
:103BEC0008B5024B1B681B6A019308BDCC01060883
:103BFC0008B5024B1B685B6A019308BDCC01060833
:103C0C0008B5024B1B681B6B019308BDCC01060861
:103C1C0008B5024B1B68DB6B019308BDCC01060891
:103C2C0008B5024B1B681B68019308BDA001060870
:103C3C0008B5024B1B685B68019308BDA001060820
:103C4C0008B5024B1B689B68019308BDA0010608D0
:103C5C0008B5024B1B68DB68019308BDA001060880
:103C6C0008B5024B1B689B69019308BDA0010608AF
:103C7C0008B5024B1B68DB69019308BDA00106085F
:103C8C0008B5024B1B685B6A019308BDA0010608CE
:103C9C0008B5024B1B68DB6A019308BDA00106083E
:103CAC0008B5024B1B681B6B019308BDA0010608ED
:103CBC0008B5024B1B68DB6B019308BDA00106081D
:103CCC0008B5024B1B681B6C019308BDA0010608CC
:103CDC0008B5024B1B685B6C019308BDA00106087C
:103CEC0070B5002604460D4640F8086FFFF760FDDE
:103CFC0028462570FFF726FE2046666070BDB1F998
:103D0C00043010B50A6833B932B9D1F80630036003
:103D1C004B89838010BD22B19488012C03D0042CD4
:103D2C0006D0042205E092898C710B814A81ECE764
:103D3C0002220B814FF6FF738A714B81E5E710B5B8
:103D4C000446006818B1FFF773FF0023236010BD11
:103D5C0038B50C46B1F9043005468380D1F80630ED
:103D6C00C0F806304B894381FFF7E9FF236813B194
:103D7C002B600023236038BD10B5002404704480F0
:103D8C004FF6FF740029848008DD01398B4204D979
:103D9C0032F8113083800123037010BD01D102234E
:103DAC00FAE74180F9E70000F0B50D46164600270A
:103DBC008BB01A46129B04460193119B314600931B
:103DCC002846109B0297FFF769FE334601462A46A8
:103DDC0005A8FFF7D1FF0F4D9DF81410BDF9162063
:103DEC00BDF8183028468DF8221007A9ADF824200C
:103DFC00ADF826300797ADF82070FFF7A9FF07A89C
:103E0C00FFF79DFF20462946FFF779FF20460BB0B0
:103E1C00F0BD00BF140400200222002010B5084B96
:103E2C00084C1A60084BC4E90000A360FFF7F2FDD0
:103E3C002046BDE81040054A054901F0B3BC00BF5F
:103E4C0020040020140400200000FFFF500100207B
:103E5C00BB080A0813B503688DF80710DC6B012248
:103E6C0047F230530DF10701A04702B010BD10B45A
:103E7C000368DC6B47F23053A44610BC604713B5A3
:103E8C00134602688DF80710D46B0DF1070101225F
:103E9C00A04702B010BD10B543690446B3F88620A4
:103EAC00B3F884309A4208D06369B3F88420511C6B
:103EBC00A3F884101344187910BD03681B69984744
:103ECC000028F1D14FF0FF30F6E770477047000043
:103EDC0010B50446064B0846994204F10C0404D074
:103EEC0001F06CFC002808BF0024204610BD00BF68
:103EFC00308F0A0810B50446AC2101F058FC20465E
:103F0C0010BDAC2101F053BC38B50B4B8469054690
:103F1C0003607CB16368013B63605BB92368204636
:103F2C009B689847A368013BA3601BB92368204694
:103F3C00DB689847284638BD408F0A0810B5044600
:103F4C00FFF7E2FF20461C2101F031FC204610BD9A
:103F5C0070B5044606464D69044B8C3544F8043B59
:103F6C000FCD0FC42B683046237070BDC88F0A0864
:103F7C0010B543690446B3F88620B3F884309A42EE
:103F8C0005D06369B3F884201344187910BD036815
:103F9C001B6998470028F4D14FF0FF30F6E7F8B5CD
:103FAC0043691746B3F88620B3F8843005469A4225
:103FBC000E4616D069693046B1F88430B1F88640A7
:103FCC00E41ABC4228BF3C4604332246194402F092
:103FDC00E9FE6A69B2F884302344A2F884302046A2
:103FEC00F8BD03681B6998470028E3D14FF0FF34F4
:103FFC00F5E700234269A2F884304269A2F88630C2
:10400C00704700002DE9F0431F4603688BB0DB6A54
:10401C0005460C4616469847384601F077FA036871
:10402C00DB689847002854D0334606220121022031
:10403C000097D5F81480FFF755FC2023C8F8000032
:10404C004FF00008CDE902386B6901201B68234949
:10405C000193234B02AA00934346FFF7CBFC6B69F9
:10406C001868FFF737FC002833D02846FFF7C1FF4C
:10407C000223ADF80830E37976BA8DF80C30A379C9
:10408C004FF4FA508DF80D306379ADF80A608DF865
:10409C000E3014F8043F8DF80F30FFF79BFC6B6962
:1040AC0006461022186802A9FFF724FC8146304608
:1040BC00FFF790FC0FCC6E698C360FC623683370FB
:1040CC002F61B9F1000F07D02B682846DB6A98479F
:1040DC0040460BB0BDE8F0830120FAE7F88E0A08E1
:1040EC00FF8E0A0838B542690446B2F886302BB107
:1040FC00B2F884209A4201D1FFF77BFF206901F0CE
:10410C0005FA0368DB689847F8B163691868FFF72C
:10411C00E1FBD0B16069B0F886107F2915D8051D78
:10412C00C1F18002002300682944FFF7EBFB002853
:10413C000BDD6369B3F886200AB9A3F884206369A0
:10414C00B3F886201044A3F886006369B3F88600A0
:10415C00B3F88430C01A38BD38B5436904461868C2
:10416C00FFF7B8FB18B163691868FFF7D3FB6569F3
:10417C00FFF7D8FB28606069112200218C3002F017
:10418C001FFE2046BDE83840FFF733BF10B543692A
:10419C0004461868FFF79EFB08B9002010BD206983
:1041AC0001F0B4F90368DB6898470028F5D063691F
:1041BC001868FFF787FBB0FA80F04009EEE708B506
:1041CC00FFF7E4FF003818BF012008BD2DE9F341CB
:1041DC000027476004460D4616469846FFF7D6FF63
:1041EC0070B1CDE9008760693B46324629460068CC
:1041FC00FFF7A0FB002800DA606002B0BDE8F08198
:10420C004FF0FF30F8E770B50546FFF7BFFFE8B990
:10421C006B69B3F88610B3F88420914216D11868F4
:10422C00FFF758FB08B9002070BD6B691868FFF7E1
:10423C0049FB01280446F6D12B6828461B69984790
:10424C0030B92B682846DB6A9847ECE70120EBE78E
:10425C002046E9E7002310B504460160C0F884301D
:10426C00883000F0B3FE204610BD0000F8B54FF4C6
:10427C007A720023C0E901320D4A03610260436186
:10428C000446AC200E46FBF700FF051E05F10C079B
:10429C0008D00123C5E90133064B314638462B6063
:1042AC00FFF7D8FF2046C4E90575FFF7A2FEF8BD5D
:1042BC00408F0A081C8F0A0810B50446FFF732FB22
:1042CC0001462046FFF7D2FF204610BD10B504462C
:1042DC000068FFF7FFFA10B12068FFF71BFB2046C0
:1042EC0010BD0C30FFF7F2BF2DE9F0431F460368F9
:1042FC008FB0DB6A06460D4690469847134801F08E
:10430C00B0F8F0B102A800F061FE284602F0BBFD47
:10431C00002481B23B462846009403AAFFF762FBB7
:10432C0090B9336809ADD3F82090094B03AC0893CE
:10433C000FCC0FC5236842462B7030463B4608A96C
:10434C00C8470FB0BDE8F0832046FAE7DC08002030
:10435C00C88F0A0810B504460068FFF769FC2046B0
:10436C0010BD10B50446006808B1FFF761FC0023CE
:10437C00C4E90133236010BD38B504460D4600680E
:10438C000131FFF75DFC10B1C4E90005012038BD17
:10439C0010B50368044623B143688B4201D3012056
:1043AC0010BD2046FFF7E8FF0028F9D0A368002BCA
:1043BC00F5D122681370F2E770B50E46114604462B
:1043CC001546FFF7E5FF20B92046FFF7CAFF204648
:1043DC0070BD2A4631462068A56002F0E3FC00213E
:1043EC002268A368D154F2E738B5002304460D4681
:1043FC00C0E900338360037339B1084602F043FD12
:10440C00294602462046FFF7D7FF204638BD38B56F
:10441C00054600680C4668B16A688B689A4207D3F7
:10442C00096802F00DFDA368AB600023A36038BDE2
:10443C00FFF7FEFB23682B6063686B60A368AB60BF
:10444C000023C4E90033F1E7884210B50B4604465B
:10445C0004D0096821B19A68FFF7AEFF204610BD61
:10446C00FFF77FFFFAE7002310B50446C0E90033DD
:10447C0083600373FFF7E8FF204610BD884210B538
:10448C00044601D0FFF7C3FF204610BD70B50546AA
:10449C000E4609B9002070BD6AB1846814442146E7
:1044AC00FFF776FF0028F5D02868AB683146184432
:1044BC0002F0C6FCAC600120EDE710B58A68096813
:1044CC000446FFF7E3FF10B92046FFF74AFF2046EA
:1044DC0010BD134610B58A688468A41A9C420AD38E
:1044EC00006838B1096841B1184402F0D4FCB0FA44
:1044FC0080F0400910BD0020FCE70846FAE782680E
:10450C008B689A4202D30022FFF7E3BF002070476A
:10451C00F8B506460D4600248F18BD420CD0336802
:10452C0030469B6815F8011B9847031E01DB1C44A1
:10453C00F3E7002C08BF1C462046F8BD70B50546B5
:10454C000C46084649B102F09EFC2B6802462146F7
:10455C002846BDE87040DB68184770BD08B5FFF70A
:10456C00EDFF08BD03689B68184738B50D2105465B
:10457C00FFF7F8FF0A2104462846FFF7F3FF204413
:10458C0038BD38B50546FFF7D9FF04462846FFF776
:10459C00ECFF204438BD0023012A98BF0A2230B515
:1045AC008BB00C468DF8243009A92546B4FBF2F4E7
:1045BC0004FB1253DBB2092B94BF30333733DBB21D
:1045CC00AA4201F8013DF0D9FFF7B8FF0BB030BD9E
:1045DC002DE9F04186B000AF05460E46381D14217A
:1045EC0014463B60FFF74CFB13280ED82846391DA8
:1045FC00FFF7A4FF04461EB12846FFF7B6FF04449C
:10460C0020461837BD46BDE8F08100F1080323F0C1
:10461C000703E846ADEB030D2246411C3B68684698
:10462C00FFF72EFB69462846FFF788FF0446C54670
:10463C00E1E710B50446FFF78BF8E06023682046ED
:10464C005B699847002808DAFFF782F8E368C01A1C
:10465C00A3689842F2D34FF0FF3010BD2DE9F04122
:10466C0007460C460D468E18B542A5EB040807D03C
:10467C003846FFF7DEFF031E02DB05F8013BF3E7CC
:10468C004046BDE8F0810000014B024A1A607047B9
:10469C0024040020848F0A082DE9F041154BDFF823
:1046AC005880D3E90067154B801947EB0107D3E914
:1046BC000061861947EB0107D8E90023BB4208BF0C
:1046CC00B2428CB013D003A96846CDE9006702F062
:1046DC0077FA089B0A4D03F26C7303AC08930FCC6A
:1046EC000FC50FCC0FC5C8E9006723682B600CB051
:1046FC00BDE8F08158040020600400205004002024
:10470C002C04002008B50020FFF77AFA28B1FFF737
:10471C0057FA80F00100C0B208BD0120FCE7000090
:10472C0008B5FFF7B9FF024B9869013008BD00BF0F
:10473C002C04002008B5FFF7AFFF024B18690130BD
:10474C0008BD00BF2C04002010B50A49044602F035
:10475C0033F868B92046084902F04CF840B90749CB
:10476C00204601F08BFE02F075F8054BC3E9000101
:10477C0010BD00BF000040C1000060410000614559
:10478C005804002010B50020FFF702F80446A0B929
:10479C00FFF738F9012810D12046FFF763F960B90B
:1047AC00FFF7B0FF10B9FFF7FBF9F9E7FFF7AAFF26
:1047BC00BDE810400020FEF7EBBF204610BD1FB532
:1047CC00FFF7E0FF10220021684602F0F9FA002101
:1047DC006846FEF7E5FF009805B05DF804FB0000A5
:1047EC0008B5FFF7ECFFC117FFF756FF014B9868B0
:1047FC0008BD00BF2C04002008B5FFF7E0FFC1176F
:10480C00FFF74AFF014B586808BD00BF2C0400207D
:10481C0008B5FFF7D4FFC117FFF73EFF014B18682F
:10482C0008BD00BF2C04002008B5FFF7C8FFC11756
:10483C00FFF732FF014BD86808BD00BF2C040020E5
:10484C0008B5FFF7BCFFBDE80840C117FFF768BF0C
:10485C0008B5FFF7B4FFBDE80840C117FFF76ABF02
:10486C0008B5FFF7ACFFC117FFF716FF014B5869EE
:10487C0008BD00BF2C040020024B1A68024B1A60C2
:10488C00704700BF7C000020280400200021FFF7A7
:10489C00C9B810B58368044613B103220146984782
:1048AC00204610BD10B50446FFF7F3FF204610BD9F
:1048BC0013B56C460B46024603C884E8030093E824
:1048CC00030082E8030094E8030083E8030002B0CD
:1048DC0010BD000000230348034A0449836000F024
:1048EC0061BF00BF6804002050010020B1480A08D5
:1048FC00014B1860704700BF8000002008B5134BB7
:10490C0043B100F00FFC03681B699847002801DDD8
:10491C00FBF792FD0E4B43B100F0C0FC03681B6922
:10492C009847002801DDAFF300800A4B0BB1AFF3C1
:10493C000080094B43B100F033FC03681B699847B6
:10494C00002801DDAFF3008008BD00BF45040A0854
:10495C0000000000000000000000000008B5FFF798
:10496C00CDFFFEF7F5FE014B186008BDF4080020E2
:10497C000548064A08B5121A054902F013FA054B08
:10498C00054A1A6008BD00BF0040024004400240C6
:10499C0038940A08004002401E1C279A002307B5D1
:1049AC001A466FF077010093FFF76EF803B05DF8CD
:1049BC0004FB000007B543880A2B08D0502B0BD101
:1049CC00094B1B684BB103B05DF804EB1847FFF7BC
:1049DC00E5FF03B05DF804FB00231A466FF0770186
:1049EC000093FFF751F8F4E77C040020002110B588
:1049FC001148FFF76DF9114B1A68114B9A420CBF15
:104A0C00012200220F4B1A7001D0FFF7B1FFFEF705
:104A1C008FFE044602F0DCF90B4B13B12046AFF3CA
:104A2C00008000210848FFF7F3F8BDE81040002192
:104A3C000648FFF71FB800BFFD480A0800400240B7
:104A4C001E1C279A7804002000000000C1490A08A7
:104A5C0070470020704710B50446102100F0A7FEE7
:104A6C00204610BD08B5FFF7F6FF08BD002230B593
:104A7C004FF69C74026084808D888C800C688580D5
:104A8C0004600A6030BD10B504460068FFF7D0F82A
:104A9C00204610BD38B5C468F4B12378022B03D17D
:104AAC0004F10C00FFF7EFFF656835B12846FFF7FE
:104ABC00F0FE1021284600F07AFEA56835B1284694
:104ACC00FFF7E7FE1021284600F071FE2046BDE8F6
:104ADC003840142100F06BBE38BD0B6803604B6886
:104AEC00436013B15A6801325A60704737B50446B7
:104AFC0068460D46FFF7F1FF009B019A23600023E7
:104B0C00626001A801930093FBF7DBFA35B1281D15
:104B1C00FBF7D7FA0821284600F049FE204603B0DF
:104B2C0030BD826810B50AB900F045FEC368BDE817
:104B3C001040184708B5006800F11001FFF7F1FFAD
:104B4C0008BD826810B50AB900F035FEC368BDE82F
:104B5C001040184708B5006800F11001FFF7F1FF8D
:104B6C0008BD000038B500230446036010200D4634
:104B7C00FBF78BFA28B10123C0E90133024BC56066
:104B8C0003602060204638BDAC8F0A0838B500237E
:104B9C0083608B6804460D462BB102229847EB6864
:104BAC00E360AB68A360204638BD0000F0B589B067
:104BBC0004686846FFF75AFF4FF00203D4E84F2F02
:104BCC00002A03D1C4E8413F0029F7D125D104F1D3
:104BDC000C0569462846FFF749FF0123BFF35B8F9D
:104BEC0063700020BFF35B8F04F1080353E8006F80
:104BFC0043E80002002AF9D1BFF35B8F6EB1FEF7D8
:104C0C0021FF78B129463046FFF78BFF3046FFF77E
:104C1C0040FE1021304600F0CAFD6846FFF733FF16
:104C2C0009B0F0BD314602A8FFF7B0FFE068B4F957
:104C3C00105008B102F00CF906901020ADF81C5081
:104C4C00FBF723FA0546E8B1002787601820FBF72D
:104C5C001CFA044688B10146876002A8FFF728FEBB
:104C6C00049BA268A360059B0492E26806A9E3601A
:104C7C0004F110000592FFF7F9FE084B2C60EB6075
:104C8C00074BAB6006A8FFF7FEFE02A8FFF701FE7C
:104C9C00002229460348FEF7DDFEB7E7414B0A0820
:104CAC00CD4D0A08F9520A082DE9F0478AB005469D
:104CBC000C46174698469DF84890FEF781FF07AEC4
:104CCC00824638BB4FF62E73059005A93046ADF8D9
:104CDC001830FFF7CBFE1420FBF7D7F9044648B188
:104CEC00022303700123C0E901AA437031460C3042
:104CFC00FFF7BCFE2846214640F8044BFFF732FF75
:104D0C003046FFF7C0FE05A8FFF7BDFE28460AB0E7
:104D1C00BDE8F0870C234FF0000A1420CDE908AA57
:104D2C000793FBF7B2F9014628B1C0E901AA80F854
:104D3C0000A080F801A004A80391FFF713FF1F4BFC
:104D4C0008200893FBF7A1F9824610B103A9FFF7DD
:104D5C00C4FE42463946204600965FFA89F3CDF8E8
:104D6C0024A0FEF73DFFB8B9039B5B7803F0FF026C
:104D7C0093B94FF69C7305A903A80592ADF81830AA
:104D8C00FFF714FF05A8FFF77EFE05A80999FFF7AA
:104D9C00ADFE06A8FBF795F903A905A8FFF79DFE44
:104DAC00059B069A2B6000236A6006A80693059360
:104DBC00FBF787F904A8FBF784F9A7E7494E0A0823
:104DCC00012AF8B5054603D10B6803600020F8BD35
:104DDC00022A10D0032AF9D10468002CF6D004F171
:104DEC001000FFF750FE2046FFF753FD1821204618
:104DFC0000F0DDFCEAE718200E68FBF746F90446E4
:104E0C0050B13146FFF7C2FE3069B6F9147008B1E3
:104E1C0002F01EF82061A7822C60D7E738B500237A
:104E2C0083608B6804460D462BB102229847EB68D1
:104E3C00E360AB68A360204638BD0000F0B50446C3
:104E4C0089B00D4601A81146FFF750FEA4B124B25B
:104E5C001DB1284601F0FCFF054601A803A90395E6
:104E6C00ADF81040FFF7A2FE03A8FFF70CFE02A856
:104E7C00FBF727F909B0F0BD0123019DD5E84F2FB1
:104E8C00002A03D1C5E8413F0029F7D1EFD12B739C
:104E9C00BFF35B8F6B70BFF35B8F2B1D53E8006F01
:104EAC0043E80042002AF9D1BFF35B8F002EDED01D
:104EBC002046FEF7C7FD074660B1304605F10C01F0
:104ECC00FFF73FFE3046FFF7E4FC1021304600F0C0
:104EDC006EFCCCE7314603A8FFF7A0FF2B7B10201C
:104EEC008DF81C30FBF7D1F80546D0B18760142043
:104EFC00FBF7CBF8044678B10146876003A8FFF7AF
:104F0C00D7FC059BA268A360069B0592E268E36050
:104F1C009DF81C3006922374064B2C60EB60064BFC
:104F2C00AB6003A8FFF7B5FC002229460348FEF747
:104F3C0091FDC7E7614B0A084D4F0A08F9520A0860
:104F4C00012A70B5044603D10B680360002070BDC4
:104F5C00022A0CD0032AF9D10468002CF6D0204682
:104F6C00FFF797FC1421204600F021FCEEE71420FB
:104F7C000E68FBF78AF8054620B13146FFF74EFF65
:104F8C00337C2B742560E1E77047F8B50E4600249E
:104F9C0000F10807051D17F8011D0A223046FFF71E
:104FAC00FAFAAF42044401D12046F8BD002CF2D0ED
:104FBC002E213046FFF7D6FA0444ECE710B5044630
:104FCC00182100F0F4FB204610BD000010B504467B
:104FDC00044B1122002140F8043B01F0F1FE204665
:104FEC0010BD00BFC88F0A080346074A10B543F826
:104FFC00042B01F1100251F8044B914243F8044B7D
:10500C00F9D10A781A7010BDC88F0A08024AC0E993
:10501C000021042202757047C88F0A0810B59DF84C
:10502C00084044EA0324042344EA024444EA0164A9
:10503C004460037510BD000013B5044C04609DF86A
:10504C0010400094FFF7EAFF02B010BDC88F0A08A9
:10505C0041747047704708B50021007CFEF7A2FC34
:10506C0040EAE07008BD08B50121007CFEF79AFC0F
:10507C0040EAE07008BD08B5007CFEF78BFC20EA26
:10508C00E07008BD08B5007CFEF77CFC20EAE070FF
:10509C0008BD38B50446007C0D46FEF77BFC0028A5
:1050AC0001DC607C28B12946207CFEF783FC20EAD9
:1050BC00E07038BD007CFEF785BC10B504461421A9
:1050CC0000F075FB204610BD10B54FF47A73044602
:1050DC0008460021C4E90113044B2074236001230A
:1050EC0011466374FEF73EFC204610BDDC8F0A08A7
:1050FC000022007CFEF73EBC10B5044614220021B1
:10510C0001F05EFE054B20466360054BE36040F208
:10511C00011323818123238210BD00BFB004002022
:10512C00B105002030B50F4D87B001A8FFF7E4FFA3
:10513C002978BFF35B8F11F0010410D12846FAF7E0
:10514C00AAFF60B1214601AA0748FFF7BDFF284618
:10515C00FAF7A6FF054A0649034800F023FB02486C
:10516C0007B030BD800400208804002050010020CE
:10517C0061500A0810B504461422002101F020FEEB
:10518C00054B20466360054BE36040F2011323811D
:10519C008123238210BD00BF32060020330700207C
:1051AC0010B50F4C86B001A8FFF7E4FF2378BFF3CE
:1051BC005B8FDB0710D42046FAF76DFF60B101213D
:1051CC0001AA0848FFF780FF2046FAF769FF064A54
:1051DC000649044800F0E6FA024806B010BD00BFCC
:1051EC00840400209C0400205001002061500A0817
:1051FC00FEF776BAFEF76CBA70474174704708B583
:10520C00007CFEF71DFB20EAE07008BD08B5007CB1
:10521C00FEF7EEFA20EAE07008BD08B5007CFEF758
:10522C00F7FA40EAE07008BD08B5007CFEF7E8FA32
:10523C0040EAE07008BD007CFEF7F2BA70B5467C1F
:10524C0004460D462EB12946207CBDE87040FEF781
:10525C00C7BA007CFEF7F4FA0028F4DC304670BDC7
:10526C0010B50446142100F0A2FA204610BD00002F
:10527C004FF0000C10B50446084611464FF47A72F4
:10528C00C4E901C2044A20742260012262741A46E5
:10529C00FEF79EFA204610BD0C900A0838B50D4D4D
:1052AC002978BFF35B8F11F0010411D12846FAF76E
:1052BC00F2FE68B12146084A084B0948FFF7D8FFAF
:1052CC002846FAF7EDFE074A0749054800F06AFA46
:1052DC00034838BDB4070020B80700203C08002064
:1052EC00C00800205001002005520A0810B5836840
:1052FC0004460BB900F05FFAC3689847A3681BB16A
:10530C0003222146204698472046BDE81040102134
:10531C0000F04DBA7047F8B5064615460C468F1886
:10532C00BC4206D0336830469B6814F8011B984782
:10533C00F6E72846F8BD0022007CFEF789BA00216A
:10534C00007CFEF78DBA0021007CFEF791BA00219B
:10535C00007CFEF795BA0021007CFEF799BA10B5D7
:10536C000446142100F023FA204610BD10B54FF46A
:10537C007A73044608460021C4E90113034B114615
:10538C0023602074FEF794FA204610BD3C900A0866
:10539C00002240681146FEF7A3BBF0B5154689B054
:1053AC0011220E460446002103A801F009FD2846EF
:1053BC0001F069FD002781B273682846009703AAA3
:1053CC00FEF710FB30B139462046FFF71FFE204692
:1053DC0009B0F0BD204603A9FFF706FEF7E700224F
:1053EC0040681146FEF79CBB002240681146FEF750
:1053FC00BFBB00224068FEF7B3BB0022406881F0BF
:10540C000101FEF785BB002340681A461946FEF7DA
:10541C0077BB002240681146FEF752BB00220221E6
:10542C004068FEF755BB002340681A46FEF740BBA8
:10543C000422024B5A60024A1A607047D4080020BA
:10544C0064900A08002340681A46FEF731BB00221C
:10545C0002214068FEF73CBB002240681146FEF773
:10546C002FBB002240681146FEF73ABB0023406870
:10547C001A461946FEF73CBB002340681A461946EB
:10548C00FEF73EBB00214068FEF77ABB0021406866
:10549C00FEF77EBB0022406881F00101FEF738BBAD
:1054AC0000224068FEF75CBB002240681146FEF704
:1054BC005FBB002240681146FEF732BB70B5154643
:1054CC008EB0044608A8FFF781FD1122002103A825
:1054DC0001F076FC0026284601F0D5FC0A4B00961C
:1054EC0081B25B68284603AAFEF77CFA30B13146DC
:1054FC002046FFF78BFD20460EB070BD204603A959
:10550C00FFF772FDF7E700BFD4080020034A044BF5
:10551C00042814BF10461846704700BFDC08002052
:10552C00D4080020024B034A1A6000225A607047CC
:10553C00DC080020A0900A0810B50446806808B169
:10554C00FEF73EF9204610BD172870B5044601D968
:10555C00002070BDA0F10D03022B0BD9012826D819
:10556C0000F0F8F80021007CFEF79AF980F00100B9
:10557C00C0B2EEE7134E3178BFF35B8F11F001052B
:10558C000FD13046FAF787FD58B129460E48FEF781
:10559C00A7FB3046FAF784FD0C4A0D490A4800F087
:1055AC0001F9094B1878FEF7D5F90028D0D1123C37
:1055BC00012C05D8FFF772FE007CFEF739F9D5E710
:1055CC000120C6E7E4080020E80800205001002074
:1055DC0045550A08172838B504460D460AD8FF2940
:1055EC0008D0FFF7B1FF28B129462046BDE8384066
:1055FC00FEF74EB838BD38B504460D46FEF750F8E8
:10560C00FF2810D0062804D84D2323FA00F0C30736
:10561C0009D42046FFF798FF28B129462046BDE85B
:10562C003840FEF745B838BD10B50446FEF738F8DB
:10563C00031FDBB2012B08D92046FFF785FF20B1F1
:10564C002046BDE81040FEF73BB8002010BD10B559
:10565C00044609289CBF0A34A4B22046FFF774FF05
:10566C0050B103212046FEF70BF8032804D1204645
:10567C00BDE81040FEF744B8002010BD38B5044614
:10568C000D46FFF761FFF0B104212046FDF7F8FF4E
:10569C00042805D12046A9B2BDE83840FEF728B849
:1056AC0002212046FDF7ECFF02280CD12046FDF725
:1056BC00F7FF012801D0042805D129462046BDE872
:1056CC003840FEF72DB838BDFEF722B810B5084C9F
:1056DC002378BFF35B8FDB0708D42046FAF7DBFC9B
:1056EC0020B1FEF73DF82046FAF7DAFC014810BD70
:1056FC00F8080020FC080020002313B5074C1A46BC
:10570C00194620460093FFF797FC2046044A0549AA
:10571C0002B0BDE8104000F045B800BF0009002001
:10572C0050010020954F0A0870B514232025084E0F
:10573C0004460360314685600561284600F039F85F
:10574C0031466060284600F034F8E060204670BDB9
:10575C00D4900A0830B50F4D87B02978BFF35B8F12
:10576C0011F0010413D12846FAF795FC78B101A881
:10577C00FFF7DAFF214601AA0748FFF7F7FD284695
:10578C00FAF78EFC054A0649034800F00BF802486C
:10579C0007B030BD180900201C0900205001002062
:1057AC0021530A080B460146184601F0FBB9FAF7DB
:1057BC0070BCFAF76CBC08B5FEF76AFA014900F048
:1057CC00FBB800BFF0900A087FB500241023CDE988
:1057DC000234036815469E69CDE900446B46126895
:1057EC00B0479DF8043003F00603062B09BF0120D7
:1057FC002046009B2B6004B070BD0098904214BFF3
:10580C00012006207047000010B50446024B0360CF
:10581C0000F0CFF8204610BD30910A0810B50446B0
:10582C00FFF7F2FF20460821FFF7C1FF204610BD0D
:10583C002DE9F041DDF818801F46DDE90834984564
:10584C000646154607D1079900F0B6F818B16571F0
:10585C000020BDE8F0813946304600F0ADF8002854
:10586C00F6D00123C4F800802571A371F0E738B598
:10587C0015461C4600F0A0F820B10823E36006236F
:10588C002560237138BD2DE9F04105460C461646BE
:10589C001F4600F091F848B9032F07D82368324609
:1058AC0029462046BDE8F0415B691847BDE8F08108
:1058BC0010B50446024B0360FFF7A6FF204610BD4F
:1058CC0090910A0810B50446FFF7F2FF20460C2110
:1058DC00FFF76DFF204610BD2DE9F041DDF8188073
:1058EC00064690450F4615461C460BD0B0682A4616
:1058FC000368CDF818801E6A39462346B446BDE8C5
:10590C00F0416047194600F057F80028EED0062009
:10591C00BDE8F0812DE9F14F0D46DDE90A4BDDE9DB
:10592C000CA6194681461746984600F045F890B1EA
:10593C00002D3460377109DB2C44A2450CBF0624C2
:10594C000124B471002001B0BDE8F08F0235F9D10B
:10595C000123B371F6E7544506D15946484600F089
:10596C002BF808B17771EDE7D9F808003A460368CF
:10597C00CDE90CA6CDE90A4BDC6929464346A44681
:10598C0001B0BDE8F04F60472DE9F04107460C46E9
:10599C0015461E46FFF76BFF48B9B8682A460368E0
:1059AC0021469F693346BC46BDE8F0416047BDE8DF
:1059BC00F081704700207047814208B50ED04068D6
:1059CC0003782A2B0CD049680B782A2B08BF01319D
:1059DC0001F02CFAB0FA80F0400908BD0120FCE778
:1059EC000020FAE781F0004102E000BF83F00043A1
:1059FC0030B54FEA41044FEA430594EA050F08BF5E
:105A0C0090EA020F1FBF54EA000C55EA020C7FEA21
:105A1C00645C7FEA655C00F0E2804FEA5454D4EB9E
:105A2C005555B8BF6D420CDD2C4480EA020281EA68
:105A3C00030382EA000083EA010180EA020281EAA0
:105A4C000303362D88BF30BD11F0004F4FEA0131F2
:105A5C004FF4801C4CEA113102D0404261EB410101
:105A6C0013F0004F4FEA03334CEA133302D0524287
:105A7C0063EB430394EA050F00F0A780A4F1010443
:105A8C00D5F1200E0DDB02FA0EFC22FA05F280187D
:105A9C0041F1000103FA0EF2801843FA05F3594163
:105AAC000EE0A5F120050EF1200E012A03FA0EFCE2
:105ABC0028BF4CF0020C43FA05F3C01851EBE3710C
:105ACC0001F0004507D54FF0000EDCF1000C7EEB29
