:02000004080AE8
:1000000000000A0860850A080000060006000501D5
:0800100004027C050000000061
:04001800106E0A0854
:1000200009480A4908B5884205D0094A824202D0E7
:10003000121A06F02BFA0748074A0021121A06F096
:1000400030FA064808BD00BF0000002014840A08EA
:100050002401002024010020600700206007002008
:1000600070B504F035F9074B074C1E46E41AA40896
:100070000025A54204D056F8253098470135F8E709
:1000800070BD00BFA4830A080C840A0802F0B0B94E
:1000900008B502F0A7FABDE8084004F0DBB803F0A9
:1000A000B3BA03F0B9BA0078B0FA80F040097047EB
:1000B00001230370704700004FF0FF32074B0260CE
:1000C00042604FF4AF713C221A608160044B0A21F8
:1000D000C1600022012101741A60704700000020F5
:1000E0007401002007B5036801330BD0074B0022D1
:1000F0001A60074B07491A6000884FF0FF330092DF
:1001000004F01EFD03B05DF804FB00BF7401002085
:100110007001002009040A080160FFF7E3BF10B571
:100120000446008804F034FD4FF0FF33236010BD17
:10013000024B1868003018BF01207047740100207E
:10014000014B00221A60704774010020014B1868AF
:10015000704700BF74010020014B1868704700BF52
:1001600070010020014B1868704700BF900200200A
:10017000014B1868704700BF2801002000487047F5
:100180007C010020000000002DE9F8432A4F1F23C6
:100190003C680546B4FBF3F4284BB946186804EBF9
:1001A0004406604305F072FA21A3D3E9002305F069
:1001B000E3FA05F0F3FC0122C0EB060EC0EB040CE1
:1001C000064400232044AA421FD257F8221061455A
:1001D00009D9814207D202F1010859F82880F04577
:1001E00001D9B0450BD371450BD9B14209D2511C8D
:1001F00057F821108C4504D2814202D201335B00B2
:1002000001E02A4600230232DDE7062D4FEA5300C3
:1002100009D90B4B0B4A18606B0813600A4B01227B
:100220001C600A4B1A60003018BF0120BDE8F8833B
:100230007B14AE47E17A843F7C010020000000205F
:10024000740100207001002090020020280100208D
:100250002DE9F8432A4F0A233C680546B4FBF3F422
:10026000284BB9461868604305F010FA22A3D3E979
:10027000002305F081FA05F091FC6100C0EB010E4E
:10028000014401220023201AC4EB010CAA421FD210
:1002900057F82260864209D9664507D202F1010863
:1002A00059F82880F04501D988450BD376450BD9FC
:1002B0008E4209D2561C57F82660B04204D26645D9
:1002C00002D201335B0001E02A4600230232DDE75F
:1002D000062D4FEA530009D90B4B6D0818600B4BE4
:1002E00002221D600A4B1C600A4B1A60003018BFC6
:1002F0000120BDE8F88300BF7B14AE47E17A843F5C
:100300007C0100200000002074010020700100200A
:1003100090020020280100202DE9F04FDFF8E48052
:100320004723D8F800400546B4FBF3F4304B85B0C2
:1003300018680626604305F0A9F92BA3D3E900232A
:1003400005F01AFA05F02AFCC6460B216143664304
:10035000A3001A1AC31804EBC40702930B180192E6
:100360000393C0EB070AC0EB060BC0EB010907447F
:10037000064401220023AA4222D25EF822000199FB
:1003800088420BD90299884208D202F1010C5EF82A
:100390002CC0CC4502D903998C450BD350450BD9C1
:1003A000B84209D2501C58F82000584504D9B04230
:1003B00002D201335B0001E02A4600230232DAE771
:1003C000062D4FEA530009D90A4B6D0818600A4BF5
:1003D00003221D60094B1C60094B1A60003018BFD6
:1003E000012005B0BDE8F08F7B14AE47E17A843F71
:1003F0000000002074010020700100209002002005
:10040000280100207C0100202DE9F04702F0D4FEF5
:1004100005F03CF924A3D3E9002305F0ADF905F07C
:10042000BDFB234F234B3C688046041B1C6041F2FC
:1004300088339C42DFF888901F4D22D9D9F80030CC
:10044000A3F1C80294421AD9C8339C4217D21B4B5D
:100450002E681A68013E0132022A1A602E609A46FE
:100460000DD13046FFF790FE30B93046FFF7F0FE71
:1004700010B93046FFF750FF0023CAF800300023C0
:100480002B602B68422B04D90B4A002313600B4AC4
:1004900013602B68C7F800805A1C2A6049F8234073
:1004A000BDE8F087AFF30080DBF97E6ABC74EF3FF4
:1004B0008C020020880200206C01002078010020BE
:1004C0007C01002070B5114E0020104C09B9101AA3
:1004D0000BE011F0010F08BF1D4600F1010018BF2D
:1004E00031253418E5774908EFE7914209D0814278
:1004F00023BF551A2D19ED7F635428BF6554013170
:10050000F3E700236354014870BD00BF2C010020B5
:100510003023FFF7D7BF38B5046805467CB1636860
:10052000013B63605BB9236820469B689847A368DA
:10053000013BA3601BB923682046DB689847284627
:1005400038BD00002DE9F04F89B00D46064603F096
:10055000DBFD074603F0E2FD804603F0E9FD81463E
:1005600003F0F0FD824603F0F7FD834603F0FCFD47
:10057000114C3B4632460490104905958DE8000F1A
:10058000204603F059F804F085FA2246012103F0D1
:10059000B3FC0B4B22461B780A498DF8003006A8A5
:1005A0003C2304F02FF807A8FFF7B5FF284601F019
:1005B000F1FA09B0BDE8F08F24040020246E0A0887
:1005C00094020020856E0A082DE9F04F8DB00D468B
:1005D0001646074603F098FD804603F09FFD8146CE
:1005E00003F0A6FD824603F0ADFD834603F0B4FDA3
:1005F000099003F0B9FD164C099B3A460490039309
:1006000014494346069605958DE8000E204603F0F2
:1006100013F804F03FFA2246012103F06DFC0E4B63
:1006200022461B780D498DF800300AA83C2303F0C0
:10063000E9FF0BA8FFF76FFF33462A46084920461B
:1006400002F0FAFF204601F0A5FA0DB0BDE8F08FE8
:1006500024040020916E0A0894020020856E0A0886
:10066000F66E0A08024B01221A7002F015BD00BF97
:10067000940200202DE9F047DDF820800D469146D8
:100680001F46824628B904F005FA434903F09FFB50
:1006900061E00A4601464148FFF73AFF0646024636
:1006A00014788CB1537863B1302C04D1A3F13004A9
:1006B000012C08D803E0312C05D1312B03D10232B3
:1006C000EEE71C4600E0364C364B1E6004F0E2F9C3
:1006D000354903F07CFB04F0DDF90A22514603F0B2
:1006E000B2FB04F0D7F9314903F071FB04F0D2F901
:1006F0000A22294603F0BEFB04F0CCF92C4903F092
:1007000066FB04F0C7F9314603F061FB04F0C2F95F
:10071000284903F05CFB04F0BDF9214603F057FBC8
:1007200004F0B8F9244903F052FB04F0B3F90A22AB
:10073000494603F09FFB04F0ADF9204903F047FB65
:1007400004F0A8F91E4903F042FB04F0A3F90A22C1
:10075000414603F091FB04F09DF91A4903F037FB81
:100760006D000024A5420DD304F094F957F824102D
:100770000A2203F07FFB04F08DF9134903F027FBF5
:100780000134EFE704F086F903F028FB04F082F966
:10079000BDE8F04703F022BB0D6F0A089802002065
:1007A000FE6E0A08AC0200201F6F0A08296F0A08B3
:1007B0002C6F0A083A6F0A08476F0A08566F0A0832
:1007C000646F0A08706F0A087B6F0A08F0B50C4E58
:1007D0000C4F354687B00321388804F0D9FB01ACB3
:1007E00001A8FFF769FC0FCC0FC5236839682B708F
:1007F0003046FFF791FC044B01221A6007B0F0BDB0
:100800009802002004000020B002002010B5054C22
:100810002368012B04D10448FFF781FC00232360E7
:1008200010BD00BFB002002098020020F7B51548A7
:10083000FFF77EFC08B31348FFF788FC0446114815
:10084000FFF78AFC05460F48FFF78CFC06460D486B
:10085000FFF794FC07460B48FFF78AFC3B460090E5
:10086000324629462046FFF705FF0648FFF76EFC93
:1008700004460448FFF764FC00E00446204603B049
:10088000F0BD00BF9802002008B502F005FCBDE8ED
:1008900008400148FFF710BC980200200023002206
:1008A0000383C261036243628362C36280F83030B3
:1008B00080F8313080F8323080F83330704738B506
:1008C0000446154601F0F5FF4FF47A73204625756E
:1008D000E382FFF7E3FF204638BD00002DE9F8432F
:1008E0000B6800F1200503624B6804466B600B78CF
:1008F000222B0AD003D8102B42D1012308E0262B4B
:1009000005D0282B3CD1022302E0032300E004237E
:1009100084F83130204601F0D9FF2946204602F004
:100920009CF8227D4421204602F05FF8E08A03F023
:100930002FFC204601F0CAFF2946204602F08DF820
:100940000022B821204602F050F80022114620462D
:1009500002F04BF8204601F0B9FF2946204602F08C
:100960007CF80022BE21204602F03FF894F8313096
:10097000042B0AD100221146204602F036F804E08A
:10098000002084F83100BDE8F88304F1270504F164
:100990003006204602F051F805F8010FAE42F8D1BA
:1009A000082104F1280002F0F1F894F83030834275
:1009B00005D0012384F833300020BDE8F88394F893
:1009C000295094F8283094F8312043EA0523042A6A
:1009D000238320D194F82A6045EA06232383ED0877
:1009E000330684F8295047D5304605F0FDF904F068
:1009F0006FFE064628460F4605F0F6F904F068FE3D
:100A000000222B4B04F0B8FE02460B463046394616
:100A100004F0FEFC46E0012A03D046D3032A10D995
:100A200043E0B4F9183094F82F20DB00102A238318
:100A300019D194F82E2023F00F03C2F10C021344B5
:100A400010E094F82C2012F0600202D123F007038A
:100A500008E0202A02D123F0030303E0402A02D158
:100A600023F001032383B4F9180005F0C1F94FF016
:100A7000765105F011FA17E0284605F0B5F904F0B3
:100A800027FE00220A4B04F077FE80463046894656
:100A900005F0AAF904F01CFE02460B464046494602
:100AA00004F0B8FC05F09AF8E0610120BDE8F88395
:100AB0000000A03F38B50446FFF7F0FE00F1200526
:100AC000294601F0E8FF30B9012384F8323020468E
:100AD00001F0D5FF11E00721284602F057F894F8FD
:100AE0002730834203D0012384F8333005E02946C0
:100AF0002046BDE83840FFF7F1BE002038BDC06990
:100B0000704750F8203F0B6043684B60704790F887
:100B10003200704790F83300704702F0BDBA000011
:100B200070B503F0B7FF2B4A012103F0E5F92A4D18
:100B3000002401F087FE01F0A5FE45F8240003F033
:100B4000A9FF55F82430254A012103F0D5F90134D5
:100B500000F026FF962003F01BFB032C1E4EE8D16D
:100B600096E82200B0684A190244B2FBF4F4C1EBE3
:100B70004401491B251A0D4464B903F08BFF184A40
:100B8000012103F0B9F917491748FFF7DBFC4FF4CF
:100B90007A741DE003F07EFF2B46144A012103F016
:100BA000ABF903F077FF2346114A0121C4F5AA747B
:100BB00003F0A2F903F06EFF0E4A0121234603F071
:100BC0009BF900F0EDFE22460B490748FFF7FCFCBD
:100BD000204670BD7D6F0A08B4020020946F0A0899
:100BE000AC6F0A08D76F0A0801700A0808700A0873
:100BF0001B700A083B700A0858700A0802F04CBAC9
:100C000007B50A48FFF786FF30B103F043FF0849F4
:100C100003F0DDF8002005E004486946FFF771FFA6
:100C20009DF8070003B05DF804FB00BFC002002080
:100C300067700A087FB503F02DFF234903F0DAF847
:100C400000242248FFF736FF88B3FFF7D9FF054697
:100C500003F020FF06461D48FFF751FF04F038FD62
:100C60000094CDE902012B46194A0021304603F0D9
:100C700043F9FA2003F08CFA4F2D04F1010406D158
:100C80001248FFF73CFF05F0CDFA124B07E0832D29
:100C900006D10E48FFF733FF05F0C4FA0E4B18607B
:100CA00003F0F8FE23460D4A012103F025F9074819
:100CB000FFF72DFF0028C4D00448FFF720FF05F000
:100CC000B1FA04B070BD00BF73700A08C002002002
:100CD00085700A081C040020FC030020B2700A087A
:100CE00008B502F0D9F9BDE8084000220521014805
:100CF000FFF7E5BDC00200207047000010B503F00B
:100D0000C9FE5B2103F067F803F0C4FE044602F05D
:100D100027F90A220146204603F095F803F0BAFEAF
:100D2000BDE81040014903F052B800BF51710A08F4
:100D300010B504464C2104F01AFA204610BD0000FC
:100D400010B504460121042001F0EEFF064B0122FC
:100D5000064807491A60FFF7F5FB064B1B681C4461
:100D6000054B1C6010BD00BF7003002001700A0815
:100D700054710A080C0400202004002008B502F079
:100D800023FA034B1860BDE8084002F00DBC00BF19
:100D90005C06002038B50B4B8469054603607CB1C6
:100DA0006368013B63605BB9236820469B68984792
:100DB000A368013BA3601BB923682046DB68984702
:100DC000284638BD207F0A0810B50446FFF7E2FF29
:100DD000204610BD10B50446FFF7DCFF20461C215D
:100DE00004F0C5F9204610BD38B50568044628460C
:100DF00005F0B5FB013028442060204638BDF8B529
:100E000004460F46466821B90368721C4260995532
:100E1000F8BD084605F0A3FBA368451CAA199A4231
:100E200008D820682A463946304405F02FFB63680D
:100E30001D446560F8BD000070B504464068A668B2
:100E400025680B46044A311A284402F005FC636801
:100E500001301844606070BD6E710A0870B50446B8
:100E60004068A66825680B46044A311A284402F0F7
:100E7000F3FB636801301844606070BD71710A084B
:100E8000F0B5476B87B00446EFB1FFF737FF03F0CB
:100E900001FE2F4902F09BFF03F0FCFD616B02F0A5
:100EA00096FF03F0F7FD3A2102F095FF03F0F2FD03
:100EB000218F0A2203F016F80023228F616B20464F
:100EC00002F090FE3FE02546FFF718FF03F0E2FD39
:100ED0001F4902F07CFF03F0DDFD0A2294F8231085
:100EE00002F0BCFF03F0D6FD2E2102F074FF03F0E8
:100EF000D1FD0A2294F8221002F0B0FF03F0CAFDDF
:100F00002E2102F068FF03F0C5FD0A2294F821109B
:100F100002F0A4FF03F0BEFD2E2102F05CFF03F0FF
:100F2000B9FD0A2215F8201F02F09AFF094B01AE05
:100F300000930FCD0FC62B68228F337069463B4656
:100F4000204602F017FD431E5842584107B0F0BD3D
:100F500075710A08A4800A0810B503F0D5F8044694
:100F600003F0DCF83C2303FB040010BD37B53C2440
:100F700090FBF4F46FF03B0303FB040503F08AFDE0
:100F800000952346024A012102F0B6FF03B030BDAE
:100F900084710A0810B5044603F0C0F8201A20EA4C
:100FA000E07403F077FD2346024A012102F0A4FF1A
:100FB000204610BD91710A082DE9FF4103F0C2F8E7
:100FC000044603F0C9F8054603F0CEF8064603F0E0
:100FD0009BF8074603F0A2F8804603F0A9F82B46D9
:100FE00003908DE8C001224609490A4802F024FB1B
:100FF000094B1B68012B03D10649084802F0FAFE91
:1010000003F048FD034904B0BDE8F04102F0DFBE43
:10101000B6710A080C0300202C000020B003002049
:1010200073B5334B00221146586802F075FA064634
:1010300002F0C2FA2F4D044603F02CFD2B682E4A15
:10104000002102F059FF28682C4DFFF78FFF03F0B5
:1010500021FD2B682A4A002102F04EFF2868294D05
:10106000FFF784FF03F016FD2B68274A0093274BF8
:1010700000211B6802F040FF2868254DFFF776FF2E
:1010800003F008FD2B68234A0093234B00211B68C3
:1010900002F032FF2868214DFFF768FF03F0FAFCE9
:1010A0002B681F4A00931F4B00211B6802F024FF8E
:1010B0002868FFF75BFF03F0EDFC1B4B1B4A1B6826
:1010C000012102F019FF03F0E5FC194A194B1A49F6
:1010D000002C14BF14461C460968002E18BF134686
:1010E00001910094154A012102F006FF02B070BD83
:1010F0002C0600200C040020D4710A084C030020A8
:10110000DF710A0820040020F0710A087003002033
:101110004403002019720A08040300200803002079
:1011200042720A0800040020300000206B720A0896
:101130004F740A0861740A08080400207C720A08C7
:1011400070B504460D460020012103F021FF012C5B
:101150000E4E0ED10021084603F02BFF0C490D481E
:101160003460FFF7EFF90C4B1B681D440B4B1D60FF
:1011700009E00121002003F01CFF00230849054875
:101180003360FFF7DFF9204670BD00BF0403002085
:101190009F720A0801700A080C0400204403002012
:1011A000BA720A0870B504460D460720012103F003
:1011B000EFFE012C0E4E0ED10021072003F0F9FEA8
:1011C0000C490D483460FFF7BDF90C4B1B681D44FA
:1011D0000B4B1D6009E00121072003F0EAFE00230C
:1011E000084905483360FFF7ADF9204670BD00BFE0
:1011F00000040020D5720A0801700A080C040020BF
:1012000008030020F2720A08012810B5044603D131
:101210000846FFF795FD0AE00021042001F084FD57
:10122000044B0022044905481A60FFF78BF9204659
:1012300010BD00BF700300200F730A0801700A0878
:1012400010B5062003F0CEFE0128084C04D1206022
:1012500007490848FFF776F9074B5B68012B03D174
:1012600006490448FFF76EF9206810BD48030020C6
:1012700029730A0843730A08100400204B730A08F4
:101280000A46012102F038BE13460A46012102F047
:1012900033BE000010B5062003F0A4FE064C012862
:1012A00016BF00232060236003F0F4FB226803498B
:1012B000FFF7EAFF206810BD4803002061730A08A9
:1012C00008B500234377006802F03AFBBDE8084008
:1012D00001F04CBE2DE9F0418E188EB0B1420746A8
:1012E0000D469046069180F0F8800B8806A8ADF870
:1012F0001630FFF779FD0368B34280F0EE80069860
:1013000004F0B6FF47F27622BDF81630C4B293421D
:1013100000F09E800DD847F26122934264D047F2DC
:101320006422934238D046F67052934240F0BC801B
:101330002EE047F26472934240D047F276729342B5
:1013400000F0978047F26172934240F0AD806CE00C
:1013500004F08EFFC5B206A8FFF746FD069C604963
:10136000204605F0CFF80146002800F0B2805D4924
:10137000204605F0C7F8002800F0AA805A49204608
:1013800005F0C0F8002800F0A38006A8FFF72CFDA8
:101390000698B042DCD3A0E00AAB079307A810235D
:1013A0000025524909930895FFF729FD07A8214612
:1013B000FFF742FD204603F015FE26E006A8FFF7E2
:1013C00013FD0368B34280F08880A4B20121204657
:1013D00003F0DEFD069804F04BFF011C18BF01214D
:1013E000204603F0E6FD78E00AAB0793404910235E
:1013F00007A8002509930895FFF701FD07A82146D6
:10140000FFF71AFD204603F000FE014607A8FFF78C
:1014100025FD2A46089B0295013B0093079B0195F9
:101420001421384600F0C4FA57E006A8FFF7DCFCA8
:1014300003689E4251D9A4B20121204603F0A8FDC1
:10144000069804F015FF0146204603F0F5FD44E040
:101450000EAD204605F8104D01F08AFD03462846E2
:1014600023B1244A934201D0984736E001F07CFD35
:1014700033E006A8FFF7B8FC069B20465D1BC5EBD2
:1014800008050A930B950C958DF81C4001F07AFD28
:1014900003460AA907A823B1174A934201D09847E7
:1014A0001BE001F062FD18E0FFF728FC03F0F2FA00
:1014B000124902F08CFC03F0EDFA294602F09AFC86
:1014C000002302217A8B0091029301931946A8E729
:1014D0000121284603F05CFD57E70EB0BDE8F0811E
:1014E00076730A081D740A0879730A087D730A085E
:1014F00080730A08692F0A086B2F0A0883730A0889
:101500002DE9F0418CB004AF0546052207F10C012E
:10151000006802F040FD002800F08081052801D01D
:1015200000207CE1B7F80D20B7F80F40130A43EA1A
:101530000222230A43EA042492B2A4B2A7F80D209F
:10154000A7F80F40002AEBD03B7B002B4DD101F0D8
:1015500007FD6C7FE860B7F80F00002C41D1B7F8A9
:101560000D30012B3DD1092824D0C82801D00428F2
:1015700028D1FFF7C3FB03F08DFAAB4902F027FC3B
:1015800003F088FA6B69E9680A22C91A02F05BFC69
:1015900003F080FAA54902F02DFCEB6801242846EF
:1015A0006B616C7700F0BCFAFFF7E8FB01F0DEFC42
:1015B000204634E1FFF7A2FB03F06CFA9C4902F0ED
:1015C00019FCADE7FFF79AFB03F064FA994902F0C2
:1015D000FEFB03F05FFA0A22B7F80F1002F082FC5C
:1015E0009EE7053818BF012019E1B4F5806F11D9C5
:1015F000FFF784FB03F04EFA8F4902F0E8FB03F09B
:1016000049FA0A22B7F80F1002F06CFC2846FFF7DF
:1016100057FE03E104F1080323F00703E846ADEBAE
:10162000030D04AE22463146286802F0B4FC844221
:101630004FF0000440F0ED80B7F80F30F45401F0A3
:101640008FFC3B7BE860112B00F08D8006D8062BC9
:1016500027D00F2B7AD0022B09D0D6E0292B2CD003
:10166000372B00F0C280142B40F0CF806EE06B7FF0
:101670007BB9FFF743FB03F00DFA704902F0BAFBA8
:1016800001236B77284600F04BFAFFF777FB01F058
:101690006DFC0023C821B7F80D200293019300913F
:1016A00006E0C823B7F80D20009323460294019466
:1016B0001946284600F07CF9ADE0AB681BB9202044
:1016C00001F0A2FFA860B7F80F407E613444A64243
:1016D00001D30020A0E020223146A86804F05CFF7E
:1016E00007F11400FFF780FB0368A34204D2786976
:1016F00004F0C2FD84B200E05024FFF7FFFA03F0CB
:10170000C9F94F4902F063FB03F0C4F9A96802F07C
:101710005EFB03F0BFF93A2102F05DFB03F0BAF97A
:101720000A22214602F0DEFB286802F009F92B6844
:10173000AA681C875A6300236B7701F011FCA0F59F
:101740009C5008382861E860686164E0FB68B7F87D
:101750000F20C3F30F236B8331462846FFF7BAFDF2
:1017600000236B8357E0B7F80F303C7033449E4240
:101770007E6050D23068B860381DFFF735FB7A685C
:10178000B7F80F30961B9E1B7A61BB682D4ABE616D
:101790009342FE611DD00BD802F1FD3202F102220C
:1017A000934238D107F11401384601F0DEFB32E0F4
:1017B000254A934213D002F19F6202F5003202F5EE
:1017C0008072934227D107F11401384601F0CDFB16
:1017D00021E007F11401384601F0C7FB1BE007F1D7
:1017E0001401384601F0C1FB15E0B7F80F3093B192
:1017F000FFF784FA03F04EF9144902F0E8FA03F017
:1018000049F9314602F0F6FA05E02846FFF758FD9F
:1018100001E0204600E00120C54600E0012020371D
:10182000BD46BDE8F08100BF94730A08A2730A08A0
:10183000A7730A08BA730A08D1730A08E2730A0880
:10184000E8730A087274630061636F6EF8730A08C4
:101850002DE9FF4104460D46FFF790FA637F022B06
:1018600000F08780237F628B0133DBB22377002A6D
:1018700045D1022B43D8206802F023F930B1002D66
:1018800079D1206802F020F8002874DC01F068FBB0
:101890000746206802F015F9657F0646012D30D114
:1018A00028B967612046FFF70BFD35465DE0E36828
:1018B000FB1AB3F57A5F0BD9FFF720FA03F0EAF8C9
:1018C000354902F097FA2046FFF7FAFC00254CE074
:1018D00042F21072934203D82369FB1A93420ED945
:1018E0006369FB1AB3F5FA6F09D9002302930193D8
:1018F00000931A460621204600F05AF86761012538
:1019000033E0002DFBD16069381A76B1B0F5FA6F7B
:10191000F5D9FFF7F3F903F0BDF8204902F06AFAB0
:10192000206802F00DF865771FE041F28833984295
:10193000E5D9206802F004F82068FFF7A1FA05460F
:1019400008B9676111E0D4F8048001272783404675
:1019500004F005FE43468DE8410002963A46022116
:10196000204600F025F823696361237F013B23773C
:101970000EE000250CE02046FFF7C2FD05460028DA
:101980007FF47FAF206801F0DBFF01F0EFFAECE7B6
:10199000284604B0BDE8F08101740A0813740A08EF
:1019A00008B500210148FFF753FF08BD5003002090
:1019B0002DE9F04F83B0044600AF00688946164613
:1019C0009B463D6BEA4602F07CF8002861D019F096
:1019D000FD0F00F0A180B9F1060F00F09D80637F3C
:1019E000012B56D116B9668B002E57D0A9F10C03E6
:1019F000082B5BD9BBF1000F18BFA8467A6B08BF54
:101A00004FF00008002ABA6B08F1050314BF904696
:101A10004FF00008984408F1070323F00703AA18C1
:101A2000ADEB030DC2F3072376BA43EA0223C7F8EE
:101A300004D08DF80090ADF80160ADF80330BBF133
:101A4000000F52D0002D50D02A4659460DF1050006
:101A500004F01CFD681D7B6B002B48D1002545451B
:101A600051D2C5EB08027B68B2F5806F28BF4FF4F6
:101A700080625919206801F084FE0646002001F0BA
:101A80006DFA002E3DD1206801F05AFF667701F013
:101A90006DFAD5460C37BD46BDE8F08F238B013378
:101AA0009BB203B901232383268B9FE7E368226956
:101AB000934238BF134603F1420801F051FAC0EBDC
:101AC000080000280ADB00212046FFF7C1FE01F0D4
:101AD00047FAC0EB08000028F5DA8BE7217F0029E0
:101AE00088D12046FFF7B4FE84E70520B3E7BB6B3F
:101AF000002BB3D01A467B68796B184404F0C6FCFF
:101B0000ACE73544ABE703D02046FFF7D9FBC0E78D
:101B100001F026FA2061BCE7002E7FF46BAF62E78C
:101B20001FB500225023009302920192034B112112
:101B3000FFF73EFF05B05DF804FB00BF00710A0827
:101B4000F0B590F849608BB00446E6B1077A05AB72
:101B5000002507930D49082307A809930895FFF767
:101B60004EF9394607A8FFF767F904F10903019315
:101B7000089B029600932A46079B14210448FFF70E
:101B800017FF84F849500BB0F0BD00BF21740A085C
:101B90005003002010B50446FFF70EFA02F07AFF5A
:101BA000214602F027F9064B1B68012B06D121467E
:101BB000044802F01FF90348FFF7C2FF10BD00BF41
:101BC0002C000020B003002008B50D48FFF7E2FF0D
:101BD0000C48FFF7DFFF0C48FFF7DCFF0B48FFF76F
:101BE000D9FF0B48FFF7D6FF0A48FFF7D3FF0A4893
:101BF000FFF7D0FFBDE808400848FFF7CBBF00BFA4
:101C000024740A082C740A0840740A0852740A08DA
:101C100065740A0879740A088E740A08AB740A0895
:101C20002DE9F041064630480F46FFF7B3FF2F4B32
:101C30009B68012B05D12E492E48BDE8F041FEF7E7
:101C400081BC2D4D2D4C2B68A846CBB92368BB42D7
:101C500001D0012E1ED100210846FFF7D5FAC8F8A1
:101C600000004FF47A7002F093FA0320FFF768F84F
:101C70000123C8F800302368214A0333136009E0C8
:101C80001F4B22681B689A4204DB00210846FFF7BD
:101C9000BBFA28601B4D2B68A8465BB923689F429E
:101CA00001D0012E10D102210120FFF749FAC8F816
:101CB000000009E0144B22681B689A4204DB0021F3
:101CC0000846FFF73DFA2860104B22681B689A42CD
:101CD00008DB0F4C2368012B04D100210846FFF7D5
:101CE00061FA2060BDE8F081C9740A081004002080
:101CF000DB740A0801700A08700300200C0400203D
:101D000020040020040300204403002008030020D6
:101D10000004002008B5006804F0AAFA013804287D
:101D20001CD8DFE800F003080D0F14000121032088
:101D300000F0FAFF04E00021032000F0F5FF01E0CD
:101D4000012100E00021072003F033F904E0054BF6
:101D500001201968FFF764FF012008BD4FF0FF3034
:101D600008BD00BF4C03002010B50F48FFF712FF5D
:101D70000E4B9B68012B05D10D490E48BDE8104064
:101D8000FEF7E0BB0C4B1B68B3F5FA6F0BDA0B4C9C
:101D9000236843B90A490748FEF7D4FB0321012011
:101DA000FFF700FA206010BDFB740A081004002041
:101DB000DB740A0801700A083000002000040020CB
:101DC0000B750A08F0B5041E89B003DD782CA8BF96
:101DD000782400E00524304B1A68304B5B68002AF9
:101DE00008BF002B56D12E4D2B68002B52D1224616
:101DF0002C492D48FEF7E8FB2C48FFF7CBFE0021CD
:101E00000846FFF79DF92A4B002118600846FFF7A6
:101E1000C9F9284B002118600846FFF7F5F9264E4E
:101E200028604FF47A70002502F0B2F93560FEF7B1
:101E3000EDFC224B224F1B683D6002933C235C4328
:101E400001228DE814000DF116010DF1150306A80D
:101E5000ADF816208DF8152001F054FC1948FFF755
:101E600099FEFFF779F8184B186000F0ADFEFEF709
:101E7000CDFC00F0D5FC062314490B4833603D60CF
:101E8000FEF760FBFEF74CFE114BC728186001DC23
:101E9000FFF76AFF09B0F0BD4803002010040020DE
:101EA000700300201A750A0801700A082B750A08C9
:101EB0000403002000040020080400200404002083
:101EC0002C0000203B750A080C0400204D750A0800
:101ED0003000002010B5086804F0CAF90128094C48
:101EE00007D12060FEF772FCBDE810400648FFF7FE
:101EF00051BEFEF78BFC0548FFF74CFE0023236024
:101F000010BD00BF2C00002056750A0879750A081C
:101F100010B5086804F0ACF9012813D10A4B0B4C3A
:101F20001860606003F0D2F821460C22002001F016
:101F30006BF907480749FEF705FBBDE81040064866
:101F4000FFF728BE10BD00BF2C00002010040020A9
:101F500043730A089B750A08BF750A0838B50868F4
:101F600004F086F9012814D10A4B0B4D00241C60A3
:101F70006C6003F0ABF8294620460C2201F044F9CE
:101F800006480749FEF7DEFABDE838400548FFF786
:101F900001BE38BD2C0000201004002043730A0845
:101FA000E5750A0808760A0808B5086804F060F9BB
:101FB00001280DD10221FFF7F5F8064B06491860FC
:101FC0000648FEF7BFFABDE808400548FFF7E2BD46
:101FD00008BD00BF000400202D760A0843730A08DC
:101FE00054760A0808B5086804F042F901280ED1B1
:101FF00000210846FFF7D6F8054B06491860064849
:10200000FEF7A0FABDE808400448FFF7C3BD08BDCD
:10201000000400207E760A0843730A087D760A08C9
:1020200010B5086804F024F9012811D1094CA0600A
:1020300003F04CF821460C22002001F0E5F8064898
:102040000649FEF77FFABDE810400448FFF7A2BD3D
:1020500010BD00BF1004002043730A08A5760A08CB
:1020600038B5086804F004F9012812D1094D00249C
:10207000AC6003F02BF8294620460C2201F0C4F88E
:1020800005480649FEF75EFABDE838400348FFF709
:1020900081BD38BD1004002043730A08C1760A08C8
:1020A00008B5086804F0E4F801280DD10221FFF713
:1020B00047F8064B064918600648FEF743FABDE8A4
:1020C00008400548FFF766BD08BD00BF04030020B7
:1020D00035760A0843730A085C760A0808B508686A
:1020E00004F0C6F801280ED100210846FFF728F8B1
:1020F000054B064918600648FEF724FABDE808407B
:102100000448FFF747BD08BD0403002086760A088F
:1021100043730A0885760A0810B590F84920531CC5
:10212000DBB202443F2B80F84930517201D9FFF7EE
:1021300007FD012010BD0000F0B50F46164605460C
:10214000ADF2244D08AB0024059305A84FF480633D
:102150000D4907930694FEF752FE394605A8FEF78F
:102160006BFE314605A8FEF767FE069B0294013B15
:1021700000930194059B224614212846FFF718FC82
:102180000DF2244DF0BD00BF21740A0810B5086897
:1021900004F06EF8012804460BD10648FFF7FAFC5C
:1021A0002146204600F0C0FDFF2214210248FFF71F
:1021B000C3FF10BDDB760A085003002010B5086885
:1021C00004F056F8012804460BD10648FFF7E2FC5C
:1021D0000021204600F0A8FD002214210248FFF74C
:1021E000ABFF10BDE7760A085003002010B5086861
:1021F00004F03EF8012804460BD10648FFF7CAFC5C
:102200002146022000F090FDFF2214210248FFF732
:1022100093FF10BDF3760A085003002008B5086844
:1022200004F026F801280DD1FEF7C6FE0648FFF798
:10223000B1FC0021022000F077FD002214210348A8
:10224000FFF77AFF08BD00BFFF760A0850030020A1
:1022500010B5086804F00CF8012804460BD10648B4
:10226000FFF798FC2146032000F05EFDFF221421B9
:102270000248FFF761FF10BD0B770A0850030020EA
:1022800008B5086803F0F4FF01280BD10648FFF7F2
:1022900081FC0021032000F047FD002214210348A7
:1022A000FFF74AFF08BD00BF17770A085003002058
:1022B00010B5086803F0DCFF012804460DD10320A7
:1022C000FEF73EFD054B214604201C6000F02CFD6E
:1022D000FF2214210248FFF72FFF10BD70030020DA
:1022E0005003002008B5086803F0C2FF01280AD196
:1022F00000210846FEF788FF034B002218601421D6
:102300000248FFF719FF08BD7003002050030020AA
:1023100010B5086803F0ACFF012804460BD106484D
:10232000FFF738FC2146052000F0FEFCFF221421B7
:102330000248FFF701FF10BD23770A085003002071
:1023400008B5086803F094FF01280BD10648FFF791
:1023500021FC0021052000F0E7FC002214210348A5
:10236000FFF7EAFE08BD00BF2F770A0850030020E0
:1023700010B5086803F07CFF0128044613D10A4811
:10238000FFF708FC2146204600F070FD21460220A0
:1023900000F06CFD2146032000F068FDFF221421AF
:1023A0000248FFF7C9FE10BD3B770A085003002022
:1023B00010B5086803F05CFF0128044613D10A48F1
:1023C000FFF7E8FB0021204600F050FD002102202D
:1023D00000F04CFD0021032000F048FD00221421F4
:1023E0000248FFF7A9FE10BD4E770A0850030020EF
:1023F000F0B585B002F04EFB4FF4E13102F03EFB48
:102400004FF4FA6001F0C4FE02F044FB5D49FEF7B0
:1024100037FF02F03FFB5B49FEF732FF02F03AFB69
:102420005949FEF72DFF02F035FB5849FEF728FF0A
:10243000574C02F02FFB5449FEF722FF684601F08B
:10244000C3F86946204601F094FC684601F000FCA0
:1024500002F020FB2168FEF713FF4E4B06221A60A4
:1024600000F0B2FB00F0DCF940F6B83000F076FD89
:10247000494C4A4B41F26F77636000F071FDA0F563
:102480009C5008382061E0606061FEF737FC02F084
:1024900001FB434901F0AEFC2368424A00265A631F
:1024A00050221A87206801F04BFA667700F058FD39
:1024B0000546637F012B09D000F052FD401BB84256
:1024C00004D800213448FFF7C3F9F2E7657F012DF6
:1024D000E8D135493548FEF735F84FF07E5001F028
:1024E000CFFD2946002002F053FD2946072002F0C7
:1024F0004FFD00210846FEF723FE2D4B00211860FA
:102500000846FEF74FFE2B4B29461860072002F0C5
:102510003FFD0021062002F03BFD02F0D7FD0C221A
:102520002549002000F068FE244A2549254801F08D
:1025300059FF0024002304222349244801F024F8F1
:102540002346022269462248009401F01DF82346E2
:10255000022269461F48009401F016F8FFF734FB89
:10256000FEF7FAFC1C4B4FF4F17218601B4B1A601B
:10257000FEF7D6FA1A4BC728186001DCFFF7F4FB08
:1025800005B0F0BD18750A0861770A0878770A085F
:10259000F40200200804002050030020080000205E
:1025A00086770A0815780A0825780A0801700A084B
:1025B00070030020000400201004002032780A0874
:1025C000151D0A08B9430A0836780A083E780A0831
:1025D0004C780A0856780A080C0400204C030020A6
:1025E0003000002037B500214E48FFF731F940F6A2
:1025F000AC514D4A4D4C136801338B4201DC1360E2
:1026000025E023680025013315602360FEF7A4FC54
:10261000474B1860FEF704FDFEF73CFE454B186083
:10262000454B28461968FFF7FBFA01F077FD0A23AE
:1026300090FBF3F202FB130010B90320FFF7C2FB7B
:1026400001F06CFD0A2802D12D20FFF7BBFB2368A7
:10265000082B4CDD354B002537201D60FEF79AFC1A
:1026600002F018FA354901F0B2FB02F013FA344BCC
:10267000344C196801F0BEFB02F028FD21460C2203
:10268000284600F0B9FD02F005FA22682E49FEF74F
:10269000FBFD02F0FFF962682C49FEF7F5FD02F040
:1026A000F9F9A2682A49FEF7EFFDFEF7C9FDFEF72A
:1026B00037FA284D284B294C1860FEF7BBFA02F078
:1026C000E9F92B68264A00932368012101F014FCE4
:1026D0002B6822682349244800F0AEFF2249234892
:1026E000FDF730FF02F0D6F9214901F083FBFEF738
:1026F0009DF8044698B1FEF75FFC02F0CBF9224644
:102700001C49FEF7C1FD1C491C4801F060FB0A2270
:1027100021461A4801F0BAFB1848FFF711FA03B036
:1027200030BD00BF500300204003002008040020FB
:102730000C040020480300204C03002062780A08A3
:10274000F40200201004002071780A088B780A082F
:10275000A5780A08FC030020300000201C0400209B
:10276000BF780A08DC780A080C03002001700A0808
:10277000EE780A0802790A0811790A08B0030020E5
:1027800070B51C4B1C4D00241C601C4E00F084FCDA
:10279000284601F005FA05F11C0002F0D7F8324690
:1027A000174928466C632C8702F0DCFC154B164950
:1027B0001D60164D5C609C60DC601C615C611C836C
:1027C0005C831C775C77284601F089FA3246104911
:1027D000284602F0C7FC0F48162303720E4B4460D4
:1027E000036080F849403246BDE870400B4902F072
:1027F000B9BC00BF040400207403002024010020A1
:10280000C90D0A085003002020800A08F4020020A5
:10281000513C0A08B0030020F0700A08F90C0A08BD
:1028200008B50420012102F0B3FB054B32201B68E0
:102830001A6FB3F874305383BDE8084001F0A8BCA8
:102840002005002010B500210D4C032002F0A0FB54
:102850000121042002F09CFB23680A201A6FB3F8C0
:102860007430138300F0A0FC236801211A6FB3F8C1
:10287000743003205383BDE8104002F003BC00BF56
:10288000200500200A2358433A23B0FBF3F0704799
:1028900008B500F001FC014B186008BD20050020C0
:1028A00002881C2353434268D118D3588A885A831C
:1028B000704738B504460D4600F0EEFB002160601D
:1028C000284602F065FB2580204638BD38B5054610
:1028D00002F078F90021288800F0EEFB02F074F98C
:1028E0007D24013C14F0FF042DD0022000F05CFC9C
:1028F000288800F0F9FB10F0FF0FF2D002F062F927
:102900002846FFF7CDFF0121288800F0D5FB02F013
:102910005BF94FF4F07000F047FC02F053F900212E
:10292000288800F0C9FB462000F03EFC288800F013
:10293000DBFBC0B2B0FA80F402F046F94FF4CD7080
:10294000640900F031FC204638BD38B511F00105AE
:10295000044613D002F036F92046FFF7A1FF01210B
:10296000208800F0A9FB0A2000F01EFC208800212E
:1029700000F0A2FB02F028F9372012E002F022F961
:102980002046FFF78DFF0121208800F095FB4120B4
:1029900000F00AFC2088294600F08EFB02F014F9B2
:1029A0000520BDE8384000F0FFBB10B5044602F03A
:1029B00009F92046FFF774FF0121208800F07CFB15
:1029C000032000F0F1FB0021208800F075FB0A20B5
:1029D00000F0EAFB208800F087FB044602F0F4F8E0
:1029E000352000F0E1FBE0B210BD2DE9F0410546D5
:1029F000884617460826012418EA040F14BF01214F
:102A000000212846FFF7A1FF6400013EE4B2F3D1A4
:102A10008FB102F0D7F82A881C2353436A68D11873
:102A2000D3588A8801211A83288800F045FBBDE825
:102A3000F04102F0C9B8BDE8F081F8B507460826B4
:102A4000002501243846FFF7B0FF00B1254364009C
:102A5000013EE4B2F6D12846F8BD70B500220C461E
:102A600055210646FFF7C1FF651E073415F8011F03
:102A700000223046FFF7B9FFA542F7D170BD002311
:102A800003748374437400F11002083002F8013DAE
:102A90008242FBD170472DE9F047857C0446884689
:102AA000002D5ED1FFF712FF20B92074A07460746E
:102AB000BDE8F0872A46F02120460126FFF795FF62
:102AC000AA4637462046FFF770FF81462046FFF7AB
:102AD0006CFFB9F1010F02D101281BD137E081450C
:102AE00004EB05031ED1227C974207D21A7A1642C4
:102AF00014BF4FF001094FF0000904E00CBF4FF084
:102B000001094FF00009B9F1000F03D1082F08D8CF
:102B1000677406E06219137A4FF0010933431372A8
:102B200004E0BA461A7A22EA06021A724946204698
:102B30007600FFF70AFF16F0FF0604BF0135EDB27D
:102B400007F1010708BF0126072DFFB2BAD9402FB0
:102B500007D984F810A0BAF1000F12D10123A37491
:102B60000FE000202074A0746074E31D08F1FF38AA
:102B70000F3413F8012FA34208F8012FF9D1BDE853
:102B8000F087237A002BECD00120EEE730B5054624
:102B900000200139C9B2FF2913D015F8014B0822D2
:102BA00080EA040313F0010F4FEA50001CBF80F0CD
:102BB0008C03D8B2531E13F0FF024FEA5404EFD136
:102BC000E7E730BD00F068BA10B5074C0121208856
:102BD00002F0DEF92088002102F0EBF9BDE8104098
:102BE0004FF4FA7001F0D4BA340000202DE9F0411E
:102BF0002E4C00218046208802F0DBF941F288301B
:102C000000F0D2FA0021208802F0D3F941F2883096
:102C100000F0CAFA0021208802F0CBF941F2883096
:102C200000F0C2FA082608F104050027D8F80030A1
:102C300010359F424FF0010120881FDA02F0B9F9E8
:102C400055F8100C00F0B0FA0021208802F0B1F91C
:102C500055F80C0C00F0A8FA0121208802F0A9F91F
:102C600055F8080C00F0A0FA0021208802F0A1F924
:102C700055F8040C00F098FA0437D7E702F099F9F8
:102C80004FF4D77000F090FA0021208802F091F9FB
:102C90004FF4FA5000F088FA013EC4D1034B31469C
:102CA000BDE8F041188802F084B900BF340000206C
:102CB0002DE9F0410546C6B040240E46174601F006
:102CC000E9FE0A22294601F0D7F82246002168468B
:102CD00003F0E7FB00946C460DF58078002D05DAD3
:102CE0006760A66001F0D6FE0C4904E06660A7604C
:102CF00001F0D0FE0A49083401F069F844454FEA72
:102D00004505EBD101F0C6FE064901F073F86846AF
:102D1000FFF76CFF46B0BDE8F08100BF107A0A08EB
:102D2000427A0A0818750A08052838B505460C467F
:102D300004DD01F0AFFE164901F05CF8012C04DD62
:102D400001F0A8FE134901F055F8062303FB0454D3
:102D5000114B53F824409CB101F09CFE0F4901F047
:102D600036F801F097FE21460A2201F085F8204648
:102D7000BDE8384040F27E424FF4D771FFF798BF6C
:102D800001F088FEBDE83840054901F020B800BFD9
:102D90001A790A0832790A08380000204A790A08A4
:102DA00058790A0800F078B92DE9F041204C00214B
:102DB0008046208802F0FDF841F2883000F0F4F9F6
:102DC0000021208802F0F5F841F2883000F0ECF99B
:102DD0000021208802F0EDF841F2883000F0E4F99B
:102DE000082508F104060027D8F8003008369F426D
:102DF00011DA0121208802F0DCF856F8080C00F006
:102E0000D3F90021208802F0D4F856F8040C00F021
:102E1000CBF90237E8E742F2AC6000F0C5F9013DBA
:102E2000DFD129462088BDE8F04102F0C2B800BFDA
:102E30006800002030B53223DBB000936B46441E9F
:102E4000173014F8015F0833302D07BF43F8041C16
:102E50001A6043F8042C19608442F2D1684631911B
:102E60003292FFF7A1FF5BB030BD000030B5012802
:102E70008BB022D161B9314B01AC03F11805224668
:102E800018685968083303C2AB421446F7D10DE005
:102E900001290BD12A4B01AA03F118051446186821
:102EA0005968083303C4AB422246F7D14FF46B7222
:102EB000DC2101A8FFF7BEFF3DE002281CD161B96B
:102EC000204B01AC03F118052246186859680833F5
:102ED00003C2AB421446F7D1E8E70129E6D11A4B09
:102EE00001AA03F11805144618685968083303C489
:102EF000AB422246F7D1D9E703281CD161B9134B65
:102F000001AC03F11805224618685968083303C25A
:102F1000AB421446F7D1C9E70129C7D10C4B01AA2E
:102F200003F11805144618685968083303C4AB4206
:102F30002246F7D1BAE70BB030BD00BF7C790A0852
:102F400095790A08AE790A08C7790A08E0790A086B
:102F5000F9790A0800F0A0B800F09EB801F018B99D
:102F600000F032B900F098B8704770477047000021
:102F70007F289ABF024B53F820000020704700BF03
:102F8000787C0A087F289ABF024B53F82000002063
:102F9000704700BF787A0A0800F07EB838B501F0B3
:102FA00079FD03685B699847C0B2623816285DD81E
:102FB000DFE800F0105C5C5C5C5C0C5C5C5C5C5CA6
:102FC0005C1B365C1722455C5C495500BDE8384007
:102FD000FEF7FABD264B01201968BDE83840FEF720
:102FE0001FBEFDF7F3FB234802E0FDF70FFC22486C
:102FF000BDE83840FEF7CEBD204B214D00242148CE
:103000001C606C60FEF7C6FD02F060F820462946A1
:103010000C2200F0F9F8BDE838400F20FEF7D2BED0
:10302000174D01236B60154B002417481C60FEF7F9
:10303000B1FD02F04BF80C22294620460BE0BDE81A
:103040003840FDF7F7BD1148FEF7A4FD02F03EF849
:103050000B490C220020BDE8384000F0D5B80C48E0
:10306000FEF798FDBDE83840FDF75ABD38BD00BFFA
:103070004C03002056750A08787E0A0808040020D0
:10308000100400209A7E0A08AF7E0A08C57E0A084E
:10309000DF7E0A0800F000B808B5024B1B681B6809
:1030A000019308BDB001060808B5024B1B685B68B8
:1030B000019308BDB001060808B5024B1B689B6868
:1030C000019308BDB001060808B5024B1B68DB6818
:1030D000019308BDB001060808B5024B1B681B69C7
:1030E000019308BDB001060808B5024B1B685B6977
:1030F000019308BDB001060808B5024B1B689B6927
:10310000019308BDB001060808B5024B1B68DB69D6
:10311000019308BDB001060808B5024B1B681B6A85
:10312000019308BDB001060808B5024B1B685B6A35
:10313000019308BDB001060808B5024B1B689B6AE5
:10314000019308BDB001060808B5024B1B681B6B54
:10315000019308BDB001060808B5024B1B68DB6C83
:10316000019308BDB001060808B5024B1B689B6FB0
:10317000019308BDB001060808B5024B1B68DB6966
:10318000019308BDB401060808B5024B1B681B6A11
:10319000019308BDB401060808B5024B1B685B68C3
:1031A000019308BD9C01060808B5024B1B68DB684B
:1031B000019308BD9C01060808B5024B1B681B69FA
:1031C000019308BD9C01060808B5024B1B685B69AA
:1031D000019308BD9C01060808B5024B1B68DB691A
:1031E000019308BD9C01060808B5024B1B689B6A49
:1031F000019308BD9C01060808B5024B1B685B6C77
:10320000019308BD9C01060808B5024B1B689B6C26
:10321000019308BD9C01060808B5024B1B689B6D15
:10322000019308BD9C01060808B5024B1B681B6B87
:10323000019308BDD001060808B5024B1B689B69C5
:10324000019308BDC401060808B5024B1B685B6A00
:10325000019308BDC401060808B5024B1B689B6AB0
:10326000019308BDC401060808B5024B1B68DB6A60
:10327000019308BDC401060808B5024B1B681B6B0F
:10328000019308BDC401060808B5024B1B685B6BBF
:10329000019308BDC401060808B5024B1B689B6B6F
:1032A000019308BDC401060808B5024B1B681B6CDE
:1032B000019308BDC401060808B5024B1B681B6ECC
:1032C000019308BDAC01060808B5024B1B685B6E94
:1032D000019308BDAC01060808B5024B1B689B6E44
:1032E000019308BDAC01060808B5024B1B68DB6EF4
:1032F000019308BDAC01060808B5024B1B681B6FA3
:10330000019308BDAC01060808B5024B1B685B6F52
:10331000019308BDAC01060808B5034B1B68D3F840
:103320008030019308BD0000AC01060808B5024BCF
:103330001B681B68019308BDBC01060808B5024B59
:103340001B685B68019308BDBC01060808B5024B09
:103350001B689B68019308BDBC01060808B5024BB9
:103360001B68DB68019308BDBC01060808B5024B69
:103370001B681B69019308BDBC01060808B5024B18
:103380001B681B6A019308BDBC01060808B5024B07
:103390001B681B6B019308BDBC01060808B5024BF6
:1033A0001B685B6C019308BDBC01060808B5024BA5
:1033B0001B681B68019308BDD801060808B5024BBD
:1033C0001B685B68019308BDD801060808B5024B6D
:1033D0001B681B69019308BDD801060808B5024B9C
:1033E0001B685B69019308BDD801060808B5024B4C
:1033F0001B689B69019308BDD801060808B5024BFC
:103400001B68DB69019308BDD801060808B5024BAB
:103410001B681B6A019308BDD801060808B5024B5A
:103420001B685B6C019308BDC001060808B5024B20
:103430001B689B6C019308BDC001060808B5024BD0
:103440001B681B6D019308BDA801020808B5024B5B
:103450001B681B68019308BDA401060808B5024B50
:103460001B685B68019308BDA401060808B5024B00
:103470001B685B69019308BDA401060808B5024BEF
:103480001B68DB6C019308BDA401060808B5024B5C
:103490001B685B6D019308BDA401060808B5024BCB
:1034A0001B689B6D019308BDA401060808B5034B7A
:1034B0001B68D3F89030019308BD0000A4010608F2
:1034C00008B5034B1B68D3F89C30019308BD00007E
:1034D000A401060808B5034B1B68D3F8A830019374
:1034E00008BD0000A401060808B5024B1B685B6814
:1034F000019308BDC801060808B5024B1B689B680C
:10350000019308BDC801060808B5024B1B68DB68BB
:10351000019308BDC801060808B5024B1B681B696A
:10352000019308BDC801060808B5024B1B685B691A
:10353000019308BDC801060808B5024B1B689B69CA
:10354000019308BDC801060808B5024B1B68DB697A
:10355000019308BDC801060808B5024B1B681B6A29
:10356000019308BDC801060808B5024B1B681B6B18
:10357000019308BDC801060808B5024B1B685B6BC8
:10358000019308BDC801060808B5024B1B681B68FB
:10359000019308BDCC01060808B5024B1B685B68A7
:1035A000019308BDCC01060808B5024B1B689B6857
:1035B000019308BDCC01060808B5024B1B685B6986
:1035C000019308BDCC01060808B5024B1B68DB69F6
:1035D000019308BDCC01060808B5024B1B681B6AA5
:1035E000019308BDCC01060808B5024B1B681B6B94
:1035F000019308BDCC01060808B5024B1B68DB6BC4
:10360000019308BDCC01060808B5024B1B681B6876
:10361000019308BDA001060808B5024B1B685B6852
:10362000019308BDA001060808B5024B1B689B6802
:10363000019308BDA001060808B5024B1B68DB68B2
:10364000019308BDA001060808B5024B1B689B69E1
:10365000019308BDA001060808B5024B1B68DB6991
:10366000019308BDA001060808B5024B1B685B6A00
:10367000019308BDA001060808B5024B1B68DB6A70
:10368000019308BDA001060808B5024B1B681B6B1F
:10369000019308BDA0010608704710B5044610212B
:1036A00001F065FD204610BD70B504460E46074B7F
:1036B0000025036040F80C5FFFF7B6FD3046267129
:1036C000FFF75AFDA560204670BD00BFF47E0A08D2
:1036D0000079FFF759BD10B50024047044804FF6FF
:1036E000FF740029848007DD0139994209D232F83C
:1036F00011308380012301E002D10223037010BD49
:10370000418010BD70B50D46164686B01A4600239E
:1037100002930C9B044601930B9B31460093284671
:103720000A9BFFF7D7FE33462A46014604A8FFF757
:10373000D2FF064B0498BDF81420186020469A80EA
:103740001A689B882260A38006B070BD2405002003
:103750004FF6FF72034B0020187058809A80FFF7D5
:103760007DBE00BF2405002037B502AC036804F815
:10377000011DDD6B012247F230532146A84703B0FB
:1037800030BD10B40368DC6B47F23053A44610BC64
:10379000604737B502AC036804F8011DDD6B2146B4
:1037A00013460122A84703B030BD70477047002080
:1037B000704710B50446142101F0D9FC204610BD15
:1037C000FCF76FBC10B5044603689B689847A36874
:1037D000013BA3602BB923682046BDE81040DB689D
:1037E000184710BD70B5044606464D69044B8C352C
:1037F00044F8043B0FCD0FC42B683046237070BDD6
:10380000A4800A0810B543690446B3F88620B3F8CB
:1038100084309A4205D06269B2F884301344187932
:1038200010BD03681B6998470028F4D14FF0FF30A2
:1038300010BD10B543690446B3F88620B3F8843050
:103840009A4208D06269B2F88430591CA2F88410F8
:103850001344187910BD03681B6998470028F1D1FB
:103860004FF0FF3010BDF8B543691746B3F8862016
:10387000B3F8843005469A420E4606D103681B69A8
:10388000984710B94FF0FF3414E069693046B1F839
:103890008430B1F886401944E41ABC4228BF3C4643
:1038A0000431224602F0F2FD6A69B2F88430234402
:1038B000A2F884302046F8BD42690023A2F8843083
:1038C0004269A2F88630704738B542690446B2F8BA
:1038D00086301BB1B2F884209A420CD0206901F0E6
:1038E0001DFB0368DB68984718B363691868FFF726
:1038F00025FD18B91DE0FFF7DFFFEFE76069B0F8BD
:1039000086107F2915D8051DC1F1800200232944A6
:103910000068FFF72BFD00280BDD6369B3F88620F4
:103920000AB9A3F884206269B2F886301844A2F874
:1039300086006269B2F88630B2F88400181A38BD81
:1039400038B5436904461868FFF7F8FC18B1636995
:103950001868FFF713FD6569FFF718FD28606069B7
:10396000112200218C3002F09CFD2046BDE8384039
:10397000FFF7A2BF2DE9F0411F4603688AB0DB6A5A
:1039800006460C4615469847384601F0C7FA0368C4
:10399000DB689847002856D000972B460622012165
:1039A0000220D6F81480FFF7D1FC2023C8F80000CD
:1039B00000270293736903971B6801200193234B2F
:1039C00002AA009322493B46FFF738FD7369186845
:1039D000FFF7B4FC002836D03046FFF76DFF022316
:1039E000ADF808302B0A8DF80A30E3794FF4FA501D
:1039F0008DF80C30A3798DF80B508DF80D3063796C
:103A00008DF80E3014F8043F8DF80F30FFF706FDE7
:103A100073690546102202A91868FFF79FFC8046CB
:103A20002846FFF7FBFC0FCC75698C350FC5236862
:103A30002B70B8F1000F05D033683046DB6A984729
:103A4000384600E001200AB0BDE8F0816B7F0A082B
:103A5000647F0A0810B5436904461868FFF76EFCD6
:103A600008B9002010BD206901F058FA0368DB682E
:103A700098470028F5D063691868FFF757FCB0FA3B
:103A800080F0400910BD2DE9F34100254560044652
:103A90000E4617469846FFF7DDFF60B16069019555
:103AA000CDF800802B463A4631460068FFF776FC99
:103AB000002803DA01E04FF0FF30606002B0BDE89B
:103AC000F08138B50446FFF7C5FF00BB6369B3F862
:103AD0008610B3F88420914219D11868FFF72EFCA4
:103AE00028B163691868FFF721FC012801D000257F
:103AF0000EE0236820461B699847002814BF012563
:103B0000002505D123682046DB6A984700E001259F
:103B1000284638BD08B5FFF79DFF003018BF0120CB
:103B200008BD10B5044600230160A0F88430A0F859
:103B30008630883000F00AFF204610BD4FF47A72BC
:103B400070B58260144A0023436002604361836160
:103B50000446A0200E46FCF7A2FA054610B13146F5
:103B6000FFF7DFFF1420FCF79AFA034628B1012281
:103B700042608260094A05610260A0696561A361D3
:103B800028B14368013B43600BB9FFF71BFE204699
:103B9000FFF792FE204670BD207F0A08047F0A08C6
:103BA00010B50446FFF7F2FB01462046FFF7C6FFBB
:103BB000204610BD10B504460068FFF7BFFB10B1EA
:103BC0002068FFF7DBFB204610BD10B504692046D6
:103BD000FFF7F0FF24B12046BDE81040FCF761BAC2
:103BE00010BD00002DE9F0431F4603688FB0DB6A6B
:103BF00006460D4690469847134801F042F900B337
:103C000002A800F0A3FE284602F0A9FC002481B21D
:103C100000943B4603AA2846FFF708FC80B93368A6
:103C200009ADD3F82090094B03AC08930FCC0FC516
:103C3000236842462B7008A93B463046C84700E03F
:103C400020460FB0BDE8F08334060020A4800A08A7
:103C500010B504460068FFF7DFFC204610BD10B524
:103C60000446006808B1FFF7D7FC00232360A36077
:103C7000636010BD38B504460D4600680131FFF79A
:103C8000D3FC10B184E82100012038BD10B50368D1
:103C9000044613B143688B4207D22046FFF7EAFF80
:103CA00020B1A3680BB922681370012010BD70B554
:103CB0000E46114604461546FFF7E8FF18B92046A0
:103CC000FFF7CDFF09E02A463146A560206802F0E3
:103CD000DDFB2268A3680021D154204670BD38B5B1
:103CE0000023044603604360836003730D4639B1CB
:103CF000084602F034FC294602462046FFF7D7FF6B
:103D0000204638BD38B5054600680C4660B16A6883
:103D10008B689A4206D3096802F0FEFBA368AB6089
:103D200000230AE0FFF778FC23682B6063686B6070
:103D3000A368AB60002323606360A36038BD884242
:103D400010B50B46044607D0096819B19A68FFF709
:103D5000AEFF01E0FFF783FF204610BD10B504461B
:103D600000230360436083600373FFF7E8FF20468E
:103D700010BD884210B5044601D0FFF7C3FF2046AE
:103D800010BDF8B506460D468F180024BD420CD074
:103D9000336815F8011B9B6830469847002801DB03
:103DA0000444F3E7002C08BF04462046F8BD70B574
:103DB00005460C46084649B102F0D1FB2B68024685
:103DC00021462846BDE87040DB68184770BD08B53D
:103DD000FFF7EDFF08BD03689B68184738B50D2154
:103DE0000546FFF7F8FF0A2104462846FFF7F3FFD0
:103DF000204438BD38B50546FFF7D9FF04462846AC
:103E0000FFF7ECFF204438BD012A98BF0A2230B5E5
:103E10000B468BB000218DF824100DF12304B3FB69
:103E2000F2F505FB1233DBB2092B94BF3033373385
:103E3000DBB2214604F801392B46002DEFD1FFF704
:103E4000B6FF0BB030BD10B422B90368C9B29B688D
:103E500010BC1847D2B210BCFFF7D6BFFFF7F3BFB4
:103E600038B50546FFF7EFFF04462846FFF7B6FFD3
:103E7000204438BDFFF7E7BF38B50546FFF7E3FF3D
:103E800004462846FFF7AAFF204438BD38B505464A
:103E9000FFF7D9FF04462846FFF7A0FF204438BDAE
:103EA0002DE9F04107460E4615462AB9BDE8F04116
:103EB0000368C9B29B6818470A2A02D1002901DAAF
:103EC00004E0D2B2BDE8F041FFF79EBF2D21FFF71D
:103ED00082FF2A46044671423846FFF795FF204488
:103EE000BDE8F08138B50546FFF7DAFF04462846FD
:103EF000FFF774FF204438BD0CB42DE9F04387B0C0
:103F000000AF07F1380454F8049B05460E462346DB
:103F10004A461421381D3C60FFF7A6FB132805D83C
:103F2000391D2846FFF743FF044613E000F108035C
:103F300023F00703E846ADEB030D411C23464A4638
:103F400068463C60FFF790FB69462846FFF72FFF65
:103F50000446C5461EB12846FFF740FF04442046EC
:103F60001C37BD46BDE8F04302B0704710B50446AB
:103F7000FFF72AF9E060236820465B69984700282C
:103F800008DAFFF721F9E368C01AA3689842F2D370
:103F90004FF0FF3010BD2DE9F04180460D460C4634
:103FA0008F18BC42A4EB050607D04046FFF7DEFFA2
:103FB000002802DB04F8010BF3E73046BDE8F0818E
:103FC00000231A4619464068FFF7AEBA0B68036033
:103FD00013B15A6801325A6070470000014A024B1F
:103FE0001A607047F57F0A082C050020F0B5144BC5
:103FF000144F1E68144B064418683B6806449E42E2
:104000008BB01BD00AA840F8286D02F047F904468F
:10401000436901AD03F26C7343610FCC0FC50FCC44
:104020000FC5D4F800E0094CC5F800E001AD0FCD94
:104030000FC40FCD0FC43E60C4F800E00BB0F0BD5C
:10404000600500205C050020580500203005002098
:1040500008B50020FFF7C8FA28B1FFF7ADFA80F0E5
:104060000100C0B208BD012008BD000008B5FFF77F
:10407000BDFF024B1869013008BD00BF30050020AC
:1040800010B50949044602F0A5F860B90749204671
:1040900002F0BEF838B90649204601F0FDFE02F0F4
:1040A000C1F8044B186010BD000040C10000604121
:1040B000000061456005002010B50020FFF7ACF856
:1040C000044668B9FFF7C2F901280BD12046FFF773
:1040D000E5F938B9FFF7BCFF30B9FFF765FAF9E742
:1040E000012010BD002010BDFFF7B2FF0020FFF738
:1040F00093F8003018BF012010BD08B5FFF7DCFFB2
:10410000BDE80840FFF768B808B5FFF7F6FFFFF70E
:104110006DFF014B986808BD3005002008B5FFF71A
:10412000ECFFFFF763FF014B586808BD3005002026
:1041300008B5FFF7E2FFFFF759FF014B186808BD0C
:104140003005002008B5FFF7D8FFFFF74FFF014B00
:10415000D86808BD3005002008B5FFF7CEFFBDE8E0
:104160000840FFF783BF000008B5FFF7C6FFFFF761
:104170003DFF014B586908BD30050020024B1A680D
:10418000024B1A60704700BF6C00002054050020ED
:104190000021FFF76BB910B58368044613B1032201
:1041A00001469847204610BD10B50446FFF7F3FFBF
:1041B000204610BD13B50B46044603C88DE8030026
:1041C00093E8030084E803009DE8030083E803000C
:1041D00002B010BD034800238360034A034900F086
:1041E000C1BF00BF6405002024010020A9410A08C6
:1041F00008B5144B33B100F04DFC03681B699847B8
:10420000002816DC104B33B100F03CFD03681B693D
:104210009847002810DC0D4B0BB1AFF300800C4B1E
:104220007BB100F065FC03681B699847002806DC39
:1042300008BDFEF7B3FEE5E7AFF30080EBE7AFF3B1
:10424000008008BD9D2F0A0800000000000000004B
:104250000000000008B5FFF7CBFFFEF7B5FF014BEC
:10426000186008BD5C0600200248034A0349121A80
:1042700002F00CB9004002400440024010840A08D9
:1042800007B5002300931A466FF07701FFF718F97E
:1042900003B05DF804FB000007B543880A2B08D083
:1042A000502B09D1094B1B683BB103B05DF804EBFF
:1042B0001847FFF7E5FF06E0002300931A466FF06A
:1042C0007701FFF7FDF803B05DF804FB74050020EB
:1042D00038B5104C104D2368AB42104B0CBF012277
:1042E00000221A7002D0FFF7BFFF2560FEF754FFCF
:1042F000044602F0DFF80A4B13B12046AFF300800A
:1043000000210748FFF778F9BDE83840002105484B
:10431000FFF7CCB8004002401E1C279A7805002009
:104320000000000099420A0870470020704710B54D
:104330000446102100F01BFF204610BD08B508B14F
:10434000FFF7F5FF08BD002202604FF69C728280E5
:1043500010B5B1F9044084808A8002680C6804605A
:104360000A6010BD10B504460068FFF755F92046F5
:1043700010BD38B5C468F4B12378022B03D104F121
:104380000C00FFF7EFFF656835B12846FFF703FF24
:104390001021284600F0EBFEA56835B12846FFF74E
:1043A000FAFE1021284600F0E2FE2046BDE8384023
:1043B000142100F0DCBE38BD10B588B00446684654
:1043C000FFF78DFC694604A8FFF7C8FC04A8A047C6
:1043D000044604A8FFF73CFC6846FFF739FC20467A
:1043E00008B010BDF0B507460E46154685B010243E
:1043F00022460021684602F054F800226946104621
:10440000ADF80040029703960195FFF7C5F805B097
:10441000F0BD13B5044691E8050000234B600B6026
:104420002060626001A801930093FCF774F82046B5
:1044300002B010BDF7B50C4606460F4654F8043BD3
:1044400002AD45F8083D214601A8FFF7BFFD29460A
:104450003046FFF7DEFF01A8FCF75DF82046FCF7C9
:104460005AF83846082100F082FE304603B0F0BD0D
:1044700038B500230446036010200D46FBF70FFEFD
:1044800028B1012343608360024BC5600360206054
:10449000204638BD88800A08826810B50AB900F045
:1044A00068FEC368BDE81040184708B5006800F111
:1044B0001001FFF7F1FF08BD826810B50AB900F0DE
:1044C00058FEC368BDE81040184708B5006800F101
:1044D0001001FFF7F1FF08BD38B5002383608B683A
:1044E00004460D462BB102229847EB68E360AB68A7
:1044F000A360204638BD0000F0B589B00468684666
:10450000FFF721FF4FF0020200238DF80830D4E8B6
:104510004F3F002B03D1C4E8412F0029F7D102D02F
:104520008DF8083063E014F10C0503D06946284685
:10453000FFF709FFBFF35F8F01236370BFF35F8F46
:1045400004F10803002053E8006F43E80002002A4A
:10455000F9D1BFF35F8F002E49D0FEF78FFF20B156
:1045600029463046FFF798FF3AE0314602A8FFF7A8
:10457000B3FFE068B4F9105008B101F0D5FF069020
:104580001020ADF81C50FBF78AFD0546E8B1002766
:1045900087601820FBF783FD044688B101468760D9
:1045A00002A8FFF707FE049BA268A360059B049284
:1045B000E26806A9E36004F110000592FFF7C3FE6C
:1045C0000D4B2C60EB600D4BAB6006A8FFF7CAFEED
:1045D00002A8FFF7E0FD002229460948FEF756FF32
:1045E0003046FFF7D8FD1021304600F0C0FD684688
:1045F000FFF7B8FE09B0F0BDAB440A0821470A082E
:10460000054D0A082DE9F04F8BB006460F4690463F
:1046100099469DF850A0FEF7CFFF07AD834630BB0B
:104620004FF62E73059005A92846ADF81830FFF710
:104630008AFE1420FBF733FD044658B102230370B1
:1046400001234370C0F804B0C0F808B029460C300C
:10465000FFF779FE3046214640F8044BFFF708FF8C
:104660002846FFF77FFE05A8FFF77CFE52E00024F6
:104670000C2314206C60AC600793FBF710FD01461F
:1046800018B1047044704460846004A80391FFF77B
:10469000EFFE224B08200893FBF701FD044628B1EA
:1046A000039B04A940F8043BFFF790FC00955FFAD8
:1046B0008AF34A46414638460994FEF78DFF20B9F1
:1046C000039B5B7803F0FF0283B1039B04A906A858
:1046D0000593FFF77BFC05A93046FFF79AFE06A875
:1046E000FBF719FF04A8FBF716FF13E04FF69C73C6
:1046F00005A903A80592ADF81830FFF7FDFE05A83F
:10470000FFF730FE05A80999FFF794FE06A8FBF70E
:1047100002FFDAE730460BB0BDE8F08F91480A0897
:10472000022AF8B5044606D0032A17D0012A22D15E
:104730000B6803601FE018200E68FBF7B0FC05460D
:1047400050B13146FFF7C8FE3069B6F9147008B1B0
:1047500001F0EAFE2861AF8225600CE0046854B1E4
:1047600004F11000FFF7FEFD2046FFF714FD1821AD
:10477000204600F0FCFC0020F8BD38B50023836023
:104780008B6804460D462BB102229847EB68E36024
:10479000AB68A360204638BD022A70B5044606D037
:1047A000032A11D0012A18D10B68036015E01420E8
:1047B0000E68FBF774FC054620B13146FFF7DDFFBC
:1047C000337C2B74256008E0046834B12046FFF781
:1047D000E2FC1421204600F0CAFC002070BD00005D
:1047E000F0B50C46BFF35F8F87B0002350E8006F31
:1047F00040E80032002AF9D1BFF35F8F002E3FD08E
:104800001846FEF73BFE074620B121463046FFF72B
:1048100053FE2EE0314601A8FFF7AFFF23781020AA
:104820008DF81430FBF73BFC0546D0B187601420AF
:10483000FBF735FC044678B18760014601A8FFF715
:10484000B9FC039BA268A360049B0392E268E36047
:104850009DF81430049223740A4B2C60EB600A4BD1
:10486000AB6001A8FFF797FC002229460748FEF736
:104870000DFE3046FFF78FFC1021304600F077FC2C
:1048800007B0F0BDCB440A0899470A08054D0A084D
:1048900030B5044685B00D4668461146FFF7CAFD9F
:1048A0007CB124B228460DB101F03EFE029002A96F
:1048B0006846ADF80C40FFF71FFE02A8FFF752FD57
:1048C0001DE04FF0010200988DF80840D0E84F3FFE
:1048D000A34203D1C0E8412F0029F7D102D08DF8BF
:1048E00008300CE010F10C014FF0010318BF037306
:1048F000BFF35F8F043000F8033CFFF771FF01A89E
:10490000FBF709FE05B030BD704710B5044618210D
:1049100000F02DFC204610BDF8B50F4600F108064A
:10492000051D002416F8011D0A223846FFF796FAE5
:10493000AE42044407D0002CF4D02E213846FFF7B5
:104940004AFA0444EEE72046F8BD000010B50446DC
:10495000044B112240F8043B002101F0A2FD204647
:1049600010BD00BFA4800A080346074A10B543F8EB
:10497000042B01F1100251F8044B914243F8044B0F
:10498000F9D10A781A7010BDA4800A08024A416061
:104990000260042202757047A4800A0810B59DF8D1
:1049A000084044EA032343EA024242EA0161042345
:1049B0004160037510BD000037B5044D05609DF8DA
:1049C00018500095FFF7EAFF03B030BDA4800A0835
:1049D00041747047704708B50021007CFEF706FD62
:1049E00030EA200028BF4FF0FF3008BD08B5012194
:1049F000007CFEF7FBFC30EA200028BF4FF0FF30C0
:104A000008BD08B5007CFEF7E9FC20EAE07008BDAF
:104A100008B5007CFEF7DAFC20EAE07008BD007CF7
:104A2000FEF7F4BC10B50446142100F0A0FB2046AC
:104A300010BD38B50446007C0D46FEF7CFFC0028BB
:104A400001DC607C28B12946207CFEF7D7FC20EAF7
:104A5000E07038BD10B50446002363604FF47A73EC
:104A6000A360054B0846236001232174637411463B
:104A7000FEF79CFC204610BDB8800A080022007C8E
:104A8000FEF79CBC10B504461422002101F009FD7C
:104A9000204610BD30B50E4D87B001A8FFF7F2FFDC
:104AA000296811F0010410D12846FBF7FCFA60B127
:104AB00001AA21460748FFF7CDFF2846FBF7F8FA81
:104AC000054A0649034800F04DFB024807B030BDD7
:104AD0007C0500208405002024010020D5490A0817
:104AE00010B504461422002101F0DBFC204610BD65
:104AF00010B50E4C86B001A8FFF7F2FF2368DB0764
:104B000010D42046FBF7CFFA60B101AA0121084872
:104B1000FFF7A0FF2046FBF7CBFA064A06490448F8
:104B200000F020FB024806B010BD00BF8005002049
:104B30009805002024010020D5490A0800470000FC
:104B4000F0B51C4685B00E4617460546FEF7DCFA62
:104B5000002084424FF0040303908DF80C30B4BF62
:104B600003469DF828303246A4BF8DF80E3003ABC3
:104B7000009306493B462846A8BF8DF80D40FEF736
:104B8000BBFAB0FA80F0400905B0F0BD3D4B0A0811
:104B9000F8B50646FEF7B8FA074668B9084D55F865
:104BA00026405CB12046FFF7F6FA1021204600F0BF
:104BB000DEFA45F8267001E00020F8BD0120F8BDBE
:104BC000AC050020FEF7B0BAFEF7A6BA70474174F4
:104BD000704708B5007CFEF767FB20EAE07008BD6F
:104BE00008B5007CFEF738FB20EAE07008BD08B588
:104BF000007CFEF741FB30EA200028BF4FF0FF3079
:104C000008BD08B5007CFEF72FFB30EA200028BF66
:104C10004FF0FF3008BD007CFEF736BB10B50446F0
:104C2000142100F0A4FA204610BD70B5457C04465E
:104C30000E4625B9007CFEF737FB002805DD31461E
:104C4000207CBDE87040FEF7FFBA284670BD00002A
:104C500010B5044608461146002262604FF47A728D
:104C6000A260054A20742260012262741A46FEF78F
:104C7000E3FA204610BD00BFE8800A08007CFEF77A
:104C80000BBB0000F8B5194C25684DB98420FBF723
:104C900006FA064618B18422294601F002FC266075
:104CA000134D2E684EB98420FBF7F9F9074618B169
:104CB0008422314601F0F5FB2F600E4F396811F068
:104CC000010611D13846FBF7EEF968B1226831468A
:104CD0002B680948FFF7BCFF3846FBF7E9F9074A9C
:104CE0000749054800F03EFA0348F8BD28060020B1
:104CF00020060020240600200C06002024010020AD
:104D0000CD4B0A0810B5836804460BB900F031FAA0
:104D1000C3689847A3681BB10322214620469847E1
:104D20002046BDE81040102100F021BA7047F8B5C8
:104D3000064615460C468F18BC4206D0336814F858
:104D4000011B9B6830469847F6E72846F8BD0022CD
:104D5000007CFEF7B1BA0021007CFEF7B5BA002155
:104D6000007CFEF7B9BA0021007CFEF7BDBA002135
:104D7000007CFEF7C1BA10B50446142100F0F7F923
:104D8000204610BD10B5044608464FF47A73A36060
:104D9000044B0021207461602360FEF7BDFA2046B9
:104DA00010BD00BF18810A080021007CFEF7ACBAD4
:104DB000002211464068FEF7AFBBF0B5164689B039
:104DC00011220F460446002103A801F06AFB304679
:104DD00001F0C5FB0025009581B27B6803AA30462F
:104DE000FEF724FB20B129462046FFF7CFFD03E064
:104DF00003A92046FFF7B8FD204609B0F0BD002208
:104E000011464068FEF7A8BB002211464068FEF735
:104E1000B3BB00224068FEF7A7BB002281F001016E
:104E20004068FEF791BB00231A4619464068FEF71A
:104E300083BB002211464068FEF75EBB00220221C0
:104E40004068FEF761BB00231A464068FEF74CBB82
:104E5000024B04225A60024A1A6070472C06002056
:104E600040810A0800231A464068FEF73DBB002235
:104E700002214068FEF748BB002211464068FEF759
:104E80003BBB002211464068FEF746BB00231A4692
:104E900019464068FEF748BB00231A461946406889
:104EA000FEF74ABB002281F001014068FEF74CBBCF
:104EB00000224068FEF758BB002211464068FEF70A
:104EC0005BBB002211464068FEF746BB70B5164634
:104ED0008EB0044608A8FFF739FD1122002103A86F
:104EE00001F0DFFA304601F03AFB00250A4B00954D
:104EF00081B25B6803AA3046FEF798FA20B12946D2
:104F00002046FFF743FD03E003A92046FFF72CFDF1
:104F100020460EB070BD00BF2C060020034B044A93
:104F200004280CBF10461846704700BF3406002006
:104F30002C060020024B034A1A6000225A60704778
:104F40003406002074810A0810B504460F48FEF7A5
:104F5000BFFB28B1A4F10D03022B01D8002010BD26
:104F600000F0E0F8FFF720FF08B1012CF6D9FFF7B9
:104F700089FEFFF783FE18B1A4F11203012BEDD9CE
:104F8000172C8CBF0020012010BD00BF3C06002064
:104F9000172838B504460D460AD8FF2908D0FFF770
:104FA000D3FF28B129462046BDE83840FEF784B833
:104FB00038BD38B504460D46FEF786F8FF2810D0F8
:104FC000062804D84D2323FA00F0C30709D420464D
:104FD000FFF7BAFF28B129462046BDE83840FEF762
:104FE0007BB838BD10B50446FEF76EF80438C0B281
:104FF000012808D92046FFF7A7FF20B12046BDE8C9
:105000001040FEF771B8002010BD10B50446092805
:105010009CBF0A34A4B22046FFF796FF50B103218B
:105020002046FEF741F8032804D12046BDE8104091
:10503000FEF78AB8002010BD38B504460D46FFF7CC
:1050400083FFF0B104212046FEF72EF8042805D195
:10505000A9B22046BDE83840FEF76EB802212046CE
:10506000FEF722F802280CD12046FEF72DF8012881
:1050700001D0042805D129462046BDE83840FEF776
:1050800073B838BDFEF768B870B50C4C0C4E0D4DBA
:1050900000212046FEF708FB20460B4C32462946ED
:1050A00000F060F801212046FEF7FEFA324629465C
:1050B0002046BDE8704000F055B800BF3C06002017
:1050C0002401002099360A084C06002010B5074C30
:1050D0002368DB0708D42046FAF7E5FF20B1FEF786
:1050E00083F82046FAF7E4FF014810BD600600206F
:1050F0006406002013B5084C00231A461946009395
:105100002046FFF759FC2046044A054902B0BDE895
:10511000104000F027B800BF6806002024010020DE
:1051200009490A0838B50B4D296811F001040FD15F
:105130002846FAF7B8FF58B121460748FFF722FE84
:105140002846FAF7B5FF054A0549034800F00AF872
:10515000014838BD8006002084060020240100207C
:105160002D4D0A080B460146184601F089B8FAF79A
:1051700098BF08B5FEF780FA184B1A68D1075CBFD4
:1051800001221A60164B1A68D2075CBF01221A600E
:10519000144B1A68D0075CBF01221A60124B1A68C0
:1051A000D1075CBF01221A60104B1A68D2075CBF9E
:1051B00001221A600E4B1A68D0075CBF01221A60E8
:1051C0000C4B1A68D1075CBF01221A600A4B1A689F
:1051D000D2075CBF01221A60704700BFB4060020EE
:1051E000B0060020AC060020A8060020A40600207F
:1051F000A00600209C06002098060020244B1A6878
:10520000D0075CBF01221A60224B1A68D1075CBF2D
:1052100001221A60204B1A68D2075CBF01221A6073
:105220001E4B1A68D0075CBF01221A601C4B1A681B
:10523000D1075CBF01221A601A4B1A68D2075CBF03
:1052400001221A60184B1A68D0075CBF01221A604D
:10525000164B1A68D1075CBF01221A60144B1A68FA
:10526000D2075CBF01221A60124B1A68D0075CBFDC
:1052700001221A60104B1A68D1075CBF01221A6024
:105280000E4B1A68D2075CBF01221A60704700BF3C
:10529000E4060020E0060020DC060020D8060020FE
:1052A000D4060020D0060020CC060020C80600202E
:1052B000C4060020C0060020BC060020B80600205E
:1052C000244B1A68D0075CBF01221A60224B1A686F
:1052D000D1075CBF01221A60204B1A68D2075CBF5D
:1052E00001221A601E4B1A68D0075CBF01221A60A7
:1052F0001C4B1A68D1075CBF01221A601A4B1A684E
:10530000D2075CBF01221A60184B1A68D0075CBF35
:1053100001221A60164B1A68D1075CBF01221A607D
:10532000144B1A68D2075CBF01221A60124B1A682C
:10533000D0075CBF01221A60104B1A68D1075CBF0E
:1053400001221A600E4B1A68D2075CBF01221A6054
:10535000704700BF14070020100700200C07002032
:10536000080700200407002000070020FC0600209A
:10537000F8060020F4060020F0060020EC060020CD
:10538000E8060020184B1A68D1075CBF01221A609A
:10539000164B1A68D2075CBF01221A60144B1A68B8
:1053A000D0075CBF01221A60124B1A68D1075CBF9C
:1053B00001221A60104B1A68D2075CBF01221A60E2
:1053C0000E4B1A68D0075CBF01221A600C4B1A689A
:1053D000D1075CBF01221A600A4B1A68D2075CBF72
:1053E00001221A60704700BF3407002030070020F8
:1053F0002C07002028070020240700202007002079
:105400001C0700201807002081F0004102E000BFC7
:1054100083F0004330B54FEA41044FEA430594EA74
:10542000050F08BF90EA020F1FBF54EA000C55EAAF
:10543000020C7FEA645C7FEA655C00F0E2804FEA80
:105440005454D4EB5555B8BF6D420CDD2C4480EA62
:10545000020281EA030382EA000083EA010180EA92
:10546000020281EA0303362D88BF30BD11F0004FE0
:105470004FEA01314FF4801C4CEA113102D0404216
:1054800061EB410113F0004F4FEA03334CEA133351
:1054900002D0524263EB430394EA050F00F0A78069
:1054A000A4F10104D5F1200E0DDB02FA0EFC22FA64
:1054B00005F2801841F1000103FA0EF2801843FA58
:1054C00005F359410EE0A5F120050EF1200E012A49
:1054D00003FA0EFC28BF4CF0020C43FA05F3C01887
:1054E00051EBE37101F0004507D54FF0000EDCF100
:1054F000000C7EEB00006EEB0101B1F5801F1BD3A9
:10550000B1F5001F0CD349085FEA30004FEA3C0CAC
:1055100004F101044FEA445212F5800F80F09A80A2
:10552000BCF1004F08BF5FEA500C50F1000041EBA6
:10553000045141EA050130BD5FEA4C0C404141EBAA
:10554000010111F4801FA4F10104E9D191F0000FD1
:1055500004BF01460020B1FA81F308BF2033A3F154
:105560000B03B3F120020CDA0C3208DD02F1140C4B
:10557000C2F10C0201FA0CF021FA02F10CE002F186
:105580001402D8BFC2F1200C01FA02F120FA0CFC7F
:10559000DCBF41EA0C019040E41AA2BF01EB0451C8
:1055A000294330BD6FEA04041F3C1CDA0C340EDCC6
:1055B00004F11404C4F1200220FA04F001FA02F309
:1055C00040EA030021FA04F345EA030130BDC4F1C7
:1055D0000C04C4F1200220FA02F001FA04F340EABC
:1055E0000300294630BD21FA04F0294630BD94F06D
:1055F000000F83F4801306BF81F480110134013D54
:105600004EE77FEA645C18BF7FEA655C29D094EAC4
:10561000050F08BF90EA020F05D054EA000C04BF42
:105620001946104630BD91EA030F1EBF002100202D
:1056300030BD5FEA545C05D14000494128BF41F0CC
:10564000004130BD14F580043CBF01F5801130BD30
:1056500001F0004545F0FE4141F470014FF00000BB
:1056600030BD7FEA645C1ABF194610467FEA655C6C
:105670001CBF0B46024650EA013406BF52EA03350E
:1056800091EA030F41F4002130BD00BF90F0000FFC
:1056900004BF0021704730B54FF4806404F1320438
:1056A0004FF000054FF0000150E700BF90F0000FF1
:1056B00004BF0021704730B54FF4806404F1320418
:1056C00010F0004548BF40424FF000013EE700BFE8
:1056D00042004FEAE2014FEA31014FEA02701FBF78
:1056E00012F07F4393F07F4F81F06051704792F04A
:1056F000000F14BF93F07F4F704730B54FF46074C4
:1057000001F0004521F0004120E700BF50EA01020E
:1057100008BF704730B54FF000050AE050EA0102BB
:1057200008BF704730B511F0004502D5404261EB2B
:1057300041014FF4806404F132045FEA915C3FF46C
:10574000DCAE4FF003025FEADC0C18BF03325FEA05
:10575000DC0C18BF033202EBDC02C2F1200300FABA
:1057600003FC20FA02F001FA03FE40EA0E0021FADF
:1057700002F11444C1E600BF70B54FF0FF0C4CF4C9
:10578000E06C1CEA11541DBF1CEA135594EA0C0F7F
:1057900095EA0C0F00F0DEF82C4481EA030621EABA
:1057A0004C5123EA4C5350EA013518BF52EA0335F5
:1057B00041F4801143F4801338D0A0FB02CE4FF0A7
:1057C0000005E1FB02E506F00042E0FB03E54FF0D7
:1057D0000006E1FB03569CF0000F18BF4EF0010ECF
:1057E000A4F1FF04B6F5007F64F5407404D25FEACB
:1057F0004E0E6D4146EB060642EAC62141EA55517E
:105800004FEAC52040EA5E504FEACE2EB4F1FD0CBF
:1058100088BFBCF5E06F1ED8BEF1004F08BF5FEA3D
:10582000500E50F1000041EB045170BD06F00046EF
:1058300046EA010140EA020081EA0301B4EB5C049C
:10584000C2BFD4EB0C0541EA045170BD41F4801194
:105850004FF0000E013C00F3AB8014F1360FDEBFB9
:10586000002001F0004170BDC4F10004203C35DA95
:105870000C341BDC04F11404C4F1200500FA05F318
:1058800020FA04F001FA05F240EA020001F00042B9
:1058900021F0004110EBD37021FA04F642EB06012F
:1058A0005EEA430E08BF20EAD37070BDC4F10C0459
:1058B000C4F1200500FA04F320FA05F001FA04F21D
:1058C00040EA020001F0004110EBD37041F1000109
:1058D0005EEA430E08BF20EAD37070BDC4F1200514
:1058E00000FA05F24EEA020E20FA04F301FA05F27C
:1058F00043EA020321FA04F001F0004121FA04F224
:1059000020EA020000EBD3705EEA430E08BF20EAF3
:10591000D37070BD94F0000F0FD101F0004640002D
:1059200041EB010111F4801F08BF013CF7D041EAAF
:10593000060195F0000F18BF704703F000465200B3
:1059400043EB030313F4801F08BF013DF7D043EA84
:105950000603704794EA0C0F0CEA135518BF95EA3A
:105960000C0F0CD050EA410618BF52EA4306D1D1C1
:1059700081EA030101F000414FF0000070BD50EAE0
:10598000410606BF1046194652EA430619D094EA6A
:105990000C0F02D150EA013613D195EA0C0F05D154
:1059A00052EA03361CBF104619460AD181EA0301A8
:1059B00001F0004141F0FE4141F470014FF0000060
:1059C00070BD41F0FE4141F4780170BD70B54FF0FB
:1059D000FF0C4CF4E06C1CEA11541DBF1CEA13557B
:1059E00094EA0C0F95EA0C0F00F0A7F8A4EB05045D
:1059F00081EA030E52EA03354FEA013100F0888054
:105A00004FEA03334FF0805545EA131343EA12631C
:105A10004FEA022245EA111545EA10654FEA0026D1
:105A20000EF000419D4208BF964244F1FD0404F58A
:105A3000407402D25B084FEA3202B61A65EB0305E6
:105A40005B084FEA32024FF480104FF4002CB6EBA3
:105A5000020E75EB030E22BFB61A754640EA0C0023
:105A60005B084FEA3202B6EB020E75EB030E22BF63
:105A7000B61A754640EA5C005B084FEA3202B6EBA4
:105A8000020E75EB030E22BFB61A754640EA9C0063
:105A90005B084FEA3202B6EB020E75EB030E22BF33
:105AA000B61A754640EADC0055EA060E18D04FEAF1
:105AB000051545EA16754FEA06164FEAC30343EA91
:105AC00052734FEAC2025FEA1C1CC0D111F4801F5E
:105AD0000BD141EA00014FF000004FF0004CB6E757
