:02000004080AE8
:1000000000000A0818910A08000006000600050111
:080010000402BD0B000000001A
:04001800AC740A08B2
:10001C0009480A4908B5884205D0094A824202D0EB
:10002C00121A06F00FFD0748074A0021121A06F0B3
:10003C0017FD064808BD00BF00000020CC8F0A0841
:10004C0024010020280100201D0500201D05002092
:10005C0070B504F01FFB0025054E064CA41BA4082C
:10006C00A54200D170BD56F8043B98470135F7E71F
:10007C00948F0A08C08F0A0802F070B908B502F014
:10008C0063FABDE8084004F0C7BA03F039BC03F0CA
:10009C0037BC03F03DBC0078B0FA80F040097047E3
:1000AC000123037070470EB403B503AB53F8042B54
:1000BC000121019304F0F4F802B05DF804EB03B0F5
:1000CC00704738B5046805467CB16368013B6360D2
:1000DC005BB9236820469B689847A368013BA360E3
:1000EC001BB923682046DB689847284638BD0000BA
:1000FC002DE9F04F89B00C46064604F0D7F90746B7
:10010C0004F0E0F9804604F0E9F9814604F0F2F9D4
:10011C00824604F0FBF9834604F000FA134D3B468B
:10012C003246CDE9040412492846CDE902ABCDE9AB
:10013C00008903F0FDFB04F03BFE2946FFF7B3FFFB
:10014C000C4B2A461B780C498DF8003006A83C2332
:10015C0004F0F8FB07A8FFF7B4FF204601F0E2F922
:10016C00C82004F0F1F909B0BDE8F08FDE010020E1
:10017C00C0740A082C01002021750A082DE9F04FE3
:10018C008DB00C461546074604F090F9804604F0F5
:10019C0099F9814604F0A2F9824604F0ABF9834642
:1001AC0004F0B4F9099004F0B9F9184E099B3A46D9
:1001BC00CDE902B3164943460490CDE905453046D6
:1001CC00CDE9009A03F0B4FB04F0F2FD3146FFF7E1
:1001DC006AFF104B32461B780F498DF800300AA885
:1001EC003C2304F0AFFB0BA8FFF76BFF2B4622461A
:1001FC0030460A4903F09CFB2946204601F014FDC9
:10020C00C82004F0A1F90DB0BDE8F08FDE0100208C
:10021C002D750A082C01002021750A0892750A0810
:10022C000122014B1A7070472C01002030B5613847
:10023C0087B0192816D8DFE800F03235152B1515C4
:10024C00150D171515151515155015153B5B49157D
:10025C006971778001224E4B1A600A224D4B1A604D
:10026C0001F080FA07B030BD4B4CE368272B8CBFF4
:10027C0028230433E36005F07BF814220020464960
:10028C0003F016F9E26845494548FFF777FFE9E7BF
:10029C00414CE368062B94BF0623043BEAE701F0CC
:1002AC00BBFDDFE73F4B0120196802F077FFD9E770
:1002BC000024394D3C486C6001F034F905F058F8D5
:1002CC0014222946002003F0F3F8CBE70024324D2A
:1002DC00364801F027F92C61F0E701232E4C344805
:1002EC00636001F01FF905F043F814222146E9E799
:1002FC0000F03AFA2F4B304A1B6812682F493048ED
:10030C0003F016FB2E4801F00DF9ABE72D4801F078
:10031C0009F905F02DF814221F49D3E72A4801F0FA
:10032C0001F900F095F99DE7284801F0FBF837201A
:10033C0000F044FB01F010F994E702A803F0B8FABE
:10034C0002A9234801F04CFC02A803F06BFE214BE0
:10035C0000221B7820498DF8003002A83C2304F0C1
:10036C00F1FA039C7CB16368013B63605BB9236861
:10037C0020469B689847A368013BA3601BB9236880
:10038C002046DB6898474FF4FA7004F0DDF869E713
:10039C003403002030030020D80200209A750A088C
:1003AC00B4750A08BC030020BC750A08D1750A088C
:1003BC00F4750A082C030020280300200A760A088A
:1003CC00840300201C760A0836760A0843760A084D
:1003DC0053760A082D01002062760A0808B504F04D
:1003EC00E7FC03685B699847BDE80840C0B2FFF7BB
:1003FC001DBF00000022014B1A7070472D01002018
:10040C00002300220383C261036243628362C362DE
:10041C0080F8303080F831304386704738B5044668
:10042C00154602F0FCF94FF47A7320462575E382E9
:10043C00FFF7E6FF38BD00002DE9F0410B680446DC
:10044C0003624B6800F1200543620B78262B60D0C9
:10045C0008D8102B0AD0222B59D0002084F8310058
:10046C00BDE8F081282BF8D1022300E0012384F8A9
:10047C003130204602F0E0F92946204602F096FA87
:10048C00227D4421204602F066FAE08A04F05CF8F2
:10049C00204602F0D1F92946204602F087FA0022C4
:1004AC00B821204602F057FA00222046114602F0ED
:1004BC0052FA204602F0C0F92946204602F076FA9C
:1004CC000022BE21204602F046FA94F83130042B6B
:1004DC0004D100222046114602F03DFA04F1280511
:1004EC002E4604F13107204602F050FA05F8010BB4
:1004FC00AF42F8D10821304602F0E3FA94F83030DC
:10050C00834208D00123002084F83330A8E703236A
:10051C00ADE70423ABE794F8290094F8283043EABC
:10052C000023238394F83130042B47D194F82A808C
:10053C00C50840EA08232383404684F8295005F077
:10054C0099FD05F007FA064628460F4605F092FD80
:10055C0005F000FA0022244B05F054FA18F0800F35
:10056C0002460B4625D03046394605F093F805F087
:10057C007BFC15E094F82C20B4F9183012F06002D2
:10058C0002D123F007032DE0202A0CD0402A0DD0F5
:10059C00B4F9180005F072FD4FF0765105F0C2FD6C
:1005AC00E06101205CE723F003031BE023F001036F
:1005BC0018E032463B4605F06FF8D8E7032BF0D82D
:1005CC00012BD7D8EDD1B4F9183094F82F20DB00DB
:1005DC00102A2383DCD194F82E2023F00F03C2F1D0
:1005EC000C0213442383D3E70000A03F38B5044624
:1005FC00FFF706FF00F12005294602F0EFF938B9A4
:10060C000123204684F8323002F0E2F9002038BD94
:10061C000721284602F055FA94F82730834203D07C
:10062C00012384F83330F1E729462046BDE83840F1
:10063C00FFF702BFC069704750F8203F0B6043685A
:10064C004B60704790F83200704790F83300704759
:10065C00F8B5284C04F0ACFB2749FFF724FD032622
:10066C002546264F02F09EF802F0B6F8206004F002
:10067C009FFB394654F8042BFFF715FD01F0D4FF0E
:10068C00962003F061FF013EECD1D5E90032032442
:10069C001344AA681344B3FBF4F4022B04EB440593
:1006AC00A5EB030507D816491648FFF721FD4FF4B3
:1006BC007A742046F8BD04F07BFB0F3C2A461249A5
:1006CC00FFF7F1FC04F074FB22461049FFF7EBFC3A
:1006DC002146C4F5B4740E4844EAE47401F0A4FA5B
:1006EC0004F066FB22460B49FFF7DDFC01F09CFF92
:1006FC00DFE700BF3001002077760A088E760A0803
:10070C00A6760A08D0760A08D7760A08EA760A0886
:10071C000A770A0816770A080EB403B503AB53F828
:10072C00042B0021019303F0BBFD02B05DF804EB38
:10073C0003B0704707B50A48FFF787FF40B104F0D4
:10074C0037FB084903F072FD002003B05DF804FB91
:10075C0003486946FFF770FF9DF80700F5E700BFF7
:10076C003C01002033770A082DE9F74304F020FB05
:10077C00234903F06EFD0026224DDFF89480DFF84C
:10078C0094902846FFF732FF20B3FFF7D3FF0446BF
:10079C0004F00EFB07462846FFF74CFF05F0DAF88D
:1007AC0033462246CDE9000141463846FFF7B4FFF7
:1007BC002146484601F038FAFA2003F0C5FE252CF4
:1007CC0006F1010613D12846FFF734FF05F070FE41
:1007DC000D4B18602846FFF735FF0028D1D009488B
:1007EC00FFF728FF05F064FE03B0BDE8F083972CFB
:1007FC00F0D12846FFF71EFF05F05AFE034BE8E741
:10080C003F770A083C010020280300202C0300201D
:10081C0051770A087C770A08002205210148FFF766
:10082C00FDBD00BF3C01002010B590F84940621C92
:10083C00D2B204443F2A80F84920617202D903687D
:10084C001B699847012010BD03685B691847704706
:10085C0010B504464C2104F0FEFD204610BD70B5C9
:10086C00044608460E4606F054F96368A268451C17
:10087C00E918914208D820682A463146184406F0F7
:10088C00E1F860682844606070BD000010B5044C4D
:10089C0014222146002002F00BFE204610BD00BFA2
:1008AC00D802002013B50446054B00221B780549DD
:1008BC008DF800303C2304F045F8204602B010BD02
:1008CC00DC01002062760A0810B504F071FA5B2195
:1008DC0003F0B0FC04F06CFA044602F047FD0A2267
:1008EC000146204603F0BFFC04F062FABDE810405C
:1008FC00014903F09BBC00BF86770A0808B502F0DB
:10090C00BFFD034B1860BDE8084002F0C1BF00BF3B
:10091C00B00400200346006820B15B68984201D205
:10092C0005F084BF0020704738B50568044645B112
:10093C0043689D4205D2284606F0EBF80130054489
:10094C002560204638BD03460A4610B429B903C8B1
:10095C004C1C5C60425410BC704710BCFFF77FBF4E
:10096C0038B5044625680B46D4E90101044A091A36
:10097C00284402F0EDFF636801300344636038BD26
:10098C0089770A0838B5044625680B46D4E9010175
:10099C00044A091A284402F0DBFF6368013003445F
:1009AC00636038BD8C770A0810B503F07FFD0446F0
:1009BC0003F088FD3C2303FB040010BD10B5044676
:1009CC0003F080FD241A48BF3C3404F0F1F92246B0
:1009DC000249FFF768FB204610BD00BF90770A085C
:1009EC0038B50A2004F085FC4FF420450B4C0C4B19
:1009FC006043B0FBF5F018600C2004F07AFC604307
:100A0C00B0FBF5F0074B18600B2004F072FC44436C
:100A1C00B4FBF5F4044B1C6038BD00BF4C2A02003B
:100A2C0074010020780100207001002008B502F04C
:100A3C0063F801F0A9FE0121084604F01DFC012118
:100A4C00022004F019FC0021022004F026FC0021F5
:100A5C00012004F022FC0021084602F033FA0021A8
:100A6C000E4B1860084602F0DFFA0D4B012118609E
:100A7C00072004F001FC0021062004F0FDFB04F02B
:100A8C0077FC14220020074902F00AFD40F2A5125F
:100A9C00054B1A600022054B1A6008BD1C03002090
:100AAC0024030020D8020020BC030020EC0200200C
:100ABC0010B5062004F00AFC0128084C04D1206073
:100ACC0007490848FFF714FB074B5B68012B03D160
:100ADC0006490448FFF70CFB206810BDF00200200B
:100AEC00B5770A08CF770A08D8020020D7770A080A
:100AFC0010B5062004F0EAFB431E064C5842584140
:100B0C00206004F055F922680349FFF7CCFA2068FD
:100B1C0010BD00BFF0020020ED770A082DE9F0436C
:100B2C0085B003F0E7FC044603F0F0FC054603F047
:100B3C00F5FC064603F0BAFC074603F0C3FC8046FE
:100B4C0003F0CCFCDFF828902B462246CDE902803E
:100B5C0006494846CDE9006702F0EAFE04F028F9A0
:100B6C00494605B0BDE8F04303F060BB02780A08C3
:100B7C008403002010B50446034B40F8183BFFF7E4
:100B8C00A0FA204610BD00BF688B0A0838B5054690
:100B9C004AB90268C9B2926890470446284603F0E5
:100BAC004CFB204438BDD2B203F05DFBF5E70000EE
:100BBC00F0B5476B044687B00FB3FFF785FE04F022
:100BCC00F7F8314903F032FB04F0F2F8616B03F0F3
:100BDC002DFB04F0EDF83A2103F02CFB04F0E8F8BF
:100BEC000A22218FFFF7D2FF00232046228F616B50
:100BFC0003F0E2F9431E5842584107B0F0BDFFF72D
:100C0C0063FE04F0D5F8204903F010FB04F0D0F893
:100C1C000A2294F8231003F026FB04F0C9F82E21C5
:100C2C0003F008FB04F0C4F80A2294F8221003F035
:100C3C001AFB04F0BDF82E2103F0FCFA04F0B8F80E
:100C4C000A2294F8211003F00EFB04F0B1F82E21C7
:100C5C0003F0F0FA04F0ACF8254606460A2215F823
:100C6C00201F03F000FB304603F0E7FA074B01AE00
:100C7C0000930FCD0FC62B686946337020463B4658
:100C8C00228F03F027F8B5E720780A08F08B0A08C2
:100C9C0008B500234377006803F0C6F8BDE80840A8
:100CAC0002F068BB2DE9F04301EB02088FB041451F
:100CBC0007460D469146CDE9051880F09E8005A8A3
:100CCC000E88FFF731FE0368984540F2968005A820
:100CDC00FFF720FE47F276239E42C4B200F0B580A7
:100CEC0028D847F261239E4200F08A8047F26423A1
:100CFC009E424DD046F670539E4228D1684E694FA5
:100D0C00DFF8B891059B984577D905A8FFF702FE47
:100D1C00C5B205A8FFF708FE059C3146204605F034
:100D2C00CBFE014638BB284604F0A6FA05A8FFF70F
:100D3C00FBFDE7E747F264739E424AD047F27673B5
:100D4C009E4200F0928047F261739E426AD0FFF798
:100D5C00BBFD04F02DF8544903F068FA04F028F8B0
:100D6C00294603F076FA00230222CDE901330092E2
:100D7C0019467A8B29E03946204605F09DFE28B1AC
:100D8C004946204605F098FE0028CFD10121CAE73C
:100D9C000AAB079300251023444907A8CDE9085353
:100DAC00FFF75DFD07A82146FFF7DAFD204604F0AA
:100DBC008DFA014607A8FFF7E5FD2A461421089B8A
:100DCC00CDE90155013B0093079B384600F0D2FA60
:100DDC0013E005A8FFF7A8FD036898450DD9A4B248
:100DEC000121204604F048FA05A8FFF793FD011EE7
:100DFC0018BF0121204604F050FA0FB0BDE8F08373
:100E0C000AAB07930025102307A82949CDE90853FD
:100E1C00FFF725FD07A82146FFF7A2FD204604F0A9
:100E2C0068FAC6E705A8FFF77FFD03689845E4D983
:100E3C00A4B20121204604F01FFA05A8FFF76AFDB1
:100E4C000146204604F06CFAD7E720468DF828407E
:100E5C0002F092FA03460AA823B1164A934201D033
:100E6C009847CAE702F084FAC7E705A8FFF75CFDCC
:100E7C00059B20465D1BA9EB0505CDE90A350C95B4
:100E8C008DF81C4002F082FA03460AA907A823B188
:100E9C00094A934201D09847AFE702F06AFAACE7EF
:100EAC002F780A08D6780A083C780A0836780A0897
:100EBC0039780A087D330A087F330A0832780A0821
:100ECC002DE9F0418CB004AF044605220068391DB1
:100EDC0003F02CFA00284DD0052804D00020203730
:100EEC00BD46BDE8F081B7F80520130A43EA02239A
:100EFC00B7F8072099B2A7F80530130A43EA022382
:100F0C001FFA83F8A7F807300029E7D03B79002BAC
:100F1C004FD102F02BFA657FE060B7F80700002D87
:100F2C0043D1B7F80530012B3FD1092824D0C8286C
:100F3C0001D004282AD10125FFF7C6FC03F038FFA5
:100F4C00AF4903F073F903F033FF6369E1680A22D8
:100F5C00C91A03F088F903F02BFFAA4903F079F9B9
:100F6C00E36820466361657700F01AFFFFF7C6FC63
:100F7C0002F000FA0120B2E7FFF7A6FC03F018FF1D
:100F8C00A14903F066F903236377A7E7FFF79CFCFD
:100F9C0003F00EFF9D4903F049F903F009FF0A2203
:100FAC00B7F80710FFF7F2FD98E7053818BF0120D6
:100FBC0095E7B8F5806F11D9FFF786FC03F0F8FEC2
:100FCC00934903F033F903F0F3FE0A22B7F8071044
:100FDC00FFF7DCFD2046FFF75BFECBE708F10803CB
:100FEC0023F007036E46ADEB030D04AD42462946D4
:100FFC00206803F09BF980454FF0000077D1B7F8DB
:10100C000730E85402F0B2F93B79E060142B00F0A1
:10101C00B48038D80F2B00F0B08007D8022B39D011
:10102C00062B49D02046FFF733FE50E0112BF9D1A7
:10103C0000233B70B7F807302B449D42C7E903539C
:10104C0045D207F10C002C68FFF76EFCFA68B7F874
:10105C000730551B5D1B6F4BC7E905259C42FD6195
:10106C0000F0B58000F296806B4B9C4200F0A380A0
:10107C0003F5003303339C4229D1384607F11401A0
:10108C0002F077F923E0292B23D0372B00F0A58031
:10109C001D2BC7D1637F7BB9FFF716FC03F088FECD
:1010AC005E4903F0D6F801232046637700F078FE02
:1010BC00FFF724FC02F05EF90023C821B7F80520E5
:1010CC0020460091CDE90133194600F053F9012077
:1010DC000DE0A3681BB9202002F012FCA060B7F849
:1010EC000780A8444545C7E9055802D30020B546FA
:1010FC00F5E6294600252022A06805F024FDA3680A
:10110C0007F11400DD77FFF70FFC0368434532D27B
:10111C00786920B1BB6998422BD205F08BFB85B264
:10112C00FFF7D2FB03F044FE3D4903F07FF803F0D8
:10113C003FFEA16803F07AF803F03AFE3A2103F07F
:10114C0079F803F035FE0A222946FFF71FFD2068C7
:10115C0002F06AFE2368A2681D875A630023637736
:10116C0002F004F9A0F59C500838C4E90300606152
:10117C00ADE72846D3E75025D2E77B682946C3F371
:10118C000F2363832046B7F80720FFF78BFD00235E
:10119C0063839CE7234B9C4213D003F19F6303F5BD
:1011AC00003303F580739C4291D1384607F114014A
:1011BC0002F0DFF88BE7384607F1140102F0D9F89A
:1011CC0085E7384607F1140102F0D3F87FE738467B
:1011DC0007F1140102F0CDF879E7B7F80730002BCE
:1011EC003FF475AFFFF770FB03F0E2FD0E4903F01F
:1011FC001DF803F0DDFD294603F02BF867E700BF6F
:10120C004D780A085B780A0860780A0873780A082F
:10121C008A780A086D6574616F7461009B780A089E
:10122C00A1780A0861636F6EB1780A082DE9FF4155
:10123C0004460D46FFF762FB637F022B00F094809F
:10124C00237F628B0133DBB223770AB1012516E0D1
:10125C00022BFBD8206802F03EFEB8B125B92068FD
:10126C0002F0A8FD002811DD2046FFF729FE0546F7
:10127C000028F4D1206802F0D7FD02F07BF8237F20
:10128C00013B2377284604B0BDE8F08102F06EF8EC
:10129C000746206802F01FFE657F0646012D2DD102
:1012AC0028B967612046FFF7F3FC0025E7E744F611
:1012BC003822E368FB1A934207D9FFF705FB03F0CA
:1012CC0077FD2A4902F0C5FFECE742F21072934217
:1012DC0003D82369FB1A9342B8D940F6B832636934
:1012EC00FB1A9342B2D9002306211A462046CDE9B7
:1012FC000133009300F03EF86761A7E7002DA5D1FC
:10130C006369FB1A78B140F6B83293429ED9FFF765
:10131C00DBFA03F04DFD164902F09BFF206802F04A
:10132C0083FD6577ABE741F2883293428ED9206812
:10133C0002F07AFD2068FFF73BFC054608B96761AF
:10134C009DE70127D4F804802783404605F0E1FB94
:10135C00434600903A461D212046CDE9016600F037
:10136C0009F8236963618AE700258BE7BA780A08D4
:10137C00CC780A082DE9F04F83B0044600AF006822
:10138C00884616469946EB463D6B02F0A4FD0028B4
:10139C007FD0B8F11D0F04D84C4B23FA08F3DB07B0
:1013AC0002D4637F012B74D146B9668B36B9238B7B
:1013BC0001339BB2002B71D02383268BA8F10C0335
:1013CC00082B16D8D4E90323934238BF134603F1F4
:1013DC00420A01F0CBFFAAEB0000002860DB0021E1
:1013EC002046FFF723FF01F0C1FFAAEB0000002805
:1013FC00F5DAB9F1000F5AD06B1D7A6B76BA002A68
:10140C00BA6B08BF002203EB020A0AF1070323F0B0
:10141C000703ADEB030DBB6BC7F804D0EA18C2F39E
:10142C00072343EA02238DF80080ADF80160ADF884
:10143C000330B9F1000F3CD0002D3AD02A46494672
:10144C000DF1050005F0FEFA681D7B6B3BB1BB6B23
:10145C002BB11A467B68796B184405F0F3FA00251A
:10146C0055452AD2AAEB05027B68B2F5806F28BFDE
:10147C004FF480622068591902F061FB0646002087
:10148C0001F072FFBEB9206802F0CEFC667701F065
:10149C0071FFDD460C37BD46BDE8F08F01238BE7AD
:1014AC00217F0029A5D12046FFF7C0FEA1E7052327
:1014BC00A3E70520C9E73544D2E703D02046FFF760
:1014CC00E7FBE6E701F052FF2061E2E74500002070
:1014DC00F0B590F8496004468BB0E6B105AB002539
:1014EC0007930823077A0D4907A8CDE90853FFF79E
:1014FC00B6F9394607A8FFF733FA04F1090301934B
:10150C00089B2A4600931421079B05480296FFF777
:10151C0031FF84F849500BB0F0BD00BFDA780A08EF
:10152C007C01002010B50446FFF7F8FA03F040FCEC
:10153C00214602F08EFE064B1B68012B06D121467C
:10154C00044802F086FE0348FFF7C2FF10BD00BF3F
:10155C0034030020380300202DE9F041051E88B02B
:10156C0040F3C480782DA8BF7825614F614B7C680F
:10157C001B68614E1C4333681C4340F0B4805F48C9
:10158C00FFF7D0FF2146204601F09CFC5C4B214626
:10159C001860204601F048FD5A4B21461860204641
:1015AC0001F0E0FD4FF03C08306001264FF47A70FA
:1015BC0002F0CAFF2A4654495448FEF7DFFD4FF4A7
:1015CC007A7002F0C1FF08FB05F5514B32461B68DF
:1015DC000DF11601029306A80DF11503CDE9006576
:1015EC00ADF816608DF8156002F046FA4948FFF721
:1015FC0099FF49494948FEF77BFDFA684849474835
:10160C00FEF7BCFD334622464649CDE90044464828
:10161C0002F05EF9234622464449CDE90044444891
:10162C0002F056F94FF4FA7002F08EFF06A8FFF79D
:10163C0039F907A8FEF745FD4FF4FA7002F084FF64
:10164C003C4B3D4A1B783D498DF8003006A843467B
:10165C0003F078F907A8FEF734FDFFF7A5F9384B2E
:10166C001860FFF7E3F903F083FE14223946204695
:10167C0001F016FFFB68043B242B05D91023FB60FB
:10168C0003F076FEFFF702F9BB68012B03D12D495D
:10169C002248FEF72DFD2C4C2C4DFFF765F803F07E
:1016AC0087FB22682B682A49FEF7FDFC22682B6811
:1016BC002849294802F03CF927491848FEF718FD3B
:1016CC0002F0F4FE044602F0F1FE082C04DD0A28B8
:1016DC0002DC5F2001F09EFD4EF660221F4B1A606B
:1016EC0000221F4B1A6008B0BDE8F08105253CE7CD
:1016FC00D8020020F00200201C030020DD780A082C
:10170C002003002024030020F5780A08D0760A086C
:10171C00D801002010790A0822790A0834790A08BD
:10172C003C790A087D1A0A0862760A08011B0A0825
:10173C0055790A08DD010020DE01002063790A08D2
:10174C00B803002070790A08280300202C0300201D
:10175C009E790A080A760A0884030020F402002005
:10176C003403002008B51148FFF7DCFE1048FFF7E2
:10177C00D9FE1048FFF7D6FE0F48FFF7D3FE0F48EF
:10178C00FFF7D0FE0E48FFF7CDFE0E48FFF7CAFE5E
:10179C000D48FFF7C7FE0D48FFF7C4FE0C48FFF7D6
:1017AC00C1FEBDE808400B48FFF7BCBEBB790A0878
:1017BC00C3790A08CF790A08E3790A08057A0A0876
:1017CC00257A0A08397A0A084E7A0A08757A0A08BC
:1017DC00927A0A08A37A0A0808B5086805F026F870
:1017EC0001280DD10748FFF79DFE0023064A074943
:1017FC001360074A07481360BDE80840FEF778BC41
:10180C0008BD00BFC17A0A0834030020D67A0A0842
:10181C0030030020CF770A0808B5086805F006F8F1
:10182C0001280DD1074B18600748FFF77BFE0A22F1
:10183C00064B07491A600748BDE80840FEF758BC3C
:10184C0008BD00BF34030020F87A0A0830030020DA
:10185C000C7B0A08CF770A0808B5086804F0E6FF85
:10186C0001280ED1074B586003F082FDFFF70EF8EC
:10187C0005480649FEF73CFCBDE808400448FFF764
:10188C0051BE08BDD8020020CF770A082D7B0A086C
:10189C004D7B0A0808B5086804F0C8FF01280FD171
:1018AC000022084B5A6003F063FDFEF7EFFF064879
:1018BC000649FEF71DFCBDE808400548FFF732BE9F
:1018CC0008BD00BFD8020020CF770A08737B0A0836
:1018DC00927B0A0808B5086804F0A8FF01280BD110
:1018EC00FA2001F097FC05480549FEF701FCBDE81C
:1018FC0008400448FFF716BE08BD00BFCF770A08A2
:10190C00B77B0A08D47B0A0808B5086804F08EFF78
:10191C0001280ED10021084601F086FB054B064933
:10192C0018600648FEF7E4FBBDE808400448FFF7E2
:10193C00F9BD08BD24030020FD7B0A08CF770A08F7
:10194C00207C0A0808B5086804F070FF01280ED145
:10195C00074B986003F00CFDFEF798FF054806490D
:10196C00FEF7C6FBBDE808400448FFF7DBBD08BD29
:10197C00D8020020CF770A08487C0A08747C0A0831
:10198C0008B5086804F052FF01280FD10022084B5B
:10199C009A6003F0EDFCFEF779FF06480649FEF766
:1019AC00A7FBBDE808400548FFF7BCBD08BD00BF5C
:1019BC00D8020020CF770A08907C0A08BA7C0A0863
:1019CC0008B5086804F032FF01280ED1074BD9681E
:1019DC0001F078FA064B074918600748FEF788FBB8
:1019EC00BDE808400548FFF79DBD08BDD8020020A2
:1019FC0020030020D47C0A08CF770A08EA7C0A0866
:101A0C0008B5086804F012FF01280ED10021084621
:101A1C0001F058FA054B064918600648FEF768FBBA
:101A2C00BDE808400448FFF77DBD08BD2003002039
:101A3C00117D0A08CF770A08107D0A0810B50446F4
:101A4C00FFF76CF803F0B4F9216802F002FC064BC6
:101A5C001B68012B06D12168044802F0FAFB0348ED
:101A6C00FFF736FD10BD00BF340300203803002003
:101A7C0070B505461E4E8CB00C4604A8314602F0DB
:101A8C001BFB2946684602F017FB694604A802F0C6
:101A9C007CFB014608A802F04EFB08A8FFF7CEFF1E
:101AAC0008A802F0BFFA684602F0BCFA04A802F0DB
:101ABC00B9FA314604A802F0FFFA2146684602F052
:101ACC00FBFA694604A802F060FB014608A802F084
:101ADC0032FB08A8FFF7B2FF08A802F0A3FA684689
:101AEC0002F0A0FA04A802F09DFA0CB070BD00BF81
:101AFC00357D0A0870B50D468CB0324904A802F049
:101B0C00DBFA2946684602F0D7FA694604A802F0C7
:101B1C003CFB014608A802F00EFB08A8FFF78EFF5D
:101B2C0008A802F07FFA684602F07CFA04A802F0DA
:101B3C0079FA294604A802F0BFFA234908A802F052
:101B4C00BBFA08A904A802F042FB204CA668002EA0
:101B5C0014BF002600F0010608A802F063FA04A8DE
:101B6C0002F060FA4EB10123A36003F001FCFEF712
:101B7C008DFE17491748FEF7BBFA294604A802F058
:101B8C009BFA154908A802F097FA08A904A802F0D4
:101B9C001EFBA568012D14BF002500F0010508A847
:101BAC0002F040FA04A802F03DFA4DB10023A36004
:101BBC0003F0DEFBFEF76AFE08490648FEF798FACA
:101BCC000CB070BD357D0A08427D0A08D802002091
:101BDC00467D0A08CF770A082A7B0A08737D0A0813
:101BEC0038B504460D46FEF799FF2B6822460A4984
:101BFC000A4801F09DFE03F0DBF8084902F029FBCE
:101C0C00074B1B68012B06D10449064802F021FB47
:101C1C000448FFF75DFC38BD9E7D0A08DE010020FC
:101C2C00340300203803002038B504460D46FEF777
:101C3C0075FF2B4622460A490A4801F079FE03F04B
:101C4C00B7F8084902F005FB074B1B68012B06D1BE
:101C5C000449064802F0FDFA0448FFF739FC38BD88
:101C6C009E7D0A08DE01002034030020380300208A
:101C7C00002273B5314B1146586801F0C1FD044682
:101C8C0001F00EFE0546FEF749FF2D4B1B68012B9C
:101C9C0003D12C492C4802F0DCFA2C4B2C4E196841
:101CAC002C48FFF7C1FF03F083F832682A49FEF78E
:101CBC0033FD31682948FFF7B7FFFEF719FFFEF730
:101CCC008FFE274B27481968FFF7AEFF264B274896
:101CDC001968FFF7A9FF264B26481968FFF7A4FFE0
:101CEC00012003F0F3FA244A0128106002D12348A2
:101CFC00FFF718FC022003F0E9FA214A01281060D2
:101D0C0002D12048FFF70EFC03F052F81E4B1F497E
:101D1C001A68FEF7C8F903F04BF81D4B1D491B68F8
:101D2C001D4A0093002D14BF0B461346002C18BF00
:101D3C000A461A49FEF7B7F902B070BD90040020AC
:101D4C00340300208403002038030020B803002053
:101D5C00BC030020A47D0A08AC7D0A08BD7D0A08DE
:101D6C0074010020F37E0A0878010020287F0A08FD
:101D7C0070010020C87D0A0820030020D87D0A08C5
:101D8C0024030020E97D0A0824000020FE7D0A08B7
:101D9C00F40200202A7B0A08427D0A080F7E0A08FA
:101DAC0000B595B004AB0022019350231121009390
:101DBC000292034BFFF7DEFA15B05DF804FB00BF8F
:101DCC003C810A08F0B5ADF2244D08AB00240F4657
:101DDC0005934FF48063164605460E4905A8CDE9D8
:101DEC000643FEF73CFD394605A8FEF7B9FD314622
:101DFC0005A8FEF7A8FD069B2246013B0093142183
:101E0C002846CDE90144059BFFF7B4FA0DF2244DA9
:101E1C00F0BD00BFDA780A0830B5594C87B02046BF
:101E2C00FFF756FB574A217A5748FFF7CBFFFEF7CF
:101E3C0075FE564B1B68012B03D12046544902F00A
:101E4C0008FA3720FEF7BAFD524902A802F073F9DE
:101E5C0002A95148FFF7C4FE02A802F0E3F802A859
:101E6C00FEF720FD03A8FEF72CF94FF4FA7002F0F0
:101E7C006BFB4A4B4A4C1B784A4A4B498DF8003055
:101E8C0002A83C2302F05EFD03A8FEF71AF903F04A
:101E9C006FFA14222146002001F002FB216843480E
:101EAC00FFF7C2FE61684248FFF7BEFEA1684148D9
:101EBC00FFF7BAFEE1684048FFF7B6FE21693F48DC
:101ECC00FFF7B2FEA2683E493E48FEF757F9E268BA
:101EDC003D493C48FEF752F9226938493948FEF72A
:101EEC004DF9FEF7B5FB394B394D186002463949AF
:101EFC003448FEF743F9FEF7DBFDFEF771FD2B6866
:101F0C00B3F57A7F0AD902F053FF2A683249FEF7FB
:101F1C00CAF82A6831493248FEF730F9314D2B683E
:101F2C00B3F57A7F0AD902F043FF2A682E49FEF7EF
:101F3C00BAF82A682D492A48FEF720F9A368012B24
:101F4C0003D12B491F48FEF7D3F82A4C2A4DFEF734
:101F5C000BFC21682948FFF767FE29682848FFF722
:101F6C0063FE2B6822682749094801F0E1FC084907
:101F7C002548FEF7BDF82548FFF7D4FA07B030BD69
:101F8C0038030020327E0A087C0100203403002034
:101F9C0084030020FC02002053760A08DD01002097
:101FAC00D8020020DE01002063790A08367E0A0878
:101FBC004C7E0A08627E0A08787E0A088E7E0A0821
:101FCC00A47E0A08D0760A08B17E0A0824000020F4
:101FDC0074010020C37E0A08D27E0A08EC7E0A082F
:101FEC00037F0A0878010020077F0A08217F0A086E
:101FFC0070790A08280300202C030020387F0A0877
:10200C00447F0A080A760A08CF770A08507F0A0824
:10201C002DE9F041ADF5846D1E4608AB00248846D1
:10202C0005934FF4806317460546104905A8CDE982
:10203C000643FEF714FC414605A8FEF791FC394611
:10204C0005A8FEF780FC314605A8FEF77CFC069B34
:10205C002246013B009314212846CDE90144059BFF
:10206C00FFF788F90DF5846DBDE8F081DA780A0880
:10207C0010B50C460B6805481621054AFFF7C8FF3A
:10208C002368BDE810401878FEF7D0B87C0100201A
:10209C006A7F0A08F0B5ADF2244D08AB00240F4658
:1020AC0005934FF48063164605460E4905A8CDE905
:1020BC000643FEF7D4FB394605A8FEF751FC314622
:1020CC0005A8FEF74DFC069B2246013B009314210C
:1020DC002846CDE90144059BFFF74CF90DF2244D40
:1020EC00F0BD00BFDA780A0810B5086804F09EFB52
:1020FC00012804460BD10648FFF714FA2146204666
:10210C0000F0B4FDFF2221460248FFF7C3FF10BDCB
:10211C00757F0A087C01002010B5086804F086FB66
:10212C00012804460BD10648FFF7FCF90021204694
:10213C0000F09CFDFF2202210248FFF7ABFF10BD0F
:10214C00817F0A087C01002010B5086804F06EFB42
:10215C00012804460BD10648FFF7E4F9214602207A
:10216C0000F084FDFF2214210248FFF793FF10BDFD
:10217C008D7F0A087C01002008B5086804F056FB26
:10218C0001280DD1FEF7CAFC0648FFF7CBF9002158
:10219C00022000F06BFD002214210348FFF77AFFA8
:1021AC0008BD00BF997F0A087C01002010B50868A3
:1021BC0004F03CFB012804460BD10648FFF7B2F9AA
:1021CC002146032000F052FDFF2214210248FFF7A4
:1021DC0061FF10BDA57F0A087C01002008B50868C6
:1021EC0004F024FB01280BD10648FFF79BF90021D2
:1021FC00032000F03BFD002214210348FFF74AFFA7
:10220C0008BD00BFB17F0A087C01002008B5086832
:10221C0004F00CFB01280BD10022064B1A60064B74
:10222C00196800F0BBFFFF2214210448FFF732FFAE
:10223C0008BD00BFEC020020BC0300207C01002084
:10224C0008B5086804F0F2FA012810D100210846FC
:10225C0000F088FF0021064B1860084600F032FEA3
:10226C00044B0022186014210348FFF713FF08BD2C
:10227C001C030020200300207C01002010B50868FE
:10228C0004F0D4FA012804460BD10648FFF74AF9AA
:10229C002146052000F0EAFCFF2214210248FFF73A
:1022AC00F9FE10BDBD7F0A087C01002008B5086846
:1022BC0004F0BCFA01280BD10648FFF733F90021D2
:1022CC00052000F0D3FC002214210348FFF7E2FEA6
:1022DC0008BD00BFC97F0A087C01002010B5086842
:1022EC0004F0A4FA0128044613D10A48FFF71AF99E
:1022FC002146204600F05CFD2146022000F058FDEE
:10230C002146032000F054FDFF2214210248FFF760
:10231C00C1FE10BDD57F0A087C01002010B50868ED
:10232C0004F084FA0128044613D10A48FFF7FAF89E
:10233C000021204600F03CFD0021022000F038FD79
:10234C000021032000F034FD002214210248FFF785
:10235C00A1FE10BDE87F0A087C0100202DE9F041A8
:10236C0086B002F025FD4FF4E13102F015FD4FF47B
:10237C00FA6002F0E9F84FF0804002F04BF802F0FE
:10238C0017FD5A49FDF78FFE02F012FD5749FDF774
:10239C008AFE02F00DFD5649FDF785FE02F008FDA0
:1023AC005449FDF780FE544C02F002FD5049FDF7F4
:1023BC007AFE02A801F07CFA02A9204601F0C6FEC2
:1023CC0002A801F02FFE02F0F3FC21680024FDF7B7
:1023DC006AFE012322464949CDE90044484801F0F0
:1023EC0077FA02A8FEF75EFA03A8FDF76AFE234609
:1023FC0022464449CDE90044434801F069FA434B75
:10240C00434A1B7843498DF8003002A83C2302F064
:10241C0099FA03A8FDF755FE40F6B83000F0A4FF7A
:10242C003D4D3E4B42F227376B6000F09FFFA0F50D
:10243C009C500838C5E903006861FEF745FA02F0C4
:10244C00B7FC374901F005FF2B68364AA8465A639A
:10245C0050221A87286801F0E7FC6C7700F086FFA1
:10246C0006466B7F012B0CD000F080FF801BB8421E
:10247C0004D800214046FEF7D9FEF2E76B7F012B12
:10248C00E8D1294C122229492948FDF777FEFEF79D
:10249C00CDFA02F06DFF14222146002001F000F865
:1024AC00E368043B242B05D91023E36002F060FFA2
:1024BC00FEF7ECF9E2681F491D48FDF75FFEA368C3
:1024CC00012B03D11C491A48FDF712FEFFF74AF9FC
:1024DC00FEF76AFA4EF66022184B1860184B1A6019
:1024EC000022184B1A6006B0BDE8F0810E830A0872
:1024FC00FB7F0A0812800A08FC0200207D1A0A08D9
:10250C0062760A08011B0A0855790A08DD010020C9
:10251C00DE01002063790A087C0100200000002005
:10252C0020800A08B5800A08D8020020C5800A0855
:10253C00DF800A083C790A0870790A08B803002081
:10254C00F40200203403002038B500212B48FEF79C
:10255C006DFE4FF4C8602A4D2B68013393FBF0F2EB
:10256C002B6000FB123353B900F09CFE01F0AAFF64
:10257C000A2804D13720FEF721FAFEF7EDFF41F2CD
:10258C00EC332A6892FBF3F403FB142474B9FEF7C2
:10259C000BFA1C4B1860FFF76BFBFEF7A9FA1A4BF2
:1025AC0018601A4B2046196800F0F8FD2A68184B81
:1025BC0053434DF2B61203F5511303F53653B2EBF8
:1025CC00F31F1AD3FFF728FC0E4B1A6840F2825304
:1025DC009A42C2BF00220F4B1A600F4A1368002B9D
:1025EC000BDD013B136043B90C48FEF79BFFBDE8C4
:1025FC0038400B490B48FDF77BBD38BD7C010020F2
:10260C00F4020020B8030020F0020020BC030020DC
:10261C00917EFB3AEC02002030030020E5800A0892
:10262C00F7800A08CF770A0808B500210148FEF7A1
:10263C00FDFD08BD7C01002070B5002401221B4B60
:10264C001B4D1C601B4B1C4E1C701C4B28461A70DF
:10265C0001F09AFC05F11C0002F00CFB32466C6395
:10266C002C872846164902F0F1FE164B1649C3E991
:10267C000054164DC3E90244C3E904449C619C8395
:10268C00284601F019FD32462846114902F0DEFEBB
:10269C0016231048324603720F4B4460036080F8D7
:1026AC0049400E49BDE8704002F0D0BED801002070
:1026BC009C010020DC01002028010020DD0100200D
:1026CC00810B0A087C010020B4800A08FC0200205F
:1026DC0031400A08380300201C810A085B080A08EC
:1026EC00F8B5274D06462B78264CBFF35B8F19B3F4
:1026FC00D80709D42846FDF7CEFC28B100F050FECF
:10270C0020602846FDF7CCFC1C20464327682B781C
:10271C003744D907BFF35B8F09D41948FDF7BBFCCD
:10272C0028B100F03DFE20601548FDF7B9FC236888
:10273C00BA889B591A83F8BDDA0709D42846FDF7E5
:10274C00AAFC28B100F02CFE20602846FDF7A8FC5E
:10275C001C20464327682B783744DB07BFF35B8F7D
:10276C0009D40748FDF797FC28B100F019FE20604A
:10277C000348FDF795FC2368BA889B595A83DAE71E
:10278C00C0030020C403002008B50121032002F07F
:10279C0073FD03200021FFF7A3FFBDE808403220A2
:1027AC0001F0D2BE08B50021042002F065FD012124
:1027BC00032002F061FD01210320FFF791FF0A20A5
:1027CC0000F056FE00210320FFF78AFFBDE8084009
:1027DC000121042002F0CABD0A2343433A20B3FB73
:1027EC00F0F0704710B5044602F03AFB1C23228827
:1027FC0053436268D118D3588A8801211A832088E0
:10280C0000F0DEFDBDE8104002F02CBB1C2302885A
:10281C0053434268D118D3588A885A83704738B5C5
:10282C0004460D4600F0BCFD00216060284602F015
:10283C0023FD2046258038BD38B5054602F010FB37
:10284C000021288800F0BCFD7D2402F00BFB013C2C
:10285C0014F0FF042DD0022000F00AFE288800F0AE
:10286C00C7FD10F0FF0FF2D002F0FAFA2846FFF77E
:10287C00CDFF0121288800F0A3FD02F0F3FA4FF4FC
:10288C00F07000F0F5FD02F0EBFA0021288800F062
:10289C0097FD462000F0ECFD288800F0A9FDC4B29D
:1028AC00B4FA84F402F0DEFA4FF4CD70640900F04F
:1028BC00DFFD204638BD38B511F00105044616D0B1
:1028CC0002F0CEFA2046FFF7A1FF0121208800F08C
:1028DC0077FD0A2000F0CCFD2088002100F070FD6F
:1028EC0002F0C0FA3720BDE8384000F0C1BD02F05C
:1028FC00B7FA2046FFF78AFF0121208800F060FD1F
:10290C00412000F0B5FD2088294600F059FD02F069
:10291C00A9FA0520E7E710B5044602F0A1FA204613
:10292C00FFF774FF0121208800F04AFD032000F01E
:10293C009FFD0021208800F043FD0A2000F098FD47
:10294C00208800F055FD044602F08CFA352000F08A
:10295C008FFDE0B210BD2DE9F041054688461646C4
:10296C000827012418EA040F14BF0121002128466E
:10297C00FFF7A1FF6400013FE4B2F3D126B1284672
:10298C00BDE8F041FFF72EBFBDE8F081F8B5074672
:10299C000826002501243846FFF7BDFF00B125436A
:1029AC006400013EE4B2F6D12846F8BD70B50022B1
:1029BC000C4655210646FFF7CEFF651E073415F869
:1029CC00011F00223046FFF7C6FFA542F7D170BDAC
:1029DC000023C0E902330382837470472DE9F0476A
:1029EC0090F8129004468846B9F1000F0ED00020E2
:1029FC002082A07404F1080308F1FF38103413F896
:102A0C00012BA34208F8012FF9D104E0FFF714FFC2
:102A1C0018B92082A074BDE8F08701264A46F0213F
:102A2C002046FFF798FFCA4635462046FFF773FF4E
:102A3C0007462046FFF76FFF012F0FD1012827D142
:102A4C00402DD4D984F81090B9F1000F01D1012395
:102A5C00A374237A002BCAD00120CBE7874204EB66
:102A6C000A030CD1227CAA420ED91A7A164214BF40
:102A7C000127002767B9082D00D86574A9461A7A72
:102A8C0022EA06021A7209E00CBF01270027F1E7BF
:102A9C00012704EB0A02137A33431372394620469A
:102AAC007600FFF708FF16F0FF0602BF0AF1010AD5
:102ABC005FFA8AFA01260135BAF1070FEDB2B4D9E3
:102ACC00BEE702460144002030B58A4213D00824E8
:102ADC0012F8015B80EA050313F0010F4FEA500076
:102AEC001CBF80F08C03D8B2631E13F0FF044FEAB6
:102AFC005505EFD1E9E730BD10B5074C0121208811
:102B0C0002F0BAFB2088002102F0C7FBBDE81040A0
:102B1C004FF4FA7001F018BDC80300202DE9F04104
:102B2C002D4C00210746208802F0B7FB41F288307B
:102B3C0000F09EFC0021208802F0AFFB41F28830AF
:102B4C0000F096FC0021208802F0A7FB41F28830AF
:102B5C0000F08EFC08264FF000083D1D3B6801215B
:102B6C004345208805F1100520DD02F096FB55F851
:102B7C00100C00F07DFC0021208802F08EFB55F833
:102B8C000C0C00F075FC0121208802F086FB55F836
:102B9C00080C00F06DFC0021208802F07EFB55F83B
:102BAC00040C00F065FC08F10408D7E702F075FB93
:102BBC004FF4D77000F05CFC0021208802F06DFB14
:102BCC004FF4FA5000F054FC013EC4D13146208839
:102BDC00BDE8F04102F061BBC80300202DE9F047CD
:102BEC00C6B005460E46174602F0E2F804460A2225
:102BFC00294601F038FB204601F01FFB3C22002146
:102C0C0001A803F02DFF40236C464FF00108DFF8BC
:102C1C005490DFF854A00093002D1ADAC4E9017621
:102C2C0002F0C6F8514608F1020801F0FFFAB8F1BB
:102C3C00410F4FEA450504F10804EDD102F0B8F854
:102C4C00074901F006FB6846FFF768FF46B0BDE890
:102C5C00F087C4E9016702F0ABF84946E3E700BF2F
:102C6C000E830A0839820A0884820A08052838B5B6
:102C7C0005460C4604DD02F09BF8184901F0E9FA10
:102C8C00012C04DD02F094F8154901F0E2FA06215A
:102C9C0001FB0454134B53F82440BCB102F088F8E8
:102CAC00114901F0C3FA02F083F8054621460A22C5
:102CBC0001F0D9FA284601F0C0FA2046BDE83840A8
:102CCC0040F27E424FF4D771FFF788BF02F070F8E4
:102CDC00BDE83840054901F0A9BA00BF8E810A0849
:102CEC00A6810A0828000020BE810A08CC810A08A7
:102CFC002DE9F041204C00210646208802F0CDFA47
:102D0C0041F2883000F0B4FB0021208802F0C5FAB3
:102D1C0041F2883000F0ACFB0021208802F0BDFAB3
:102D2C0041F2883000F0A4FB08254FF00008371D55
:102D3C0033680837434512DD0121208802F0ADFAD3
:102D4C0057F8080C00F094FB0021208802F0A5FA3B
:102D5C0057F8040C00F08CFB08F10208E8E742F28B
:102D6C00AC6000F085FB013DDFD129462088BDE831
:102D7C00F04102F092BA00BFCC030020322330B5F0
:102D8C00DBB000936B46441E173014F8015F302DF6
:102D9C000CBFC3E90112C3E90121844203F108030A
:102DAC00F3D16846CDE93112FFF7A2FF5BB030BD1D
:102DBC0030B501288BB023D199B9304B01AC03F15C
:102DCC001805224618685968083303C2AB421446EA
:102DDC00F7D14FF46B72DC2101A8FFF7CFFF0BB0DA
:102DEC0030BD0129F5D1264B01AA03F11805144673
:102DFC0018685968083303C4AB422246F7D1E8E798
:102E0C0002280FD00328EAD149BB1E4B01AC03F1B9
:102E1C001805224618685968083303C2AB42144699
:102E2C00F7D1D6E761B9184B01AC03F1180522466E
:102E3C0018685968083303C2AB421446F7D1C8E787
:102E4C000129C6D1114B01AA03F1180514461868C3
:102E5C005968083303C4AB422246F7D1B9E70129BC
:102E6C00B7D10B4B01AA03F1180514461868596821
:102E7C00083303C4AB422246F7D1AAE7F0810A0813
:102E8C0009820A0854820A0822820A083B820A082C
:102E9C006D820A0810B5012104460520FFF7E6FEF5
:102EAC000122044B044905481A60FDF721F9044B33
:102EBC001C6010BD1C03002086820A08D0760A080C
:102ECC00F8020020F8B504460D4601F071FF4249A6
:102EDC00FDF7E9F801F06CFF2B4622463F49FDF760
:102EEC00E2F80121084602F0C7F9012002F0EEF9E0
:102EFC003B4F012C3E46386044D1002842D1394921
:102F0C003948FDF7F5F8FDF7A3FB384C0246206075
:102F1C0037493548FDF732F92368452B05DC324833
:102F2C003449FDF7E5F83868F8BD0121324C084604
:102F3C00256002F0B2F9226830492B48FDF71EF9E2
:102F4C00FA2001F001FB012002F0C0F92C4C30609A
:102F5C0001F02EFF32682B49FDF7A5F8FDF740FD77
:102F6C0001F026FF22682849FDF79DF822682749C1
:102F7C002748FDF703F901F01BFF1749FDF793F8FC
:102F8C003068D1E7002CDBD10128D9D1002102F027
:102F9C0084F90022184B1F4913481A60FDF7A8F852
:102FAC00FDF756FB1C4C114D02461C4920600E4887
:102FBC00FDF7E4F823682A681949D21A0A48FDF784
:102FCC00DDF82B6822689B1A032BB9DD15490648DE
:102FDC00FDF78EF8B4E700BFA5820A08D5820A086F
:102FEC0020030020F7820A08D0760A081403002078
:102FFC0010830A082F830A080C03002068830A0830
:10300C00740100200E840A08D27E0A0824840A085F
:10301C00037F0A0885830A0810030020A0830A088E
:10302C00BF830A08DF830A0870B505460E4601F017
:10303C00BFFE3949FDF737F801F0BAFE33462A4690
:10304C003649FDF730F80121022002F015F9022073
:10305C0002F03CF9324C012D206036D1002834D1DD
:10306C00FDF7F6FA2F4B024618602F492F48FDF753
:10307C0085F80121022002F010F92D492B48FDF7AB
:10308C0037F82C4B1E60FA2001F05EFA022002F099
:10309C001DF9294D206001F08BFE22682749FDF7B0
:1030AC0002F8FDF79DFC01F083FE2A682449FCF729
:1030BC00FAFF2A6823492448FDF760F801F078FEEE
:1030CC001549FCF7F0FF206870BD002DDBD10128FD
:1030DC00D9D10021022002F0E0F80022154B1B4947
:1030EC001A601B4B11481A69FDF748F8FDF7B0FA46
:1030FC00184D1949024628600C48FDF73FF8094A5B
:10310C002B68126809489B1A052BCCBF134914492C
:10311C00FCF7EEFFB7E700BFA5820A0838840A085F
:10312C0024030020140300205D840A08D0760A08CA
:10313C0080840A08180300207801002049850A08B9
:10314C0062850A08217F0A08037F0A089D840A0801
:10315C00D802002010030020C8840A08EB840A0857
:10316C0019850A0810B50446012C084603D1FFF74F
:10317C0091FE204610BD00210520FFF777FD0022AF
:10318C00034B044904481A60FCF7B2FFF1E700BF97
:10319C001C0300207F850A08D0760A0838B5164C27
:1031AC002368012B0ED0154B1B688B4201D00128D4
:1031BC0008D1134B9D68012D05D112491248FCF71B
:1031CC0097FF256038BDD9680120FFF77BFE0F4DB6
:1031DC000F4B2968186061B90846FFF7C3FF2860D8
:1031EC004FF47A7001F0B0F90C20FFF753FE012375
:1031FC002B6001232360E5E7EC020020B8030020DC
:10320C00D802002070790A08D0760A081C03002026
:10321C002003002010B504461948FEF783F9FDF78A
:10322C0017FA184BA042186005DD17491748BDE87E
:10323C001040FCF75DBF164B1A69052A05D9BDE88D
:10324C00104014491148FCF799BF0028D4BF002244
:10325C000122A042A8BF002282B10F4C22686AB999
:10326C009B68012B01D10D49E0E70D490748FCF79C
:10327C003FFF18210120FFF7D7FE206010BD00BFD3
:10328C009E850A0824000020AE850A08D0760A081C
:10329C00D8020020CE850A08240300200F860A08D5
:1032AC0049860A0838B5254C2168002911DD0139F9
:1032BC0023482160FEF7B8FC246854B92149224800
:1032CC00FCF716FF21462046FFF7FCFD5F20FFF7B9
:1032DC00A1FF1E4C2168002919DD01391C48216011
:1032EC00FEF7A2FC246894B91A4D2B6901332B61AB
:1032FC0002F03EF814222946204600F0D9F816496F
:10330C001148FCF7F5FE21462046FFF78DFE134CC5
:10331C002168002910DD013911482160FEF784FC79
:10332C0024684CB90F490848FCF7E2FE21462046B8
:10333C00BDE83840FFF716BF38BD00BF0C030020B6
:10334C006D860A0885860A08A2860A0818030020DA
:10335C00AC860A08D8020020C7860A08F8020020AA
:10336C00E8860A0800870A0801F0EEB800F088B871
:10337C00704770477047000003065ABF024B53F862
:10338C0020000020704700BF20870A0803065ABFA0
:10339C00024B53F820000020704700BF20890A0818
:1033AC0008B5024B1B681B68019308BDB0010608E9
:1033BC0008B5024B1B685B68019308BDB001060899
:1033CC0008B5024B1B689B68019308BDB001060849
:1033DC0008B5024B1B68DB68019308BDB0010608F9
:1033EC0008B5024B1B681B69019308BDB0010608A8
:1033FC0008B5024B1B685B69019308BDB001060858
:10340C0008B5024B1B681B6A019308BDB001060886
:10341C0008B5024B1B685B6A019308BDB001060836
:10342C0008B5024B1B689B6A019308BDB0010608E6
:10343C0008B5024B1B681B6B019308BDB001060855
:10344C0008B5024B1B68DB6C019308BDB001060884
:10345C0008B5024B1B689B6F019308BDB0010608B1
:10346C0008B5024B1B685B68019308BD9C010608FC
:10347C0008B5024B1B68DB68019308BD9C0106086C
:10348C0008B5024B1B685B69019308BD9C010608DB
:10349C0008B5024B1B689B6A019308BD9C0106088A
:1034AC0008B5024B1B685B6C019308BD9C010608B8
:1034BC0008B5024B1B689B6C019308BD9C01060868
:1034CC0008B5024B1B689B6D019308BD9C01060857
:1034DC0008B5024B1B685B6E019308BD9C01060886
:1034EC0008B5024B1B685B6C019308BDD001060844
:1034FC0008B5024B1B689B6C019308BDD0010608F4
:10350C0008B5024B1B689B69019308BDC4010608F2
:10351C0008B5024B1B685B6A019308BDC401060821
:10352C0008B5024B1B689B6A019308BDC4010608D1
:10353C0008B5024B1B68DB6A019308BDC401060881
:10354C0008B5024B1B681B6B019308BDC401060830
:10355C0008B5024B1B685B6B019308BDC4010608E0
:10356C0008B5024B1B689B6B019308BDC401060890
:10357C0008B5024B1B681B6C019308BDC4010608FF
:10358C0008B5024B1B681B6E019308BDAC01060805
:10359C0008B5024B1B685B6E019308BDAC010608B5
:1035AC0008B5024B1B689B6E019308BDAC01060865
:1035BC0008B5024B1B68DB6E019308BDAC01060815
:1035CC0008B5024B1B681B6F019308BDAC010608C4
:1035DC0008B5024B1B685B6F019308BDAC01060874
:1035EC0008B5034B1B68D3F88030019308BD00006D
:1035FC00AC01060808B5024B1B681B68019308BD9B
:10360C00BC01060808B5024B1B685B68019308BD3A
:10361C00BC01060808B5024B1B689B68019308BDEA
:10362C00BC01060808B5024B1B68DB68019308BD9A
:10363C00BC01060808B5024B1B681B69019308BD49
:10364C00BC01060808B5024B1B681B6A019308BD38
:10365C00BC01060808B5024B1B681B6B019308BD27
:10366C00BC01060808B5024B1B685B6C019308BDD6
:10367C00BC01060808B5024B1B68DB69019308BD49
:10368C00B401060808B5024B1B681B6A019308BD00
:10369C00B401060808B5024B1B681B68019308BDF2
:1036AC00D801060808B5024B1B685B68019308BD7E
:1036BC00D801060808B5024B1B681B69019308BDAD
:1036CC00D801060808B5024B1B685B69019308BD5D
:1036DC00D801060808B5024B1B689B69019308BD0D
:1036EC00D801060808B5024B1B68DB69019308BDBD
:1036FC00D801060808B5024B1B681B6A019308BD6C
:10370C00D801060808B5024B1B685B6C019308BD19
:10371C00C001060808B5024B1B689B6C019308BDE1
:10372C00C001060808B5024B1B681B6D019308BD50
:10373C00A801020808B5024B1B681B68019308BD61
:10374C00A401060808B5024B1B685B68019308BD11
:10375C00A401060808B5024B1B685B69019308BD00
:10376C00A401060808B5024B1B68DB6C019308BD6D
:10377C00A401060808B5024B1B685B6D019308BDDC
:10378C00A401060808B5024B1B689B6D019308BD8C
:10379C00A401060808B5034B1B68D3F890300193BD
:1037AC0008BD0000A401060808B5034B1B68D3F83C
:1037BC009C30019308BD0000A401060808B5034B1A
:1037CC001B68D3F8A830019308BD0000A4010608BB
:1037DC0008B5024B1B685B68019308BDC80106085D
:1037EC0008B5024B1B689B68019308BDC80106080D
:1037FC0008B5024B1B68DB68019308BDC8010608BD
:10380C0008B5024B1B681B69019308BDC80106086B
:10381C0008B5024B1B685B69019308BDC80106081B
:10382C0008B5024B1B689B69019308BDC8010608CB
:10383C0008B5024B1B68DB69019308BDC80106087B
:10384C0008B5024B1B681B6A019308BDC80106082A
:10385C0008B5024B1B681B6B019308BDC801060819
:10386C0008B5024B1B685B6B019308BDC8010608C9
:10387C0008B5024B1B681B6C019308BDC8010608F8
:10388C0008B5024B1B685B6C019308BDC8010608A8
:10389C0008B5024B1B689B68019308BDCC01060858
:1038AC0008B5024B1B685B69019308BDCC01060887
:1038BC0008B5024B1B68DB69019308BDCC010608F7
:1038CC0008B5024B1B681B6A019308BDCC010608A6
:1038DC0008B5024B1B685B6A019308BDCC01060856
:1038EC0008B5024B1B681B6B019308BDCC01060885
:1038FC0008B5024B1B68DB6B019308BDCC010608B5
:10390C0008B5024B1B681B68019308BDA001060893
:10391C0008B5024B1B685B68019308BDA001060843
:10392C0008B5024B1B689B68019308BDA0010608F3
:10393C0008B5024B1B68DB68019308BDA0010608A3
:10394C0008B5024B1B689B69019308BDA0010608D2
:10395C0008B5024B1B68DB69019308BDA001060882
:10396C0008B5024B1B685B6A019308BDA0010608F1
:10397C0008B5024B1B68DB6A019308BDA001060861
:10398C0008B5024B1B681B6B019308BDA001060810
:10399C0008B5024B1B685B6C019308BDA0010608BF
:1039AC0070B5002604460D4640F8086FFFF798FDE9
:1039BC0028462570FFF75EFE2046666070BD10B588
:1039CC000446006818B1FFF7A3FF0023236010BD65
:1039DC0010B50446FFF7F3FF204610BD38B5B1F91A
:1039EC0004300D4683800B4653F8062F0446C0F86E
:1039FC0006209B884381FFF7E2FF2B6813B12360FD
:103A0C0000232B60204638BDB1F9043010B50A688C
:103A1C0033B932B951F8063F03608B88838010BDEF
:103A2C0022B19488012C03D0042C06D0042205E08A
:103A3C0092898C710B814A81ECE702220B814FF643
:103A4C00FF738A714B81E5E710B500240470448044
:103A5C004FF6FF740029848008DD01398B4204D9AC
:103A6C0032F8113083800123037010BD01D1022381
:103A7C00FAE74180F9E70000F0B50D46164600273D
:103A8C008BB01A46129B04460193119B314600934E
:103A9C002846109B0297FFF791FE334601462A46B3
:103AAC0005A8FFF7D1FF0F4D9DF81410BDF9162096
:103ABC00BDF818308DF82210284607A9ADF824203F
:103ACC00ADF826300797ADF82070FFF787FF07A8F1
:103ADC00FFF775FF20462946FFF796FF20460BB0EF
:103AEC00F0BD00BFD00300200222002010B5084B0F
:103AFC00084C1A60084B2060A080A071A360FFF7EF
:103B0C0021FE2046BDE81040044A054901F09EBC48
:103B1C00DC030020D00300200000FFFF2801002060
:103B2C00DD390A0813B503688DF80710DC6B012228
:103B3C0047F230530DF10701A04702B010BD10B48D
:103B4C000368DC6B47F23053A44610BC604713B5D6
:103B5C00134602688DF80710D46B0DF10701012292
:103B6C00A04702B010BD70477047000010B5044666
:103B7C00064B0846994204F10C0404D001F072FC87
:103B8C00002808BF0024204610BD00BF588B0A082F
:103B9C0010B50446AC2101F05EFC204610BDFCF7CC
:103BAC0078BA000038B50B4B8469054603607CB1CC
:103BBC006368013B63605BB9236820469B68984748
:103BCC00A368013BA3601BB923682046DB689847B8
:103BDC00284638BD688B0A0810B50446FFF7E2FF8B
:103BEC0020461C2101F037FC204610BD70B5044660
:103BFC0006464D69044B8C3544F8043B0FCD0FC47D
:103C0C002B683046237070BDF08B0A0810B54369E1
:103C1C000446B3F88620B3F884309A4205D0636921
:103C2C00B3F884201344187910BD03681B699847B6
:103C3C000028F4D14FF0FF30F6E710B54369044685
:103C4C00B3F88620B3F884309A4208D06369B3F88D
:103C5C008420511CA3F884101344187910BD0368F8
:103C6C001B6998470028F1D14FF0FF30F6E7F8B503
:103C7C0043691746B3F88620B3F8843005469A4258
:103C8C000E4616D069693046B1F88430B1F88640DA
:103C9C00E41ABC4228BF3C4604332246194402F0C5
:103CAC00D1FE6A69B2F884302344A2F884302046ED
:103CBC00F8BD03681B6998470028E3D14FF0FF3427
:103CCC00F5E700234269A2F884304269A2F88630F5
:103CDC00704700002DE9F0431F4603688BB0DB6A88
:103CEC0005460C4616469847384601F061FA0368BB
:103CFC00DB689847002854D0334606220121022065
:103D0C000097D5F81480FFF785FC2023C8F8000035
:103D1C004FF00008CDE902386B6901201B6823497C
:103D2C000193234B02AA00934346FFF7FBFC6B69FC
:103D3C001868FFF767FC002833D02846FFF7C1FF4F
:103D4C000223ADF80830E37976BA8DF80C30A379FC
:103D5C004FF4FA508DF80D306379ADF80A608DF898
:103D6C000E3014F8043F8DF80F30FFF7CBFC6B6965
:103D7C0006461022186802A9FFF754FC814630460B
:103D8C00FFF7C0FC0FCC6E698C360FC623683370FE
:103D9C002F61B9F1000F07D02B682846DB6A9847D2
:103DAC0040460BB0BDE8F0830120FAE7208B0A08EF
:103DBC00278B0A0838B542690446B2F886302BB115
:103DCC00B2F884209A4201D1FFF77BFF206901F001
:103DDC00EFF90368DB689847F8B163691868FFF777
:103DEC0011FCD0B16069B0F886107F2915D8051D7B
:103DFC00C1F18002002300682944FFF71BFC002856
:103E0C000BDD6369B3F886200AB9A3F884206369D3
:103E1C00B3F886201044A3F886006369B3F88600D3
:103E2C00B3F88430C01A38BD38B5436904461868F5
:103E3C00FFF7E8FB18B163691868FFF703FC6569C5
:103E4C00FFF708FC28606069112200218C3002F019
:103E5C0007FE2046BDE83840FFF733BF10B5436975
:103E6C0004461868FFF7CEFB08B9002010BD206986
:103E7C0001F09EF90368DB6898470028F5D0636968
:103E8C001868FFF7B7FBB0FA80F04009EEE708B509
:103E9C00FFF7E4FF003818BF012008BD2DE9F341FE
:103EAC000027476004460D4616469846FFF7D6FF96
:103EBC0070B1CDE9008760693B46324629460068FF
:103ECC00FFF7D0FB002800DA606002B0BDE8F0819B
:103EDC004FF0FF30F8E770B50546FFF7BFFFE8B9C4
:103EEC006B69B3F88610B3F88420914216D1186828
:103EFC00FFF788FB08B9002070BD6B691868FFF7E5
:103F0C0079FB01280446F6D12B6828461B69984793
:103F1C0030B92B682846DB6A9847ECE70120EBE7C1
:103F2C002046E9E7002310B504460160C0F8843050
:103F3C00883000F09FFE204610BD0000F8B54FF40D
:103F4C007A720023C0E901320D4A036102604361B9
:103F5C000446AC200E46FCF798F8051E05F10C073C
:103F6C0008D00123C5E90133064B314638462B6096
:103F7C00FFF7D8FF2046C4E90575FFF7A2FEF8BD90
:103F8C00688B0A08448B0A0810B50446FFF762FBDD
:103F9C0001462046FFF7D2FF204610BD10B504465F
:103FAC000068FFF72FFB10B12068FFF74BFB204692
:103FBC0010BD0C30FFF7F2BF2DE9F0431F4603682C
:103FCC008FB0DB6A06460D4690469847134801F0C1
:103FDC009AF8F0B102A800F04DFE284602F099FDC7
:103FEC00002481B23B462846009403AAFFF792FBBB
:103FFC0090B9336809ADD3F82090094B03AC089302
:10400C000FCC0FC5236842462B7030463B4608A99F
:10401C00C8470FB0BDE8F0832046FAE798040020AB
:10402C00F08B0A0810B504460068FFF771FC2046B7
:10403C0010BD10B50446006808B1FFF769FC0023F9
:10404C00C4E90133236010BD38B504460D46006841
:10405C000131FFF765FC10B1C4E90005012038BD42
:10406C0010B50368044623B143688B4201D3012089
:10407C0010BD2046FFF7E8FF0028F9D0A368002BFD
:10408C00F5D122681370F2E770B50E46114604465E
:10409C001546FFF7E5FF20B92046FFF7CAFF20467B
:1040AC0070BD2A4631462068A56002F0CBFC002189
:1040BC002268A368D154F2E738B5002304460D46B4
:1040CC00C0E900338360037339B1084602F021FD67
:1040DC00294602462046FFF7D7FF204638BD38B5A3
:1040EC00054600680C4668B16A688B689A4207D32B
:1040FC00096802F0EBFCA368AB600023A36038BD39
:10410C00FFF706FC23682B6063686B60A368AB60E9
:10411C000023C4E90033F1E7884210B50B4604468E
:10412C0004D0096821B19A68FFF7AEFF204610BD94
:10413C00FFF77FFFFAE7002310B50446C0E9003310
:10414C0083600373FFF7E8FF204610BD884210B56B
:10415C00044601D0FFF7C3FF204610BD70B50546DD
:10416C000E4609B9002070BD6AB18468144421461A
:10417C00FFF776FF0028F5D02868AB683146184465
:10418C0002F0A4FCAC600120EDE710B58A68096868
:10419C000446FFF7E3FF10B92046FFF74AFF20461D
:1041AC0010BD134610B58A688468A41A9C420AD3C1
:1041BC00006838B1096841B1184402F0B2FCB0FA99
:1041CC0080F0400910BD0020FCE70846FAE7826841
:1041DC008B689A4202D30022FFF7E3BF002070479E
:1041EC00F8B506460D4600248F18BD420CD0336836
:1041FC0030469B6815F8011B9847031E01DB1C44D5
:10420C00F3E7002C08BF1C462046F8BD70B50546E8
:10421C000C46084649B102F07CFC2B68024621464C
:10422C002846BDE87040DB68184770BD08B5FFF73D
:10423C00EDFF08BD03689B68184738B50D2105468E
:10424C00FFF7F8FF0A2104462846FFF7F3FF204446
:10425C0038BD38B50546FFF7D9FF04462846FFF7A9
:10426C00ECFF204438BD0023012A98BF0A2230B548
:10427C008BB00C468DF8243009A92546B4FBF2F41A
:10428C0004FB1253DBB2092B94BF30333733DBB250
:10429C00AA4201F8013DF0D9FFF7B8FF0BB030BDD1
:1042AC002DE9F04186B000AF05460E46381D1421AD
:1042BC0014463B60FFF754FB13280ED82846391DD3
:1042CC00FFF7A4FF04461EB12846FFF7B6FF0444CF
:1042DC0020461837BD46BDE8F08100F1080323F0F5
:1042EC000703E846ADEB030D2246411C3B686846CC
:1042FC00FFF736FB69462846FFF788FF0446C5469C
:10430C00E1E710B50446FFF7BBF8E06023682046F0
:10431C005B699847002808DAFFF7B2F8E368C01A1F
:10432C00A3689842F2D34FF0FF3010BDF8B50646A3
:10433C000D4617460024BC4207D03046FFF7E1FF7C
:10434C00031E02DB2B550134F5E72046F8BD002394
:10435C0040681A461946FFF75BBA0B68036013B145
:10436C005A6801325A607047014B024A1A60704712
:10437C00E0030020AC8B0A082DE9F041154ADFF868
:10438C006080D2E90032C01842EB0101124A8CB0B5
:10439C00D2E90032C61841EB0207D8E90023BB4230
:1043AC0008BFB24213D003A96846CDE9006702F0FA
:1043BC0053FA089B094D03F26C7303AC08930FCCB2
:1043CC000FC50FCC0FC5C8E9006723682B600CB074
:1043DC00BDE8F0811804002010040020E803002040
:1043EC002004002008B50020FFF77AFA28B1FFF767
:1043FC0057FA80F00100C0B208BD0120FCE70000B4
:10440C0008B5FFF7B9FF024B1869013008BD00BFB2
:10441C00E803002010B50A49044602F021F868B9F7
:10442C002046084902F03AF840B90749204601F005
:10443C0079FE02F063F8054BC3E9000110BD00BF23
:10444C00000040C1000060410000614518040020DC
:10445C0010B50020FFF734F80446A0B9FFF76AF94D
:10446C00012810D12046FFF78DF960B9FFF7BAFF8C
:10447C0010B9FFF70DFAF9E7FFF7B4FFBDE81040EC
:10448C000020FFF71DB8204610BD1FB5FFF7E0FF59
:10449C0010220021684602F0E3FA00216846FFF77B
:1044AC0017F8009805B05DF804FB000008B5FFF79D
:1044BC00ECFFC117FFF760FF014B986808BD00BF08
:1044CC00E803002008B5FFF7E0FFC117FFF754FF22
:1044DC00014B586808BD00BFE803002008B5FFF782
:1044EC00D4FFC117FFF748FF014B186808BD00BF88
:1044FC00E803002008B5FFF7C8FFC117FFF73CFF22
:10450C00014BD86808BD00BFE803002008B5FFF7D1
:10451C00BCFFBDE80840C117FFF772BF08B5FFF735
:10452C00B4FFC117FFF728FF014B586908BD00BF46
:10453C00E8030020024B1A68024B1A60704700BF58
:10454C0058000020E40300200021FFF703B910B548
:10455C008368044613B1032201469847204610BDD8
:10456C0010B50446FFF7F3FF204610BD13B56C469B
:10457C000B46024603C884E8030093E8030082E874
:10458C00030094E8030083E8030002B010BD0000B0
:10459C0000230348034A0449836000F057BF00BF5F
:1045AC0028040020280100206D450A08014B1860E2
:1045BC00704700BF5C00002008B5134B43B100F0FE
:1045CC00F7FB03681B699847002801DDFBF706FF22
:1045DC000E4B43B100F09AFC03681B699847002806
:1045EC0001DDAFF300800A4B0BB1AFF30080094B38
:1045FC0043B100F00DFC03681B699847002801DDEE
:10460C00AFF3008008BD00BFE9030A0800000000FA
:10461C00000000000000000008B5FFF7CDFFFEF71A
:10462C002FFF014B186008BDB00400200248034A5C
:10463C000349121A02F006BA00400240044002403C
:10464C00C88F0A08002307B51A466FF0770100934C
:10465C00FFF7AAF803B05DF804FB000007B5438828
:10466C000A2B08D0502B0BD1094B1B684BB103B054
:10467C005DF804EB1847FFF7E5FF03B05DF804FBAA
:10468C0000231A466FF077010093FFF78DF8F4E7DB
:10469C003C04002038B5124C00211248FFF778F981
:1046AC00114D2368AB420CBF012200220F4B1A7034
:1046BC0002D0FFF7BBFF2560FEF7D2FE044602F0E6
:1046CC00D7F90B4B13B12046AFF3008000210848FB
:1046DC00FFF70EF9BDE8384000210648FFF75AB83D
:1046EC0000400240B9450A081E1C279A38040020D5
:1046FC000000000069460A0870470020704710B59A
:10470C000446102100F0A7FE204610BD08B5FFF7A7
:10471C00F6FF08BD002230B54FF69C740260848011
:10472C008D888C800C68858004600A6030BD10B563
:10473C0004460068FFF7ECF8204610BD38B5C46895
:10474C00F4B12378022B03D104F10C00FFF7EFFF37
:10475C00656835B12846FFF7FAFE1021284600F0AF
:10476C007AFEA56835B12846FFF7F1FE10212846E0
:10477C0000F071FE2046BDE83840142100F06BBEFD
:10478C0038BD73B50E46044656F8043B0D4601A8D9
:10479C0031460093FFF7E1FD009B019A2360002353
:1047AC00626001A801930093FBF78BFC3046FBF78A
:1047BC0088FC2846082100F04EFE204602B070BD51
:1047CC00826810B50AB900F04AFEC368BDE8104013
:1047DC00184708B5006800F11001FFF7F1FF08BD9C
:1047EC00826810B50AB900F03AFEC368BDE8104003
:1047FC00184708B5006800F11001FFF7F1FF08BD7C
:10480C0038B500230446036010200D46FBF73DFC31
:10481C0028B10123C0E90133024BC560036020605D
:10482C00204638BDD48B0A0838B5002383608B68CA
:10483C0004460D462BB102229847EB68E360AB6847
:10484C00A360204638BD0000F0B589B00468684606
:10485C00FFF760FF4FF00203D4E84F2F002A03D17B
:10486C00C4E8413F0029F7D125D104F10C05694674
:10487C002846FFF74FFF0123BFF35B8F63700020C7
:10488C00BFF35B8F04F1080353E8006F43E80002A9
:10489C00002AF9D1BFF35B8F6EB1FEF763FF78B1DD
:1048AC0029463046FFF78CFF3046FFF750FE1021AB
:1048BC00304600F0D0FD6846FFF739FF09B0F0BD77
:1048CC00314602A8FFF7B0FFE068B4F9105008B108
:1048DC0002F004F906901020ADF81C50FBF7D5FB44
:1048EC000546E8B1002787601820FBF7CEFB04468D
:1048FC0088B10146876002A8FFF738FE049BA268C6
:10490C00A360059B0492E26806A9E36004F1100021
:10491C000592FFF7FFFE084B2C60EB60074BAB607A
:10492C0006A8FFF704FF02A8FFF711FE0022294694
:10493C000348FEF71FFFB7E7DF470A08754A0A0866
:10494C009D4F0A082DE9F0478AB005460C461746DC
:10495C0098469DF84890FEF7A3FF07AE824638BBF9
:10496C004FF62E73059005A93046ADF81830FFF7B9
:10497C00D1FE1420FBF789FB044648B102230370D7
:10498C000123C0E901AA437031460C30FFF7C2FE87
:10499C002846214640F8044BFFF732FF3046FFF71C
:1049AC00C6FE05A8FFF7C3FE28460AB0BDE8F0878F
:1049BC000C234FF0000A1420CDE908AA0793FBF74B
:1049CC0064FB014628B1C0E901AA80F800A080F878
:1049DC0001A004A80391FFF713FF224B08200893B2
:1049EC00FBF753FB824628B1039B04A940F8043B18
:1049FC00FFF7B3FC42463946204600965FFA89F32E
:104A0C00CDF824A0FEF75CFFB8B9039B5B7803F0EC
:104A1C00FF0293B94FF69C7305A903A80592ADF854
:104A2C001830FFF711FF05A8FFF781FE05A80999BB
:104A3C00FFF7A7FE06A8FBF744FB039B04A906A8F7
:104A4C000593FFF78AFC059B069A2B6000236A608E
:104A5C0006A806930593FBF734FB04A8FBF731FB80
:104A6C00A2E700BF394B0A08022AF8B5054607D061
:104A7C00032A18D0012A01D10B6803600020F8BD6D
:104A8C0018200E68FBF701FB044650B13146FFF7C6
:104A9C00CBFE3069B6F9147008B102F01FF8206132
:104AAC00A7822C60EAE70468002CE7D004F1100020
:104ABC00FFF73DFE2046FFF74AFD1821204600F087
:104ACC00CAFCDBE738B5002383608B6804460D46CF
:104ADC002BB102229847EB68E360AB68A3602046D9
:104AEC0038BD022A70B5044607D0032A12D0012A19
:104AFC0001D10B680360002070BD14200E68FBF719
:104B0C00C4FA054620B13146FFF7DCFF337C2B7429
:104B1C002560F0E70468002CEDD02046FFF717FD68
:104B2C001421204600F097FCE5E70000F0B50446A0
:104B3C0089B00D4601A81146FFF723FEA4B124B29B
:104B4C001DB1284601F0CAFF054601A803A903952B
:104B5C00ADF81040FFF778FE03A8FFF7E8FD02A8B8
:104B6C00FBF7AFFA09B0F0BD0123019DD5E84F2F3B
:104B7C00002A03D1C5E8413F0029F7D1EFD12B73AF
:104B8C00BFF35B8F6B70BFF35B8F2B1D53E8006F14
:104B9C0043E80042002AF9D1BFF35B8F002EDED030
:104BAC002046FEF7DFFD074660B1304605F10C01EB
:104BBC00FFF716FE3046FFF7CAFC1021304600F016
:104BCC004AFCCCE7314603A8FFF77CFF2B7B102077
:104BDC008DF81C30FBF759FA0546D0B187601420CC
:104BEC00FBF753FA044678B10146876003A8FFF738
:104BFC00BDFC059BA268A360069B0592E268E3607E
:104C0C009DF81C3006922374064B2C60EB60064B0F
:104C1C00AB6003A8FFF79BFC002229460348FEF774
:104C2C00A9FDC7E7FF470A08EF4A0A089D4F0A0883
:104C3C007047F8B50E46002400F10807051D17F85B
:104C4C00011D0A223046FFF70EFBAF42044401D18E
:104C5C002046F8BD002CF2D02E213046FFF7EAFAA0
:104C6C000444ECE710B50446182100F0F4FB204690
:104C7C0010BD000010B50446044B1122002140F871
:104C8C00043B01F0EDFE204610BD00BFF08B0A087E
:104C9C000346074A10B543F8042B01F1100251F8F2
:104CAC00044B914243F8044BF9D10A781A7010BDA9
:104CBC00F08B0A08024AC0E90021042202757047F1
:104CCC00F08B0A0810B59DF8084044EA032404232D
:104CDC0044EA024444EA01644460037510BD0000D8
:104CEC0037B5044D05609DF818500095FFF7EAFFA5
:104CFC0003B030BDF08B0A0841747047704708B59B
:104D0C000021007CFEF7E6FC40EAE07008BD08B527
:104D1C000121007CFEF7DEFC40EAE07008BD08B51E
:104D2C00007CFEF7CFFC20EAE07008BD08B5007CE3
:104D3C00FEF7C0FC20EAE07008BD38B50446007CE4
:104D4C000D46FEF7BFFC002801DC607C28B129462B
:104D5C00207CFEF7C7FC20EAE07038BD007CFEF733
:104D6C00C9BC10B50446142100F075FB204610BDDB
:104D7C0010B54FF47A73044608460021C4E90113B8
:104D8C00044B20742360012311466374FEF782FCEC
:104D9C00204610BD048C0A080022007CFEF782BC61
:104DAC0010B504461422002101F05AFE204610BD15
:104DBC0030B50F4D87B001A8FFF7F2FF2978BFF38C
:104DCC005B8F11F0010410D12846FBF764F960B138
:104DDC00214601AA0748FFF7CBFF2846FBF760F9ED
:104DEC00054A0649034800F031FB024807B030BDC4
:104DFC00400400204804002028010020094D0A0826
:104E0C0010B504461422002101F02AFE204610BDE4
:104E1C0010B50F4C86B001A8FFF7F2FF2378BFF353
:104E2C005B8FDB0710D42046FBF735F960B101210D
:104E3C0001AA0848FFF79CFF2046FBF731F9064A08
:104E4C000649044800F002FB024806B010BD00BF42
:104E5C00440400205C04002028010020094D0A08AD
:104E6C00FEF7D6BAFEF7CCBA70474174704708B556
:104E7C00007CFEF77DFB20EAE07008BD08B5007CE5
:104E8C00FEF74EFB20EAE07008BD08B5007CFEF78B
:104E9C0057FB40EAE07008BD08B5007CFEF748FB04
:104EAC0040EAE07008BD007CFEF752BB70B5467C52
:104EBC0004460D462EB12946207CBDE87040FEF715
:104ECC0027BB007CFEF754FB0028F4DC304670BD99
:104EDC0010B50446142100F0BEFA204610BD0000A7
:104EEC004FF0000C10B50446084611464FF47A7288
:104EFC00C4E901C2044A20742260012262741A4679
:104F0C00FEF7FEFA204610BD348C0A08F8B51A4C90
:104F1C0026684EB98420FBF7B8F8054618B18422F0
:104F2C00314601F09DFD2560144D2F684FB984204A
:104F3C00FBF7ABF8064618B18422394601F090FD18
:104F4C002E600F4F3978BFF35B8F11F0010611D132
:104F5C003846FBF7A0F868B1314622682B6809483F
:104F6C00FFF7BEFF3846FBF79BF8074A0749054891
:104F7C0000F06CFA0348F8BD74040020780400209B
:104F8C00700400207C04002028010020754E0A08C3
:104F9C0010B5836804460BB900F061FAC3689847F2
:104FAC00A3681BB103222146204698472046BDE842
:104FBC001040102100F04FBA7047F8B50646154660
:104FCC000C468F18BC4206D0336830469B6814F8E8
:104FDC00011B9847F6E72846F8BD0022007CFEF737
:104FEC00CFBA0021007CFEF7D3BA0021007CFEF77B
:104FFC00D7BA0021007CFEF7DBBA0021007CFEF75B
:10500C00DFBA10B50446142100F025FA204610BD75
:10501C0010B54FF47A73044608460021C4E9011315
:10502C00034B114623602074FEF7DAFA204610BDBC
:10503C00648C0A08002240681146FEF7E1BBF0B50B
:10504C00154689B011220E460446002103A801F032
:10505C0007FD284601F05DFD002781B273682846E4
:10506C00009703AAFEF756FB30B139462046FFF7EE
:10507C0021FE204609B0F0BD204603A9FFF708FE2B
:10508C00F7E7002240681146FEF7DABB00224068C1
:10509C001146FEF7E5BB00224068FEF7D9BB0022A3
:1050AC00406881F00101FEF7C3BB002340681A463B
:1050BC001946FEF7B5BB002240681146FEF790BBBF
:1050CC00002202214068FEF793BB002340681A4679
:1050DC00FEF77EBB0422024B5A60024A1A607047EC
:1050EC00900400208C8C0A08002340681A46FEF7B6
:1050FC006FBB002202214068FEF77ABB0022406899
:10510C001146FEF76DBB002240681146FEF778BBD6
:10511C00002340681A461946FEF77ABB0023406804
:10512C001A461946FEF77CBB00214068FEF7A0BB6F
:10513C0000214068FEF7A4BB0022406881F0010109
:10514C00FEF776BB00224068FEF782BB0022406867
:10515C001146FEF785BB002240681146FEF770BB76
:10516C0070B515468EB0044608A8FFF783FD1122D2
:10517C00002103A801F074FC0026284601F0C9FCAC
:10518C000A4B009681B25B68284603AAFEF7C2FA66
:10519C0030B131462046FFF78DFD20460EB070BD74
:1051AC00204603A9FFF774FDF7E700BF9004002029
:1051BC00034A044B042814BF10461846704700BF1E
:1051CC009804002090040020024B034A1A6000222D
:1051DC005A60704798040020C88C0A0810B5044621
:1051EC00806808B1FEF784F9204610BD172870B509
:1051FC00044601D9002070BDA0F10D03022B0BD980
:10520C00012826D800F0FAF80021007CFEF7E0F91E
:10521C0080F00100C0B2EEE7134E3178BFF35B8F24
:10522C0011F001050FD13046FAF735FF58B1294678
:10523C000E48FEF7B5FB3046FAF732FF0C4A0D4923
:10524C000A4800F003F9094B1878FEF71BFA0028FE
:10525C00D0D1123C012C05D8FFF758FE007CFEF78C
:10526C007FF9D5E70120C6E7A0040020A4040020A4
:10527C0028010020E9510A08172838B504460D46C4
:10528C000AD8FF2908D0FFF7B1FF28B129462046DC
:10529C00BDE83840FEF794B838BD38B504460D4625
:1052AC00FEF796F8FF2810D0062804D84D2323FAD1
:1052BC0000F0C30709D42046FFF798FF28B1294610
:1052CC002046BDE83840FEF78BB838BD10B5044613
:1052DC00FEF77EF8031FDBB2012B08D92046FFF73F
:1052EC0085FF20B12046BDE81040FEF781B80020B4
:1052FC0010BD10B5044609289CBF0A34A4B2204640
:10530C00FFF774FF50B103212046FEF751F8032834
:10531C0004D12046BDE81040FEF78AB8002010BD2D
:10532C0038B504460D46FFF761FFF0B10421204665
:10533C00FEF73EF8042805D12046A9B2BDE8384056
:10534C00FEF76EB802212046FEF732F802280CD187
:10535C002046FEF73DF8012801D0042805D1294646
:10536C002046BDE83840FEF773B838BDFEF768B884
:10537C0010B5084C2378BFF35B8FDB0708D42046AD
:10538C00FAF789FE20B1FEF783F82046FAF788FE7B
:10539C00014810BDB4040020B8040020002313B54C
:1053AC00074C1A46194620460093FFF799FC2046F5
:1053BC00044A054902B0BDE8104000F047B800BFF0
:1053CC00BC040020280100203D4C0A08002370B5C5
:1053DC00202543801423084E044603803146856003
:1053EC000561284600F039F831466060284600F027
:1053FC0034F8E060204670BDFC8C0A0830B50F4DC7
:10540C0087B02978BFF35B8F11F0010413D12846C4
:10541C00FAF741FE78B101A8FFF7D8FF214601AA9F
:10542C000748FFF7F5FD2846FAF73AFE054A064904
:10543C00034800F00BF8024807B030BDD40400203C
:10544C00D804002028010020C54F0A080B4601464D
:10545C00184601F0F3B9FAF71CBEFAF718BE08B5F6
:10546C00FEF786FA014900F0FBB800BF188D0A0858
:10547C007FB500241023CDE90234036815469E69DC
:10548C0012686B4600948DF80440B0479DF80430C8
:10549C0003F00603062B09BF01202046009B2B605E
:1054AC0004B070BD0098904214BF012006207047D4
:1054BC0010B50446024B036000F0CFF8204610BD37
:1054CC00588D0A0810B50446FFF7F2FF2046082154
:1054DC00FFF7C1FF204610BD2DE9F041DDF8188023
:1054EC001F46DDE9083498450646154607D107994D
:1054FC0000F0B6F818B165710020BDE8F0813946AE
:10550C00304600F0ADF80028F6D00123C4F8008036
:10551C002571A371F0E738B515461C4600F0A0F8CC
:10552C0020B10823E36006232560237138BD2DE9E3
:10553C00F04105460C4616461F4600F091F848B956
:10554C00032F07D82368324629462046BDE8F04190
:10555C005B691847BDE8F08110B50446024B036047
:10556C00FFF7A6FF204610BDB88D0A0810B50446FB
:10557C00FFF7F2FF20460C21FFF76DFF204610BD10
:10558C002DE9F041DDF81880064690450F4615468A
:10559C001C460BD0B0682A460368CDF818801E6AEA
:1055AC0039462346B446BDE8F0416047194600F041
:1055BC0057F80028EED00620BDE8F0812DE9F14F18
:1055CC000D46DDE90A4BDDE90CA619468146174666
:1055DC00984600F045F890B1002D3460377109DB26
:1055EC002C44A2450CBF06240124B471002001B048
:1055FC00BDE8F08F0235F9D10123B371F6E75445BC
:10560C0006D15946484600F02BF808B17771EDE702
:10561C00D9F808003A460368CDE90CA6CDE90A4B47
:10562C00DC6929464346A44601B0BDE8F04F60470B
:10563C002DE9F04107460C4615461E46FFF76BFF59
:10564C0048B9B8682A46036821469F693346BC4668
:10565C00BDE8F0416047BDE8F0817047002070471D
:10566C00814208B50ED0406803782A2B0CD04968CB
:10567C000B782A2B08BF013101F01EFAB0FA80F02A
:10568C00400908BD0120FCE70020FAE781F0004149
:10569C0002E000BF83F0004330B54FEA41044FEA0B
:1056AC00430594EA050F08BF90EA020F1FBF54EAA6
:1056BC00000C55EA020C7FEA645C7FEA655C00F042
:1056CC00E2804FEA5454D4EB5555B8BF6D420CDD13
:1056DC002C4480EA020281EA030382EA000083EA96
:1056EC00010180EA020281EA0303362D88BF30BD36
:1056FC0011F0004F4FEA01314FF4801C4CEA11318C
:10570C0002D0404261EB410113F0004F4FEA0333EA
:10571C004CEA133302D0524263EB430394EA050F75
:10572C0000F0A780A4F10104D5F1200E0DDB02FAE4
:10573C000EFC22FA05F2801841F1000103FA0EF278
:10574C00801843FA05F359410EE0A5F120050EF13E
:10575C00200E012A03FA0EFC28BF4CF0020C43FA6F
:10576C0005F3C01851EBE37101F0004507D54FF07C
:10577C00000EDCF1000C7EEB00006EEB0101B1F5CC
:10578C00801F1BD3B1F5001F0CD349085FEA300012
:10579C004FEA3C0C04F101044FEA445212F5800F1D
:1057AC0080F09A80BCF1004F08BF5FEA500C50F1BA
:1057BC00000041EB045141EA050130BD5FEA4C0C9D
:1057CC00404141EB0101013C28BFB1F5801FE9D2FA
:1057DC0091F0000F04BF01460020B1FA81F308BF1D
:1057EC002033A3F10B03B3F120020CDA0C3208DDE9
:1057FC0002F1140CC2F10C0201FA0CF021FA02F1C4
:10580C000CE002F11402D8BFC2F1200C01FA02F133
:10581C0020FA0CFCDCBF41EA0C019040E41AA2BF58
:10582C0001EB0451294330BD6FEA04041F3C1CDA20
:10583C000C340EDC04F11404C4F1200220FA04F040
:10584C0001FA02F340EA030021FA04F345EA0301EA
:10585C0030BDC4F10C04C4F1200220FA02F001FAAC
:10586C0004F340EA0300294630BD21FA04F029462E
:10587C0030BD94F0000F83F4801306BF81F48011C7
:10588C000134013D4EE77FEA645C18BF7FEA655C3A
:10589C0029D094EA050F08BF90EA020F05D054EA0C
:1058AC00000C04BF1946104630BD91EA030F1EBF11
:1058BC000021002030BD5FEA545C05D14000494115
:1058CC0028BF41F0004130BD14F580043CBF01F508
:1058DC00801130BD01F0004545F0FE4141F47001EE
:1058EC004FF0000030BD7FEA645C1ABF19461046C9
:1058FC007FEA655C1CBF0B46024650EA013406BFCA
:10590C0052EA033591EA030F41F4002130BD00BF88
:10591C0090F0000F04BF0021704730B54FF4806445
:10592C0004F132044FF000054FF0000150E700BFC6
:10593C0090F0000F04BF0021704730B54FF4806425
:10594C0004F1320410F0004548BF40424FF0000112
:10595C003EE700BF42004FEAE2014FEA31014FEA55
:10596C0002701FBF12F07F4393F07F4F81F06051A4
:10597C00704732F07F4208BF704793F07F4F04BFEF
:10598C0041F40021704730B54FF4607401F00045CC
:10599C0021F000411CE700BF50EA010208BF70472C
:1059AC0030B54FF000050AE050EA010208BF70471D
:1059BC0030B511F0004502D5404261EB41014FF486
:1059CC00806404F132045FEA915C3FF4D8AE4FF08E
:1059DC0003025FEADC0C18BF03325FEADC0C18BF71
:1059EC00033202EBDC02C2F1200300FA03FC20FAC2
:1059FC0002F001FA03FE40EA0E0021FA02F114440F
:105A0C00BDE600BF70B54FF0FF0C4CF4E06C1CEA27
:105A1C0011541DBF1CEA135594EA0C0F95EA0C0F98
:105A2C0000F0DEF82C4481EA030621EA4C5123EA0B
:105A3C004C5350EA013518BF52EA033541F480113A
:105A4C0043F4801338D0A0FB02CE4FF00005E1FBED
:105A5C0002E506F00042E0FB03E54FF00006E1FB37
:105A6C0003569CF0000F18BF4EF0010EA4F1FF047A
:105A7C00B6F5007F64F5407404D25FEA4E0E6D41BA
:105A8C0046EB060642EAC62141EA55514FEAC520CB
:105A9C0040EA5E504FEACE2EB4F1FD0C88BFBCF547
:105AAC00E06F1ED8BEF1004F08BF5FEA500E50F1F8
:105ABC00000041EB045170BD06F0004646EA0101BE
:105ACC0040EA020081EA0301B4EB5C04C2BFD4EBF0
