:02000004080AE8
:1000000000000A08D86B0A08000006000600050177
:080010000402BD0B000000001A
:040018008C590A08ED
:10001C0009480A4908B5884205D0094A824202D0EB
:10002C00121A05F015F80748074A0021121A05F0B4
:10003C001DF8064808BD00BF000000208C6A0A08A5
:10004C0024010020280100208D0400208D040020B4
:10005C0070B502F073FF0025054E064CA41BA408D6
:10006C00A54200D170BD56F8043B98470135F7E71F
:10007C00506A0A087C6A0A0801F048B808B501F011
:10008C0031FABDE8084002F01BBF02F021BB02F0C0
:10009C001FBB02F025BB0078B0FA80F04009704716
:1000AC000123037070470EB403B503AB53F8042B54
:1000BC000121019302F062FD02B05DF804EB03B084
:1000CC00704738B5046805467CB16368013B6360D2
:1000DC005BB9236820469B689847A368013BA360E3
:1000EC001BB923682046DB689847284638BD0000BA
:1000FC002DE9F04788B005460C4602F0B9FA38B93C
:10010C0003F0AAFA1B49FFF7CEFF08B0BDE8F08751
:10011C0002F018FE064602F021FE074602F02AFE07
:10012C00804602F033FE814602F044FE824602F025
:10013C0049FE33462A46CDE90404CDE9029ACDE9BD
:10014C0000780D490D4802F0DBFA0D4B0B4A1B7879
:10015C000C498DF8003006A83C2303F047F807A89B
:10016C00FFF7AFFF204600F005FD4FF4FA6002F0F8
:10017C003FFECAE7A0590A08DF590A089601002079
:10018C002C010020405A0A082DE9F04F8BB006468E
:10019C000C46154602F06CFA38B903F05DFA2049AA
:1001AC00FFF781FF0BB0BDE8F08F02F0CBFD0746E7
:1001BC0002F0D4FD804602F0DDFD814602F0E6FD42
:1001CC00824602F0F7FD834602F0FCFD3B463246C8
:1001DC00CDE903B0CDE90545CDE9019A1149CDF83A
:1001EC000080114802F08CFA104B0F4A1B78104912
:1001FC008DF8003008A83C2302F0F8FF09A8FFF79F
:10020C0060FF2B4622460B49074802F079FA20463C
:10021C00294600F0BBFD4FF4FA6002F0E9FDC1E79E
:10022C00A0590A084C5A0A08960100202C010020FB
:10023C00405A0A08B15A0A080122014B1A70704739
:10024C002C01002030B5613887B0192816D8DFE8AA
:10025C0000F03033152A1515150D17151515151534
:10026C00154E151539594715676F757E01224D4B83
:10027C001A600A224C4B1A6000F088FC07B030BDA3
:10028C004A4CE368EF2B01D80A33E36003F092FC8D
:10029C0014220020454902F01BF8E2684449454805
:1002AC00FFF772FFEAE7414CE3680A2BEED90A3BF1
:1002BC00EBE700F059FEE1E73F4B0120196801F034
:1002CC0099FEDBE70024394D3C486C6000F052FC91
:1002DC0003F070FC14222946002001F0F9FFCDE751
:1002EC000024324D364800F045FC2C61F0E7012328
:1002FC002E4C3448636000F03DFC03F05BFC142290
:10030C002146E9E700F046FA2F4B304A1B68126889
:10031C002F49304802F0F4F92E4800F02BFCADE7E1
:10032C002D4800F027FC03F045FC14221F49D3E7AD
:10033C002A4800F01FFC00F095F99FE7284800F0D0
:10034C0019FC372000F036FB00F0B8FF96E702A846
:10035C0002F096F902A9234800F0EEFD02A802F083
:10036C00BBFA214B00221B7820498DF8003002A8E3
:10037C003C2302F03BFF039C7CB16368013B636050
:10038C005BB9236820469B689847A368013BA36030
:10039C001BB923682046DB6898474FF4FA7002F0CB
:1003AC0027FD6BE7E8020020E40200209002002009
:1003BC00B95A0A08D35A0A0800000020DB5A0A0866
:1003CC00F05A0A08135B0A08E0020020DC02002045
:1003DC00295B0A08F00200203B5B0A08555B0A08FF
:1003EC00625B0A08725B0A082D010020815B0A0817
:1003FC0008B503F031F903685B699847BDE808401C
:10040C00C0B2FFF71FBF00000022014B1A707047EB
:10041C002D010020002300220383C261036243628A
:10042C008362C36280F8303080F831304386704785
:10043C0038B50446154601F0C8F94FF47A732046D6
:10044C002575E382FFF7E6FF38BD00002DE9F0418A
:10045C000B68044603624B6800F1200543620B787D
:10046C00262B60D008D8102B0AD0222B59D0002074
:10047C0084F83100BDE8F081282BF8D1022300E08C
:10048C00012384F83130204601F0ACF9294620468E
:10049C0001F062FA227D4421204601F032FAE08A12
:1004AC0002F0A6FC204601F09DF92946204601F0F9
:1004BC0053FA0022B821204601F023FA00222046EC
:1004CC00114601F01EFA204601F08CF9294620460F
:1004DC0001F042FA0022BE21204601F012FA94F8F3
:1004EC003130042B04D100222046114601F009FAC8
:1004FC0004F128052E4604F13107204601F01CFAC0
:10050C0005F8010BAF42F8D10821304601F0AFFAE3
:10051C0094F83030834208D00123002084F8333023
:10052C00A8E70323ADE70423ABE794F8290094F87C
:10053C00283043EA0023238394F83130042B47D12D
:10054C0094F82A80C50840EA08232383404684F89F
:10055C00295004F09DF803F00BFD064628460F4683
:10056C0004F096F803F004FD0022244B03F058FD30
:10057C0018F0800F02460B4625D03046394603F062
:10058C0097FB03F07FFF15E094F82C20B4F918309A
:10059C0012F0600202D123F007032DE0202A0CD0C8
:1005AC00402A0DD0B4F9180004F076F84FF07651CB
:1005BC0004F0C6F8E06101205CE723F003031BE0C4
:1005CC0023F0010318E032463B4603F073FBD8E7F7
:1005DC00032BF0D8012BD7D8EDD1B4F9183094F8FF
:1005EC002F20DB00102A2383DCD194F82E2023F05B
:1005FC000F03C2F10C0213442383D3E70000A03F86
:10060C0038B50446FFF706FF00F12005294601F036
:10061C00BBF938B90123204684F8323001F0AEF929
:10062C00002038BD0721284601F021FA94F8273024
:10063C00834203D0012384F83330F1E72946204666
:10064C00BDE83840FFF702BFC069704750F8203F43
:10065C000B6043684B60704790F83200704790F81D
:10066C00330070472DE9F0412D4E02F0F5FF2D4976
:10067C00FFF719FD374605253446DFF8C48001F035
:10068C0067F801F07FF8386002F0E6FF414657F852
:10069C00042BFFF708FD00F069F9962002F0A8FB87
:1006AC00013DECD1D4E900321344A2682F46134427
:1006BC00E2681344226905241344B3FBF4F456F89E
:1006CC00042B01352744052DA7EB0207F7D1042B8A
:1006DC0008D815491548FFF70BFD4FF47A742046DE
:1006EC00BDE8F08102F0B8FF0F3C3A461049FFF725
:1006FC00DAFC02F0B1FF22460E49FFF7D4FC21468A
:10070C00C4F5B4740C4844EAE47400F03FFB02F006
:10071C00A3FF22460949FFF7C6FC00F027F9DEE7E4
:10072C0030010020965B0A08C55B0A08EF5B0A08DB
:10073C00F65B0A08095C0A08295C0A08355C0A0899
:10074C00AD5B0A080EB403B503AB53F8042B0021C0
:10075C00019302F013FA02B05DF804EB03B070479A
:10076C0007B50A48FFF77BFF40B102F075FF084957
:10077C0002F0CAF9002003B05DF804FB0348694697
:10078C00FFF764FF9DF80700F5E700BF4401002068
:10079C00525C0A082DE9F74302F05EFF234902F090
:1007AC00C6F90026224DDFF89480DFF89490284695
:1007BC00FFF726FF20B3FFF7D3FF044602F04CFFF0
:1007CC0007462846FFF740FF03F0D2FB334622468C
:1007DC00CDE9000141463846FFF7B4FF21464846B3
:1007EC0000F0D4FAFA2002F003FB252C06F10106E6
:1007FC0013D12846FFF728FF04F068F90D4B186059
:10080C002846FFF729FF0028D1D00948FFF71CFF25
:10081C0004F05CF903B0BDE8F083972CF0D12846C6
:10082C00FFF712FF04F052F9034BE8E75E5C0A088D
:10083C0044010020DC020020E0020020705C0A0869
:10084C009B5C0A08002205210148FFF7F1BD00BF9F
:10085C004401002010B50446006808B101F040FFC7
:10086C00204610BD13B50446054B00221B780549E4
:10087C008DF800303C2302F0B9FC204602B010BDCC
:10088C0094010020815B0A0807B500220123CDE901
:10089C0000220349034801F003FF03B05DF804FB99
:1008AC00250C0A08815B0A08002340681A46194681
:1008BC0001F076BE10B5164C94B02046FFF7F4FF4D
:1008CC0000226068114601F08BFE28B1002360689D
:1008DC001A46194601F094FE3822002106A804F0AD
:1008EC00C5FB4C2301930B4B01AA02930B230393DF
:1008FC00094B606804930D2305930323ADF818305E
:10090C000023194601F074FE01F0AAFE14B010BDCC
:10091C0000040020A55C0A08B15C0A0838B5104C2C
:10092C0003F048F914222146002001F0C9FCE368C9
:10093C001E3BD22B0CD95A230025C4E903350123C5
:10094C00236003F037F914222146284601F0C0FC3D
:10095C00E26804490448BDE83840FFF715BC00BF05
:10096C0090020020BF5C0A08D85C0A08704738B5B2
:10097C00142500244543A54204DD322002F038FA48
:10098C000134F8E738BD000038B502F0E7F93C2532
:10099C00044602F0EFF905FB0404054B1C6002F061
:1009AC00D1F9044602F0DAF905FB040038BD00BFAA
:1009BC003003002010B5044602F0D0F9241A48BFC9
:1009CC003C3402F049FE22460249FFF76CFB2046FC
:1009DC0010BD00BFDE5C0A0838B50A2003F0D1F860
:1009EC004FF420450B4C0C4B6043B0FBF5F01860FA
:1009FC000C2003F0C6F86043B0FBF5F0074B186011
:100A0C000B2003F0BEF84443B4FBF5F4044B1C601C
:100A1C0038BD00BF4C2A02007C0100208001002060
:100A2C007801002008B501F03DF800F083FE0121AB
:100A3C00084603F069F80121022003F065F8002153
:100A4C00022003F072F80021012003F06EF800215F
:100A5C00084601F047F900210E4B1860084601F0DA
:100A6C0001FA0D4B01211860072003F04DF800210D
:100A7C00062003F049F803F09DF8142200200749E2
:100A8C0001F01EFC40F2E112054B1A600022054BEE
:100A9C001A6008BDD0020020D8020020900200206D
:100AAC0000000020A402002038B5062003F056F800
:100ABC000128044610D1094B094918600948FFF771
:100ACC0017FB094B5D68012D04D108490548FFF758
:100ADC000FFB2C46204638BD0024F2E7A80200206C
:100AEC00035D0A081D5D0A0890020020255D0A08B6
:100AFC0010B5062003F032F8431E064C58425841FC
:100B0C00206002F0A9FD22680349FFF7CCFA2068A7
:100B1C0010BD00BFA80200203B5D0A082DE9F04380
:100B2C0085B002F033F9044602F044F9054602F0B0
:100B3C0049F9064602F006F9074602F00FF980461D
:100B4C0002F018F9DFF828902B462246CDE90280F6
:100B5C0006494846CDE9006701F0D2FD02F07CFD64
:100B6C00494605B0BDE8F04301F0CEBF505D0A0820
:100B7C00F002002010B50446FFF7D0FF02F06CFD28
:100B8C002146BDE8104001F0D2BF000008B5114865
:100B9C00FFF7F0FF1048FFF7EDFF1048FFF7EAFFF3
:100BAC000F48FFF7E7FF0F48FFF7E4FF0E48FFF78A
:100BBC00E1FF0E48FFF7DEFF0D48FFF7DBFF0D48A6
:100BCC00FFF7D8FF0C48FFF7D5FFBDE808400B48EE
:100BDC00FFF7D0BF6E5D0A08765D0A08825D0A08D1
:100BEC00965D0A08B85D0A08D85D0A08EC5D0A082B
:100BFC00015E0A08285E0A08455E0A08565E0A0865
:100C0C0010B50446FFF78AFF02F026FD2168BDE807
:100C1C00104001F08CBF000070B505461E4E8CB024
:100C2C000C4604A8314601F0A1FE2946684601F0A5
:100C3C009DFE694604A801F002FF014608A801F0D8
:100C4C00D4FE08A8FFF7DCFF08A801F045FE6846B3
:100C5C0001F042FE04A801F03FFE314604A801F069
:100C6C0085FE2146684601F081FE694604A801F024
:100C7C00E6FE014608A801F0B8FE08A8FFF7C0FF81
:100C8C0008A801F029FE684601F026FE04A801F030
:100C9C0023FE0CB070BD00BF745E0A0830B50C4664
:100CAC008DB0324904A801F061FE2146684601F07E
:100CBC005DFE694604A801F0C2FE2D4901F0CBFE91
:100CCC00014608A801F091FE08A8FFF799FF08A8B3
:100CDC0001F002FE684601F0FFFD04A801F0FCFDE6
:100CEC00214604A801F042FE224908A801F03EFE6C
:100CFC0008A904A801F0D9FE054608A801F0ECFDEE
:100D0C0004A801F0E9FD6DB101231B4DAB6002F0AD
:100D1C0051FF29460020142201F0DAFA174918482D
:100D2C00FFF7E6F9214604A801F020FE154908A8B2
:100D3C0001F01CFE08A904A801F0B7FE044608A89F
:100D4C0001F0CAFD04A801F0C7FD6CB100240A4DE6
:100D5C00AC6002F02FFF29462046142201F0B8FAAD
:100D6C0009490748FFF7C4F90DB030BD815E0A0888
:100D7C00945E0A08965E0A08900200209A5E0A08A1
:100D8C001D5D0A08C75E0A08CA5E0A0870B50446EB
:100D9C000D46084EFFF7C2FE2B462246064930464A
:100DAC0001F0AEFC02F058FC3146BDE8704001F099
:100DBC00BEBE00BF96010020F55E0A08F7B5002202
:100DCC003F4B1146586801F0E3FB054601F050FC1F
:100DDC000646FFF7A3FE3B4B3B4F19683B483C4C88
:100DEC00FFF7D4FFFFF7F8FD39683A48FFF7CEFF5D
:100DFC0021683948FFF7CAFF384B39481968FFF7A3
:100E0C00C5FF3B68B3F57A7F0AD902F025FC3A6836
:100E1C003449FFF748F93A6833493448FFF7B4F9D5
:100E2C002368B3F57A7F0AD902F016FC22683049A0
:100E3C00FFF739F922682F492C48FFF7A5F9012053
:100E4C0002F08CFE2C4A0128106006D12B48FFF7CB
:100E5C0091FE2B492B48FFF74BF9022002F07EFE46
:100E6C00294A0128106006D12848FFF783FE28493B
:100E7C002448FFF73DF9274B1B68012B06D1264868
:100E8C00FFF778FE25491F48FFF732F902F0E4FB23
:100E9C00234B24491A68FFF706F902F0DDFB224BBD
:100EAC0022491B68224A0093002E14BF0B4613469E
:100EBC00002D18BF0A461F49FFF7F5F803B0F0BD27
:100ECC0000040020280300207C010020FB5E0A089F
:100EDC0080010020345F0A08695F0A08780100204D
:100EEC00035F0A08135F0A082D5F0A08445F0A08AB
:100EFC00485F0A08625F0A08D4020020795F0A087A
:100F0C008A5F0A089C5F0A08D8020020A35F0A08BF
:100F1C00B85F0A08D0020020CD5F0A08DF5F0A081C
:100F2C0004000020F15F0A08AC020020C75E0A082A
:100F3C00965E0A0802600A0870B504460D46084E13
:100F4C00FFF7ECFD22462B680649304601F0D8FB32
:100F5C0002F082FB3146BDE8704001F0E8BD00BFF5
:100F6C0096010020F55E0A0830B587B0FFF7D6FD74
:100F7C003720FFF71FFD494902A801F036FD02A9F1
:100F8C004748FFF7D9FF02A801F0A6FCFFF77CFC4D
:100F9C0002A8FFF767FC03A8FFF793F84FF4FA7069
:100FAC0001F026FFFFF7A4FDFFF77EFD3D4B3E4C05
:100FBC001B783E4A3E498DF8003002A83C2302F0D3
:100FCC0015F903A8FFF77DF802F0F4FD1422214671
:100FDC00002001F075F921683648FFF7D7FE6168EB
:100FEC003548FFF7D3FEA1683448FFF7CFFEE16820
:100FFC003348FFF7CBFE21693248FFF7C7FE01F0FB
:10100C00D1FE054601463048FFF7C0FEA2682F49C5
:10101C002F48FFF7B9F8E2682E492D48FFF7B4F8CE
:10102C00226928492A48FFF7AFF82A462A49284856
:10103C00FFF7AAF8FFF716FB284B02461860284961
:10104C002348FFF7A1F8A368012B03D125492048B9
:10105C00FFF74EF82269052A05D923491C48FFF7EA
:10106C0093F807B030BD214C214DFFF793FB21685D
:10107C002048FFF78BFE29681F48FFF787FE2B6877
:10108C0022681E491E4801F03BFB1D491D48FFF715
:10109C002FF81D48FFF76EFDE3E700BFB0020020FC
:1010AC00725B0A0895010020900200209601002036
:1010BC00CE610A0825600A083B600A0851600A08DC
:1010CC0067600A087D600A0893600A08A9600A082C
:1010DC00EF5B0A08B6600A08C8600A080400002022
:1010EC00D6600A08E5600A0813610A08DC020020D1
:1010FC00E00200204F610A085B610A08295B0A08BC
:10110C00F00200201D5D0A0867610A0810B586B060
:10111C0002F0A2FA4FF4E13102F092FA4FF4FA60C5
:10112C0001F066FEFFF7C6FB4FF0804001F0BEFDFC
:10113C0002F092FA4D49FEF7B6FF02F08DFA4B49D8
:10114C00FEF7B1FF02F088FA4949FEF7ACFF02F056
:10115C0083FA4849FEF7A7FF474C02F07DFA444951
:10116C00FEF7A1FF02A801F08BFA02A9204601F0BC
:10117C0047FC02A801F0B0FB02F06EFA2168FEF702
:10118C0092FF40F6B83001F033FE20223B493C4838
:10119C00FEF7FAFFFFF7C2FB01F06AFA00285ED0F7
:1011AC0002F05AFA3749FEF77EFFFFF76DFB02A8F3
:1011BC00FFF758FB03A8FEF784FF002332491A46B9
:1011CC00CDE90033314801F06BFA314B02A81B78A2
:1011DC00304A8DF8003030493C2302F007F803A860
:1011EC00FEF76FFF2D4CFFF71DFC02F0E3FC142201
:1011FC002146002001F064F8E3681E3BD22B08D98D
:10120C005A23E36002F0D6FC14222146002001F0A0
:10121C005FF8E26822491A48FEF7B6FFA368012B73
:10122C0003D120491648FEF763FF01F0BBFD0446CD
:10123C0002F012FA22461C49FEF735FFFFF794FE26
:10124C00FFF7A4FCFFF7A0FB4EF66022174B1860CB
:10125C00174B1A600022174B1A6006B010BD02F033
:10126C00FBF91549FEF71FFFBCE700BFE0630A0856
:10127C0081610A0898610A08B0020020A6610A0878
:10128C00D85C0A08E9610A08A90C0A08C0610A08B6
:10129C009501002096010020CE610A0890020020E2
:1012AC00BF5C0A08E5600A0805620A0828030020EA
:1012BC00AC020020E8020020DB610A08F0B5051E34
:1012CC0089B040F3D380782DA8BF7825684E694B40
:1012DC0074681B68684F1C433B681C4340F0C48017
:1012EC006648FFF747FC2146204600F0FBFC644BA8
:1012FC0021461860204600F0B5FD624B214618606F
:10130C00204600F055FE2146386001203C2702F0B3
:10131C000CFC2146022002F008FC2A465A495B4884
:10132C00FEF732FF4FF47A7001F062FD01227D432B
:10133C00574B0DF116011B6806A8CDE90025029349
:10134C000DF11503ADF816208DF8152001F06EFA8D
:10135C005048FFF70FFC5048FFF7A6FA41F28830CF
:10136C0001F046FD01F07CF941F2883001F040FDBE
:10137C0001F07EF968B349494948FEF7B9FEF268B5
:10138C0048494748FEF700FFFFF77EFA23462246FE
:10139C004549CDE90044454801F082F94FF4FA7013
:1013AC0001F026FD06A8FFF75DFA07A8FEF789FEF7
:1013BC004FF4FA7001F01CFD3D4B06A81B783D4A1A
:1013CC008DF800303C493B4601F010FF07A8FEF7B2
:1013DC0078FEFFF7D9FA394B1860FFF723FB02F0C0
:1013EC00E9FB14220020224900F06AFFF3681E3B3F
:1013FC00D22B08D95A23F36002F0DCFB1422002014
:10140C001B4900F065FFB368012B03D12C4924481C
:10141C00FEF76EFE2B4C2C4DFFF7BCF902F01CF9BD
:10142C0022682B682949FEF73EFE22682B68284962
:10143C00284801F065F927491948FEF759FEFFF7CE
:10144C0093FD01F07FFC044601F07CFC082C04DDCC
:10145C000A2802DC5F2000F00DFE00231E4A1360F8
:10146C001E4A13601E4A136009B0F0BD05252DE716
:10147C0090020020A8020020D002002016620A0868
:10148C00D4020020D80200202E620A08EF5B0A0862
:10149C009001002049620A08000400205B620A08DF
:1014AC006D620A08BF5C0A08A90C0A08C0610A0828
:1014BC009501002096010020CE610A082803002027
:1014CC00E5600A08DC020020E002002075620A08D0
:1014DC00295B0A08F0020020CC020020AC0200209C
:1014EC00E802002070B53F4A0A2013683E4D0133D4
:1014FC00136001F07DFCFFF747FA286001F011FC46
:10150C0010F00100394C1ED1236801332360384B95
:10151C00196800F06FFD00F0F5FD01F01FFC0A28C2
:10152C000ED101F00FFC064601F00CFC092E01DC7B
:10153C00042851DC3720FFF73DFA3C30FFF7BEFEA4
:10154C000120FFF714FA0A21236893FBF1F601FB43
:10155C0016360EBBFFF732FCFFF7CAFA254B2A688A
:10156C00186040F22D139A4207D13146042000F046
:10157C0053FB21492148FEF7BBFD2B68B3F5977F40
:10158C0007D10121042000F047FB1D491B48FEF741
:10159C00AFFD2368013323602368B3F5967F1FDD0D
:1015AC0000262660FFF7E0FC40F246532A689A4278
:1015BC00C8BF144B144AC8BF1E601368002B0FDD44
:1015CC00013B136063B91148FFF7D4FABDE87040D2
:1015DC000F490A48FEF78CBD3720FFF7EBF9ADE752
:1015EC0070BD00BFAC02002028030020CC020020FC
:1015FC0000000020A802002092620A081D5D0A0863
:10160C00A4620A08A4020020E4020020B7620A08BF
:10161C00C9620A08F8B500240127124B124D1C6050
:10162C00124B134E1C70134B03201F70124B2C606B
:10163C00AB60AC80AC7100F045FF324628460F49D8
:10164C0002F026FB21460E4C384600F04BFF20469C
:10165C000C4901F08BF932462046BDE8F8400A49A6
:10166C0002F016BB900100208401002094010020A0
:10167C0028010020950100200000FFFF61080A08E6
:10168C00B00200209A5C0A08E5280A08F8B5274D34
:10169C0006462B78264CBFF35B8F19B3D80709D4B9
:1016AC002846FEF7F8FC28B100F09AFD2060284689
:1016BC00FEF7F6FC1C20464327682B783744D907E5
:1016CC00BFF35B8F09D41948FEF7E5FC28B100F095
:1016DC0087FD20601548FEF7E3FC2368BA889B5908
:1016EC001A83F8BDDA0709D42846FEF7D4FC28B1D2
:1016FC0000F076FD20602846FEF7D2FC1C20464305
:10170C0027682B783744DB07BFF35B8F09D4074876
:10171C00FEF7C1FC28B100F063FD20600348FEF722
:10172C00BFFC2368BA889B595A83DAE7340300203C
:10173C003803002008B50121032002F0E5F903204D
:10174C000021FFF7A3FFBDE80840322001F050BB99
:10175C0008B50021042002F0D7F90121032002F082
:10176C00D3F901210320FFF791FF0A2000F090FD2F
:10177C0000210320FFF78AFFBDE808400121042067
:10178C0002F016BA0A2343433A20B3FBF0F0704739
:10179C0010B5044601F0B8FF1C232288534362683D
:1017AC00D118D3588A8801211A83208800F028FD8B
:1017BC00BDE8104001F0AABF1C23028853434268C5
:1017CC00D118D3588A885A83704738B504460D46C9
:1017DC0000F006FD00216060284602F095F92046D5
:1017EC00258038BD38B5054601F08EFF00212888CC
:1017FC0000F006FD7D2401F089FF013C14F0FF048C
:10180C002DD0022000F044FD288800F011FD10F0CE
:10181C00FF0FF2D001F078FF2846FFF7CDFF012132
:10182C00288800F0EDFC01F071FF4FF4F07000F02F
:10183C002FFD01F069FF0021288800F0E1FC462013
:10184C0000F026FD288800F0F3FCC4B2B4FA84F44E
:10185C0001F05CFF4FF4CD70640900F019FD2046D7
:10186C0038BD38B511F00105044616D001F04CFF17
:10187C002046FFF7A1FF0121208800F0C1FC0A20BF
:10188C0000F006FD2088002100F0BAFC01F03EFFBC
:10189C003720BDE8384000F0FBBC01F035FF204696
:1018AC00FFF78AFF0121208800F0AAFC412000F0FC
:1018BC00EFFC2088294600F0A3FC01F027FF05204F
:1018CC00E7E710B5044601F01FFF2046FFF774FF51
:1018DC000121208800F094FC032000F0D9FC0021A9
:1018EC00208800F08DFC0A2000F0D2FC208800F04B
:1018FC009FFC044601F00AFF352000F0C9FCE0B261
:10190C0010BD2DE9F04105468846164608270124EE
:10191C0018EA040F14BF012100212846FFF7A1FF8C
:10192C006400013FE4B2F3D126B12846BDE8F04192
:10193C00FFF72EBFBDE8F081F8B507460826002555
:10194C0001243846FFF7BDFF00B125436400013E7A
:10195C00E4B2F6D12846F8BD70B500220C465521EC
:10196C000646FFF7CEFF651E073415F8011F00224F
:10197C003046FFF7C6FFA542F7D170BD0023C0E982
:10198C0002330382837470472DE9F04790F812906C
:10199C0004468846B9F1000F0ED000202082A074B6
:1019AC0004F1080308F1FF38103413F8012BA3429B
:1019BC0008F8012FF9D104E0FFF714FF18B92082C1
:1019CC00A074BDE8F08701264A46F0212046FFF7B7
:1019DC0098FFCA4635462046FFF773FF0746204658
:1019EC00FFF76FFF012F0FD1012827D1402DD4D93C
:1019FC0084F81090B9F1000F01D10123A374237A5C
:101A0C00002BCAD00120CBE7874204EB0A030CD190
:101A1C00227CAA420ED91A7A164214BF012700273B
:101A2C0067B9082D00D86574A9461A7A22EA06020D
:101A3C001A7209E00CBF01270027F1E7012704EB1C
:101A4C000A02137A33431372394620467600FFF7A5
:101A5C0008FF16F0FF0602BF0AF1010A5FFA8AFAC4
:101A6C0001260135BAF1070FEDB2B4D9BEE7024633
:101A7C000144002030B58A4213D0082412F8015BCF
:101A8C0080EA050313F0010F4FEA50001CBF80F0F1
:101A9C008C03D8B2631E13F0FF044FEA5505EFD147
:101AAC00E9E730BD10B5074C0121208802F02CF875
:101ABC002088002102F039F8BDE810404FF4FA708C
:101ACC0001F096B93C0300202DE9F0412D4C00218A
:101ADC000746208802F029F841F2883000F0D8FB44
:101AEC000021208802F021F841F2883000F0D0FB70
:101AFC000021208802F019F841F2883000F0C8FB70
:101B0C0008264FF000083D1D3B6801214345208805
:101B1C0005F1100520DD02F008F855F8100C00F066
:101B2C00B7FB0021208802F000F855F80C0C00F0EF
:101B3C00AFFB0121208801F0F8FF55F8080C00F0EC
:101B4C00A7FB0021208801F0F0FF55F8040C00F0F1
:101B5C009FFB08F10408D7E701F0E7FF4FF4D770BB
:101B6C0000F096FB0021208801F0DFFF4FF4FA50C3
:101B7C0000F08EFB013EC4D131462088BDE8F04117
:101B8C0001F0D3BF3C0300202DE9F047C6B0054659
:101B9C000E46174601F060FD04460A22294600F065
:101BAC00D0FF204600F0B7FF3C22002101A803F033
:101BBC005DFA40236C464FF00108DFF85490DFF8D3
:101BCC0054A00093002D1ADAC4E9017601F044FD0B
:101BDC00514608F1020800F097FFB8F1410F4FEAA7
:101BEC00450504F10804EDD101F036FD074900F07C
:101BFC009EFF6846FFF768FF46B0BDE8F087C4E972
:101C0C00016701F029FD4946E3E700BFE0630A08DC
:101C1C00E8620A08E6620A080B2870B505460C460D
:101C2C0004DD01F019FD184900F081FF012C04DDE1
:101C3C0001F012FD154900F07AFF0A2606FB045448
:101C4C00134B53F82440BCB101F006FD114900F0D0
:101C5C005BFF01F001FD05463246214600F071FFA5
:101C6C00284600F058FF2046BDE8704040F27E4206
:101C7C004FF4D771FFF788BF01F0EEFCBDE8704060
:101C8C00054900F041BF00BFEA620A0802630A0876
:101C9C00080000201A630A0828630A0810B50121FD
:101CAC0004460220FFF7B8FF0122084B08490948F7
:101CBC001A60FEF71DFAFEF767FE074B1860074B1C
:101CCC001B681C44064B1C6010BD00BFD0020020DA
:101CDC004C630A08EF5B0A0828030020300300203D
:101CEC00EC020020F8B504460D4601F0B5FC46495F
:101CFC00FEF7D9F901F0B0FC2B4622464349FEF71A
:101D0C00D2F90121084601F0FFFE012001F026FF67
:101D1C003F4F012C3E4638604CD100284AD13D49FA
:101D2C003D48FEF7E5F9FEF79DFC3C4C0246206071
:101D3C003B493948FEF728FA23683B2B05DC36482B
:101D4C003849FEF7D5F93868F8BDFEF71DFE364B5D
:101D5C001860364B1968364B0D44012108461D603E
:101D6C0001F0E3FE334B34491A682B48FEF70CFAAA
:101D7C00FA2001F03DF8012001F0F0FE2F4C30600C
:101D8C0001F06AFC32682E49FEF78DF9FEF724FE4D
:101D9C0001F062FC22682B49FEF785F922682A497A
:101DAC002A48FEF7F1F901F057FC1749FEF77BF9C9
:101DBC003068C9E7002CDBD10128D9D1002101F012
:101DCC00B4FE00221B4B224913481A60FEF790F90F
:101DDC00FEF748FC1F4C114D02461F4920600E486F
:101DEC00FEF7D2F923682A681C49D21A0A48FEF772
:101DFC00CBF92B6822689B1A032BB9DD18490648CE
:101E0C00FEF776F9B4E700BF6B630A089B630A0818
:101E1C00D4020020C9630A08EF5B0A08C80200203C
:101E2C00E2630A0801640A0828030020300300203A
:101E3C0024030020C00200203A640A087C01002020
:101E4C00E0640A08135F0A08F6640A08445F0A088B
:101E5C0057640A08C402002072640A0891640A08D4
:101E6C00B1640A0870B505460E4601F0F5FB3B4916
:101E7C00FEF719F901F0F0FB33462A463849FEF714
:101E8C0012F90121022001F03FFE022001F066FE52
:101E9C00344C012D20603DD100283BD1FEF7E2FBF4
:101EAC00314B0246186031493148FEF76DF901217A
:101EBC00022001F03AFE2F492D48FEF719F9FEF7E2
:101ECC0063FD2D4B18602D4B19682D4B0E441E6075
:101EDC00FA2000F08DFF022001F040FE294D206019
:101EEC0001F0BAFB22682849FEF7DDF8FEF774FD15
:101EFC0001F0B2FB2A682549FEF7D5F82A68244977
:101F0C002448FEF741F901F0A7FB1449FEF7CBF882
:101F1C00206870BD002DDBD10128D9D10021022011
:101F2C0001F003FE1C4B1D491A691148FEF72CF9F0
:101F3C00FEF798FB1A4D1B49024628600C48FEF729
:101F4C0023F9094A2B68126809489B1A052BCCBF48
:101F5C0015491649FEF7CCF8BAE700BF6B630A08BF
:101F6C000A650A08D8020020C80200203B650A084E
:101F7C00EF5B0A085E650A08280300203003002086
:101F8C002C0300208001002027660A0840660A08FE
:101F9C00625F0A08445F0A08900200207B650A0809
:101FAC00C4020020A6650A08C9650A08F7650A0874
:101FBC0010B50446012C084603D1FFF76FFE2046EE
:101FCC0010BD00210220FFF727FE0022054B064919
:101FDC001A604FF47A62054B05481A60FEF788F8D0
:101FEC00EDE700BFD00200205D660A08EC0200207D
:101FFC00EF5B0A0838B5184C2368012B0ED0174B31
:10200C001B688B4201D0012808D1154B9D68012D0E
:10201C0005D114491448FEF76BF8256038BDD96812
:10202C000120FFF75FFE114B186000F0BBFE052886
:10203C000EDC00210846FFF7BBFF0D4D28604FF466
:10204C007A7000F0D5FE0C20FFF728FE01232B60E0
:10205C0001232360E2E700BFA40200202803002034
:10206C0090020020E5600A08EF5B0A08D402002009
:10207C00D002002010B504461948FEF77BFDFEF790
:10208C00F1FA184BA042186005DD17491748BDE856
:10209C001040FEF72DB8164B1A69052A05D9BDE874
:1020AC00104014491148FEF76FB80028D4BF002225
:1020BC000122A042A8BF002282B10F4C22686AB94B
:1020CC009B68012B01D10D49E0E70D490748FEF74C
:1020DC000FF85A210120FFF7C5FE206010BD00BF8C
:1020EC007C660A08040000208C660A08EF5B0A086C
:1020FC0090020020AC660A08D8020020ED660A089F
:10210C0027670A0870B5FEF73FFC2A4B2A4E186069
:10211C00012001F023FD0128284C306019D1284DF5
:10212C0021682848FEF732FE29682748FEF72EFE64
:10213C0022682B689A420CDD3368012B09D10021EF
:10214C004FF47A6308462B60FFF7CCFD5F20FFF756
:10215C0091FF022001F002FD1C4B216818601C4B02
:10216C001A68914213DD012811D14FF47A62194D8E
:10217C001A602B6901332B6101F01CFD29460020EC
:10218C00142200F0A5F800210846FFF76BFE124B55
:10219C0021681A6891420CDD104A1268012A08D194
:1021AC004FF47A6200211A600846BDE87040FFF7D0
:1021BC00FFBE70BD28030020D40200203003002095
:1021CC00240300204B670A0850670A08D802002035
:1021DC002C03002090020020EC020020D0020020F2
:1021EC0008B5024B1B681B68019308BDB0010608BB
:1021FC0008B5024B1B685B68019308BDB00106086B
:10220C0008B5024B1B689B68019308BDB00106081A
:10221C0008B5024B1B68DB68019308BDB0010608CA
:10222C0008B5024B1B681B69019308BDB001060879
:10223C0008B5024B1B685B69019308BDB001060829
:10224C0008B5024B1B681B6A019308BDB001060858
:10225C0008B5024B1B685B6A019308BDB001060808
:10226C0008B5024B1B681B6B019308BDB001060837
:10227C0008B5024B1B68DB6C019308BDB001060866
:10228C0008B5024B1B685B68019308BD9C010608EE
:10229C0008B5024B1B68DB68019308BD9C0106085E
:1022AC0008B5024B1B685B69019308BD9C010608CD
:1022BC0008B5024B1B689B6A019308BD9C0106087C
:1022CC0008B5024B1B685B6C019308BD9C010608AA
:1022DC0008B5024B1B689B6C019308BD9C0106085A
:1022EC0008B5024B1B689B6D019308BD9C01060849
:1022FC0008B5024B1B685B6E019308BD9C01060878
:10230C0008B5024B1B685B6C019308BDD001060835
:10231C0008B5024B1B689B6C019308BDD0010608E5
:10232C0008B5024B1B689B69019308BDC4010608E4
:10233C0008B5024B1B685B6A019308BDC401060813
:10234C0008B5024B1B689B6A019308BDC4010608C3
:10235C0008B5024B1B68DB6A019308BDC401060873
:10236C0008B5024B1B681B6B019308BDC401060822
:10237C0008B5024B1B685B6B019308BDC4010608D2
:10238C0008B5024B1B689B6B019308BDC401060882
:10239C0008B5024B1B681B6C019308BDC4010608F1
:1023AC0008B5024B1B681B6E019308BDAC010608F7
:1023BC0008B5024B1B685B6E019308BDAC010608A7
:1023CC0008B5024B1B689B6E019308BDAC01060857
:1023DC0008B5024B1B68DB6E019308BDAC01060807
:1023EC0008B5024B1B681B6F019308BDAC010608B6
:1023FC0008B5024B1B685B6F019308BDAC01060866
:10240C0008B5034B1B68D3F88030019308BD00005E
:10241C00AC01060808B5024B1B68DB69019308BDCB
:10242C00B401060808B5024B1B681B6A019308BD72
:10243C00B401060808B5024B1B681B68019308BD64
:10244C00D801060808B5024B1B685B68019308BDF0
:10245C00D801060808B5024B1B681B69019308BD1F
:10246C00D801060808B5024B1B685B69019308BDCF
:10247C00D801060808B5024B1B689B69019308BD7F
:10248C00D801060808B5024B1B68DB69019308BD2F
:10249C00D801060808B5024B1B681B6A019308BDDE
:1024AC00D801060808B5024B1B689B6C019308BD4C
:1024BC00C001060808B5024B1B681B68019308BDD8
:1024CC00A401060808B5024B1B685B68019308BDA4
:1024DC00A401060808B5024B1B685B69019308BD93
:1024EC00A401060808B5024B1B68DB6A019308BD02
:1024FC00A401060808B5024B1B68DB6C019308BDF0
:10250C00A401060808B5024B1B685B6D019308BD5E
:10251C00A401060808B5024B1B689B6D019308BD0E
:10252C00A401060808B5034B1B68D3F8903001933F
:10253C0008BD0000A401060808B5034B1B68D3F8BE
:10254C009C30019308BD0000A401060808B5034B9C
:10255C001B68D3F8A830019308BD0000A40106083D
:10256C0008B5024B1B685B68019308BDC8010608DF
:10257C0008B5024B1B689B68019308BDC80106088F
:10258C0008B5024B1B68DB68019308BDC80106083F
:10259C0008B5024B1B681B69019308BDC8010608EE
:1025AC0008B5024B1B685B69019308BDC80106089E
:1025BC0008B5024B1B689B69019308BDC80106084E
:1025CC0008B5024B1B68DB69019308BDC8010608FE
:1025DC0008B5024B1B681B6A019308BDC8010608AD
:1025EC0008B5024B1B685B6A019308BDC80106085D
:1025FC0008B5024B1B689B6A019308BDC80106080D
:10260C0008B5024B1B68DB6A019308BDC8010608BC
:10261C0008B5024B1B681B6B019308BDC80106086B
:10262C0008B5024B1B685B6B019308BDC80106081B
:10263C0008B5024B1B681B6C019308BDC80106084A
:10264C0008B5024B1B685B6C019308BDC8010608FA
:10265C0008B5024B1B689B68019308BDCC010608AA
:10266C0008B5024B1B68DB68019308BDCC0106085A
:10267C0008B5024B1B685B69019308BDCC010608C9
:10268C0008B5024B1B68DB69019308BDCC01060839
:10269C0008B5024B1B681B6A019308BDCC010608E8
:1026AC0008B5024B1B685B6A019308BDCC01060898
:1026BC0008B5024B1B681B6B019308BDCC010608C7
:1026CC0008B5024B1B68DB6B019308BDCC010608F7
:1026DC0008B5024B1B681B68019308BDA0010608D6
:1026EC0008B5024B1B685B68019308BDA001060886
:1026FC0008B5024B1B689B68019308BDA001060836
:10270C0008B5024B1B68DB68019308BDA0010608E5
:10271C0008B5024B1B689B69019308BDA001060814
:10272C0008B5024B1B685B6A019308BDA001060843
:10273C0008B5024B1B68DB6A019308BDA0010608B3
:10274C0008B5024B1B681B6B019308BDA001060862
:10275C0008B5024B1B685B6C019308BDA001060811
:10276C0070B5002604460D4640F8086FFFF7C8FD0B
:10277C0028462570FFF74EFE2046666070BD10B5EA
:10278C000446006818B1FFF7ABFF0023236010BDAF
:10279C0038B5B1F904300D4683800B4653F8062F3B
:1027AC000446C0F806209B884381FFF7E8FF2B689E
:1027BC0013B1236000232B60204638BDB1F90430DF
:1027CC0010B50A6833B932B951F8063F03608B88EB
:1027DC00838010BD22B19488012C03D0042C06D028
:1027EC00042205E092898C710B814A81ECE702226C
:1027FC000B814FF6FF738A714B81E5E710B500240E
:10280C00047044804FF6FF740029848008DD013980
:10281C008B4204D932F8113083800123037010BD30
:10282C0001D10223FAE74180F9E70000F0B50D462B
:10283C00164600278BB01A46129B04460193119B37
:10284C00314600932846109B0297FFF77FFE3346D4
:10285C0001462A4605A8FFF7D1FF0F4D9DF814102D
:10286C00BDF91620BDF818308DF82210284607A99E
:10287C00ADF82420ADF826300797ADF82070FFF79F
:10288C0087FF07A8FFF77BFF20462946FFF796FF37
:10289C0020460BB0F0BD00BF4003002002220020F8
:1028AC0010B5084B084C1A60084B2060A080A07132
:1028BC00A360FFF707FE2046BDE81040044A054917
:1028CC0001F0E6B94C030020400300200000FFFF9C
:1028DC002801002061080A0810B504460068FFF7BB
:1028EC00FFFE204610BD10B50446006808B1FFF786
:1028FC00F7FE0023C4E90133236010BD38B504464C
:10290C000D4600680131FFF7F3FE10B1C4E9000574
:10291C00012038BD10B50368044623B143688B42CF
:10292C0001D3012010BD2046FFF7E8FF0028F9D0A5
:10293C00A368002BF5D122681370F2E770B50E4630
:10294C00114604461546FFF7E5FF20B92046FFF770
:10295C00CAFF204670BD2A4631462068A56002F0A9
:10296C0077FB00212268A368D154F2E738B5002325
:10297C0004460D46C0E900338360037339B1084641
:10298C0002F0CDFB294602462046FFF7D7FF204632
:10299C0038BD38B5054600680C4668B16A688B6866
:1029AC009A4207D3096802F097FBA368AB60002337
:1029BC00A36038BDFFF794FE23682B6063686B60DF
:1029CC00A368AB600023C4E90033F1E7884210B57B
:1029DC000B46044604D0096821B19A68FFF7AEFF94
:1029EC00204610BDFFF77FFFFAE7002310B5044621
:1029FC00C0E9003383600373FFF7E8FF204610BD86
:102A0C00884210B5044601D0FFF7C3FF204610BD25
:102A1C0070B505460E4609B9002070BD6AB18468D0
:102A2C0014442146FFF776FF0028F5D02868AB68E0
:102A3C003146184402F050FBAC600120EDE710B5B4
:102A4C008A6809680446FFF7E3FF10B92046FFF7D0
:102A5C004AFF204610BD38B504460D4621B9204624
:102A6C00FFF741FF204638BD084602F058FB2946C7
:102A7C0002462046FFF7CCFF0028F0D0F2E71346C1
:102A8C0010B58A688468A41A9C420AD3006838B1CD
:102A9C00096841B1184402F04AFBB0FA80F04009D1
:102AAC0010BD0020FCE70846FAE782688B689A4262
:102ABC0002D30022FFF7E3BF00207047F8B50646AB
:102ACC000D4600248F18BD420CD0336830469B68ED
:102ADC0015F8011B9847031E01DB1C44F3E7002C7F
:102AEC0008BF1C462046F8BD70B505460C46084686
:102AFC0049B102F014FB2B68024621462846BDE87A
:102B0C007040DB68184770BD08B5FFF7EDFF08BDD6
:102B1C0003689B68184738B50D210546FFF7F8FF89
:102B2C000A2104462846FFF7F3FF204438BD38B588
:102B3C000546FFF7D9FF04462846FFF7ECFF204473
:102B4C0038BD0023012A98BF0A2230B58BB00C4641
:102B5C008DF8243009A92546B4FBF2F404FB12537A
:102B6C00DBB2092B94BF30333733DBB2AA4201F806
:102B7C00013DF0D9FFF7B8FF0BB030BD2DE9F041A6
:102B8C0086B000AF05460E46381D142114463B6036
:102B9C00FFF7C6FD13280ED82846391DFFF7A4FFF2
:102BAC0004461EB12846FFF7B6FF044420461837EA
:102BBC00BD46BDE8F08100F1080323F00703E846A9
:102BCC00ADEB030D2246411C3B686846FFF7A8FDA0
:102BDC0069462846FFF788FF0446C546E1E70B68BF
:102BEC00036013B15A6801325A607047014B024AB4
:102BFC001A607047500300205B670A082DE9F0410A
:102C0C00154ADFF86080D2E90032C01842EB0101AE
:102C1C00124A8CB0D2E90032C61841EB0207D8E94F
:102C2C000023BB4208BFB24213D003A96846CDE9CA
:102C3C00006702F017F9089B094D03F26C7303ACA3
:102C4C0008930FCC0FC50FCC0FC5C8E900672368DC
:102C5C002B600CB0BDE8F0818803002080030020BD
:102C6C00580300209003002008B50020FFF720FD3A
:102C7C0028B1FFF7FDFC80F00100C0B208BD0120B7
:102C8C00FCE7000008B5FFF7B9FF024B986901306B
:102C9C0008BD00BF5803002008B5FFF7AFFF024B7B
:102CAC001869013008BD00BF5803002010B50A494F
:102CBC00044601F0E3FE68B92046084901F0FCFE29
:102CCC0040B90749204601F03BFD01F025FF054BBB
:102CDC00C3E9000110BD00BF000040C1000060410D
:102CEC00000061458803002010B50020FFF7F8FABA
:102CFC000446A0B9FFF7DEFB012810D12046FFF7F0
:102D0C0009FC60B9FFF7B0FF10B9FFF7A1FCF9E7B8
:102D1C00FFF7AAFFBDE810400020FFF7E1BA2046FC
:102D2C0010BD1FB5FFF7E0FF10220021684602F02E
:102D3C009DF900216846FFF7DBFA009805B05DF8B5
:102D4C0004FB000008B5FFF7ECFFC117FFF756FFB7
:102D5C00014B986808BD00BF5803002008B5FFF769
:102D6C00E0FFC117FFF74AFF014B586808BD00BFD1
:102D7C005803002008B5FFF7D4FFC117FFF73EFF3B
:102D8C00014B186808BD00BF5803002008B5FFF7B9
:102D9C00C8FFC117FFF732FF014BD86808BD00BF51
:102DAC005803002008B5FFF7BCFFBDE80840C11769
:102DBC00FFF768BF08B5FFF7B4FFBDE80840C117BF
:102DCC00FFF76ABF08B5FFF7ACFFC117FFF716FF97
:102DDC00014B586908BD00BF58030020024B1A680C
:102DEC00024B1A60704700BF5800002054030020AB
:102DFC000021FFF76FBB10B58368044613B10322A3
:102E0C0001469847204610BD10B50446FFF7F3FF66
:102E1C00204610BD13B56C460B46024603C884E829
:102E2C00030093E8030082E8030094E8030083E8BE
:102E3C00030002B010BD000000230348034A0449FC
:102E4C00836000F025BF00BF9803002028010020FC
:102E5C00152E0A08014B1860704700BF5C0000205B
:102E6C0008B5134B43B100F0F7FB03681B69984797
:102E7C00002801DDFDF7BCFA0E4B43B100F09AFCC3
:102E8C0003681B699847002801DDAFF300800A4BEB
:102E9C000BB1AFF30080094B43B100F00DFC03689C
:102EAC001B699847002801DDAFF3008008BD00BF07
:102EBC00FD030A08000000000000000000000000F4
:102ECC0008B5FFF7CDFFFFF7EBF9014B186008BD14
:102EDC00200400200248034A0349121A02F0B8B831
:102EEC000040024004400240886A0A08002307B5EB
:102EFC001A466FF077010093FFF71EFB03B05DF8E5
:102F0C0004FB000007B543880A2B08D0502B0BD1CB
:102F1C00094B1B684BB103B05DF804EB1847FFF786
:102F2C00E5FF03B05DF804FB00231A466FF0770150
:102F3C000093FFF701FBF4E7AC03002038B5124C0B
:102F4C0000211248FFF704FC114D2368AB420CBF63
:102F5C00012200220F4B1A7002D0FFF7BBFF256035
:102F6C00FFF78EF9044602F089F80B4B13B120469B
:102F7C00AFF3008000210848FFF7A2FBBDE8384002
:102F8C0000210648FFF7CEBA00400240612E0A0825
:102F9C001E1C279AA803002000000000112F0A080D
:102FAC0070470020704710B50446102100F075FEE4
:102FBC00204610BD08B5FFF7F6FF08BD002230B55E
:102FCC004FF69C74026084808D888C800C688580A0
:102FDC0004600A6030BD10B504460068FFF780FB42
:102FEC00204610BD38B5C468F4B12378022B03D148
:102FFC0004F10C00FFF7EFFF656835B12846FFF7C9
:10300C00FAFE1021284600F048FEA56835B1284686
:10301C00FFF7F1FE1021284600F03FFE2046BDE8E8
:10302C003840142100F039BE38BD73B50E46044645
:10303C0056F8043B0D4601A831460093FFF7CFFD2F
:10304C00009B019A23600023626001A80193009306
:10305C00FDF737F83046FDF734F82846082100F024
:10306C001CFE204602B070BD826810B50AB900F093
:10307C0018FEC368BDE81040184708B5006800F199
:10308C001001FFF7F1FF08BD826810B50AB900F016
:10309C0008FEC368BDE81040184708B5006800F189
:1030AC001001FFF7F1FF08BD38B50023044603609B
:1030BC0010200D46FCF7E9FF28B10123C0E90133CC
:1030CC00024BC56003602060204638BD84670A0847
:1030DC0038B5002383608B6804460D462BB1022261
:1030EC009847EB68E360AB68A360204638BD0000EE
:1030FC00F0B589B004686846FFF760FF4FF0020333
:10310C00D4E84F2F002A03D1C4E8413F0029F7D15E
:10311C0025D104F10C0569462846FFF74FFF012322
:10312C00BFF35B8F63700020BFF35B8F04F1080368
:10313C0053E8006F43E80002002AF9D1BFF35B8F1C
:10314C006EB1FFF7D7F978B129463046FFF78CFFFF
:10315C003046FFF750FE1021304600F09EFD6846C9
:10316C00FFF739FF09B0F0BD314602A8FFF7B0FFF9
:10317C00E068B4F9105008B101F0B6FF06901020C9
:10318C00ADF81C50FCF781FF0546E8B100278760BD
:10319C001820FCF77AFF044688B10146876002A824
:1031AC00FFF738FE049BA268A360059B0492E268BB
:1031BC0006A9E36004F110000592FFF7FFFE084B2F
:1031CC002C60EB60074BAB6006A8FFF704FF02A86E
:1031DC00FFF711FE002229460348FFF793F9B7E7E2
:1031EC0087300A081D330A0845380A082DE9F047CC
:1031FC008AB005460C46174698469DF84890FFF74E
:10320C0037FA07AE824638BB4FF62E73059005A9E8
:10321C003046ADF81830FFF7D1FE1420FCF735FF1F
:10322C00044648B1022303700123C0E901AA43708C
:10323C0031460C30FFF7C2FE2846214640F8044BBD
:10324C00FFF732FF3046FFF7C6FE05A8FFF7C3FEB7
:10325C0028460AB0BDE8F0870C234FF0000A142072
:10326C00CDE908AA0793FCF710FF014628B1C0E985
:10327C0001AA80F800A080F801A004A80391FFF730
:10328C0013FF224B08200893FCF7FFFE824628B15F
:10329C00039B04A940F8043BFFF7A1FC42463946C6
:1032AC00204600965FFA89F3CDF824A0FFF7F0F9D9
:1032BC00B8B9039B5B7803F0FF0293B94FF69C738C
:1032CC0005A903A80592ADF81830FFF711FF05A862
:1032DC00FFF781FE05A80999FFF7A7FE06A8FCF7E2
:1032EC00F0FE039B04A906A80593FFF778FC059B49
:1032FC00069A2B6000236A6006A806930593FCF7D8
:10330C00E0FE04A8FCF7DDFEA2E700BFE1330A08EB
:10331C00022AF8B5054607D0032A18D0012A01D194
:10332C000B6803600020F8BD18200E68FCF7ADFE9A
:10333C00044650B13146FFF7CBFE3069B6F9147034
:10334C0008B101F0D1FE2061A7822C60EAE7046885
:10335C00002CE7D004F11000FFF73DFE2046FFF7EC
:10336C004AFD1821204600F098FCDBE738B5002315
:10337C0083608B6804460D462BB102229847EB689C
:10338C00E360AB68A360204638BD022A70B50446E2
:10339C0007D0032A12D0012A01D10B680360002048
:1033AC0070BD14200E68FCF770FE054620B1314646
:1033BC00FFF7DCFF337C2B742560F0E70468002CEE
:1033CC00EDD02046FFF717FD1421204600F065FCD8
:1033DC00E5E70000F0B5044689B00D4601A811469A
:1033EC00FFF723FEA4B124B21DB1284601F07CFEE8
:1033FC00054601A803A90395ADF81040FFF778FE28
:10340C0003A8FFF7E8FD02A8FCF75BFE09B0F0BDCE
:10341C000123019DD5E84F2F002A03D1C5E8413F78
:10342C000029F7D1EFD12B73BFF35B8F6B70BFF318
:10343C005B8F2B1D53E8006F43E80042002AF9D143
:10344C00BFF35B8F002EDED02046FFF753F8074604
:10345C0060B1304605F10C01FFF716FE3046FFF760
:10346C00CAFC1021304600F018FCCCE7314603A80A
:10347C00FFF77CFF2B7B10208DF81C30FCF705FE32
:10348C000546D0B187601420FCF7FFFD044678B1E7
:10349C000146876003A8FFF7BDFC059BA268A360EB
:1034AC00069B0592E268E3609DF81C30069223743B
:1034BC00064B2C60EB60064BAB6003A8FFF79BFC44
:1034CC00002229460348FFF71DF8C7E7A7300A0872
:1034DC0097330A0845380A087047F8B50E46002499
:1034EC0000F10807051D17F8011D0A223046FFF7E9
:1034FC0028FBAF42044401D12046F8BD002CF2D089
:10350C002E213046FFF704FB0444ECE710B50446CB
:10351C00182100F0C2FB204610BD000010B5044677
:10352C00044B1122002140F8043B01F09FFD204682
:10353C0010BD00BFA0670A080346074A10B543F840
:10354C00042B01F1100251F8044B914243F8044B47
:10355C00F9D10A781A7010BDA0670A08024AC0E9AE
:10356C000021042202757047A0670A0810B59DF867
:10357C00084044EA0324042344EA024444EA016474
:10358C004460037510BD000037B5044D05609DF80F
:10359C0018500095FFF7EAFF03B030BDA0670A088A
:1035AC0041747047704708B50021007CFEF762FF3C
:1035BC0040EAE07008BD08B50121007CFEF75AFF17
:1035CC0040EAE07008BD08B5007CFEF74BFF20EA2E
:1035DC00E07008BD08B5007CFEF73CFF20EAE07007
:1035EC0008BD38B50446007C0D46FEF73BFF0028AD
:1035FC0001DC607C28B12946207CFEF743FF20EAE1
:10360C00E07038BD007CFEF745BF10B504461421B0
:10361C0000F043FB204610BD10B54FF47A730446FE
:10362C0008460021C4E90113044B207423600123D4
:10363C0011466374FEF7FEFE204610BDB4670A08FF
:10364C000022007CFEF7FEBE10B5044614220021B9
:10365C0001F00CFD204610BD30B50F4D87B001A810
:10366C00FFF7F2FF2978BFF35B8F11F0010410D143
:10367C002846FCF710FD60B1214601AA0748FFF768
:10368C00CBFF2846FCF70CFD054A0649034800F021
:10369C00FFFA024807B030BDB0030020B803002089
:1036AC0028010020B1350A0810B504461422002167
:1036BC0001F0DCFC204610BD10B50F4C86B001A803
:1036CC00FFF7F2FF2378BFF35B8FDB0710D42046A4
:1036DC00FCF7E1FC60B1012101AA0848FFF79CFF4F
:1036EC002046FCF7DDFC064A0649044800F0D0FAF7
:1036FC00024806B010BD00BFB4030020CC0300206C
:10370C0028010020B1350A08FEF7A2BDFEF798BDCE
:10371C0070474174704708B5007CFEF739FE20EA0B
:10372C00E07008BD08B5007CFEF70AFE20EAE070E8
:10373C0008BD08B5007CFEF713FE40EAE07008BD3A
:10374C0008B5007CFEF704FE40EAE07008BD007C82
:10375C00FEF70EBE70B5467C04460D462EB12946CA
:10376C00207CBDE87040FEF7E3BD007CFEF710FE48
:10377C000028F4DC304670BD10B50446142100F06E
:10378C008CFA204610BD00004FF0000C10B504461A
:10379C00084611464FF47A72C4E901C2044A2074F7
:1037AC002260012262741A46FEF7BAFD204610BD53
:1037BC00E4670A08F8B51A4C26684EB98420FCF761
:1037CC0064FC054618B18422314601F04FFC25609B
:1037DC00144D2F684FB98420FCF757FC064618B1DE
:1037EC008422394601F042FC2E600F4F3978BFF32A
:1037FC005B8F11F0010611D13846FCF74CFC68B117
:10380C00314622682B680948FFF7BEFF3846FCF7A3
:10381C0047FC074A0749054800F03AFA0348F8BD47
:10382C00E4030020E8030020E0030020EC03002068
:10383C00280100201D370A0810B5836804460BB90F
:10384C0000F02FFAC3689847A3681BB103222146E6
:10385C00204698472046BDE81040102100F01DBAC4
:10386C007047F8B5064615460C468F18BC4206D074
:10387C00336830469B6814F8011B9847F6E72846D6
:10388C00F8BD0022007CFEF78BBD0021007CFEF70A
:10389C008FBD0021007CFEF793BD0021007CFEF75C
:1038AC0097BD0021007CFEF79BBD10B5044614218A
:1038BC0000F0F3F9204610BD10B54FF47A730446AE
:1038CC0008460021C4E90113034B11462360207400
:1038DC00FEF796FD204610BD14680A0800224068C9
:1038EC001146FEF755BEF0B5154689B011220E46AD
:1038FC000446002103A801F0B9FB284601F00FFC97
:10390C00002781B273682846009703AAFEF7CAFD08
:10391C0030B139462046FFF721FE204609B0F0BDF4
:10392C00204603A9FFF708FEF7E70022406811467E
:10393C00FEF74EBE002240681146FEF771BE002213
:10394C004068FEF765BE0022406881F00101FEF779
:10395C0037BE002340681A461946FEF729BE0022DE
:10396C0040681146FEF704BE002202214068FEF7B3
:10397C0007BE002340681A46FEF7F2BD0422024B34
:10398C005A60024A1A607047000400203C680A081A
:10399C00002340681A46FEF7E3BD0022022140686E
:1039AC00FEF7EEBD002240681146FEF7E1BD002295
:1039BC0040681146FEF7ECBD002340681A461946D4
:1039CC00FEF7EEBD002340681A461946FEF7F0BD1F
:1039DC0000214068FEF72CBE00214068FEF730BE87
:1039EC000022406881F00101FEF7EABD0022406828
:1039FC00FEF70EBE002240681146FEF711BE0022F3
:103A0C0040681146FEF7E4BD70B515468EB004460D
:103A1C0008A8FFF783FD1122002103A801F026FB63
:103A2C000026284601F07BFB0A4B009681B25B68AE
:103A3C00284603AAFEF736FD30B131462046FFF783
:103A4C008DFD20460EB070BD204603A9FFF774FD16
:103A5C00F7E700BF00040020024B034A1A60002263
:103A6C005A6070470804002078680A0810B50446AC
:103A7C00806808B1FEF74CFC204610BD172870B5C5
:103A8C00044601D9002070BDA0F10D03022B0BD907
:103A9C00012826D800F0D4F80021007CFEF7A8FC01
:103AAC0080F00100C0B2EEE7134E3178BFF35B8FAC
:103ABC0011F001050FD13046FCF7EDFA58B129464B
:103ACC000E48FEF74DFE3046FCF7EAFA0C4A0D495B
:103ADC000A4800F0DDF8094B1878FEF7A3FC002823
:103AEC00D0D1123C012C05D8FFF764FE007CFEF708
:103AFC0047FCD5E70120C6E7100400201404002081
:103B0C0028010020793A0A08172838B504460D46D2
:103B1C000AD8FF2908D0FFF7B1FF28B12946204663
:103B2C00BDE83840FEF76CBB38BD38B504460D46D1
:103B3C00FEF76EFBFF2810D0062804D84D2323FA7D
:103B4C0000F0C30709D42046FFF798FF28B1294697
:103B5C002046BDE83840FEF763BB38BD10B50446BF
:103B6C00FEF756FB031FDBB2012B08D92046FFF7EB
:103B7C0085FF20B12046BDE81040FEF759BB002060
:103B8C0010BD10B5044609289CBF0A34A4B22046C7
:103B9C00FFF774FF50B103212046FEF729FB0328E1
:103BAC0004D12046BDE81040FEF75ABB002010BDE2
:103BBC00FEF75EBB10B5084C2378BFF35B8FDB07B9
:103BCC0008D42046FCF767FA20B1FEF771FB2046BB
:103BDC00FCF766FA014810BD2404002028040020DC
:103BEC00002313B5074C1A46194620460093FFF7DD
:103BFC00CBFC2046044A054902B0BDE8104000F059
:103C0C0047B800BF2C04002028010020E5340A0826
:103C1C00002370B5202543801423084E04460380EE
:103C2C00314685600561284600F039F83146606000
:103C3C00284600F034F8E060204670BDAC680A08F5
:103C4C0030B50F4D87B02978BFF35B8F11F00104AD
:103C5C0013D12846FCF71FFA78B101A8FFF7D8FF5B
:103C6C00214601AA0748FFF727FE2846FCF718FA59
:103C7C00054A0649034800F00BF8024807B030BD6E
:103C8C004404002048040020280100206D380A0854
:103C9C000B460146184601F0D7B8FCF7FAB9FCF709
:103CAC00F6B908B5FEF744FD81F0004102E000BF13
:103CBC0083F0004330B54FEA41044FEA430594EAE0
:103CCC00050F08BF90EA020F1FBF54EA000C55EA1B
:103CDC00020C7FEA645C7FEA655C00F0E2804FEAEC
:103CEC005454D4EB5555B8BF6D420CDD2C4480EACE
:103CFC00020281EA030382EA000083EA010180EAFE
:103D0C00020281EA0303362D88BF30BD11F0004F4B
:103D1C004FEA01314FF4801C4CEA113102D0404281
:103D2C0061EB410113F0004F4FEA03334CEA1333BC
:103D3C0002D0524263EB430394EA050F00F0A780D4
:103D4C00A4F10104D5F1200E0DDB02FA0EFC22FACF
:103D5C0005F2801841F1000103FA0EF2801843FAC3
:103D6C0005F359410EE0A5F120050EF1200E012AB4
:103D7C0003FA0EFC28BF4CF0020C43FA05F3C018F2
:103D8C0051EBE37101F0004507D54FF0000EDCF16B
:103D9C00000C7EEB00006EEB0101B1F5801F1BD314
:103DAC00B1F5001F0CD349085FEA30004FEA3C0C18
:103DBC0004F101044FEA445212F5800F80F09A800E
:103DCC00BCF1004F08BF5FEA500C50F1000041EB12
:103DDC00045141EA050130BD5FEA4C0C404141EB16
:103DEC000101013C28BFB1F5801FE9D291F0000F11
:103DFC0004BF01460020B1FA81F308BF2033A3F1C0
:103E0C000B03B3F120020CDA0C3208DD02F1140CB6
:103E1C00C2F10C0201FA0CF021FA02F10CE002F1F1
:103E2C001402D8BFC2F1200C01FA02F120FA0CFCEA
:103E3C00DCBF41EA0C019040E41AA2BF01EB045133
:103E4C00294330BD6FEA04041F3C1CDA0C340EDC31
:103E5C0004F11404C4F1200220FA04F001FA02F374
:103E6C0040EA030021FA04F345EA030130BDC4F132
:103E7C000C04C4F1200220FA02F001FA04F340EA27
:103E8C000300294630BD21FA04F0294630BD94F0D8
:103E9C00000F83F4801306BF81F480110134013DBF
:103EAC004EE77FEA645C18BF7FEA655C29D094EA30
:103EBC00050F08BF90EA020F05D054EA000C04BFAE
:103ECC001946104630BD91EA030F1EBF0021002099
:103EDC0030BD5FEA545C05D14000494128BF41F038
:103EEC00004130BD14F580043CBF01F5801130BD9C
:103EFC0001F0004545F0FE4141F470014FF0000027
:103F0C0030BD7FEA645C1ABF194610467FEA655CD7
:103F1C001CBF0B46024650EA013406BF52EA033579
:103F2C0091EA030F41F4002130BD00BF90F0000F67
:103F3C0004BF0021704730B54FF4806404F13204A3
:103F4C004FF000054FF0000150E700BF90F0000F5C
:103F5C0004BF0021704730B54FF4806404F1320483
:103F6C0010F0004548BF40424FF000013EE700BF53
:103F7C0042004FEAE2014FEA31014FEA02701FBFE3
:103F8C0012F07F4393F07F4F81F06051704732F015
:103F9C007F4208BF704793F07F4F04BF41F400216C
:103FAC00704730B54FF4607401F0004521F00041CA
:103FBC001CE700BF50EA010208BF704730B54FF054
:103FCC0000050AE050EA010208BF704730B511F055
:103FDC00004502D5404261EB41014FF4806404F18D
:103FEC0032045FEA915C3FF4D8AE4FF003025FEA13
:103FFC00DC0C18BF03325FEADC0C18BF033202EB97
:10400C00DC02C2F1200300FA03FC20FA02F001FAF0
:10401C0003FE40EA0E0021FA02F11444BDE600BF93
:10402C0070B54FF0FF0C4CF4E06C1CEA11541DBF42
:10403C001CEA135594EA0C0F95EA0C0F00F0DEF80D
:10404C002C4481EA030621EA4C5123EA4C5350EAF2
:10405C00013518BF52EA033541F4801143F4801343
:10406C0038D0A0FB02CE4FF00005E1FB02E506F0D4
:10407C000042E0FB03E54FF00006E1FB03569CF029
:10408C00000F18BF4EF0010EA4F1FF04B6F5007F2F
:10409C0064F5407404D25FEA4E0E6D4146EB0606A1
:1040AC0042EAC62141EA55514FEAC52040EA5E502A
:1040BC004FEACE2EB4F1FD0C88BFBCF5E06F1ED8D4
:1040CC00BEF1004F08BF5FEA500E50F1000041EB0B
:1040DC00045170BD06F0004646EA010140EA0200B8
:1040EC0081EA0301B4EB5C04C2BFD4EB0C0541EADA
:1040FC00045170BD41F480114FF0000E013C00F3EF
:10410C00AB8014F1360FDEBF002001F0004170BD12
:10411C00C4F10004203C35DA0C341BDC04F114042B
:10412C00C4F1200500FA05F320FA04F001FA05F2B7
:10413C0040EA020001F0004221F0004110EBD37084
:10414C0021FA04F642EB06015EEA430E08BF20EAB0
:10415C00D37070BDC4F10C04C4F1200500FA04F353
:10416C0020FA05F001FA04F240EA020001F00041E5
:10417C0010EBD37041F100015EEA430E08BF20EA58
:10418C00D37070BDC4F1200500FA05F24EEA020EA0
:10419C0020FA04F301FA05F243EA020321FA04F0CF
:1041AC0001F0004121FA04F220EA020000EBD37086
:1041BC005EEA430E08BF20EAD37070BD94F0000F86
:1041CC000FD101F00046400041EB010111F4801FBA
:1041DC0008BF013CF7D041EA060195F0000F18BF6B
:1041EC00704703F00046520043EB030313F4801FA7
:1041FC0008BF013DF7D043EA0603704794EA0C0F61
:10420C000CEA135518BF95EA0C0F0CD050EA410676
:10421C0018BF52EA4306D1D181EA030101F00041F3
:10422C004FF0000070BD50EA410606BF104619461B
:10423C0052EA430619D094EA0C0F02D150EA013627
:10424C0013D195EA0C0F05D152EA03361CBF104668
:10425C0019460AD181EA030101F0004141F0FE4107
:10426C0041F470014FF0000070BD41F0FE4141F48B
:10427C00780170BD70B54FF0FF0C4CF4E06C1CEA8B
:10428C0011541DBF1CEA135594EA0C0F95EA0C0F40
:10429C0000F0A7F8A4EB050481EA030E52EA0335FB
:1042AC004FEA013100F088804FEA03334FF080551C
:1042BC0045EA131343EA12634FEA022245EA111549
:1042CC0045EA10654FEA00260EF000419D4208BFFA
:1042DC00964244F1FD0404F5407402D25B084FEAA7
:1042EC003202B61A65EB03055B084FEA32024FF453
:1042FC0080104FF4002CB6EB020E75EB030E22BFB0
:10430C00B61A754640EA0C005B084FEA3202B6EB6F
:10431C00020E75EB030E22BFB61A754640EA5C001E
:10432C005B084FEA3202B6EB020E75EB030E22BFAE
:10433C00B61A754640EA9C005B084FEA3202B6EBAF
:10434C00020E75EB030E22BFB61A754640EADC006E
:10435C0055EA060E18D04FEA051545EA16754FEAD0
:10436C0006164FEAC30343EA52734FEAC2025FEAEE
:10437C001C1CC0D111F4801F0BD141EA00014FF07D
:10438C0000004FF0004CB6E711F4801F04BF01434E
:10439C000020B4F1FD0C88BFBCF5E06F3FF6AFAE6A
:1043AC00B5EB030C04BFB6EB020C5FEA500C50F1FA
:1043BC00000041EB045170BD0EF0004E4EEA11317D
:1043CC0014EB5C04C2BFD4EB0C0541EA045170BD84
:1043DC0041F480114FF0000E013C90E645EA060EC8
:1043EC008DE60CEA135594EA0C0F08BF95EA0C0FF6
:1043FC003FF43BAF94EA0C0F0AD150EA01347FF43E
:10440C0034AF95EA0C0F7FF425AF104619462CE714
:10441C0095EA0C0F06D152EA03353FF4FDAE104677
:10442C00194622E750EA410618BF52EA43067FF4C8
:10443C00C5AE50EA41047FF40DAF52EA43057FF458
:10444C00EBAE12E74A0011D212F5001211D20DD5C3
:10445C006FF47873B3EB62520ED44FEAC12343F07E
:10446C00004343EA505323FA02F070474FF0000028
:10447C00704750EA013002D14FF0FF3070474FF0D7
:10448C00000070474FEA4102B2F1E04324BFB3F59C
:10449C00001CDCF1FE5C0DD901F0004C4FEAC002AF
:1044AC004CEA5070B2F1004F40EB830008BF20F093
:1044BC000100704711F0804F21D113F13872BCBF4D
:1044CC0001F00040704741F480114FEA5252C2F1A2
:1044DC001802C2F1200C10FA0CF320FA02F018BFEB
:1044EC0040F001004FEAC1234FEAD32303FA0CFC3E
:1044FC0040EA0C0023FA02F34FEA4303CCE77FEACD
:10450C00625307D150EA01331EBF4FF0FE4040F416
:10451C004000704701F0004040F0FE4040F40000C5
:10452C00704700BF80F0004002E000BF81F0004106
:10453C0042001FBF5FEA410392EA030F7FEA226C3D
:10454C007FEA236C6AD04FEA1262D2EB1363C1BFCD
:10455C00D218414048404140B8BF5B42192B88BF3C
:10456C00704710F0004F40F4000020F07F4018BF5F
:10457C00404211F0004F41F4000121F07F4118BF7F
:10458C00494292EA030F3FD0A2F1010241FA03FC27
:10459C0010EB0C00C3F1200301FA03F100F000430F
:1045AC0002D5494260EB4000B0F5000F13D3B0F1D7
:1045BC00807F06D340084FEA310102F10102FE2A46
:1045CC0051D2B1F1004F40EBC25008BF20F00100B6
:1045DC0040EA03007047490040EB0000013A28BF55
:1045EC00B0F5000FEDD2B0FA80FCACF1080CB2EBD8
:1045FC000C0200FA0CF0AABF00EBC2505242184356
:10460C00BCBFD0401843704792F0000F81F40001FA
:10461C0006BF80F400000132013BB5E74FEA4103CD
:10462C007FEA226C18BF7FEA236C21D092EA030F39
:10463C0004D092F0000F08BF0846704790EA010FB3
:10464C001CBF0020704712F07F4F04D1400028BFE0
:10465C0040F00040704712F100723CBF00F50000C2
:10466C00704700F0004343F0FE4040F400007047F8
:10467C007FEA226216BF08467FEA236301464202A4
:10468C0006BF5FEA412390EA010F40F480007047B7
:10469C004FF0000304E000BF10F0004348BF40425D
:1046AC005FEA000C08BF704743F0964301464FF099
:1046BC0000001CE050EA010208BF70474FF00003F5
:1046CC000AE000BF50EA010208BF704711F0004336
:1046DC0002D5404261EB41015FEA010C02BF844606
:1046EC000146002043F0B64308BFA3F18053A3F565
:1046FC000003BCFA8CF2083AA3EBC25310DB01FAAC
:10470C0002FC634400FA02FCC2F12002BCF1004F2F
:10471C0020FA02F243EB020008BF20F001007047C0
:10472C0002F1200201FA02FCC2F1200250EA4C0014
:10473C0021FA02F243EB020008BF20EADC7070475A
:10474C004FF0FF0C1CEAD0521EBF1CEAD15392EA68
:10475C000C0F93EA0C0F6FD01A4480EA010C400244
:10476C0018BF5FEA41211ED04FF0006343EA50109E
:10477C0043EA5111A0FB01310CF00040B1F5000FE0
:10478C003EBF490041EAD3715B0040EA010062F18F
:10479C007F02FD2A1DD8B3F1004F40EBC25008BF79
:1047AC0020F00100704790F0000F0CF0004C08BF97
:1047BC0049024CEA502040EA51207F3AC2BFD2F164
:1047CC00FF0340EAC250704740F400004FF0000372
:1047DC00013A5DDC12F1190FDCBF00F000407047AC
:1047EC00C2F10002410021FA02F1C2F1200200FAEA
:1047FC0002FC5FEA310040F1000053EA4C0308BFB1
:10480C0020EADC70704792F0000F00F0004C02BF01
:10481C00400010F4000F013AF9D040EA0C0093F07C
:10482C00000F01F0004C02BF490011F4000F013BD6
:10483C00F9D041EA0C018FE70CEAD15392EA0C0F44
:10484C0018BF93EA0C0F0AD030F0004C18BF31F0AF
:10485C00004CD8D180EA010000F00040704790F085
:10486C00000F17BF90F0004F084691F0000F91F029
:10487C00004F14D092EA0C0F01D142020FD193EAEF
:10488C000C0F03D14B0218BF084608D180EA010077
:10489C0000F0004040F0FE4040F40000704740F053
:1048AC00FE4040F4400070474FF0FF0C1CEAD05221
:1048BC001EBF1CEAD15392EA0C0F93EA0C0F69D07D
:1048CC00A2EB030280EA010C49024FEA402037D0E8
:1048DC004FF0805343EA111143EA10130CF00040DF
:1048EC008B4238BF5B0042F17D024FF4000C8B42CF
:1048FC0024BF5B1A40EA0C00B3EB510F24BFA3EBAF
:10490C00510340EA5C00B3EB910F24BFA3EB91037E
:10491C0040EA9C00B3EBD10F24BFA3EBD10340EAD8
:10492C00DC001B0118BF5FEA1C1CE0D1FD2A3FF61E
:10493C0050AF8B4240EBC25008BF20F001007047D3
:10494C000CF0004C4CEA50207F32C2BFD2F1FF0376
:10495C0040EAC250704740F400004FF00003013AA7
:10496C0037E792F0000F00F0004C02BF400010F44B
:10497C00000F013AF9D040EA0C0093F0000F01F05F
:10498C00004C02BF490011F4000F013BF9D041EA81
:10499C000C0195E70CEAD15392EA0C0F08D14202B4
:1049AC007FF47DAF93EA0C0F7FF470AF084676E787
:1049BC0093EA0C0F04D14B023FF44CAF08466EE760
:1049CC0030F0004C18BF31F0004CCAD130F000422E
:1049DC007FF45CAF31F000437FF43CAF5FE700BF86
:1049EC004FF0FF3C06E000BF4FF0010C02E000BFAF
:1049FC004FF0010C4DF804CD4FEA40024FEA410351
:104A0C007FEA226C18BF7FEA236C11D001B052EA06
:104A1C00530C18BF90EA010F58BFB2EB030088BFCC
:104A2C00C81738BF6FEAE17018BF40F0010070473B
:104A3C007FEA226C02D15FEA402C05D17FEA236C1D
:104A4C00E4D15FEA412CE1D05DF8040B704700BF64
:104A5C00844608466146FFE70FB5FFF7C9FF0028FB
:104A6C0048BF10F1000F0FBD4DF808EDFFF7F4FF34
:104A7C000CBF012000205DF808FB00BF4DF808EDCD
:104A8C00FFF7EAFF34BF012000205DF808FB00BFF0
:104A9C004DF808EDFFF7E0FF94BF012000205DF812
:104AAC0008FB00BF4DF808EDFFF7D2FF94BF0120C3
:104ABC0000205DF808FB00BF4DF808EDFFF7C8FFBC
:104ACC0034BF012000205DF808FB00BF4FEA400214
:104ADC00B2F1FE4F0FD34FF09E03B3EB12620DD920
:104AEC004FEA002343F0004310F0004F23FA02F08A
:104AFC0018BF404270474FF00000704712F1610F31
:104B0C0001D1420205D110F0004008BF6FF0004007
:104B1C0070474FF00000704710B500210446FFF7B6
:104B2C00ADFF20B92046BDE8104000F009B804F1F3
:104B3C00004000F005F8404261EB410110BD00BFA0
:104B4C00D0B5FFF715FA00220B4B06460F46FFF7C0
:104B5C0067FAFFF777FC0446FFF7E8F90022074BEA
:104B6C00FFF75EFA02460B4630463946FFF7A0F8CF
:104B7C00FFF768FC2146D0BD0000F03D0000F0417D
:104B8C002DE9F047089E0D4604468E46002B40F05A
:104B9C0083808A42174647D9B2FA82F34BB1C3F1EC
:104BAC00200105FA03FE20FA01F19F4041EA0E0EA6
:104BBC009C404FEA1748BEFBF8FC1FFA87F908FB2C
:104BCC001CE20CFB09F0210C41EA024290420AD98A
:104BDC00BA180CF1FF3180F01881904240F2158127
:104BEC00ACF1020C3A44121AB2FBF8F008FB10229A
:104BFC0000FB09F1A4B244EA0244A14209D93C19D0
:104C0C0000F1FF3280F00381A14240F200810238B2
:104C1C003C44641A002140EA0C401EB10022DC40E6
:104C2C00C6E90042BDE8F08702B9FFDEB2FA82F3B2
:104C3C00002B4FD18D1A01214FEA124E1FFA82F828
:104C4C00B5FBFEFC0EFB1C5508FB0CF0220C42EADB
:104C5C000545A84207D97D190CF1FF3202D2A842B2
:104C6C0000F2E98094462D1AB5FBFEF00EFB1055B0
:104C7C0008FB00F8A4B244EA0544A04507D93C1946
:104C8C0000F1FF3202D2A04500F2D9801046A4EB0D
:104C9C00080440EA0C40C0E78B4208D9002E00F013
:104CAC00B1800021C6E900050846BDE8F087B3FADB
:104CBC0083F100294BD1AB4202D3824200F2B9807E
:104CCC00841A65EB030301209E46002EAAD0C6E988
:104CDC00004EA7E79F40C3F12002D1404FEA174E88
:104CEC00B1FBFEF01FFA87F80EFB101124FA02F24A
:104CFC009D4000FB08FC2A43150C45EA0145AC45D8
:104D0C0004FA03F409D97D1900F1FF3180F08F808A
:104D1C00AC4540F28C8002383D44A5EB0C05B5FB4C
:104D2C00FEF10EFB115C01FB08F995B245EA0C454E
:104D3C00A94507D97D1901F1FF3274D2A94572D961
:104D4C0002393D44A5EB090541EA004178E7C1F180
:104D5C0020078B4022FA07FC4CEA030C25FA07F4D7
:104D6C004FEA1C4EB4FBFEF91FFA8CF80EFB1944EB
:104D7C0020FA07F309FB08FA8D401D432B0C43EA7C
:104D8C000444A24502FA01F200FA01F309D91CEB22
:104D9C00040409F1FF3048D2A24546D9A9F1020911
:104DAC006444A4EB0A04B4FBFEF00EFB104400FBBD
:104DBC0008FAADB245EA0444A24508D91CEB040438
:104DCC0000F1FF352DD2A2452BD90238644440EABC
:104DDC000940A0FB0289A4EB0A044C45C6464D468B
:104DEC0019D316D05EB1B3EB0E0264EB050404FAD2
:104DFC0007F722FA01F31F43CC40C6E900740021E7
:104E0C00BDE8F087314630460CE78C46EBE61046A1
:104E1C00FFE64345E6D2B8EB020E69EB0C05013810
:104E2C00E0E72846D3E711468CE78146B9E7084608
:104E3C0073E7084649E7ACF1020C3D4413E702382E
:104E4C003C4424E7704700BF10B5044604481346A1
:104E5C0020B10A4602202146AFF3008010BD00BFEE
:104E6C00000000002DE9F0410C46074600F074FCF0
:104E7C0021468046384600F073FC436904469A0785
:104E8C0003F26C7605D1642296FBF2F302FB1363FA
:104E9C007BBB4FF4C87396FBF3F503FB1565B5FAB2
:104EAC0085F56D093022684B02FB053500F080FA60
:104EBC0000F08AFA654B1B6853B3D8F80430B34240
:104ECC0019D1D7E90067D8E90823D8F80010D1B96F
:104EDC00964277EB030323DAD8E91223964277EB59
:104EEC000303B4BF0123002323621BDBD8F8281073
:104EFC001AE00125D6E7304600F0B2F90028E0D1DF
:104F0C004FF0FF3304E0964277EB030302DA002301
:104F1C002362EBE7D8E91223964277EB0303F6DA28
:104F2C0001232362D8F850104FF4616391FBF3F620
:104F3C003C2003FB161393FBF0F200FB123061686C
:104F4C002368891AA2681B1A921B3B2B2360616091
:104F5C00A26034DD013161603C3B236063683B2B14
:104F6C0033DD0132A2603C3B6360A368172B32DD5A
:104F7C00E269183B0132E261A269A3600132062AA0
:104F8C00C8BF0022A261E26823690132E26055F8D1
:104F9C0023108A420EDD0B2BA2EB0102E26003F11F
:104FAC00010205BF002263692261013302BF226145
:104FBC006361E26100F002FA2046BDE8F081002B4B
:104FCC00CCDA013961603C33C7E7002BCDDA013A0A
:104FDC00A2603C33C8E7002BECDAE2691833013AE3
:104FEC00E261A269A360013A48BF0622A261E268AD
:104FFC00013AE260002ADDD12369013B05D423612B
:10500C00236955F82330E360D4E70B2323616369EC
:10501C005A1E626103F26B72930705D1642192FBF5
:10502C00F1F301FB132363B94FF4C87192FBF1F355
:10503C0001FB1323B3FA83F35B0903F5B673E36146
:10504C00DEE70123F9E700BFB0680A087804002006
:10505C000A44914200F1FF3300D1704710B511F8AA
:10506C00014B914203F8014FF9D110BD03460244A4
:10507C00934200D1704703F8011BF9E738B50D4B8B
:10508C0004461D68AB6B7BB91820FDF721FB0A4A5F
:10509C000A4BA863C0E90023094B012283600B2350
:1050AC0083810023C0E904230022AB6B1C615A618D
:1050BC0038BD00BF5C0000200E33CDAB34126DE662
:1050CC00ECDE050010F8012B11F8013B012A28BF7A
:1050DC009A42F7D0D01A7047034611F8012B03F807
:1050EC00012B002AF9D17047024B0146186800F0D9
:1050FC0003B800BF5C00002070B5044608460D469E
:10510C0000F00DF8461C31462046FDF719FB04460D
:10511C0018B132462946FFF79BFF204670BD034667
:10512C0013F8012B002AFBD1181A0138704710B55F
:10513C006AB10139841810F8013B11F8012F934220
:10514C0003D1A04201D0002BF5D1981A10BD104606
:10515C00FCE700002DE9F0438C4686463A4E60464B
:10516C001CF8014BA55D15F00805F8D12D2C34D198
:10517C004FF001089CF8004000F1020C002B5ED0AF
:10518C00102B0CD1302C0AD19CF8000000F0DF0061
:10519C0058284FD110239CF801400CF1020C4FF011
:1051AC00FF37B7FBF3F7002503FB07F928466FEA37
:1051BC000909A4F13006092E18D83446A34224DD7F
:1051CC00002D1FDB87421DD301D1A1451ADB012520
:1051DC0000FB03401CF8014BEBE72B2C08BF9CF8A1
:1051EC000040A84608BF00F1020CC7E7A4F1410635
:1051FC00192E01D8373CE1E7A4F16106192E04D829
:10520C00573CDBE74FF0FF35E4E7002D07DA2223AC
:10521C004FF0FF30CEF8003042B9BDE8F083B8F162
:10522C00000F00D04042002AF7D00DB10CF1FF3135
:10523C001160F2E73024002BB1D10823AFE7302CFA
:10524C00A2D00A23ABE700BF4D690A0813460A46F1
:10525C00014602480068FFF77DBF00BF5C000020DC
:10526C002DE9F74F804600F077FA40F2B17398457C
:10527C0040F397806FF4F66340F26D1243449B1039
:10528C00A8F2B27502FB05356FF06302A8F26D73DC
:10529C0093FBF2F36FF4C8621D444FF4C87342449D
:1052AC00B2FBF3F298FBF3F71544642203FB178768
:1052BC0098FBF2F6B7FA87FC04464FF0070E02FB98
:1052CC00168608F00303C0F804804FEA5C1C00F15A
:1052DC00500B0093227A63694A2A28D10099EA1864
:1052EC0001B906B90FBB3B2BD4BF002301231344D8
:1052FC005A1EA3692C49283401FB0232236813443B
:10530C001A46DB1744E90223A345E3D1D0E908454B
:10531C00D0E91223944275EB0303B4BF012300239D
:10532C000360012003B0BDE8F08F0023DFE7442ABF
:10533C0001D1EA18DDE7009A6ABB002E0CBFE046EB
:10534C004FF001084FF0300AE2684FF0000901926B
:10535C002A4616490AFB0818A8F10408019909F114
:10536C000109494558F829A017DC02F1040898FBFB
:10537C00FEF9C9EBC909A8EB0909B3EB09092369C3
:10538C0048BF09F10709013BC3EBC3034B44534529
:10539C0005DA1A44ADE7E046D4E75244DEE7073BB2
:1053AC00F5E70020BEE700BF80510100B0680A0895
:1053BC00014800F085BA00BF8B040020014800F0C2
:1053CC0081BA00BF8B040020014B186800F002B8B2
:1053DC005C0000202DE9F04F8DB0074600F0BCF9C1
:1053EC00B0490546384600F0AFF9AF4E044670B9E7
:1053FC00AE4BAF4A1860AF4B1860AF4B3068C3E987
:10540C000022FDF76DF934600DB0BDE8F08F316806
:10541C0000295FD13068FDF763F92046FFF77FFE66
:10542C00411C3846FDF78CF93060002857D12378A1
:10543C000AAE3A2B08BF0134334620469F4AA04996
:10544C00FDF766F90028DFDD0A9BE718E35C2D2BDE
:10545C0049D14FF0FF3401374FF000080DF1200A0D
:10546C000DF11E0B33463846CDE9016A954903967A
:10547C00CDF800B007AAADF81E80ADF82080FDF77E
:10548C0047F94045C0DD3C21BDF81E30BDF8202059
:10549C00DFF83C9201FB03224FF46161BDF81C3034
:1054AC0001FB03235C43854BAC62834C4A4623606F
:1054BC000A9B83491F4438463346FDF729F940457A
:1054CC0017DC2368AA6A6360784B1A60794BC3F8BF
:1054DC00008099E7FFF7F6FD00289BD194E7214661
:1054EC00FFF7FAFDA3E72B2B4FF0010408BF0137A0
:1054FC00B2E70A9BC4F80490FC18FB5C2D2B40F01F
:10550C008C804FF0FF37013400232046ADF81C305F
:10551C00ADF81E30ADF820300A93CDE902A6334623
:10552C00CDE900B6674907AAFDF7F2F800287ADC46
:10553C00AF6AA7F561672F654FF000092F460A9BEC
:10554C001C4423782C2B08BF013494F80080B8F14C
:10555C004D0F7AD10DF12603CDE9016309AB009310
:10556C0020463346584903960DF12202FDF7D0F838
:10557C0003287FF449AFBDF822104B1E0B2B3FF6CE
:10558C0043AFBDF82420531E042B3FF63DAFBDF8AE
:10559C002630062B3FF638AFC7E9031287F8088090
:1055AC007B610A9B04EB03080223ADF81C3000233B
:1055BC00ADF81E30ADF820300A9398F800302F2B40
:1055CC0009D133464046CDE902A6CDE900B63F49A4
:1055DC0007AAFDF79DF83C21BDF81E30BDF8202030
:1055EC00283701FB03224FF46161BDF81C3001FB2D
:1055FC00032347F8103C0A9C4444B9F1000F21D016
:10560C006868FFF72DFEAA6A284B1A602B6D9B1A4F
:10561C0018BF0123274A1360F6E62B2B4FF0010726
:10562C0008BF013470E73C21BDF81E30BDF82020C6
:10563C0001FB03224FF46161BDF81C3001FB032315
:10564C005F4378E74FF001097BE7B8F14A0F0ABFD7
:10565C004346442301340A2220460BA90593FFF745
:10566C00F5FDDDF82C80059BA045ADF8260014D186
:10567C004D23B9F1000F07D103212B720223C5F87A
:10568C001490C5E903138FE70B2285F83030012302
:10569C00C5E90D230023EB6386E780B23B7278618A
:1056AC0082E700BF10690A08740400207C04002003
:1056BC0013690A0878040020C00000206704002049
:1056CC0017690A083A690A0826690A0839690A0832
:1056DC005C0400202DE9F84F07468946164600F079
:1056EC00F3F8184B1C689A4634B14B46984613F89D
:1056FC00011B39B13D29F9D1384600F0EBF80020F7
:10570C00BDE8F88FA8EB0908A34654F8040B002851
:10571C00F2D042464946FFF70AFD0028F4D154F86E
:10572C00043C03EB080513F808303D2BECD1DAF8F8
:10573C0000303846ABEB03039B10336000F0CAF823
:10574C00681CDDE72001002007B501AAFFF7C2FFA6
:10575C0003B05DF804FB000000487047C80000204F
:10576C002DE9F041D0E900670C460023304639465C
:10577C004F4A00F0B5F839460546002330464C4AEE
:10578C0000F0AEF84FF46161002ABCBF02F5A832FC
:10579C0002F5C072B2FBF1F301FB13224FF03C0196
:1057AC00A360B2FBF1F301FB132222604FF007025E
:1057BC0005F52F20ACBF00F66C2000F66B20636063
:1057CC00C31C93FBF2F2C2EBC2029B1A48BF073315
:1057DC0000283849A361BDBFA0F50E33A3F52C7387
:1057EC0093FBF1F190FBF1F148F6AC6240F2B45C42
:1057FC00314B40F26D1703FB0100B0FBF2F2B0FB32
:10580C00FCF30244D21A2D4B6426B0FBF3F3D31AEB
:10581C00B3FBF7F5B3FBFCF3B5FBF6F2D31A034479
:10582C00992007FB153303EB830C0CF1020CBCFB2A
:10583C00F0F74FF0050878430230B0FBF8F003F1B5
:10584C00010EAEEB000040F2F95EF44594BF4FF050
:10585C00020C6FF0090C67444FF4C87C0CFB01512F
:10586C00012F98BF0131B3F5997F0CD3A3F5997330
:10587C00E3610023A1F26C71E060C4E9047120467D
:10588C002362BDE8F08115F0030F02D106FB125222
:10589C005AB94FF4C876B5FBF6F206FB1252B2FABF
:1058AC0082F252093B331344E2E70122FAE700BFCC
:1058BC0080510100B13A02004FC5FDFFB03A020021
:1058CC0070477047704770470148FFF7FABF00BF39
:1058DC008A0400200148FFF7F6BF00BF8A040020AD
:1058EC007BB972B90029BEBF00204FF0004106E021
:1058FC0008BF00281CBF6FF000414FF0FF30FFF7CE
:10590C00A1BAADF1080C6DE904CE002909DB002B1E
:10591C001ADBFFF735F9DDF804E0DDE9022304B00A
:10592C007047404261EB4101002B1BDBFFF728F96C
:10593C00DDF804E0DDE9022304B0404261EB4101F3
:10594C00524263EB43037047524263EB4303FFF74E
:10595C0017F9DDF804E0DDE9022304B0404261EB05
:10596C0041017047524263EB4303FFF709F9DDF83D
:10597C0004E0DDE9022304B0524263EB43037047B9
:10598C001D000A085D000A0885000A0889000A083B
:10599C0000000000232323205741524E494E47203C
:1059AC003A206E6F7420636F6E6E6563746564204D
:1059BC00746F20636C6F75642E2063616E6E6F74F0
:1059CC0020777269746520746F2064617461626100
:1059DC007365007B22737461747573223A2225738C
:1059EC00222C2274696D65223A22252E32643A25C6
:1059FC002E32643A252E3264222C22646174652284
:105A0C003A22252E32642E252E32642E252E326417
:105A1C00222C226C756566746572223A2250484FAE
:105A2C00544F4E222C226F7074696F6E223A2225CD
:105A3C0073227D007761737365727374616E640099
:105A4C007B22737461747573223A222573222C2283
:105A5C0074696D65223A22252E32643A252E326401
:105A6C003A252E3264222C2264617465223A222556
:105A7C002E32642E252E32642E252E3264222C22B8
:105A8C006C756566746572223A2250484F544F4EBD
:105A9C00222C226F7074696F6E223A222573202596
:105AAC003264227D00202573202564200050554D42
:105ABC005045204D41494E20434F554E54444F576D
:105ACC004E204E4F572000636F6E74726F6C002027
